{
	"proposal/ProposalContract.sol": {
		"ProposalContract": {
			"abi": [
				{
					"inputs": [],
					"stateMutability": "nonpayable",
					"type": "constructor"
				},
				{
					"inputs": [
						{
							"internalType": "string",
							"name": "_title",
							"type": "string"
						},
						{
							"internalType": "string",
							"name": "_description",
							"type": "string"
						},
						{
							"internalType": "uint256",
							"name": "_total_vote_to_end",
							"type": "uint256"
						}
					],
					"name": "create",
					"outputs": [],
					"stateMutability": "nonpayable",
					"type": "function"
				},
				{
					"inputs": [],
					"name": "getCurrentProposal",
					"outputs": [
						{
							"components": [
								{
									"internalType": "string",
									"name": "title",
									"type": "string"
								},
								{
									"internalType": "string",
									"name": "description",
									"type": "string"
								},
								{
									"internalType": "uint256",
									"name": "approve",
									"type": "uint256"
								},
								{
									"internalType": "uint256",
									"name": "reject",
									"type": "uint256"
								},
								{
									"internalType": "uint256",
									"name": "pass",
									"type": "uint256"
								},
								{
									"internalType": "uint256",
									"name": "total_vote_to_end",
									"type": "uint256"
								},
								{
									"internalType": "bool",
									"name": "current_state",
									"type": "bool"
								},
								{
									"internalType": "bool",
									"name": "is_active",
									"type": "bool"
								}
							],
							"internalType": "struct ProposalContract.Proposal",
							"name": "",
							"type": "tuple"
						}
					],
					"stateMutability": "view",
					"type": "function"
				},
				{
					"inputs": [
						{
							"internalType": "uint256",
							"name": "number",
							"type": "uint256"
						}
					],
					"name": "getProposal",
					"outputs": [
						{
							"components": [
								{
									"internalType": "string",
									"name": "title",
									"type": "string"
								},
								{
									"internalType": "string",
									"name": "description",
									"type": "string"
								},
								{
									"internalType": "uint256",
									"name": "approve",
									"type": "uint256"
								},
								{
									"internalType": "uint256",
									"name": "reject",
									"type": "uint256"
								},
								{
									"internalType": "uint256",
									"name": "pass",
									"type": "uint256"
								},
								{
									"internalType": "uint256",
									"name": "total_vote_to_end",
									"type": "uint256"
								},
								{
									"internalType": "bool",
									"name": "current_state",
									"type": "bool"
								},
								{
									"internalType": "bool",
									"name": "is_active",
									"type": "bool"
								}
							],
							"internalType": "struct ProposalContract.Proposal",
							"name": "",
							"type": "tuple"
						}
					],
					"stateMutability": "view",
					"type": "function"
				},
				{
					"inputs": [
						{
							"internalType": "address",
							"name": "new_owner",
							"type": "address"
						}
					],
					"name": "setOwner",
					"outputs": [],
					"stateMutability": "nonpayable",
					"type": "function"
				},
				{
					"inputs": [],
					"name": "terminateProposal",
					"outputs": [],
					"stateMutability": "nonpayable",
					"type": "function"
				},
				{
					"inputs": [
						{
							"internalType": "uint8",
							"name": "choice",
							"type": "uint8"
						}
					],
					"name": "vote",
					"outputs": [],
					"stateMutability": "nonpayable",
					"type": "function"
				}
			],
			"devdoc": {
				"kind": "dev",
				"methods": {},
				"version": 1
			},
			"evm": {
				"assembly": "    /* \"proposal/ProposalContract.sol\":57:3436  contract ProposalContract {... */\n  mstore(0x40, 0x80)\n    /* \"proposal/ProposalContract.sol\":854:945  constructor() {... */\n  callvalue\n  dup1\n  iszero\n  tag_1\n  jumpi\n  0x00\n  dup1\n  revert\ntag_1:\n  pop\n    /* \"proposal/ProposalContract.sol\":886:896  msg.sender */\n  caller\n    /* \"proposal/ProposalContract.sol\":878:883  owner */\n  0x00\n  dup1\n    /* \"proposal/ProposalContract.sol\":878:896  owner = msg.sender */\n  0x0100\n  exp\n  dup2\n  sload\n  dup2\n  0xffffffffffffffffffffffffffffffffffffffff\n  mul\n  not\n  and\n  swap1\n  dup4\n  0xffffffffffffffffffffffffffffffffffffffff\n  and\n  mul\n  or\n  swap1\n  sstore\n  pop\n    /* \"proposal/ProposalContract.sol\":906:921  voted_addresses */\n  0x02\n    /* \"proposal/ProposalContract.sol\":927:937  msg.sender */\n  caller\n    /* \"proposal/ProposalContract.sol\":906:938  voted_addresses.push(msg.sender) */\n  swap1\n  dup1\n  0x01\n  dup2\n  sload\n  add\n  dup1\n  dup3\n  sstore\n  dup1\n  swap2\n  pop\n  pop\n  0x01\n  swap1\n  sub\n  swap1\n  0x00\n  mstore\n  keccak256(0x00, 0x20)\n  add\n  0x00\n  swap1\n  swap2\n  swap1\n  swap2\n  swap1\n  swap2\n  0x0100\n  exp\n  dup2\n  sload\n  dup2\n  0xffffffffffffffffffffffffffffffffffffffff\n  mul\n  not\n  and\n  swap1\n  dup4\n  0xffffffffffffffffffffffffffffffffffffffff\n  and\n  mul\n  or\n  swap1\n  sstore\n  pop\n    /* \"proposal/ProposalContract.sol\":57:3436  contract ProposalContract {... */\n  dataSize(sub_0)\n  dup1\n  dataOffset(sub_0)\n  0x00\n  codecopy\n  0x00\n  return\nstop\n\nsub_0: assembly {\n        /* \"proposal/ProposalContract.sol\":57:3436  contract ProposalContract {... */\n      mstore(0x40, 0x80)\n      callvalue\n      dup1\n      iszero\n      tag_1\n      jumpi\n      0x00\n      dup1\n      revert\n    tag_1:\n      pop\n      jumpi(tag_2, lt(calldatasize, 0x04))\n      shr(0xe0, calldataload(0x00))\n      dup1\n      0x13af4035\n      eq\n      tag_3\n      jumpi\n      dup1\n      0x3ca6d100\n      eq\n      tag_4\n      jumpi\n      dup1\n      0x41ec6870\n      eq\n      tag_5\n      jumpi\n      dup1\n      0xb3f98adc\n      eq\n      tag_6\n      jumpi\n      dup1\n      0xc7f758a8\n      eq\n      tag_7\n      jumpi\n      dup1\n      0xdbddc7aa\n      eq\n      tag_8\n      jumpi\n    tag_2:\n      0x00\n      dup1\n      revert\n        /* \"proposal/ProposalContract.sol\":1347:1437  function setOwner(address new_owner) external onlyOwner {... */\n    tag_3:\n      tag_9\n      0x04\n      dup1\n      calldatasize\n      sub\n      dup2\n      add\n      swap1\n      tag_10\n      swap2\n      swap1\n      tag_11\n      jump\t// in\n    tag_10:\n      tag_12\n      jump\t// in\n    tag_9:\n      stop\n        /* \"proposal/ProposalContract.sol\":951:1341  function create(... */\n    tag_4:\n      tag_13\n      0x04\n      dup1\n      calldatasize\n      sub\n      dup2\n      add\n      swap1\n      tag_14\n      swap2\n      swap1\n      tag_15\n      jump\t// in\n    tag_14:\n      tag_16\n      jump\t// in\n    tag_13:\n      stop\n        /* \"proposal/ProposalContract.sol\":3156:3275  function getCurrentProposal() external view returns (Proposal memory) {... */\n    tag_5:\n      tag_17\n      tag_18\n      jump\t// in\n    tag_17:\n      mload(0x40)\n      tag_19\n      swap2\n      swap1\n      tag_20\n      jump\t// in\n    tag_19:\n      mload(0x40)\n      dup1\n      swap2\n      sub\n      swap1\n      return\n        /* \"proposal/ProposalContract.sol\":1443:2283  function vote(uint8 choice) external onlyActive {... */\n    tag_6:\n      tag_21\n      0x04\n      dup1\n      calldatasize\n      sub\n      dup2\n      add\n      swap1\n      tag_22\n      swap2\n      swap1\n      tag_23\n      jump\t// in\n    tag_22:\n      tag_24\n      jump\t// in\n    tag_21:\n      stop\n        /* \"proposal/ProposalContract.sol\":3281:3434  function getProposal(uint256 number)... */\n    tag_7:\n      tag_25\n      0x04\n      dup1\n      calldatasize\n      sub\n      dup2\n      add\n      swap1\n      tag_26\n      swap2\n      swap1\n      tag_27\n      jump\t// in\n    tag_26:\n      tag_28\n      jump\t// in\n    tag_25:\n      mload(0x40)\n      tag_29\n      swap2\n      swap1\n      tag_20\n      jump\t// in\n    tag_29:\n      mload(0x40)\n      dup1\n      swap2\n      sub\n      swap1\n      return\n        /* \"proposal/ProposalContract.sol\":3031:3150  function terminateProposal() external onlyOwner onlyActive {... */\n    tag_8:\n      tag_30\n      tag_31\n      jump\t// in\n    tag_30:\n      stop\n        /* \"proposal/ProposalContract.sol\":1347:1437  function setOwner(address new_owner) external onlyOwner {... */\n    tag_12:\n        /* \"proposal/ProposalContract.sol\":517:522  owner */\n      0x00\n      dup1\n      sload\n      swap1\n      0x0100\n      exp\n      swap1\n      div\n      0xffffffffffffffffffffffffffffffffffffffff\n      and\n        /* \"proposal/ProposalContract.sol\":503:522  msg.sender == owner */\n      0xffffffffffffffffffffffffffffffffffffffff\n      and\n        /* \"proposal/ProposalContract.sol\":503:513  msg.sender */\n      caller\n        /* \"proposal/ProposalContract.sol\":503:522  msg.sender == owner */\n      0xffffffffffffffffffffffffffffffffffffffff\n      and\n      eq\n        /* \"proposal/ProposalContract.sol\":495:541  require(msg.sender == owner, \"Only Owner can\") */\n      tag_33\n      jumpi\n      mload(0x40)\n      0x08c379a000000000000000000000000000000000000000000000000000000000\n      dup2\n      mstore\n      0x04\n      add\n      tag_34\n      swap1\n      tag_35\n      jump\t// in\n    tag_34:\n      mload(0x40)\n      dup1\n      swap2\n      sub\n      swap1\n      revert\n    tag_33:\n        /* \"proposal/ProposalContract.sol\":1421:1430  new_owner */\n      dup1\n        /* \"proposal/ProposalContract.sol\":1413:1418  owner */\n      0x00\n      dup1\n        /* \"proposal/ProposalContract.sol\":1413:1430  owner = new_owner */\n      0x0100\n      exp\n      dup2\n      sload\n      dup2\n      0xffffffffffffffffffffffffffffffffffffffff\n      mul\n      not\n      and\n      swap1\n      dup4\n      0xffffffffffffffffffffffffffffffffffffffff\n      and\n      mul\n      or\n      swap1\n      sstore\n      pop\n        /* \"proposal/ProposalContract.sol\":1347:1437  function setOwner(address new_owner) external onlyOwner {... */\n      pop\n      jump\t// out\n        /* \"proposal/ProposalContract.sol\":951:1341  function create(... */\n    tag_16:\n        /* \"proposal/ProposalContract.sol\":517:522  owner */\n      0x00\n      dup1\n      sload\n      swap1\n      0x0100\n      exp\n      swap1\n      div\n      0xffffffffffffffffffffffffffffffffffffffff\n      and\n        /* \"proposal/ProposalContract.sol\":503:522  msg.sender == owner */\n      0xffffffffffffffffffffffffffffffffffffffff\n      and\n        /* \"proposal/ProposalContract.sol\":503:513  msg.sender */\n      caller\n        /* \"proposal/ProposalContract.sol\":503:522  msg.sender == owner */\n      0xffffffffffffffffffffffffffffffffffffffff\n      and\n      eq\n        /* \"proposal/ProposalContract.sol\":495:541  require(msg.sender == owner, \"Only Owner can\") */\n      tag_38\n      jumpi\n      mload(0x40)\n      0x08c379a000000000000000000000000000000000000000000000000000000000\n      dup2\n      mstore\n      0x04\n      add\n      tag_39\n      swap1\n      tag_35\n      jump\t// in\n    tag_39:\n      mload(0x40)\n      dup1\n      swap2\n      sub\n      swap1\n      revert\n    tag_38:\n        /* \"proposal/ProposalContract.sol\":1117:1118  1 */\n      0x01\n        /* \"proposal/ProposalContract.sol\":1106:1113  counter */\n      dup1\n      0x00\n        /* \"proposal/ProposalContract.sol\":1106:1118  counter += 1 */\n      dup3\n      dup3\n      sload\n      tag_41\n      swap2\n      swap1\n      tag_42\n      jump\t// in\n    tag_41:\n      swap3\n      pop\n      pop\n      dup2\n      swap1\n      sstore\n      pop\n        /* \"proposal/ProposalContract.sol\":1156:1334  Proposal(... */\n      mload(0x40)\n      dup1\n      0x0100\n      add\n      0x40\n      mstore\n      dup1\n        /* \"proposal/ProposalContract.sol\":1178:1184  _title */\n      dup6\n        /* \"proposal/ProposalContract.sol\":1156:1334  Proposal(... */\n      dup2\n      mstore\n      0x20\n      add\n        /* \"proposal/ProposalContract.sol\":1198:1210  _description */\n      dup5\n      dup5\n        /* \"proposal/ProposalContract.sol\":1156:1334  Proposal(... */\n      dup1\n      dup1\n      0x1f\n      add\n      0x20\n      dup1\n      swap2\n      div\n      mul\n      0x20\n      add\n      mload(0x40)\n      swap1\n      dup2\n      add\n      0x40\n      mstore\n      dup1\n      swap4\n      swap3\n      swap2\n      swap1\n      dup2\n      dup2\n      mstore\n      0x20\n      add\n      dup4\n      dup4\n      dup1\n      dup3\n      dup5\n      calldatacopy\n      0x00\n      dup2\n      dup5\n      add\n      mstore\n      not(0x1f)\n      0x1f\n      dup3\n      add\n      and\n      swap1\n      pop\n      dup1\n      dup4\n      add\n      swap3\n      pop\n      pop\n      pop\n      pop\n      pop\n      pop\n      pop\n      dup2\n      mstore\n      0x20\n      add\n        /* \"proposal/ProposalContract.sol\":1224:1225  0 */\n      0x00\n        /* \"proposal/ProposalContract.sol\":1156:1334  Proposal(... */\n      dup2\n      mstore\n      0x20\n      add\n        /* \"proposal/ProposalContract.sol\":1239:1240  0 */\n      0x00\n        /* \"proposal/ProposalContract.sol\":1156:1334  Proposal(... */\n      dup2\n      mstore\n      0x20\n      add\n        /* \"proposal/ProposalContract.sol\":1254:1255  0 */\n      0x00\n        /* \"proposal/ProposalContract.sol\":1156:1334  Proposal(... */\n      dup2\n      mstore\n      0x20\n      add\n        /* \"proposal/ProposalContract.sol\":1269:1287  _total_vote_to_end */\n      dup3\n        /* \"proposal/ProposalContract.sol\":1156:1334  Proposal(... */\n      dup2\n      mstore\n      0x20\n      add\n        /* \"proposal/ProposalContract.sol\":1301:1306  false */\n      0x00\n        /* \"proposal/ProposalContract.sol\":1156:1334  Proposal(... */\n      iszero\n      iszero\n      dup2\n      mstore\n      0x20\n      add\n        /* \"proposal/ProposalContract.sol\":1320:1324  true */\n      0x01\n        /* \"proposal/ProposalContract.sol\":1156:1334  Proposal(... */\n      iszero\n      iszero\n      dup2\n      mstore\n      pop\n        /* \"proposal/ProposalContract.sol\":1128:1144  proposal_history */\n      0x03\n        /* \"proposal/ProposalContract.sol\":1128:1153  proposal_history[counter] */\n      0x00\n        /* \"proposal/ProposalContract.sol\":1145:1152  counter */\n      sload(0x01)\n        /* \"proposal/ProposalContract.sol\":1128:1153  proposal_history[counter] */\n      dup2\n      mstore\n      0x20\n      add\n      swap1\n      dup2\n      mstore\n      0x20\n      add\n      0x00\n      keccak256\n        /* \"proposal/ProposalContract.sol\":1128:1334  proposal_history[counter] = Proposal(... */\n      0x00\n      dup3\n      add\n      mload\n      dup2\n      0x00\n      add\n      swap1\n      dup2\n      tag_43\n      swap2\n      swap1\n      tag_44\n      jump\t// in\n    tag_43:\n      pop\n      0x20\n      dup3\n      add\n      mload\n      dup2\n      0x01\n      add\n      swap1\n      dup2\n      tag_45\n      swap2\n      swap1\n      tag_44\n      jump\t// in\n    tag_45:\n      pop\n      0x40\n      dup3\n      add\n      mload\n      dup2\n      0x02\n      add\n      sstore\n      0x60\n      dup3\n      add\n      mload\n      dup2\n      0x03\n      add\n      sstore\n      0x80\n      dup3\n      add\n      mload\n      dup2\n      0x04\n      add\n      sstore\n      0xa0\n      dup3\n      add\n      mload\n      dup2\n      0x05\n      add\n      sstore\n      0xc0\n      dup3\n      add\n      mload\n      dup2\n      0x06\n      add\n      exp(0x0100, 0x00)\n      dup2\n      sload\n      dup2\n      0xff\n      mul\n      not\n      and\n      swap1\n      dup4\n      iszero\n      iszero\n      mul\n      or\n      swap1\n      sstore\n      pop\n      0xe0\n      dup3\n      add\n      mload\n      dup2\n      0x06\n      add\n      exp(0x0100, 0x01)\n      dup2\n      sload\n      dup2\n      0xff\n      mul\n      not\n      and\n      swap1\n      dup4\n      iszero\n      iszero\n      mul\n      or\n      swap1\n      sstore\n      pop\n      swap1\n      pop\n      pop\n        /* \"proposal/ProposalContract.sol\":951:1341  function create(... */\n      pop\n      pop\n      pop\n      pop\n      jump\t// out\n        /* \"proposal/ProposalContract.sol\":3156:3275  function getCurrentProposal() external view returns (Proposal memory) {... */\n    tag_18:\n        /* \"proposal/ProposalContract.sol\":3209:3224  Proposal memory */\n      tag_46\n      tag_47\n      jump\t// in\n    tag_46:\n        /* \"proposal/ProposalContract.sol\":3243:3259  proposal_history */\n      0x03\n        /* \"proposal/ProposalContract.sol\":3243:3268  proposal_history[counter] */\n      0x00\n        /* \"proposal/ProposalContract.sol\":3260:3267  counter */\n      sload(0x01)\n        /* \"proposal/ProposalContract.sol\":3243:3268  proposal_history[counter] */\n      dup2\n      mstore\n      0x20\n      add\n      swap1\n      dup2\n      mstore\n      0x20\n      add\n      0x00\n      keccak256\n        /* \"proposal/ProposalContract.sol\":3236:3268  return proposal_history[counter] */\n      mload(0x40)\n      dup1\n      0x0100\n      add\n      0x40\n      mstore\n      swap1\n      dup2\n      0x00\n      dup3\n      add\n      dup1\n      sload\n      tag_49\n      swap1\n      tag_50\n      jump\t// in\n    tag_49:\n      dup1\n      0x1f\n      add\n      0x20\n      dup1\n      swap2\n      div\n      mul\n      0x20\n      add\n      mload(0x40)\n      swap1\n      dup2\n      add\n      0x40\n      mstore\n      dup1\n      swap3\n      swap2\n      swap1\n      dup2\n      dup2\n      mstore\n      0x20\n      add\n      dup3\n      dup1\n      sload\n      tag_51\n      swap1\n      tag_50\n      jump\t// in\n    tag_51:\n      dup1\n      iszero\n      tag_52\n      jumpi\n      dup1\n      0x1f\n      lt\n      tag_53\n      jumpi\n      0x0100\n      dup1\n      dup4\n      sload\n      div\n      mul\n      dup4\n      mstore\n      swap2\n      0x20\n      add\n      swap2\n      jump(tag_52)\n    tag_53:\n      dup3\n      add\n      swap2\n      swap1\n      0x00\n      mstore\n      keccak256(0x00, 0x20)\n      swap1\n    tag_54:\n      dup2\n      sload\n      dup2\n      mstore\n      swap1\n      0x01\n      add\n      swap1\n      0x20\n      add\n      dup1\n      dup4\n      gt\n      tag_54\n      jumpi\n      dup3\n      swap1\n      sub\n      0x1f\n      and\n      dup3\n      add\n      swap2\n    tag_52:\n      pop\n      pop\n      pop\n      pop\n      pop\n      dup2\n      mstore\n      0x20\n      add\n      0x01\n      dup3\n      add\n      dup1\n      sload\n      tag_55\n      swap1\n      tag_50\n      jump\t// in\n    tag_55:\n      dup1\n      0x1f\n      add\n      0x20\n      dup1\n      swap2\n      div\n      mul\n      0x20\n      add\n      mload(0x40)\n      swap1\n      dup2\n      add\n      0x40\n      mstore\n      dup1\n      swap3\n      swap2\n      swap1\n      dup2\n      dup2\n      mstore\n      0x20\n      add\n      dup3\n      dup1\n      sload\n      tag_56\n      swap1\n      tag_50\n      jump\t// in\n    tag_56:\n      dup1\n      iszero\n      tag_57\n      jumpi\n      dup1\n      0x1f\n      lt\n      tag_58\n      jumpi\n      0x0100\n      dup1\n      dup4\n      sload\n      div\n      mul\n      dup4\n      mstore\n      swap2\n      0x20\n      add\n      swap2\n      jump(tag_57)\n    tag_58:\n      dup3\n      add\n      swap2\n      swap1\n      0x00\n      mstore\n      keccak256(0x00, 0x20)\n      swap1\n    tag_59:\n      dup2\n      sload\n      dup2\n      mstore\n      swap1\n      0x01\n      add\n      swap1\n      0x20\n      add\n      dup1\n      dup4\n      gt\n      tag_59\n      jumpi\n      dup3\n      swap1\n      sub\n      0x1f\n      and\n      dup3\n      add\n      swap2\n    tag_57:\n      pop\n      pop\n      pop\n      pop\n      pop\n      dup2\n      mstore\n      0x20\n      add\n      0x02\n      dup3\n      add\n      sload\n      dup2\n      mstore\n      0x20\n      add\n      0x03\n      dup3\n      add\n      sload\n      dup2\n      mstore\n      0x20\n      add\n      0x04\n      dup3\n      add\n      sload\n      dup2\n      mstore\n      0x20\n      add\n      0x05\n      dup3\n      add\n      sload\n      dup2\n      mstore\n      0x20\n      add\n      0x06\n      dup3\n      add\n      0x00\n      swap1\n      sload\n      swap1\n      0x0100\n      exp\n      swap1\n      div\n      0xff\n      and\n      iszero\n      iszero\n      iszero\n      iszero\n      dup2\n      mstore\n      0x20\n      add\n      0x06\n      dup3\n      add\n      0x01\n      swap1\n      sload\n      swap1\n      0x0100\n      exp\n      swap1\n      div\n      0xff\n      and\n      iszero\n      iszero\n      iszero\n      iszero\n      dup2\n      mstore\n      pop\n      pop\n      swap1\n      pop\n        /* \"proposal/ProposalContract.sol\":3156:3275  function getCurrentProposal() external view returns (Proposal memory) {... */\n      swap1\n      jump\t// out\n        /* \"proposal/ProposalContract.sol\":1443:2283  function vote(uint8 choice) external onlyActive {... */\n    tag_24:\n        /* \"proposal/ProposalContract.sol\":618:634  proposal_history */\n      0x03\n        /* \"proposal/ProposalContract.sol\":618:643  proposal_history[counter] */\n      0x00\n        /* \"proposal/ProposalContract.sol\":635:642  counter */\n      sload(0x01)\n        /* \"proposal/ProposalContract.sol\":618:643  proposal_history[counter] */\n      dup2\n      mstore\n      0x20\n      add\n      swap1\n      dup2\n      mstore\n      0x20\n      add\n      0x00\n      keccak256\n        /* \"proposal/ProposalContract.sol\":618:653  proposal_history[counter].is_active */\n      0x06\n      add\n      0x01\n      swap1\n      sload\n      swap1\n      0x0100\n      exp\n      swap1\n      div\n      0xff\n      and\n        /* \"proposal/ProposalContract.sol\":597:705  require(... */\n      tag_61\n      jumpi\n      mload(0x40)\n      0x08c379a000000000000000000000000000000000000000000000000000000000\n      dup2\n      mstore\n      0x04\n      add\n      tag_62\n      swap1\n      tag_63\n      jump\t// in\n    tag_62:\n      mload(0x40)\n      dup1\n      swap2\n      sub\n      swap1\n      revert\n    tag_61:\n        /* \"proposal/ProposalContract.sol\":1501:1526  Proposal storage proposal */\n      0x00\n        /* \"proposal/ProposalContract.sol\":1529:1545  proposal_history */\n      0x03\n        /* \"proposal/ProposalContract.sol\":1529:1554  proposal_history[counter] */\n      0x00\n        /* \"proposal/ProposalContract.sol\":1546:1553  counter */\n      sload(0x01)\n        /* \"proposal/ProposalContract.sol\":1529:1554  proposal_history[counter] */\n      dup2\n      mstore\n      0x20\n      add\n      swap1\n      dup2\n      mstore\n      0x20\n      add\n      0x00\n      keccak256\n        /* \"proposal/ProposalContract.sol\":1501:1554  Proposal storage proposal = proposal_history[counter] */\n      swap1\n      pop\n        /* \"proposal/ProposalContract.sol\":1564:1582  uint256 total_vote */\n      0x00\n        /* \"proposal/ProposalContract.sol\":1622:1630  proposal */\n      dup2\n        /* \"proposal/ProposalContract.sol\":1622:1635  proposal.pass */\n      0x04\n      add\n      sload\n        /* \"proposal/ProposalContract.sol\":1603:1611  proposal */\n      dup3\n        /* \"proposal/ProposalContract.sol\":1603:1619  proposal.approve */\n      0x02\n      add\n      sload\n        /* \"proposal/ProposalContract.sol\":1585:1593  proposal */\n      dup4\n        /* \"proposal/ProposalContract.sol\":1585:1600  proposal.reject */\n      0x03\n      add\n      sload\n        /* \"proposal/ProposalContract.sol\":1585:1619  proposal.reject + proposal.approve */\n      tag_65\n      swap2\n      swap1\n      tag_42\n      jump\t// in\n    tag_65:\n        /* \"proposal/ProposalContract.sol\":1585:1635  proposal.reject + proposal.approve + proposal.pass */\n      tag_66\n      swap2\n      swap1\n      tag_42\n      jump\t// in\n    tag_66:\n        /* \"proposal/ProposalContract.sol\":1564:1635  uint256 total_vote = proposal.reject + proposal.approve + proposal.pass */\n      swap1\n      pop\n        /* \"proposal/ProposalContract.sol\":1659:1660  1 */\n      0x01\n        /* \"proposal/ProposalContract.sol\":1649:1655  choice */\n      dup4\n        /* \"proposal/ProposalContract.sol\":1649:1660  choice == 1 */\n      0xff\n      and\n      sub\n        /* \"proposal/ProposalContract.sol\":1645:1842  if (choice == 1) {... */\n      tag_67\n      jumpi\n        /* \"proposal/ProposalContract.sol\":1696:1697  1 */\n      0x01\n        /* \"proposal/ProposalContract.sol\":1676:1684  proposal */\n      dup3\n        /* \"proposal/ProposalContract.sol\":1676:1692  proposal.approve */\n      0x02\n      add\n      0x00\n        /* \"proposal/ProposalContract.sol\":1676:1697  proposal.approve += 1 */\n      dup3\n      dup3\n      sload\n      tag_68\n      swap2\n      swap1\n      tag_42\n      jump\t// in\n    tag_68:\n      swap3\n      pop\n      pop\n      dup2\n      swap1\n      sstore\n      pop\n        /* \"proposal/ProposalContract.sol\":1645:1842  if (choice == 1) {... */\n      jump(tag_69)\n    tag_67:\n        /* \"proposal/ProposalContract.sol\":1728:1729  2 */\n      0x02\n        /* \"proposal/ProposalContract.sol\":1718:1724  choice */\n      dup4\n        /* \"proposal/ProposalContract.sol\":1718:1729  choice == 2 */\n      0xff\n      and\n      sub\n        /* \"proposal/ProposalContract.sol\":1714:1842  if (choice == 2) {... */\n      tag_70\n      jumpi\n        /* \"proposal/ProposalContract.sol\":1764:1765  1 */\n      0x01\n        /* \"proposal/ProposalContract.sol\":1745:1753  proposal */\n      dup3\n        /* \"proposal/ProposalContract.sol\":1745:1760  proposal.reject */\n      0x03\n      add\n      0x00\n        /* \"proposal/ProposalContract.sol\":1745:1765  proposal.reject += 1 */\n      dup3\n      dup3\n      sload\n      tag_71\n      swap2\n      swap1\n      tag_42\n      jump\t// in\n    tag_71:\n      swap3\n      pop\n      pop\n      dup2\n      swap1\n      sstore\n      pop\n        /* \"proposal/ProposalContract.sol\":1714:1842  if (choice == 2) {... */\n      jump(tag_72)\n    tag_70:\n        /* \"proposal/ProposalContract.sol\":1796:1797  2 */\n      0x02\n        /* \"proposal/ProposalContract.sol\":1786:1792  choice */\n      dup4\n        /* \"proposal/ProposalContract.sol\":1786:1797  choice == 2 */\n      0xff\n      and\n      sub\n        /* \"proposal/ProposalContract.sol\":1782:1842  if (choice == 2) {... */\n      tag_73\n      jumpi\n        /* \"proposal/ProposalContract.sol\":1830:1831  1 */\n      0x01\n        /* \"proposal/ProposalContract.sol\":1813:1821  proposal */\n      dup3\n        /* \"proposal/ProposalContract.sol\":1813:1826  proposal.pass */\n      0x04\n      add\n      0x00\n        /* \"proposal/ProposalContract.sol\":1813:1831  proposal.pass += 1 */\n      dup3\n      dup3\n      sload\n      tag_74\n      swap2\n      swap1\n      tag_42\n      jump\t// in\n    tag_74:\n      swap3\n      pop\n      pop\n      dup2\n      swap1\n      sstore\n      pop\n        /* \"proposal/ProposalContract.sol\":1782:1842  if (choice == 2) {... */\n    tag_73:\n        /* \"proposal/ProposalContract.sol\":1714:1842  if (choice == 2) {... */\n    tag_72:\n        /* \"proposal/ProposalContract.sol\":1645:1842  if (choice == 1) {... */\n    tag_69:\n        /* \"proposal/ProposalContract.sol\":1865:1866  0 */\n      0x00\n        /* \"proposal/ProposalContract.sol\":1855:1861  choice */\n      dup4\n        /* \"proposal/ProposalContract.sol\":1855:1866  choice == 0 */\n      0xff\n      and\n      eq\n        /* \"proposal/ProposalContract.sol\":1855:1881  choice == 0 || choice == 1 */\n      dup1\n      tag_75\n      jumpi\n      pop\n        /* \"proposal/ProposalContract.sol\":1880:1881  1 */\n      0x01\n        /* \"proposal/ProposalContract.sol\":1870:1876  choice */\n      dup4\n        /* \"proposal/ProposalContract.sol\":1870:1881  choice == 1 */\n      0xff\n      and\n      eq\n        /* \"proposal/ProposalContract.sol\":1855:1881  choice == 0 || choice == 1 */\n    tag_75:\n        /* \"proposal/ProposalContract.sol\":1855:1896  choice == 0 || choice == 1 || choice == 2 */\n      dup1\n      tag_76\n      jumpi\n      pop\n        /* \"proposal/ProposalContract.sol\":1895:1896  2 */\n      0x02\n        /* \"proposal/ProposalContract.sol\":1885:1891  choice */\n      dup4\n        /* \"proposal/ProposalContract.sol\":1885:1896  choice == 2 */\n      0xff\n      and\n      eq\n        /* \"proposal/ProposalContract.sol\":1855:1896  choice == 0 || choice == 1 || choice == 2 */\n    tag_76:\n        /* \"proposal/ProposalContract.sol\":1851:2277  if (choice == 0 || choice == 1 || choice == 2) {... */\n      iszero\n      tag_77\n      jumpi\n        /* \"proposal/ProposalContract.sol\":1912:1927  voted_addresses */\n      0x02\n        /* \"proposal/ProposalContract.sol\":1933:1943  msg.sender */\n      caller\n        /* \"proposal/ProposalContract.sol\":1912:1944  voted_addresses.push(msg.sender) */\n      swap1\n      dup1\n      0x01\n      dup2\n      sload\n      add\n      dup1\n      dup3\n      sstore\n      dup1\n      swap2\n      pop\n      pop\n      0x01\n      swap1\n      sub\n      swap1\n      0x00\n      mstore\n      keccak256(0x00, 0x20)\n      add\n      0x00\n      swap1\n      swap2\n      swap1\n      swap2\n      swap1\n      swap2\n      0x0100\n      exp\n      dup2\n      sload\n      dup2\n      0xffffffffffffffffffffffffffffffffffffffff\n      mul\n      not\n      and\n      swap1\n      dup4\n      0xffffffffffffffffffffffffffffffffffffffff\n      and\n      mul\n      or\n      swap1\n      sstore\n      pop\n        /* \"proposal/ProposalContract.sol\":1983:2006  calculateCurrentState() */\n      tag_79\n        /* \"proposal/ProposalContract.sol\":1983:2004  calculateCurrentState */\n      tag_80\n        /* \"proposal/ProposalContract.sol\":1983:2006  calculateCurrentState() */\n      jump\t// in\n    tag_79:\n        /* \"proposal/ProposalContract.sol\":1958:1966  proposal */\n      dup3\n        /* \"proposal/ProposalContract.sol\":1958:1980  proposal.current_state */\n      0x06\n      add\n      0x00\n        /* \"proposal/ProposalContract.sol\":1958:2006  proposal.current_state = calculateCurrentState() */\n      0x0100\n      exp\n      dup2\n      sload\n      dup2\n      0xff\n      mul\n      not\n      and\n      swap1\n      dup4\n      iszero\n      iszero\n      mul\n      or\n      swap1\n      sstore\n      pop\n        /* \"proposal/ProposalContract.sol\":2085:2086  1 */\n      0x01\n        /* \"proposal/ProposalContract.sol\":2071:2081  total_vote */\n      dup2\n        /* \"proposal/ProposalContract.sol\":2042:2050  proposal */\n      dup4\n        /* \"proposal/ProposalContract.sol\":2042:2068  proposal.total_vote_to_end */\n      0x05\n      add\n      sload\n        /* \"proposal/ProposalContract.sol\":2042:2081  proposal.total_vote_to_end - total_vote */\n      tag_81\n      swap2\n      swap1\n      tag_82\n      jump\t// in\n    tag_81:\n        /* \"proposal/ProposalContract.sol\":2042:2086  proposal.total_vote_to_end - total_vote == 1 */\n      eq\n        /* \"proposal/ProposalContract.sol\":2041:2150  (proposal.total_vote_to_end - total_vote == 1) &&... */\n      dup1\n      iszero\n      tag_83\n      jumpi\n      pop\n        /* \"proposal/ProposalContract.sol\":2118:2119  1 */\n      0x01\n        /* \"proposal/ProposalContract.sol\":2108:2114  choice */\n      dup4\n        /* \"proposal/ProposalContract.sol\":2108:2119  choice == 1 */\n      0xff\n      and\n      eq\n        /* \"proposal/ProposalContract.sol\":2108:2134  choice == 1 || choice == 2 */\n      dup1\n      tag_84\n      jumpi\n      pop\n        /* \"proposal/ProposalContract.sol\":2133:2134  2 */\n      0x02\n        /* \"proposal/ProposalContract.sol\":2123:2129  choice */\n      dup4\n        /* \"proposal/ProposalContract.sol\":2123:2134  choice == 2 */\n      0xff\n      and\n      eq\n        /* \"proposal/ProposalContract.sol\":2108:2134  choice == 1 || choice == 2 */\n    tag_84:\n        /* \"proposal/ProposalContract.sol\":2108:2149  choice == 1 || choice == 2 || choice == 0 */\n      dup1\n      tag_85\n      jumpi\n      pop\n        /* \"proposal/ProposalContract.sol\":2148:2149  0 */\n      0x00\n        /* \"proposal/ProposalContract.sol\":2138:2144  choice */\n      dup4\n        /* \"proposal/ProposalContract.sol\":2138:2149  choice == 0 */\n      0xff\n      and\n      eq\n        /* \"proposal/ProposalContract.sol\":2108:2149  choice == 1 || choice == 2 || choice == 0 */\n    tag_85:\n        /* \"proposal/ProposalContract.sol\":2041:2150  (proposal.total_vote_to_end - total_vote == 1) &&... */\n    tag_83:\n        /* \"proposal/ProposalContract.sol\":2020:2267  if (... */\n      iszero\n      tag_86\n      jumpi\n        /* \"proposal/ProposalContract.sol\":2204:2209  false */\n      0x00\n        /* \"proposal/ProposalContract.sol\":2183:2191  proposal */\n      dup3\n        /* \"proposal/ProposalContract.sol\":2183:2201  proposal.is_active */\n      0x06\n      add\n      0x01\n        /* \"proposal/ProposalContract.sol\":2183:2209  proposal.is_active = false */\n      0x0100\n      exp\n      dup2\n      sload\n      dup2\n      0xff\n      mul\n      not\n      and\n      swap1\n      dup4\n      iszero\n      iszero\n      mul\n      or\n      swap1\n      sstore\n      pop\n        /* \"proposal/ProposalContract.sol\":2227:2252  voted_addresses = [owner] */\n      mload(0x40)\n      dup1\n      0x20\n      add\n      0x40\n      mstore\n      dup1\n        /* \"proposal/ProposalContract.sol\":2246:2251  owner */\n      0x00\n      dup1\n      sload\n      swap1\n      0x0100\n      exp\n      swap1\n      div\n      0xffffffffffffffffffffffffffffffffffffffff\n      and\n        /* \"proposal/ProposalContract.sol\":2227:2252  voted_addresses = [owner] */\n      0xffffffffffffffffffffffffffffffffffffffff\n      and\n      0xffffffffffffffffffffffffffffffffffffffff\n      and\n      dup2\n      mstore\n      pop\n        /* \"proposal/ProposalContract.sol\":2227:2242  voted_addresses */\n      0x02\n        /* \"proposal/ProposalContract.sol\":2227:2252  voted_addresses = [owner] */\n      swap1\n      0x01\n      tag_87\n      swap3\n      swap2\n      swap1\n      tag_88\n      jump\t// in\n    tag_87:\n      pop\n        /* \"proposal/ProposalContract.sol\":2020:2267  if (... */\n    tag_86:\n        /* \"proposal/ProposalContract.sol\":1851:2277  if (choice == 0 || choice == 1 || choice == 2) {... */\n    tag_77:\n        /* \"proposal/ProposalContract.sol\":1491:2283  {... */\n      pop\n      pop\n        /* \"proposal/ProposalContract.sol\":1443:2283  function vote(uint8 choice) external onlyActive {... */\n      pop\n      jump\t// out\n        /* \"proposal/ProposalContract.sol\":3281:3434  function getProposal(uint256 number)... */\n    tag_28:\n        /* \"proposal/ProposalContract.sol\":3365:3380  Proposal memory */\n      tag_89\n      tag_47\n      jump\t// in\n    tag_89:\n        /* \"proposal/ProposalContract.sol\":3403:3419  proposal_history */\n      0x03\n        /* \"proposal/ProposalContract.sol\":3403:3427  proposal_history[number] */\n      0x00\n        /* \"proposal/ProposalContract.sol\":3420:3426  number */\n      dup4\n        /* \"proposal/ProposalContract.sol\":3403:3427  proposal_history[number] */\n      dup2\n      mstore\n      0x20\n      add\n      swap1\n      dup2\n      mstore\n      0x20\n      add\n      0x00\n      keccak256\n        /* \"proposal/ProposalContract.sol\":3396:3427  return proposal_history[number] */\n      mload(0x40)\n      dup1\n      0x0100\n      add\n      0x40\n      mstore\n      swap1\n      dup2\n      0x00\n      dup3\n      add\n      dup1\n      sload\n      tag_91\n      swap1\n      tag_50\n      jump\t// in\n    tag_91:\n      dup1\n      0x1f\n      add\n      0x20\n      dup1\n      swap2\n      div\n      mul\n      0x20\n      add\n      mload(0x40)\n      swap1\n      dup2\n      add\n      0x40\n      mstore\n      dup1\n      swap3\n      swap2\n      swap1\n      dup2\n      dup2\n      mstore\n      0x20\n      add\n      dup3\n      dup1\n      sload\n      tag_92\n      swap1\n      tag_50\n      jump\t// in\n    tag_92:\n      dup1\n      iszero\n      tag_93\n      jumpi\n      dup1\n      0x1f\n      lt\n      tag_94\n      jumpi\n      0x0100\n      dup1\n      dup4\n      sload\n      div\n      mul\n      dup4\n      mstore\n      swap2\n      0x20\n      add\n      swap2\n      jump(tag_93)\n    tag_94:\n      dup3\n      add\n      swap2\n      swap1\n      0x00\n      mstore\n      keccak256(0x00, 0x20)\n      swap1\n    tag_95:\n      dup2\n      sload\n      dup2\n      mstore\n      swap1\n      0x01\n      add\n      swap1\n      0x20\n      add\n      dup1\n      dup4\n      gt\n      tag_95\n      jumpi\n      dup3\n      swap1\n      sub\n      0x1f\n      and\n      dup3\n      add\n      swap2\n    tag_93:\n      pop\n      pop\n      pop\n      pop\n      pop\n      dup2\n      mstore\n      0x20\n      add\n      0x01\n      dup3\n      add\n      dup1\n      sload\n      tag_96\n      swap1\n      tag_50\n      jump\t// in\n    tag_96:\n      dup1\n      0x1f\n      add\n      0x20\n      dup1\n      swap2\n      div\n      mul\n      0x20\n      add\n      mload(0x40)\n      swap1\n      dup2\n      add\n      0x40\n      mstore\n      dup1\n      swap3\n      swap2\n      swap1\n      dup2\n      dup2\n      mstore\n      0x20\n      add\n      dup3\n      dup1\n      sload\n      tag_97\n      swap1\n      tag_50\n      jump\t// in\n    tag_97:\n      dup1\n      iszero\n      tag_98\n      jumpi\n      dup1\n      0x1f\n      lt\n      tag_99\n      jumpi\n      0x0100\n      dup1\n      dup4\n      sload\n      div\n      mul\n      dup4\n      mstore\n      swap2\n      0x20\n      add\n      swap2\n      jump(tag_98)\n    tag_99:\n      dup3\n      add\n      swap2\n      swap1\n      0x00\n      mstore\n      keccak256(0x00, 0x20)\n      swap1\n    tag_100:\n      dup2\n      sload\n      dup2\n      mstore\n      swap1\n      0x01\n      add\n      swap1\n      0x20\n      add\n      dup1\n      dup4\n      gt\n      tag_100\n      jumpi\n      dup3\n      swap1\n      sub\n      0x1f\n      and\n      dup3\n      add\n      swap2\n    tag_98:\n      pop\n      pop\n      pop\n      pop\n      pop\n      dup2\n      mstore\n      0x20\n      add\n      0x02\n      dup3\n      add\n      sload\n      dup2\n      mstore\n      0x20\n      add\n      0x03\n      dup3\n      add\n      sload\n      dup2\n      mstore\n      0x20\n      add\n      0x04\n      dup3\n      add\n      sload\n      dup2\n      mstore\n      0x20\n      add\n      0x05\n      dup3\n      add\n      sload\n      dup2\n      mstore\n      0x20\n      add\n      0x06\n      dup3\n      add\n      0x00\n      swap1\n      sload\n      swap1\n      0x0100\n      exp\n      swap1\n      div\n      0xff\n      and\n      iszero\n      iszero\n      iszero\n      iszero\n      dup2\n      mstore\n      0x20\n      add\n      0x06\n      dup3\n      add\n      0x01\n      swap1\n      sload\n      swap1\n      0x0100\n      exp\n      swap1\n      div\n      0xff\n      and\n      iszero\n      iszero\n      iszero\n      iszero\n      dup2\n      mstore\n      pop\n      pop\n      swap1\n      pop\n        /* \"proposal/ProposalContract.sol\":3281:3434  function getProposal(uint256 number)... */\n      swap2\n      swap1\n      pop\n      jump\t// out\n        /* \"proposal/ProposalContract.sol\":3031:3150  function terminateProposal() external onlyOwner onlyActive {... */\n    tag_31:\n        /* \"proposal/ProposalContract.sol\":517:522  owner */\n      0x00\n      dup1\n      sload\n      swap1\n      0x0100\n      exp\n      swap1\n      div\n      0xffffffffffffffffffffffffffffffffffffffff\n      and\n        /* \"proposal/ProposalContract.sol\":503:522  msg.sender == owner */\n      0xffffffffffffffffffffffffffffffffffffffff\n      and\n        /* \"proposal/ProposalContract.sol\":503:513  msg.sender */\n      caller\n        /* \"proposal/ProposalContract.sol\":503:522  msg.sender == owner */\n      0xffffffffffffffffffffffffffffffffffffffff\n      and\n      eq\n        /* \"proposal/ProposalContract.sol\":495:541  require(msg.sender == owner, \"Only Owner can\") */\n      tag_102\n      jumpi\n      mload(0x40)\n      0x08c379a000000000000000000000000000000000000000000000000000000000\n      dup2\n      mstore\n      0x04\n      add\n      tag_103\n      swap1\n      tag_35\n      jump\t// in\n    tag_103:\n      mload(0x40)\n      dup1\n      swap2\n      sub\n      swap1\n      revert\n    tag_102:\n        /* \"proposal/ProposalContract.sol\":618:634  proposal_history */\n      0x03\n        /* \"proposal/ProposalContract.sol\":618:643  proposal_history[counter] */\n      0x00\n        /* \"proposal/ProposalContract.sol\":635:642  counter */\n      sload(0x01)\n        /* \"proposal/ProposalContract.sol\":618:643  proposal_history[counter] */\n      dup2\n      mstore\n      0x20\n      add\n      swap1\n      dup2\n      mstore\n      0x20\n      add\n      0x00\n      keccak256\n        /* \"proposal/ProposalContract.sol\":618:653  proposal_history[counter].is_active */\n      0x06\n      add\n      0x01\n      swap1\n      sload\n      swap1\n      0x0100\n      exp\n      swap1\n      div\n      0xff\n      and\n        /* \"proposal/ProposalContract.sol\":597:705  require(... */\n      tag_105\n      jumpi\n      mload(0x40)\n      0x08c379a000000000000000000000000000000000000000000000000000000000\n      dup2\n      mstore\n      0x04\n      add\n      tag_106\n      swap1\n      tag_63\n      jump\t// in\n    tag_106:\n      mload(0x40)\n      dup1\n      swap2\n      sub\n      swap1\n      revert\n    tag_105:\n        /* \"proposal/ProposalContract.sol\":3138:3143  false */\n      0x00\n        /* \"proposal/ProposalContract.sol\":3100:3116  proposal_history */\n      0x03\n        /* \"proposal/ProposalContract.sol\":3100:3125  proposal_history[counter] */\n      0x00\n        /* \"proposal/ProposalContract.sol\":3117:3124  counter */\n      sload(0x01)\n        /* \"proposal/ProposalContract.sol\":3100:3125  proposal_history[counter] */\n      dup2\n      mstore\n      0x20\n      add\n      swap1\n      dup2\n      mstore\n      0x20\n      add\n      0x00\n      keccak256\n        /* \"proposal/ProposalContract.sol\":3100:3135  proposal_history[counter].is_active */\n      0x06\n      add\n      0x01\n        /* \"proposal/ProposalContract.sol\":3100:3143  proposal_history[counter].is_active = false */\n      0x0100\n      exp\n      dup2\n      sload\n      dup2\n      0xff\n      mul\n      not\n      and\n      swap1\n      dup4\n      iszero\n      iszero\n      mul\n      or\n      swap1\n      sstore\n      pop\n        /* \"proposal/ProposalContract.sol\":3031:3150  function terminateProposal() external onlyOwner onlyActive {... */\n      jump\t// out\n        /* \"proposal/ProposalContract.sol\":2553:3025  function calculateCurrentState() private view returns (bool) {... */\n    tag_80:\n        /* \"proposal/ProposalContract.sol\":2608:2612  bool */\n      0x00\n        /* \"proposal/ProposalContract.sol\":2624:2649  Proposal storage proposal */\n      dup1\n        /* \"proposal/ProposalContract.sol\":2652:2668  proposal_history */\n      0x03\n        /* \"proposal/ProposalContract.sol\":2652:2677  proposal_history[counter] */\n      0x00\n        /* \"proposal/ProposalContract.sol\":2669:2676  counter */\n      sload(0x01)\n        /* \"proposal/ProposalContract.sol\":2652:2677  proposal_history[counter] */\n      dup2\n      mstore\n      0x20\n      add\n      swap1\n      dup2\n      mstore\n      0x20\n      add\n      0x00\n      keccak256\n        /* \"proposal/ProposalContract.sol\":2624:2677  Proposal storage proposal = proposal_history[counter] */\n      swap1\n      pop\n        /* \"proposal/ProposalContract.sol\":2688:2703  uint256 approve */\n      0x00\n        /* \"proposal/ProposalContract.sol\":2706:2714  proposal */\n      dup2\n        /* \"proposal/ProposalContract.sol\":2706:2722  proposal.approve */\n      0x02\n      add\n      sload\n        /* \"proposal/ProposalContract.sol\":2688:2722  uint256 approve = proposal.approve */\n      swap1\n      pop\n        /* \"proposal/ProposalContract.sol\":2732:2746  uint256 reject */\n      0x00\n        /* \"proposal/ProposalContract.sol\":2749:2757  proposal */\n      dup3\n        /* \"proposal/ProposalContract.sol\":2749:2764  proposal.reject */\n      0x03\n      add\n      sload\n        /* \"proposal/ProposalContract.sol\":2732:2764  uint256 reject = proposal.reject */\n      swap1\n      pop\n        /* \"proposal/ProposalContract.sol\":2774:2786  uint256 pass */\n      0x00\n        /* \"proposal/ProposalContract.sol\":2789:2797  proposal */\n      dup4\n        /* \"proposal/ProposalContract.sol\":2789:2802  proposal.pass */\n      0x04\n      add\n      sload\n        /* \"proposal/ProposalContract.sol\":2774:2802  uint256 pass = proposal.pass */\n      swap1\n      pop\n        /* \"proposal/ProposalContract.sol\":2838:2839  1 */\n      0x01\n        /* \"proposal/ProposalContract.sol\":2833:2834  2 */\n      0x02\n        /* \"proposal/ProposalContract.sol\":2817:2825  proposal */\n      dup6\n        /* \"proposal/ProposalContract.sol\":2817:2830  proposal.pass */\n      0x04\n      add\n      sload\n        /* \"proposal/ProposalContract.sol\":2817:2834  proposal.pass % 2 */\n      tag_109\n      swap2\n      swap1\n      tag_110\n      jump\t// in\n    tag_109:\n        /* \"proposal/ProposalContract.sol\":2817:2839  proposal.pass % 2 == 1 */\n      sub\n        /* \"proposal/ProposalContract.sol\":2813:2875  if (proposal.pass % 2 == 1) {... */\n      tag_111\n      jumpi\n        /* \"proposal/ProposalContract.sol\":2863:2864  1 */\n      0x01\n        /* \"proposal/ProposalContract.sol\":2855:2864  pass += 1 */\n      dup2\n      tag_112\n      swap2\n      swap1\n      tag_42\n      jump\t// in\n    tag_112:\n      swap1\n      pop\n        /* \"proposal/ProposalContract.sol\":2813:2875  if (proposal.pass % 2 == 1) {... */\n    tag_111:\n        /* \"proposal/ProposalContract.sol\":2899:2900  2 */\n      0x02\n        /* \"proposal/ProposalContract.sol\":2892:2896  pass */\n      dup2\n        /* \"proposal/ProposalContract.sol\":2892:2900  pass / 2 */\n      tag_113\n      swap2\n      swap1\n      tag_114\n      jump\t// in\n    tag_113:\n        /* \"proposal/ProposalContract.sol\":2885:2900  pass = pass / 2 */\n      swap1\n      pop\n        /* \"proposal/ProposalContract.sol\":2934:2938  pass */\n      dup1\n        /* \"proposal/ProposalContract.sol\":2925:2931  reject */\n      dup3\n        /* \"proposal/ProposalContract.sol\":2925:2938  reject + pass */\n      tag_115\n      swap2\n      swap1\n      tag_42\n      jump\t// in\n    tag_115:\n        /* \"proposal/ProposalContract.sol\":2915:2922  approve */\n      dup4\n        /* \"proposal/ProposalContract.sol\":2915:2938  approve > reject + pass */\n      gt\n        /* \"proposal/ProposalContract.sol\":2911:3019  if (approve > reject + pass) {... */\n      iszero\n      tag_116\n      jumpi\n        /* \"proposal/ProposalContract.sol\":2961:2965  true */\n      0x01\n        /* \"proposal/ProposalContract.sol\":2954:2965  return true */\n      swap5\n      pop\n      pop\n      pop\n      pop\n      pop\n      jump(tag_108)\n        /* \"proposal/ProposalContract.sol\":2911:3019  if (approve > reject + pass) {... */\n    tag_116:\n        /* \"proposal/ProposalContract.sol\":3003:3008  false */\n      0x00\n        /* \"proposal/ProposalContract.sol\":2996:3008  return false */\n      swap5\n      pop\n      pop\n      pop\n      pop\n      pop\n        /* \"proposal/ProposalContract.sol\":2553:3025  function calculateCurrentState() private view returns (bool) {... */\n    tag_108:\n      swap1\n      jump\t// out\n    tag_47:\n      mload(0x40)\n      dup1\n      0x0100\n      add\n      0x40\n      mstore\n      dup1\n      0x60\n      dup2\n      mstore\n      0x20\n      add\n      0x60\n      dup2\n      mstore\n      0x20\n      add\n      0x00\n      dup2\n      mstore\n      0x20\n      add\n      0x00\n      dup2\n      mstore\n      0x20\n      add\n      0x00\n      dup2\n      mstore\n      0x20\n      add\n      0x00\n      dup2\n      mstore\n      0x20\n      add\n      iszero(iszero(0x00))\n      dup2\n      mstore\n      0x20\n      add\n      iszero(iszero(0x00))\n      dup2\n      mstore\n      pop\n      swap1\n      jump\t// out\n    tag_88:\n      dup3\n      dup1\n      sload\n      dup3\n      dup3\n      sstore\n      swap1\n      0x00\n      mstore\n      keccak256(0x00, 0x20)\n      swap1\n      dup2\n      add\n      swap3\n      dup3\n      iszero\n      tag_118\n      jumpi\n      swap2\n      0x20\n      mul\n      dup3\n      add\n    tag_119:\n      dup3\n      dup2\n      gt\n      iszero\n      tag_120\n      jumpi\n      dup3\n      mload\n      dup3\n      exp(0x0100, 0x00)\n      dup2\n      sload\n      dup2\n      0xffffffffffffffffffffffffffffffffffffffff\n      mul\n      not\n      and\n      swap1\n      dup4\n      0xffffffffffffffffffffffffffffffffffffffff\n      and\n      mul\n      or\n      swap1\n      sstore\n      pop\n      swap2\n      0x20\n      add\n      swap2\n      swap1\n      0x01\n      add\n      swap1\n      jump(tag_119)\n    tag_120:\n    tag_118:\n      pop\n      swap1\n      pop\n      tag_121\n      swap2\n      swap1\n      tag_122\n      jump\t// in\n    tag_121:\n      pop\n      swap1\n      jump\t// out\n    tag_122:\n    tag_123:\n      dup1\n      dup3\n      gt\n      iszero\n      tag_124\n      jumpi\n      0x00\n      dup2\n      0x00\n      swap1\n      sstore\n      pop\n      0x01\n      add\n      jump(tag_123)\n    tag_124:\n      pop\n      swap1\n      jump\t// out\n        /* \"#utility.yul\":7:82   */\n    tag_125:\n        /* \"#utility.yul\":40:46   */\n      0x00\n        /* \"#utility.yul\":73:75   */\n      0x40\n        /* \"#utility.yul\":67:76   */\n      mload\n        /* \"#utility.yul\":57:76   */\n      swap1\n      pop\n        /* \"#utility.yul\":7:82   */\n      swap1\n      jump\t// out\n        /* \"#utility.yul\":88:205   */\n    tag_126:\n        /* \"#utility.yul\":197:198   */\n      0x00\n        /* \"#utility.yul\":194:195   */\n      dup1\n        /* \"#utility.yul\":187:199   */\n      revert\n        /* \"#utility.yul\":211:328   */\n    tag_127:\n        /* \"#utility.yul\":320:321   */\n      0x00\n        /* \"#utility.yul\":317:318   */\n      dup1\n        /* \"#utility.yul\":310:322   */\n      revert\n        /* \"#utility.yul\":334:460   */\n    tag_128:\n        /* \"#utility.yul\":371:378   */\n      0x00\n        /* \"#utility.yul\":411:453   */\n      0xffffffffffffffffffffffffffffffffffffffff\n        /* \"#utility.yul\":404:409   */\n      dup3\n        /* \"#utility.yul\":400:454   */\n      and\n        /* \"#utility.yul\":389:454   */\n      swap1\n      pop\n        /* \"#utility.yul\":334:460   */\n      swap2\n      swap1\n      pop\n      jump\t// out\n        /* \"#utility.yul\":466:562   */\n    tag_129:\n        /* \"#utility.yul\":503:510   */\n      0x00\n        /* \"#utility.yul\":532:556   */\n      tag_188\n        /* \"#utility.yul\":550:555   */\n      dup3\n        /* \"#utility.yul\":532:556   */\n      tag_128\n      jump\t// in\n    tag_188:\n        /* \"#utility.yul\":521:556   */\n      swap1\n      pop\n        /* \"#utility.yul\":466:562   */\n      swap2\n      swap1\n      pop\n      jump\t// out\n        /* \"#utility.yul\":568:690   */\n    tag_130:\n        /* \"#utility.yul\":641:665   */\n      tag_190\n        /* \"#utility.yul\":659:664   */\n      dup2\n        /* \"#utility.yul\":641:665   */\n      tag_129\n      jump\t// in\n    tag_190:\n        /* \"#utility.yul\":634:639   */\n      dup2\n        /* \"#utility.yul\":631:666   */\n      eq\n        /* \"#utility.yul\":621:684   */\n      tag_191\n      jumpi\n        /* \"#utility.yul\":680:681   */\n      0x00\n        /* \"#utility.yul\":677:678   */\n      dup1\n        /* \"#utility.yul\":670:682   */\n      revert\n        /* \"#utility.yul\":621:684   */\n    tag_191:\n        /* \"#utility.yul\":568:690   */\n      pop\n      jump\t// out\n        /* \"#utility.yul\":696:835   */\n    tag_131:\n        /* \"#utility.yul\":742:747   */\n      0x00\n        /* \"#utility.yul\":780:786   */\n      dup2\n        /* \"#utility.yul\":767:787   */\n      calldataload\n        /* \"#utility.yul\":758:787   */\n      swap1\n      pop\n        /* \"#utility.yul\":796:829   */\n      tag_193\n        /* \"#utility.yul\":823:828   */\n      dup2\n        /* \"#utility.yul\":796:829   */\n      tag_130\n      jump\t// in\n    tag_193:\n        /* \"#utility.yul\":696:835   */\n      swap3\n      swap2\n      pop\n      pop\n      jump\t// out\n        /* \"#utility.yul\":841:1170   */\n    tag_11:\n        /* \"#utility.yul\":900:906   */\n      0x00\n        /* \"#utility.yul\":949:951   */\n      0x20\n        /* \"#utility.yul\":937:946   */\n      dup3\n        /* \"#utility.yul\":928:935   */\n      dup5\n        /* \"#utility.yul\":924:947   */\n      sub\n        /* \"#utility.yul\":920:952   */\n      slt\n        /* \"#utility.yul\":917:1036   */\n      iszero\n      tag_195\n      jumpi\n        /* \"#utility.yul\":955:1034   */\n      tag_196\n      tag_126\n      jump\t// in\n    tag_196:\n        /* \"#utility.yul\":917:1036   */\n    tag_195:\n        /* \"#utility.yul\":1075:1076   */\n      0x00\n        /* \"#utility.yul\":1100:1153   */\n      tag_197\n        /* \"#utility.yul\":1145:1152   */\n      dup5\n        /* \"#utility.yul\":1136:1142   */\n      dup3\n        /* \"#utility.yul\":1125:1134   */\n      dup6\n        /* \"#utility.yul\":1121:1143   */\n      add\n        /* \"#utility.yul\":1100:1153   */\n      tag_131\n      jump\t// in\n    tag_197:\n        /* \"#utility.yul\":1090:1153   */\n      swap2\n      pop\n        /* \"#utility.yul\":1046:1163   */\n      pop\n        /* \"#utility.yul\":841:1170   */\n      swap3\n      swap2\n      pop\n      pop\n      jump\t// out\n        /* \"#utility.yul\":1176:1293   */\n    tag_132:\n        /* \"#utility.yul\":1285:1286   */\n      0x00\n        /* \"#utility.yul\":1282:1283   */\n      dup1\n        /* \"#utility.yul\":1275:1287   */\n      revert\n        /* \"#utility.yul\":1299:1416   */\n    tag_133:\n        /* \"#utility.yul\":1408:1409   */\n      0x00\n        /* \"#utility.yul\":1405:1406   */\n      dup1\n        /* \"#utility.yul\":1398:1410   */\n      revert\n        /* \"#utility.yul\":1422:1524   */\n    tag_134:\n        /* \"#utility.yul\":1463:1469   */\n      0x00\n        /* \"#utility.yul\":1514:1516   */\n      0x1f\n        /* \"#utility.yul\":1510:1517   */\n      not\n        /* \"#utility.yul\":1505:1507   */\n      0x1f\n        /* \"#utility.yul\":1498:1503   */\n      dup4\n        /* \"#utility.yul\":1494:1508   */\n      add\n        /* \"#utility.yul\":1490:1518   */\n      and\n        /* \"#utility.yul\":1480:1518   */\n      swap1\n      pop\n        /* \"#utility.yul\":1422:1524   */\n      swap2\n      swap1\n      pop\n      jump\t// out\n        /* \"#utility.yul\":1530:1710   */\n    tag_135:\n        /* \"#utility.yul\":1578:1655   */\n      0x4e487b7100000000000000000000000000000000000000000000000000000000\n        /* \"#utility.yul\":1575:1576   */\n      0x00\n        /* \"#utility.yul\":1568:1656   */\n      mstore\n        /* \"#utility.yul\":1675:1679   */\n      0x41\n        /* \"#utility.yul\":1672:1673   */\n      0x04\n        /* \"#utility.yul\":1665:1680   */\n      mstore\n        /* \"#utility.yul\":1699:1703   */\n      0x24\n        /* \"#utility.yul\":1696:1697   */\n      0x00\n        /* \"#utility.yul\":1689:1704   */\n      revert\n        /* \"#utility.yul\":1716:1997   */\n    tag_136:\n        /* \"#utility.yul\":1799:1826   */\n      tag_203\n        /* \"#utility.yul\":1821:1825   */\n      dup3\n        /* \"#utility.yul\":1799:1826   */\n      tag_134\n      jump\t// in\n    tag_203:\n        /* \"#utility.yul\":1791:1797   */\n      dup2\n        /* \"#utility.yul\":1787:1827   */\n      add\n        /* \"#utility.yul\":1929:1935   */\n      dup2\n        /* \"#utility.yul\":1917:1927   */\n      dup2\n        /* \"#utility.yul\":1914:1936   */\n      lt\n        /* \"#utility.yul\":1893:1911   */\n      0xffffffffffffffff\n        /* \"#utility.yul\":1881:1891   */\n      dup3\n        /* \"#utility.yul\":1878:1912   */\n      gt\n        /* \"#utility.yul\":1875:1937   */\n      or\n        /* \"#utility.yul\":1872:1960   */\n      iszero\n      tag_204\n      jumpi\n        /* \"#utility.yul\":1940:1958   */\n      tag_205\n      tag_135\n      jump\t// in\n    tag_205:\n        /* \"#utility.yul\":1872:1960   */\n    tag_204:\n        /* \"#utility.yul\":1980:1990   */\n      dup1\n        /* \"#utility.yul\":1976:1978   */\n      0x40\n        /* \"#utility.yul\":1969:1991   */\n      mstore\n        /* \"#utility.yul\":1759:1997   */\n      pop\n        /* \"#utility.yul\":1716:1997   */\n      pop\n      pop\n      jump\t// out\n        /* \"#utility.yul\":2003:2132   */\n    tag_137:\n        /* \"#utility.yul\":2037:2043   */\n      0x00\n        /* \"#utility.yul\":2064:2084   */\n      tag_207\n      tag_125\n      jump\t// in\n    tag_207:\n        /* \"#utility.yul\":2054:2084   */\n      swap1\n      pop\n        /* \"#utility.yul\":2093:2126   */\n      tag_208\n        /* \"#utility.yul\":2121:2125   */\n      dup3\n        /* \"#utility.yul\":2113:2119   */\n      dup3\n        /* \"#utility.yul\":2093:2126   */\n      tag_136\n      jump\t// in\n    tag_208:\n        /* \"#utility.yul\":2003:2132   */\n      swap2\n      swap1\n      pop\n      jump\t// out\n        /* \"#utility.yul\":2138:2446   */\n    tag_138:\n        /* \"#utility.yul\":2200:2204   */\n      0x00\n        /* \"#utility.yul\":2290:2308   */\n      0xffffffffffffffff\n        /* \"#utility.yul\":2282:2288   */\n      dup3\n        /* \"#utility.yul\":2279:2309   */\n      gt\n        /* \"#utility.yul\":2276:2332   */\n      iszero\n      tag_210\n      jumpi\n        /* \"#utility.yul\":2312:2330   */\n      tag_211\n      tag_135\n      jump\t// in\n    tag_211:\n        /* \"#utility.yul\":2276:2332   */\n    tag_210:\n        /* \"#utility.yul\":2350:2379   */\n      tag_212\n        /* \"#utility.yul\":2372:2378   */\n      dup3\n        /* \"#utility.yul\":2350:2379   */\n      tag_134\n      jump\t// in\n    tag_212:\n        /* \"#utility.yul\":2342:2379   */\n      swap1\n      pop\n        /* \"#utility.yul\":2434:2438   */\n      0x20\n        /* \"#utility.yul\":2428:2432   */\n      dup2\n        /* \"#utility.yul\":2424:2439   */\n      add\n        /* \"#utility.yul\":2416:2439   */\n      swap1\n      pop\n        /* \"#utility.yul\":2138:2446   */\n      swap2\n      swap1\n      pop\n      jump\t// out\n        /* \"#utility.yul\":2452:2600   */\n    tag_139:\n        /* \"#utility.yul\":2550:2556   */\n      dup3\n        /* \"#utility.yul\":2545:2548   */\n      dup2\n        /* \"#utility.yul\":2540:2543   */\n      dup4\n        /* \"#utility.yul\":2527:2557   */\n      calldatacopy\n        /* \"#utility.yul\":2591:2592   */\n      0x00\n        /* \"#utility.yul\":2582:2588   */\n      dup4\n        /* \"#utility.yul\":2577:2580   */\n      dup4\n        /* \"#utility.yul\":2573:2589   */\n      add\n        /* \"#utility.yul\":2566:2593   */\n      mstore\n        /* \"#utility.yul\":2452:2600   */\n      pop\n      pop\n      pop\n      jump\t// out\n        /* \"#utility.yul\":2606:3031   */\n    tag_140:\n        /* \"#utility.yul\":2684:2689   */\n      0x00\n        /* \"#utility.yul\":2709:2775   */\n      tag_215\n        /* \"#utility.yul\":2725:2774   */\n      tag_216\n        /* \"#utility.yul\":2767:2773   */\n      dup5\n        /* \"#utility.yul\":2725:2774   */\n      tag_138\n      jump\t// in\n    tag_216:\n        /* \"#utility.yul\":2709:2775   */\n      tag_137\n      jump\t// in\n    tag_215:\n        /* \"#utility.yul\":2700:2775   */\n      swap1\n      pop\n        /* \"#utility.yul\":2798:2804   */\n      dup3\n        /* \"#utility.yul\":2791:2796   */\n      dup2\n        /* \"#utility.yul\":2784:2805   */\n      mstore\n        /* \"#utility.yul\":2836:2840   */\n      0x20\n        /* \"#utility.yul\":2829:2834   */\n      dup2\n        /* \"#utility.yul\":2825:2841   */\n      add\n        /* \"#utility.yul\":2874:2877   */\n      dup5\n        /* \"#utility.yul\":2865:2871   */\n      dup5\n        /* \"#utility.yul\":2860:2863   */\n      dup5\n        /* \"#utility.yul\":2856:2872   */\n      add\n        /* \"#utility.yul\":2853:2878   */\n      gt\n        /* \"#utility.yul\":2850:2962   */\n      iszero\n      tag_217\n      jumpi\n        /* \"#utility.yul\":2881:2960   */\n      tag_218\n      tag_133\n      jump\t// in\n    tag_218:\n        /* \"#utility.yul\":2850:2962   */\n    tag_217:\n        /* \"#utility.yul\":2971:3025   */\n      tag_219\n        /* \"#utility.yul\":3018:3024   */\n      dup5\n        /* \"#utility.yul\":3013:3016   */\n      dup3\n        /* \"#utility.yul\":3008:3011   */\n      dup6\n        /* \"#utility.yul\":2971:3025   */\n      tag_139\n      jump\t// in\n    tag_219:\n        /* \"#utility.yul\":2690:3031   */\n      pop\n        /* \"#utility.yul\":2606:3031   */\n      swap4\n      swap3\n      pop\n      pop\n      pop\n      jump\t// out\n        /* \"#utility.yul\":3051:3391   */\n    tag_141:\n        /* \"#utility.yul\":3107:3112   */\n      0x00\n        /* \"#utility.yul\":3156:3159   */\n      dup3\n        /* \"#utility.yul\":3149:3153   */\n      0x1f\n        /* \"#utility.yul\":3141:3147   */\n      dup4\n        /* \"#utility.yul\":3137:3154   */\n      add\n        /* \"#utility.yul\":3133:3160   */\n      slt\n        /* \"#utility.yul\":3123:3245   */\n      tag_221\n      jumpi\n        /* \"#utility.yul\":3164:3243   */\n      tag_222\n      tag_132\n      jump\t// in\n    tag_222:\n        /* \"#utility.yul\":3123:3245   */\n    tag_221:\n        /* \"#utility.yul\":3281:3287   */\n      dup2\n        /* \"#utility.yul\":3268:3288   */\n      calldataload\n        /* \"#utility.yul\":3306:3385   */\n      tag_223\n        /* \"#utility.yul\":3381:3384   */\n      dup5\n        /* \"#utility.yul\":3373:3379   */\n      dup3\n        /* \"#utility.yul\":3366:3370   */\n      0x20\n        /* \"#utility.yul\":3358:3364   */\n      dup7\n        /* \"#utility.yul\":3354:3371   */\n      add\n        /* \"#utility.yul\":3306:3385   */\n      tag_140\n      jump\t// in\n    tag_223:\n        /* \"#utility.yul\":3297:3385   */\n      swap2\n      pop\n        /* \"#utility.yul\":3113:3391   */\n      pop\n        /* \"#utility.yul\":3051:3391   */\n      swap3\n      swap2\n      pop\n      pop\n      jump\t// out\n        /* \"#utility.yul\":3397:3514   */\n    tag_142:\n        /* \"#utility.yul\":3506:3507   */\n      0x00\n        /* \"#utility.yul\":3503:3504   */\n      dup1\n        /* \"#utility.yul\":3496:3508   */\n      revert\n        /* \"#utility.yul\":3520:3637   */\n    tag_143:\n        /* \"#utility.yul\":3629:3630   */\n      0x00\n        /* \"#utility.yul\":3626:3627   */\n      dup1\n        /* \"#utility.yul\":3619:3631   */\n      revert\n        /* \"#utility.yul\":3657:4210   */\n    tag_144:\n        /* \"#utility.yul\":3715:3723   */\n      0x00\n        /* \"#utility.yul\":3725:3731   */\n      dup1\n        /* \"#utility.yul\":3775:3778   */\n      dup4\n        /* \"#utility.yul\":3768:3772   */\n      0x1f\n        /* \"#utility.yul\":3760:3766   */\n      dup5\n        /* \"#utility.yul\":3756:3773   */\n      add\n        /* \"#utility.yul\":3752:3779   */\n      slt\n        /* \"#utility.yul\":3742:3864   */\n      tag_227\n      jumpi\n        /* \"#utility.yul\":3783:3862   */\n      tag_228\n      tag_132\n      jump\t// in\n    tag_228:\n        /* \"#utility.yul\":3742:3864   */\n    tag_227:\n        /* \"#utility.yul\":3896:3902   */\n      dup3\n        /* \"#utility.yul\":3883:3903   */\n      calldataload\n        /* \"#utility.yul\":3873:3903   */\n      swap1\n      pop\n        /* \"#utility.yul\":3926:3944   */\n      0xffffffffffffffff\n        /* \"#utility.yul\":3918:3924   */\n      dup2\n        /* \"#utility.yul\":3915:3945   */\n      gt\n        /* \"#utility.yul\":3912:4029   */\n      iszero\n      tag_229\n      jumpi\n        /* \"#utility.yul\":3948:4027   */\n      tag_230\n      tag_142\n      jump\t// in\n    tag_230:\n        /* \"#utility.yul\":3912:4029   */\n    tag_229:\n        /* \"#utility.yul\":4062:4066   */\n      0x20\n        /* \"#utility.yul\":4054:4060   */\n      dup4\n        /* \"#utility.yul\":4050:4067   */\n      add\n        /* \"#utility.yul\":4038:4067   */\n      swap2\n      pop\n        /* \"#utility.yul\":4116:4119   */\n      dup4\n        /* \"#utility.yul\":4108:4112   */\n      0x01\n        /* \"#utility.yul\":4100:4106   */\n      dup3\n        /* \"#utility.yul\":4096:4113   */\n      mul\n        /* \"#utility.yul\":4086:4094   */\n      dup4\n        /* \"#utility.yul\":4082:4114   */\n      add\n        /* \"#utility.yul\":4079:4120   */\n      gt\n        /* \"#utility.yul\":4076:4204   */\n      iszero\n      tag_231\n      jumpi\n        /* \"#utility.yul\":4123:4202   */\n      tag_232\n      tag_143\n      jump\t// in\n    tag_232:\n        /* \"#utility.yul\":4076:4204   */\n    tag_231:\n        /* \"#utility.yul\":3657:4210   */\n      swap3\n      pop\n      swap3\n      swap1\n      pop\n      jump\t// out\n        /* \"#utility.yul\":4216:4293   */\n    tag_145:\n        /* \"#utility.yul\":4253:4260   */\n      0x00\n        /* \"#utility.yul\":4282:4287   */\n      dup2\n        /* \"#utility.yul\":4271:4287   */\n      swap1\n      pop\n        /* \"#utility.yul\":4216:4293   */\n      swap2\n      swap1\n      pop\n      jump\t// out\n        /* \"#utility.yul\":4299:4421   */\n    tag_146:\n        /* \"#utility.yul\":4372:4396   */\n      tag_235\n        /* \"#utility.yul\":4390:4395   */\n      dup2\n        /* \"#utility.yul\":4372:4396   */\n      tag_145\n      jump\t// in\n    tag_235:\n        /* \"#utility.yul\":4365:4370   */\n      dup2\n        /* \"#utility.yul\":4362:4397   */\n      eq\n        /* \"#utility.yul\":4352:4415   */\n      tag_236\n      jumpi\n        /* \"#utility.yul\":4411:4412   */\n      0x00\n        /* \"#utility.yul\":4408:4409   */\n      dup1\n        /* \"#utility.yul\":4401:4413   */\n      revert\n        /* \"#utility.yul\":4352:4415   */\n    tag_236:\n        /* \"#utility.yul\":4299:4421   */\n      pop\n      jump\t// out\n        /* \"#utility.yul\":4427:4566   */\n    tag_147:\n        /* \"#utility.yul\":4473:4478   */\n      0x00\n        /* \"#utility.yul\":4511:4517   */\n      dup2\n        /* \"#utility.yul\":4498:4518   */\n      calldataload\n        /* \"#utility.yul\":4489:4518   */\n      swap1\n      pop\n        /* \"#utility.yul\":4527:4560   */\n      tag_238\n        /* \"#utility.yul\":4554:4559   */\n      dup2\n        /* \"#utility.yul\":4527:4560   */\n      tag_146\n      jump\t// in\n    tag_238:\n        /* \"#utility.yul\":4427:4566   */\n      swap3\n      swap2\n      pop\n      pop\n      jump\t// out\n        /* \"#utility.yul\":4572:5571   */\n    tag_15:\n        /* \"#utility.yul\":4671:4677   */\n      0x00\n        /* \"#utility.yul\":4679:4685   */\n      dup1\n        /* \"#utility.yul\":4687:4693   */\n      0x00\n        /* \"#utility.yul\":4695:4701   */\n      dup1\n        /* \"#utility.yul\":4744:4746   */\n      0x60\n        /* \"#utility.yul\":4732:4741   */\n      dup6\n        /* \"#utility.yul\":4723:4730   */\n      dup8\n        /* \"#utility.yul\":4719:4742   */\n      sub\n        /* \"#utility.yul\":4715:4747   */\n      slt\n        /* \"#utility.yul\":4712:4831   */\n      iszero\n      tag_240\n      jumpi\n        /* \"#utility.yul\":4750:4829   */\n      tag_241\n      tag_126\n      jump\t// in\n    tag_241:\n        /* \"#utility.yul\":4712:4831   */\n    tag_240:\n        /* \"#utility.yul\":4898:4899   */\n      0x00\n        /* \"#utility.yul\":4887:4896   */\n      dup6\n        /* \"#utility.yul\":4883:4900   */\n      add\n        /* \"#utility.yul\":4870:4901   */\n      calldataload\n        /* \"#utility.yul\":4928:4946   */\n      0xffffffffffffffff\n        /* \"#utility.yul\":4920:4926   */\n      dup2\n        /* \"#utility.yul\":4917:4947   */\n      gt\n        /* \"#utility.yul\":4914:5031   */\n      iszero\n      tag_242\n      jumpi\n        /* \"#utility.yul\":4950:5029   */\n      tag_243\n      tag_127\n      jump\t// in\n    tag_243:\n        /* \"#utility.yul\":4914:5031   */\n    tag_242:\n        /* \"#utility.yul\":5055:5118   */\n      tag_244\n        /* \"#utility.yul\":5110:5117   */\n      dup8\n        /* \"#utility.yul\":5101:5107   */\n      dup3\n        /* \"#utility.yul\":5090:5099   */\n      dup9\n        /* \"#utility.yul\":5086:5108   */\n      add\n        /* \"#utility.yul\":5055:5118   */\n      tag_141\n      jump\t// in\n    tag_244:\n        /* \"#utility.yul\":5045:5118   */\n      swap5\n      pop\n        /* \"#utility.yul\":4841:5128   */\n      pop\n        /* \"#utility.yul\":5195:5197   */\n      0x20\n        /* \"#utility.yul\":5184:5193   */\n      dup6\n        /* \"#utility.yul\":5180:5198   */\n      add\n        /* \"#utility.yul\":5167:5199   */\n      calldataload\n        /* \"#utility.yul\":5226:5244   */\n      0xffffffffffffffff\n        /* \"#utility.yul\":5218:5224   */\n      dup2\n        /* \"#utility.yul\":5215:5245   */\n      gt\n        /* \"#utility.yul\":5212:5329   */\n      iszero\n      tag_245\n      jumpi\n        /* \"#utility.yul\":5248:5327   */\n      tag_246\n      tag_127\n      jump\t// in\n    tag_246:\n        /* \"#utility.yul\":5212:5329   */\n    tag_245:\n        /* \"#utility.yul\":5361:5426   */\n      tag_247\n        /* \"#utility.yul\":5418:5425   */\n      dup8\n        /* \"#utility.yul\":5409:5415   */\n      dup3\n        /* \"#utility.yul\":5398:5407   */\n      dup9\n        /* \"#utility.yul\":5394:5416   */\n      add\n        /* \"#utility.yul\":5361:5426   */\n      tag_144\n      jump\t// in\n    tag_247:\n        /* \"#utility.yul\":5343:5426   */\n      swap4\n      pop\n      swap4\n      pop\n        /* \"#utility.yul\":5138:5436   */\n      pop\n        /* \"#utility.yul\":5475:5477   */\n      0x40\n        /* \"#utility.yul\":5501:5554   */\n      tag_248\n        /* \"#utility.yul\":5546:5553   */\n      dup8\n        /* \"#utility.yul\":5537:5543   */\n      dup3\n        /* \"#utility.yul\":5526:5535   */\n      dup9\n        /* \"#utility.yul\":5522:5544   */\n      add\n        /* \"#utility.yul\":5501:5554   */\n      tag_147\n      jump\t// in\n    tag_248:\n        /* \"#utility.yul\":5491:5554   */\n      swap2\n      pop\n        /* \"#utility.yul\":5446:5564   */\n      pop\n        /* \"#utility.yul\":4572:5571   */\n      swap3\n      swap6\n      swap2\n      swap5\n      pop\n      swap3\n      pop\n      jump\t// out\n        /* \"#utility.yul\":5577:5676   */\n    tag_148:\n        /* \"#utility.yul\":5629:5635   */\n      0x00\n        /* \"#utility.yul\":5663:5668   */\n      dup2\n        /* \"#utility.yul\":5657:5669   */\n      mload\n        /* \"#utility.yul\":5647:5669   */\n      swap1\n      pop\n        /* \"#utility.yul\":5577:5676   */\n      swap2\n      swap1\n      pop\n      jump\t// out\n        /* \"#utility.yul\":5682:5841   */\n    tag_149:\n        /* \"#utility.yul\":5756:5767   */\n      0x00\n        /* \"#utility.yul\":5790:5796   */\n      dup3\n        /* \"#utility.yul\":5785:5788   */\n      dup3\n        /* \"#utility.yul\":5778:5797   */\n      mstore\n        /* \"#utility.yul\":5830:5834   */\n      0x20\n        /* \"#utility.yul\":5825:5828   */\n      dup3\n        /* \"#utility.yul\":5821:5835   */\n      add\n        /* \"#utility.yul\":5806:5835   */\n      swap1\n      pop\n        /* \"#utility.yul\":5682:5841   */\n      swap3\n      swap2\n      pop\n      pop\n      jump\t// out\n        /* \"#utility.yul\":5847:5986   */\n    tag_150:\n        /* \"#utility.yul\":5936:5942   */\n      dup3\n        /* \"#utility.yul\":5931:5934   */\n      dup2\n        /* \"#utility.yul\":5926:5929   */\n      dup4\n        /* \"#utility.yul\":5920:5943   */\n      mcopy\n        /* \"#utility.yul\":5977:5978   */\n      0x00\n        /* \"#utility.yul\":5968:5974   */\n      dup4\n        /* \"#utility.yul\":5963:5966   */\n      dup4\n        /* \"#utility.yul\":5959:5975   */\n      add\n        /* \"#utility.yul\":5952:5979   */\n      mstore\n        /* \"#utility.yul\":5847:5986   */\n      pop\n      pop\n      pop\n      jump\t// out\n        /* \"#utility.yul\":5992:6349   */\n    tag_151:\n        /* \"#utility.yul\":6070:6073   */\n      0x00\n        /* \"#utility.yul\":6098:6137   */\n      tag_253\n        /* \"#utility.yul\":6131:6136   */\n      dup3\n        /* \"#utility.yul\":6098:6137   */\n      tag_148\n      jump\t// in\n    tag_253:\n        /* \"#utility.yul\":6153:6214   */\n      tag_254\n        /* \"#utility.yul\":6207:6213   */\n      dup2\n        /* \"#utility.yul\":6202:6205   */\n      dup6\n        /* \"#utility.yul\":6153:6214   */\n      tag_149\n      jump\t// in\n    tag_254:\n        /* \"#utility.yul\":6146:6214   */\n      swap4\n      pop\n        /* \"#utility.yul\":6223:6288   */\n      tag_255\n        /* \"#utility.yul\":6281:6287   */\n      dup2\n        /* \"#utility.yul\":6276:6279   */\n      dup6\n        /* \"#utility.yul\":6269:6273   */\n      0x20\n        /* \"#utility.yul\":6262:6267   */\n      dup7\n        /* \"#utility.yul\":6258:6274   */\n      add\n        /* \"#utility.yul\":6223:6288   */\n      tag_150\n      jump\t// in\n    tag_255:\n        /* \"#utility.yul\":6313:6342   */\n      tag_256\n        /* \"#utility.yul\":6335:6341   */\n      dup2\n        /* \"#utility.yul\":6313:6342   */\n      tag_134\n      jump\t// in\n    tag_256:\n        /* \"#utility.yul\":6308:6311   */\n      dup5\n        /* \"#utility.yul\":6304:6343   */\n      add\n        /* \"#utility.yul\":6297:6343   */\n      swap2\n      pop\n        /* \"#utility.yul\":6074:6349   */\n      pop\n        /* \"#utility.yul\":5992:6349   */\n      swap3\n      swap2\n      pop\n      pop\n      jump\t// out\n        /* \"#utility.yul\":6355:6463   */\n    tag_152:\n        /* \"#utility.yul\":6432:6456   */\n      tag_258\n        /* \"#utility.yul\":6450:6455   */\n      dup2\n        /* \"#utility.yul\":6432:6456   */\n      tag_145\n      jump\t// in\n    tag_258:\n        /* \"#utility.yul\":6427:6430   */\n      dup3\n        /* \"#utility.yul\":6420:6457   */\n      mstore\n        /* \"#utility.yul\":6355:6463   */\n      pop\n      pop\n      jump\t// out\n        /* \"#utility.yul\":6469:6559   */\n    tag_153:\n        /* \"#utility.yul\":6503:6510   */\n      0x00\n        /* \"#utility.yul\":6546:6551   */\n      dup2\n        /* \"#utility.yul\":6539:6552   */\n      iszero\n        /* \"#utility.yul\":6532:6553   */\n      iszero\n        /* \"#utility.yul\":6521:6553   */\n      swap1\n      pop\n        /* \"#utility.yul\":6469:6559   */\n      swap2\n      swap1\n      pop\n      jump\t// out\n        /* \"#utility.yul\":6565:6664   */\n    tag_154:\n        /* \"#utility.yul\":6636:6657   */\n      tag_261\n        /* \"#utility.yul\":6651:6656   */\n      dup2\n        /* \"#utility.yul\":6636:6657   */\n      tag_153\n      jump\t// in\n    tag_261:\n        /* \"#utility.yul\":6631:6634   */\n      dup3\n        /* \"#utility.yul\":6624:6658   */\n      mstore\n        /* \"#utility.yul\":6565:6664   */\n      pop\n      pop\n      jump\t// out\n        /* \"#utility.yul\":6746:8495   */\n    tag_155:\n        /* \"#utility.yul\":6863:6866   */\n      0x00\n        /* \"#utility.yul\":6899:6905   */\n      0x0100\n        /* \"#utility.yul\":6894:6897   */\n      dup4\n        /* \"#utility.yul\":6890:6906   */\n      add\n        /* \"#utility.yul\":6989:6993   */\n      0x00\n        /* \"#utility.yul\":6982:6987   */\n      dup4\n        /* \"#utility.yul\":6978:6994   */\n      add\n        /* \"#utility.yul\":6972:6995   */\n      mload\n        /* \"#utility.yul\":7042:7045   */\n      dup5\n        /* \"#utility.yul\":7036:7040   */\n      dup3\n        /* \"#utility.yul\":7032:7046   */\n      sub\n        /* \"#utility.yul\":7025:7029   */\n      0x00\n        /* \"#utility.yul\":7020:7023   */\n      dup7\n        /* \"#utility.yul\":7016:7030   */\n      add\n        /* \"#utility.yul\":7009:7047   */\n      mstore\n        /* \"#utility.yul\":7068:7141   */\n      tag_263\n        /* \"#utility.yul\":7136:7140   */\n      dup3\n        /* \"#utility.yul\":7122:7134   */\n      dup3\n        /* \"#utility.yul\":7068:7141   */\n      tag_151\n      jump\t// in\n    tag_263:\n        /* \"#utility.yul\":7060:7141   */\n      swap2\n      pop\n        /* \"#utility.yul\":6916:7152   */\n      pop\n        /* \"#utility.yul\":7241:7245   */\n      0x20\n        /* \"#utility.yul\":7234:7239   */\n      dup4\n        /* \"#utility.yul\":7230:7246   */\n      add\n        /* \"#utility.yul\":7224:7247   */\n      mload\n        /* \"#utility.yul\":7294:7297   */\n      dup5\n        /* \"#utility.yul\":7288:7292   */\n      dup3\n        /* \"#utility.yul\":7284:7298   */\n      sub\n        /* \"#utility.yul\":7277:7281   */\n      0x20\n        /* \"#utility.yul\":7272:7275   */\n      dup7\n        /* \"#utility.yul\":7268:7282   */\n      add\n        /* \"#utility.yul\":7261:7299   */\n      mstore\n        /* \"#utility.yul\":7320:7393   */\n      tag_264\n        /* \"#utility.yul\":7388:7392   */\n      dup3\n        /* \"#utility.yul\":7374:7386   */\n      dup3\n        /* \"#utility.yul\":7320:7393   */\n      tag_151\n      jump\t// in\n    tag_264:\n        /* \"#utility.yul\":7312:7393   */\n      swap2\n      pop\n        /* \"#utility.yul\":7162:7404   */\n      pop\n        /* \"#utility.yul\":7489:7493   */\n      0x40\n        /* \"#utility.yul\":7482:7487   */\n      dup4\n        /* \"#utility.yul\":7478:7494   */\n      add\n        /* \"#utility.yul\":7472:7495   */\n      mload\n        /* \"#utility.yul\":7508:7571   */\n      tag_265\n        /* \"#utility.yul\":7565:7569   */\n      0x40\n        /* \"#utility.yul\":7560:7563   */\n      dup7\n        /* \"#utility.yul\":7556:7570   */\n      add\n        /* \"#utility.yul\":7542:7554   */\n      dup3\n        /* \"#utility.yul\":7508:7571   */\n      tag_152\n      jump\t// in\n    tag_265:\n        /* \"#utility.yul\":7414:7581   */\n      pop\n        /* \"#utility.yul\":7665:7669   */\n      0x60\n        /* \"#utility.yul\":7658:7663   */\n      dup4\n        /* \"#utility.yul\":7654:7670   */\n      add\n        /* \"#utility.yul\":7648:7671   */\n      mload\n        /* \"#utility.yul\":7684:7747   */\n      tag_266\n        /* \"#utility.yul\":7741:7745   */\n      0x60\n        /* \"#utility.yul\":7736:7739   */\n      dup7\n        /* \"#utility.yul\":7732:7746   */\n      add\n        /* \"#utility.yul\":7718:7730   */\n      dup3\n        /* \"#utility.yul\":7684:7747   */\n      tag_152\n      jump\t// in\n    tag_266:\n        /* \"#utility.yul\":7591:7757   */\n      pop\n        /* \"#utility.yul\":7839:7843   */\n      0x80\n        /* \"#utility.yul\":7832:7837   */\n      dup4\n        /* \"#utility.yul\":7828:7844   */\n      add\n        /* \"#utility.yul\":7822:7845   */\n      mload\n        /* \"#utility.yul\":7858:7921   */\n      tag_267\n        /* \"#utility.yul\":7915:7919   */\n      0x80\n        /* \"#utility.yul\":7910:7913   */\n      dup7\n        /* \"#utility.yul\":7906:7920   */\n      add\n        /* \"#utility.yul\":7892:7904   */\n      dup3\n        /* \"#utility.yul\":7858:7921   */\n      tag_152\n      jump\t// in\n    tag_267:\n        /* \"#utility.yul\":7767:7931   */\n      pop\n        /* \"#utility.yul\":8026:8030   */\n      0xa0\n        /* \"#utility.yul\":8019:8024   */\n      dup4\n        /* \"#utility.yul\":8015:8031   */\n      add\n        /* \"#utility.yul\":8009:8032   */\n      mload\n        /* \"#utility.yul\":8045:8108   */\n      tag_268\n        /* \"#utility.yul\":8102:8106   */\n      0xa0\n        /* \"#utility.yul\":8097:8100   */\n      dup7\n        /* \"#utility.yul\":8093:8107   */\n      add\n        /* \"#utility.yul\":8079:8091   */\n      dup3\n        /* \"#utility.yul\":8045:8108   */\n      tag_152\n      jump\t// in\n    tag_268:\n        /* \"#utility.yul\":7941:8118   */\n      pop\n        /* \"#utility.yul\":8209:8213   */\n      0xc0\n        /* \"#utility.yul\":8202:8207   */\n      dup4\n        /* \"#utility.yul\":8198:8214   */\n      add\n        /* \"#utility.yul\":8192:8215   */\n      mload\n        /* \"#utility.yul\":8228:8285   */\n      tag_269\n        /* \"#utility.yul\":8279:8283   */\n      0xc0\n        /* \"#utility.yul\":8274:8277   */\n      dup7\n        /* \"#utility.yul\":8270:8284   */\n      add\n        /* \"#utility.yul\":8256:8268   */\n      dup3\n        /* \"#utility.yul\":8228:8285   */\n      tag_154\n      jump\t// in\n    tag_269:\n        /* \"#utility.yul\":8128:8295   */\n      pop\n        /* \"#utility.yul\":8382:8386   */\n      0xe0\n        /* \"#utility.yul\":8375:8380   */\n      dup4\n        /* \"#utility.yul\":8371:8387   */\n      add\n        /* \"#utility.yul\":8365:8388   */\n      mload\n        /* \"#utility.yul\":8401:8458   */\n      tag_270\n        /* \"#utility.yul\":8452:8456   */\n      0xe0\n        /* \"#utility.yul\":8447:8450   */\n      dup7\n        /* \"#utility.yul\":8443:8457   */\n      add\n        /* \"#utility.yul\":8429:8441   */\n      dup3\n        /* \"#utility.yul\":8401:8458   */\n      tag_154\n      jump\t// in\n    tag_270:\n        /* \"#utility.yul\":8305:8468   */\n      pop\n        /* \"#utility.yul\":8485:8489   */\n      dup1\n        /* \"#utility.yul\":8478:8489   */\n      swap2\n      pop\n        /* \"#utility.yul\":6868:8495   */\n      pop\n        /* \"#utility.yul\":6746:8495   */\n      swap3\n      swap2\n      pop\n      pop\n      jump\t// out\n        /* \"#utility.yul\":8501:8870   */\n    tag_20:\n        /* \"#utility.yul\":8642:8646   */\n      0x00\n        /* \"#utility.yul\":8680:8682   */\n      0x20\n        /* \"#utility.yul\":8669:8678   */\n      dup3\n        /* \"#utility.yul\":8665:8683   */\n      add\n        /* \"#utility.yul\":8657:8683   */\n      swap1\n      pop\n        /* \"#utility.yul\":8729:8738   */\n      dup2\n        /* \"#utility.yul\":8723:8727   */\n      dup2\n        /* \"#utility.yul\":8719:8739   */\n      sub\n        /* \"#utility.yul\":8715:8716   */\n      0x00\n        /* \"#utility.yul\":8704:8713   */\n      dup4\n        /* \"#utility.yul\":8700:8717   */\n      add\n        /* \"#utility.yul\":8693:8740   */\n      mstore\n        /* \"#utility.yul\":8757:8863   */\n      tag_272\n        /* \"#utility.yul\":8858:8862   */\n      dup2\n        /* \"#utility.yul\":8849:8855   */\n      dup5\n        /* \"#utility.yul\":8757:8863   */\n      tag_155\n      jump\t// in\n    tag_272:\n        /* \"#utility.yul\":8749:8863   */\n      swap1\n      pop\n        /* \"#utility.yul\":8501:8870   */\n      swap3\n      swap2\n      pop\n      pop\n      jump\t// out\n        /* \"#utility.yul\":8876:8962   */\n    tag_156:\n        /* \"#utility.yul\":8911:8918   */\n      0x00\n        /* \"#utility.yul\":8951:8955   */\n      0xff\n        /* \"#utility.yul\":8944:8949   */\n      dup3\n        /* \"#utility.yul\":8940:8956   */\n      and\n        /* \"#utility.yul\":8929:8956   */\n      swap1\n      pop\n        /* \"#utility.yul\":8876:8962   */\n      swap2\n      swap1\n      pop\n      jump\t// out\n        /* \"#utility.yul\":8968:9086   */\n    tag_157:\n        /* \"#utility.yul\":9039:9061   */\n      tag_275\n        /* \"#utility.yul\":9055:9060   */\n      dup2\n        /* \"#utility.yul\":9039:9061   */\n      tag_156\n      jump\t// in\n    tag_275:\n        /* \"#utility.yul\":9032:9037   */\n      dup2\n        /* \"#utility.yul\":9029:9062   */\n      eq\n        /* \"#utility.yul\":9019:9080   */\n      tag_276\n      jumpi\n        /* \"#utility.yul\":9076:9077   */\n      0x00\n        /* \"#utility.yul\":9073:9074   */\n      dup1\n        /* \"#utility.yul\":9066:9078   */\n      revert\n        /* \"#utility.yul\":9019:9080   */\n    tag_276:\n        /* \"#utility.yul\":8968:9086   */\n      pop\n      jump\t// out\n        /* \"#utility.yul\":9092:9227   */\n    tag_158:\n        /* \"#utility.yul\":9136:9141   */\n      0x00\n        /* \"#utility.yul\":9174:9180   */\n      dup2\n        /* \"#utility.yul\":9161:9181   */\n      calldataload\n        /* \"#utility.yul\":9152:9181   */\n      swap1\n      pop\n        /* \"#utility.yul\":9190:9221   */\n      tag_278\n        /* \"#utility.yul\":9215:9220   */\n      dup2\n        /* \"#utility.yul\":9190:9221   */\n      tag_157\n      jump\t// in\n    tag_278:\n        /* \"#utility.yul\":9092:9227   */\n      swap3\n      swap2\n      pop\n      pop\n      jump\t// out\n        /* \"#utility.yul\":9233:9558   */\n    tag_23:\n        /* \"#utility.yul\":9290:9296   */\n      0x00\n        /* \"#utility.yul\":9339:9341   */\n      0x20\n        /* \"#utility.yul\":9327:9336   */\n      dup3\n        /* \"#utility.yul\":9318:9325   */\n      dup5\n        /* \"#utility.yul\":9314:9337   */\n      sub\n        /* \"#utility.yul\":9310:9342   */\n      slt\n        /* \"#utility.yul\":9307:9426   */\n      iszero\n      tag_280\n      jumpi\n        /* \"#utility.yul\":9345:9424   */\n      tag_281\n      tag_126\n      jump\t// in\n    tag_281:\n        /* \"#utility.yul\":9307:9426   */\n    tag_280:\n        /* \"#utility.yul\":9465:9466   */\n      0x00\n        /* \"#utility.yul\":9490:9541   */\n      tag_282\n        /* \"#utility.yul\":9533:9540   */\n      dup5\n        /* \"#utility.yul\":9524:9530   */\n      dup3\n        /* \"#utility.yul\":9513:9522   */\n      dup6\n        /* \"#utility.yul\":9509:9531   */\n      add\n        /* \"#utility.yul\":9490:9541   */\n      tag_158\n      jump\t// in\n    tag_282:\n        /* \"#utility.yul\":9480:9541   */\n      swap2\n      pop\n        /* \"#utility.yul\":9436:9551   */\n      pop\n        /* \"#utility.yul\":9233:9558   */\n      swap3\n      swap2\n      pop\n      pop\n      jump\t// out\n        /* \"#utility.yul\":9564:9893   */\n    tag_27:\n        /* \"#utility.yul\":9623:9629   */\n      0x00\n        /* \"#utility.yul\":9672:9674   */\n      0x20\n        /* \"#utility.yul\":9660:9669   */\n      dup3\n        /* \"#utility.yul\":9651:9658   */\n      dup5\n        /* \"#utility.yul\":9647:9670   */\n      sub\n        /* \"#utility.yul\":9643:9675   */\n      slt\n        /* \"#utility.yul\":9640:9759   */\n      iszero\n      tag_284\n      jumpi\n        /* \"#utility.yul\":9678:9757   */\n      tag_285\n      tag_126\n      jump\t// in\n    tag_285:\n        /* \"#utility.yul\":9640:9759   */\n    tag_284:\n        /* \"#utility.yul\":9798:9799   */\n      0x00\n        /* \"#utility.yul\":9823:9876   */\n      tag_286\n        /* \"#utility.yul\":9868:9875   */\n      dup5\n        /* \"#utility.yul\":9859:9865   */\n      dup3\n        /* \"#utility.yul\":9848:9857   */\n      dup6\n        /* \"#utility.yul\":9844:9866   */\n      add\n        /* \"#utility.yul\":9823:9876   */\n      tag_147\n      jump\t// in\n    tag_286:\n        /* \"#utility.yul\":9813:9876   */\n      swap2\n      pop\n        /* \"#utility.yul\":9769:9886   */\n      pop\n        /* \"#utility.yul\":9564:9893   */\n      swap3\n      swap2\n      pop\n      pop\n      jump\t// out\n        /* \"#utility.yul\":9899:10068   */\n    tag_159:\n        /* \"#utility.yul\":9983:9994   */\n      0x00\n        /* \"#utility.yul\":10017:10023   */\n      dup3\n        /* \"#utility.yul\":10012:10015   */\n      dup3\n        /* \"#utility.yul\":10005:10024   */\n      mstore\n        /* \"#utility.yul\":10057:10061   */\n      0x20\n        /* \"#utility.yul\":10052:10055   */\n      dup3\n        /* \"#utility.yul\":10048:10062   */\n      add\n        /* \"#utility.yul\":10033:10062   */\n      swap1\n      pop\n        /* \"#utility.yul\":9899:10068   */\n      swap3\n      swap2\n      pop\n      pop\n      jump\t// out\n        /* \"#utility.yul\":10074:10238   */\n    tag_160:\n        /* \"#utility.yul\":10214:10230   */\n      0x4f6e6c79204f776e65722063616e000000000000000000000000000000000000\n        /* \"#utility.yul\":10210:10211   */\n      0x00\n        /* \"#utility.yul\":10202:10208   */\n      dup3\n        /* \"#utility.yul\":10198:10212   */\n      add\n        /* \"#utility.yul\":10191:10231   */\n      mstore\n        /* \"#utility.yul\":10074:10238   */\n      pop\n      jump\t// out\n        /* \"#utility.yul\":10244:10610   */\n    tag_161:\n        /* \"#utility.yul\":10386:10389   */\n      0x00\n        /* \"#utility.yul\":10407:10474   */\n      tag_290\n        /* \"#utility.yul\":10471:10473   */\n      0x0e\n        /* \"#utility.yul\":10466:10469   */\n      dup4\n        /* \"#utility.yul\":10407:10474   */\n      tag_159\n      jump\t// in\n    tag_290:\n        /* \"#utility.yul\":10400:10474   */\n      swap2\n      pop\n        /* \"#utility.yul\":10483:10576   */\n      tag_291\n        /* \"#utility.yul\":10572:10575   */\n      dup3\n        /* \"#utility.yul\":10483:10576   */\n      tag_160\n      jump\t// in\n    tag_291:\n        /* \"#utility.yul\":10601:10603   */\n      0x20\n        /* \"#utility.yul\":10596:10599   */\n      dup3\n        /* \"#utility.yul\":10592:10604   */\n      add\n        /* \"#utility.yul\":10585:10604   */\n      swap1\n      pop\n        /* \"#utility.yul\":10244:10610   */\n      swap2\n      swap1\n      pop\n      jump\t// out\n        /* \"#utility.yul\":10616:11035   */\n    tag_35:\n        /* \"#utility.yul\":10782:10786   */\n      0x00\n        /* \"#utility.yul\":10820:10822   */\n      0x20\n        /* \"#utility.yul\":10809:10818   */\n      dup3\n        /* \"#utility.yul\":10805:10823   */\n      add\n        /* \"#utility.yul\":10797:10823   */\n      swap1\n      pop\n        /* \"#utility.yul\":10869:10878   */\n      dup2\n        /* \"#utility.yul\":10863:10867   */\n      dup2\n        /* \"#utility.yul\":10859:10879   */\n      sub\n        /* \"#utility.yul\":10855:10856   */\n      0x00\n        /* \"#utility.yul\":10844:10853   */\n      dup4\n        /* \"#utility.yul\":10840:10857   */\n      add\n        /* \"#utility.yul\":10833:10880   */\n      mstore\n        /* \"#utility.yul\":10897:11028   */\n      tag_293\n        /* \"#utility.yul\":11023:11027   */\n      dup2\n        /* \"#utility.yul\":10897:11028   */\n      tag_161\n      jump\t// in\n    tag_293:\n        /* \"#utility.yul\":10889:11028   */\n      swap1\n      pop\n        /* \"#utility.yul\":10616:11035   */\n      swap2\n      swap1\n      pop\n      jump\t// out\n        /* \"#utility.yul\":11041:11221   */\n    tag_162:\n        /* \"#utility.yul\":11089:11166   */\n      0x4e487b7100000000000000000000000000000000000000000000000000000000\n        /* \"#utility.yul\":11086:11087   */\n      0x00\n        /* \"#utility.yul\":11079:11167   */\n      mstore\n        /* \"#utility.yul\":11186:11190   */\n      0x11\n        /* \"#utility.yul\":11183:11184   */\n      0x04\n        /* \"#utility.yul\":11176:11191   */\n      mstore\n        /* \"#utility.yul\":11210:11214   */\n      0x24\n        /* \"#utility.yul\":11207:11208   */\n      0x00\n        /* \"#utility.yul\":11200:11215   */\n      revert\n        /* \"#utility.yul\":11227:11418   */\n    tag_42:\n        /* \"#utility.yul\":11267:11270   */\n      0x00\n        /* \"#utility.yul\":11286:11306   */\n      tag_296\n        /* \"#utility.yul\":11304:11305   */\n      dup3\n        /* \"#utility.yul\":11286:11306   */\n      tag_145\n      jump\t// in\n    tag_296:\n        /* \"#utility.yul\":11281:11306   */\n      swap2\n      pop\n        /* \"#utility.yul\":11320:11340   */\n      tag_297\n        /* \"#utility.yul\":11338:11339   */\n      dup4\n        /* \"#utility.yul\":11320:11340   */\n      tag_145\n      jump\t// in\n    tag_297:\n        /* \"#utility.yul\":11315:11340   */\n      swap3\n      pop\n        /* \"#utility.yul\":11363:11364   */\n      dup3\n        /* \"#utility.yul\":11360:11361   */\n      dup3\n        /* \"#utility.yul\":11356:11365   */\n      add\n        /* \"#utility.yul\":11349:11365   */\n      swap1\n      pop\n        /* \"#utility.yul\":11384:11387   */\n      dup1\n        /* \"#utility.yul\":11381:11382   */\n      dup3\n        /* \"#utility.yul\":11378:11388   */\n      gt\n        /* \"#utility.yul\":11375:11411   */\n      iszero\n      tag_298\n      jumpi\n        /* \"#utility.yul\":11391:11409   */\n      tag_299\n      tag_162\n      jump\t// in\n    tag_299:\n        /* \"#utility.yul\":11375:11411   */\n    tag_298:\n        /* \"#utility.yul\":11227:11418   */\n      swap3\n      swap2\n      pop\n      pop\n      jump\t// out\n        /* \"#utility.yul\":11424:11604   */\n    tag_163:\n        /* \"#utility.yul\":11472:11549   */\n      0x4e487b7100000000000000000000000000000000000000000000000000000000\n        /* \"#utility.yul\":11469:11470   */\n      0x00\n        /* \"#utility.yul\":11462:11550   */\n      mstore\n        /* \"#utility.yul\":11569:11573   */\n      0x22\n        /* \"#utility.yul\":11566:11567   */\n      0x04\n        /* \"#utility.yul\":11559:11574   */\n      mstore\n        /* \"#utility.yul\":11593:11597   */\n      0x24\n        /* \"#utility.yul\":11590:11591   */\n      0x00\n        /* \"#utility.yul\":11583:11598   */\n      revert\n        /* \"#utility.yul\":11610:11930   */\n    tag_50:\n        /* \"#utility.yul\":11654:11660   */\n      0x00\n        /* \"#utility.yul\":11691:11692   */\n      0x02\n        /* \"#utility.yul\":11685:11689   */\n      dup3\n        /* \"#utility.yul\":11681:11693   */\n      div\n        /* \"#utility.yul\":11671:11693   */\n      swap1\n      pop\n        /* \"#utility.yul\":11738:11739   */\n      0x01\n        /* \"#utility.yul\":11732:11736   */\n      dup3\n        /* \"#utility.yul\":11728:11740   */\n      and\n        /* \"#utility.yul\":11759:11777   */\n      dup1\n        /* \"#utility.yul\":11749:11830   */\n      tag_302\n      jumpi\n        /* \"#utility.yul\":11815:11819   */\n      0x7f\n        /* \"#utility.yul\":11807:11813   */\n      dup3\n        /* \"#utility.yul\":11803:11820   */\n      and\n        /* \"#utility.yul\":11793:11820   */\n      swap2\n      pop\n        /* \"#utility.yul\":11749:11830   */\n    tag_302:\n        /* \"#utility.yul\":11877:11879   */\n      0x20\n        /* \"#utility.yul\":11869:11875   */\n      dup3\n        /* \"#utility.yul\":11866:11880   */\n      lt\n        /* \"#utility.yul\":11846:11864   */\n      dup2\n        /* \"#utility.yul\":11843:11881   */\n      sub\n        /* \"#utility.yul\":11840:11924   */\n      tag_303\n      jumpi\n        /* \"#utility.yul\":11896:11914   */\n      tag_304\n      tag_163\n      jump\t// in\n    tag_304:\n        /* \"#utility.yul\":11840:11924   */\n    tag_303:\n        /* \"#utility.yul\":11661:11930   */\n      pop\n        /* \"#utility.yul\":11610:11930   */\n      swap2\n      swap1\n      pop\n      jump\t// out\n        /* \"#utility.yul\":11936:12077   */\n    tag_164:\n        /* \"#utility.yul\":11985:11989   */\n      0x00\n        /* \"#utility.yul\":12008:12011   */\n      dup2\n        /* \"#utility.yul\":12000:12011   */\n      swap1\n      pop\n        /* \"#utility.yul\":12031:12034   */\n      dup2\n        /* \"#utility.yul\":12028:12029   */\n      0x00\n        /* \"#utility.yul\":12021:12035   */\n      mstore\n        /* \"#utility.yul\":12065:12069   */\n      0x20\n        /* \"#utility.yul\":12062:12063   */\n      0x00\n        /* \"#utility.yul\":12052:12070   */\n      keccak256\n        /* \"#utility.yul\":12044:12070   */\n      swap1\n      pop\n        /* \"#utility.yul\":11936:12077   */\n      swap2\n      swap1\n      pop\n      jump\t// out\n        /* \"#utility.yul\":12083:12176   */\n    tag_165:\n        /* \"#utility.yul\":12120:12126   */\n      0x00\n        /* \"#utility.yul\":12167:12169   */\n      0x20\n        /* \"#utility.yul\":12162:12164   */\n      0x1f\n        /* \"#utility.yul\":12155:12160   */\n      dup4\n        /* \"#utility.yul\":12151:12165   */\n      add\n        /* \"#utility.yul\":12147:12170   */\n      div\n        /* \"#utility.yul\":12137:12170   */\n      swap1\n      pop\n        /* \"#utility.yul\":12083:12176   */\n      swap2\n      swap1\n      pop\n      jump\t// out\n        /* \"#utility.yul\":12182:12289   */\n    tag_166:\n        /* \"#utility.yul\":12226:12234   */\n      0x00\n        /* \"#utility.yul\":12276:12281   */\n      dup3\n        /* \"#utility.yul\":12270:12274   */\n      dup3\n        /* \"#utility.yul\":12266:12282   */\n      shl\n        /* \"#utility.yul\":12245:12282   */\n      swap1\n      pop\n        /* \"#utility.yul\":12182:12289   */\n      swap3\n      swap2\n      pop\n      pop\n      jump\t// out\n        /* \"#utility.yul\":12295:12688   */\n    tag_167:\n        /* \"#utility.yul\":12364:12370   */\n      0x00\n        /* \"#utility.yul\":12414:12415   */\n      0x08\n        /* \"#utility.yul\":12402:12412   */\n      dup4\n        /* \"#utility.yul\":12398:12416   */\n      mul\n        /* \"#utility.yul\":12437:12534   */\n      tag_309\n        /* \"#utility.yul\":12467:12533   */\n      0xffffffffffffffffffffffffffffffffffffffffffffffffffffffffffffffff\n        /* \"#utility.yul\":12456:12465   */\n      dup3\n        /* \"#utility.yul\":12437:12534   */\n      tag_166\n      jump\t// in\n    tag_309:\n        /* \"#utility.yul\":12555:12594   */\n      tag_310\n        /* \"#utility.yul\":12585:12593   */\n      dup7\n        /* \"#utility.yul\":12574:12583   */\n      dup4\n        /* \"#utility.yul\":12555:12594   */\n      tag_166\n      jump\t// in\n    tag_310:\n        /* \"#utility.yul\":12543:12594   */\n      swap6\n      pop\n        /* \"#utility.yul\":12627:12631   */\n      dup1\n        /* \"#utility.yul\":12623:12632   */\n      not\n        /* \"#utility.yul\":12616:12621   */\n      dup5\n        /* \"#utility.yul\":12612:12633   */\n      and\n        /* \"#utility.yul\":12603:12633   */\n      swap4\n      pop\n        /* \"#utility.yul\":12676:12680   */\n      dup1\n        /* \"#utility.yul\":12666:12674   */\n      dup7\n        /* \"#utility.yul\":12662:12681   */\n      and\n        /* \"#utility.yul\":12655:12660   */\n      dup5\n        /* \"#utility.yul\":12652:12682   */\n      or\n        /* \"#utility.yul\":12642:12682   */\n      swap3\n      pop\n        /* \"#utility.yul\":12371:12688   */\n      pop\n      pop\n        /* \"#utility.yul\":12295:12688   */\n      swap4\n      swap3\n      pop\n      pop\n      pop\n      jump\t// out\n        /* \"#utility.yul\":12694:12754   */\n    tag_168:\n        /* \"#utility.yul\":12722:12725   */\n      0x00\n        /* \"#utility.yul\":12743:12748   */\n      dup2\n        /* \"#utility.yul\":12736:12748   */\n      swap1\n      pop\n        /* \"#utility.yul\":12694:12754   */\n      swap2\n      swap1\n      pop\n      jump\t// out\n        /* \"#utility.yul\":12760:12902   */\n    tag_169:\n        /* \"#utility.yul\":12810:12819   */\n      0x00\n        /* \"#utility.yul\":12843:12896   */\n      tag_313\n        /* \"#utility.yul\":12861:12895   */\n      tag_314\n        /* \"#utility.yul\":12870:12894   */\n      tag_315\n        /* \"#utility.yul\":12888:12893   */\n      dup5\n        /* \"#utility.yul\":12870:12894   */\n      tag_145\n      jump\t// in\n    tag_315:\n        /* \"#utility.yul\":12861:12895   */\n      tag_168\n      jump\t// in\n    tag_314:\n        /* \"#utility.yul\":12843:12896   */\n      tag_145\n      jump\t// in\n    tag_313:\n        /* \"#utility.yul\":12830:12896   */\n      swap1\n      pop\n        /* \"#utility.yul\":12760:12902   */\n      swap2\n      swap1\n      pop\n      jump\t// out\n        /* \"#utility.yul\":12908:12983   */\n    tag_170:\n        /* \"#utility.yul\":12951:12954   */\n      0x00\n        /* \"#utility.yul\":12972:12977   */\n      dup2\n        /* \"#utility.yul\":12965:12977   */\n      swap1\n      pop\n        /* \"#utility.yul\":12908:12983   */\n      swap2\n      swap1\n      pop\n      jump\t// out\n        /* \"#utility.yul\":12989:13258   */\n    tag_171:\n        /* \"#utility.yul\":13099:13138   */\n      tag_318\n        /* \"#utility.yul\":13130:13137   */\n      dup4\n        /* \"#utility.yul\":13099:13138   */\n      tag_169\n      jump\t// in\n    tag_318:\n        /* \"#utility.yul\":13160:13251   */\n      tag_319\n        /* \"#utility.yul\":13209:13250   */\n      tag_320\n        /* \"#utility.yul\":13233:13249   */\n      dup3\n        /* \"#utility.yul\":13209:13250   */\n      tag_170\n      jump\t// in\n    tag_320:\n        /* \"#utility.yul\":13201:13207   */\n      dup5\n        /* \"#utility.yul\":13194:13198   */\n      dup5\n        /* \"#utility.yul\":13188:13199   */\n      sload\n        /* \"#utility.yul\":13160:13251   */\n      tag_167\n      jump\t// in\n    tag_319:\n        /* \"#utility.yul\":13154:13158   */\n      dup3\n        /* \"#utility.yul\":13147:13252   */\n      sstore\n        /* \"#utility.yul\":13065:13258   */\n      pop\n        /* \"#utility.yul\":12989:13258   */\n      pop\n      pop\n      pop\n      jump\t// out\n        /* \"#utility.yul\":13264:13337   */\n    tag_172:\n        /* \"#utility.yul\":13309:13312   */\n      0x00\n        /* \"#utility.yul\":13264:13337   */\n      swap1\n      jump\t// out\n        /* \"#utility.yul\":13343:13532   */\n    tag_173:\n        /* \"#utility.yul\":13420:13452   */\n      tag_323\n      tag_172\n      jump\t// in\n    tag_323:\n        /* \"#utility.yul\":13461:13526   */\n      tag_324\n        /* \"#utility.yul\":13519:13525   */\n      dup2\n        /* \"#utility.yul\":13511:13517   */\n      dup5\n        /* \"#utility.yul\":13505:13509   */\n      dup5\n        /* \"#utility.yul\":13461:13526   */\n      tag_171\n      jump\t// in\n    tag_324:\n        /* \"#utility.yul\":13396:13532   */\n      pop\n        /* \"#utility.yul\":13343:13532   */\n      pop\n      pop\n      jump\t// out\n        /* \"#utility.yul\":13538:13724   */\n    tag_174:\n        /* \"#utility.yul\":13598:13718   */\n    tag_326:\n        /* \"#utility.yul\":13615:13618   */\n      dup2\n        /* \"#utility.yul\":13608:13613   */\n      dup2\n        /* \"#utility.yul\":13605:13619   */\n      lt\n        /* \"#utility.yul\":13598:13718   */\n      iszero\n      tag_328\n      jumpi\n        /* \"#utility.yul\":13669:13708   */\n      tag_329\n        /* \"#utility.yul\":13706:13707   */\n      0x00\n        /* \"#utility.yul\":13699:13704   */\n      dup3\n        /* \"#utility.yul\":13669:13708   */\n      tag_173\n      jump\t// in\n    tag_329:\n        /* \"#utility.yul\":13642:13643   */\n      0x01\n        /* \"#utility.yul\":13635:13640   */\n      dup2\n        /* \"#utility.yul\":13631:13644   */\n      add\n        /* \"#utility.yul\":13622:13644   */\n      swap1\n      pop\n        /* \"#utility.yul\":13598:13718   */\n      jump(tag_326)\n    tag_328:\n        /* \"#utility.yul\":13538:13724   */\n      pop\n      pop\n      jump\t// out\n        /* \"#utility.yul\":13730:14273   */\n    tag_175:\n        /* \"#utility.yul\":13831:13833   */\n      0x1f\n        /* \"#utility.yul\":13826:13829   */\n      dup3\n        /* \"#utility.yul\":13823:13834   */\n      gt\n        /* \"#utility.yul\":13820:14266   */\n      iszero\n      tag_331\n      jumpi\n        /* \"#utility.yul\":13865:13903   */\n      tag_332\n        /* \"#utility.yul\":13897:13902   */\n      dup2\n        /* \"#utility.yul\":13865:13903   */\n      tag_164\n      jump\t// in\n    tag_332:\n        /* \"#utility.yul\":13949:13978   */\n      tag_333\n        /* \"#utility.yul\":13967:13977   */\n      dup5\n        /* \"#utility.yul\":13949:13978   */\n      tag_165\n      jump\t// in\n    tag_333:\n        /* \"#utility.yul\":13939:13947   */\n      dup2\n        /* \"#utility.yul\":13935:13979   */\n      add\n        /* \"#utility.yul\":14132:14134   */\n      0x20\n        /* \"#utility.yul\":14120:14130   */\n      dup6\n        /* \"#utility.yul\":14117:14135   */\n      lt\n        /* \"#utility.yul\":14114:14163   */\n      iszero\n      tag_334\n      jumpi\n        /* \"#utility.yul\":14153:14161   */\n      dup2\n        /* \"#utility.yul\":14138:14161   */\n      swap1\n      pop\n        /* \"#utility.yul\":14114:14163   */\n    tag_334:\n        /* \"#utility.yul\":14176:14256   */\n      tag_335\n        /* \"#utility.yul\":14232:14254   */\n      tag_336\n        /* \"#utility.yul\":14250:14253   */\n      dup6\n        /* \"#utility.yul\":14232:14254   */\n      tag_165\n      jump\t// in\n    tag_336:\n        /* \"#utility.yul\":14222:14230   */\n      dup4\n        /* \"#utility.yul\":14218:14255   */\n      add\n        /* \"#utility.yul\":14205:14216   */\n      dup3\n        /* \"#utility.yul\":14176:14256   */\n      tag_174\n      jump\t// in\n    tag_335:\n        /* \"#utility.yul\":13835:14266   */\n      pop\n      pop\n        /* \"#utility.yul\":13820:14266   */\n    tag_331:\n        /* \"#utility.yul\":13730:14273   */\n      pop\n      pop\n      pop\n      jump\t// out\n        /* \"#utility.yul\":14279:14396   */\n    tag_176:\n        /* \"#utility.yul\":14333:14341   */\n      0x00\n        /* \"#utility.yul\":14383:14388   */\n      dup3\n        /* \"#utility.yul\":14377:14381   */\n      dup3\n        /* \"#utility.yul\":14373:14389   */\n      shr\n        /* \"#utility.yul\":14352:14389   */\n      swap1\n      pop\n        /* \"#utility.yul\":14279:14396   */\n      swap3\n      swap2\n      pop\n      pop\n      jump\t// out\n        /* \"#utility.yul\":14402:14571   */\n    tag_177:\n        /* \"#utility.yul\":14446:14452   */\n      0x00\n        /* \"#utility.yul\":14479:14530   */\n      tag_339\n        /* \"#utility.yul\":14527:14528   */\n      0x00\n        /* \"#utility.yul\":14523:14529   */\n      not\n        /* \"#utility.yul\":14515:14520   */\n      dup5\n        /* \"#utility.yul\":14512:14513   */\n      0x08\n        /* \"#utility.yul\":14508:14521   */\n      mul\n        /* \"#utility.yul\":14479:14530   */\n      tag_176\n      jump\t// in\n    tag_339:\n        /* \"#utility.yul\":14475:14531   */\n      not\n        /* \"#utility.yul\":14560:14564   */\n      dup1\n        /* \"#utility.yul\":14554:14558   */\n      dup4\n        /* \"#utility.yul\":14550:14565   */\n      and\n        /* \"#utility.yul\":14540:14565   */\n      swap2\n      pop\n        /* \"#utility.yul\":14453:14571   */\n      pop\n        /* \"#utility.yul\":14402:14571   */\n      swap3\n      swap2\n      pop\n      pop\n      jump\t// out\n        /* \"#utility.yul\":14576:14871   */\n    tag_178:\n        /* \"#utility.yul\":14652:14656   */\n      0x00\n        /* \"#utility.yul\":14798:14827   */\n      tag_341\n        /* \"#utility.yul\":14823:14826   */\n      dup4\n        /* \"#utility.yul\":14817:14821   */\n      dup4\n        /* \"#utility.yul\":14798:14827   */\n      tag_177\n      jump\t// in\n    tag_341:\n        /* \"#utility.yul\":14790:14827   */\n      swap2\n      pop\n        /* \"#utility.yul\":14860:14863   */\n      dup3\n        /* \"#utility.yul\":14857:14858   */\n      0x02\n        /* \"#utility.yul\":14853:14864   */\n      mul\n        /* \"#utility.yul\":14847:14851   */\n      dup3\n        /* \"#utility.yul\":14844:14865   */\n      or\n        /* \"#utility.yul\":14836:14865   */\n      swap1\n      pop\n        /* \"#utility.yul\":14576:14871   */\n      swap3\n      swap2\n      pop\n      pop\n      jump\t// out\n        /* \"#utility.yul\":14876:16271   */\n    tag_44:\n        /* \"#utility.yul\":14993:15030   */\n      tag_343\n        /* \"#utility.yul\":15026:15029   */\n      dup3\n        /* \"#utility.yul\":14993:15030   */\n      tag_148\n      jump\t// in\n    tag_343:\n        /* \"#utility.yul\":15095:15113   */\n      0xffffffffffffffff\n        /* \"#utility.yul\":15087:15093   */\n      dup2\n        /* \"#utility.yul\":15084:15114   */\n      gt\n        /* \"#utility.yul\":15081:15137   */\n      iszero\n      tag_344\n      jumpi\n        /* \"#utility.yul\":15117:15135   */\n      tag_345\n      tag_135\n      jump\t// in\n    tag_345:\n        /* \"#utility.yul\":15081:15137   */\n    tag_344:\n        /* \"#utility.yul\":15161:15199   */\n      tag_346\n        /* \"#utility.yul\":15193:15197   */\n      dup3\n        /* \"#utility.yul\":15187:15198   */\n      sload\n        /* \"#utility.yul\":15161:15199   */\n      tag_50\n      jump\t// in\n    tag_346:\n        /* \"#utility.yul\":15246:15313   */\n      tag_347\n        /* \"#utility.yul\":15306:15312   */\n      dup3\n        /* \"#utility.yul\":15298:15304   */\n      dup3\n        /* \"#utility.yul\":15292:15296   */\n      dup6\n        /* \"#utility.yul\":15246:15313   */\n      tag_175\n      jump\t// in\n    tag_347:\n        /* \"#utility.yul\":15340:15341   */\n      0x00\n        /* \"#utility.yul\":15364:15368   */\n      0x20\n        /* \"#utility.yul\":15351:15368   */\n      swap1\n      pop\n        /* \"#utility.yul\":15396:15398   */\n      0x1f\n        /* \"#utility.yul\":15388:15394   */\n      dup4\n        /* \"#utility.yul\":15385:15399   */\n      gt\n        /* \"#utility.yul\":15413:15414   */\n      0x01\n        /* \"#utility.yul\":15408:16026   */\n      dup2\n      eq\n      tag_349\n      jumpi\n        /* \"#utility.yul\":16070:16071   */\n      0x00\n        /* \"#utility.yul\":16087:16093   */\n      dup5\n        /* \"#utility.yul\":16084:16161   */\n      iszero\n      tag_350\n      jumpi\n        /* \"#utility.yul\":16136:16145   */\n      dup3\n        /* \"#utility.yul\":16131:16134   */\n      dup8\n        /* \"#utility.yul\":16127:16146   */\n      add\n        /* \"#utility.yul\":16121:16147   */\n      mload\n        /* \"#utility.yul\":16112:16147   */\n      swap1\n      pop\n        /* \"#utility.yul\":16084:16161   */\n    tag_350:\n        /* \"#utility.yul\":16187:16254   */\n      tag_351\n        /* \"#utility.yul\":16247:16253   */\n      dup6\n        /* \"#utility.yul\":16240:16245   */\n      dup3\n        /* \"#utility.yul\":16187:16254   */\n      tag_178\n      jump\t// in\n    tag_351:\n        /* \"#utility.yul\":16181:16185   */\n      dup7\n        /* \"#utility.yul\":16174:16255   */\n      sstore\n        /* \"#utility.yul\":16043:16265   */\n      pop\n        /* \"#utility.yul\":15378:16265   */\n      jump(tag_348)\n        /* \"#utility.yul\":15408:16026   */\n    tag_349:\n        /* \"#utility.yul\":15460:15464   */\n      0x1f\n        /* \"#utility.yul\":15456:15465   */\n      not\n        /* \"#utility.yul\":15448:15454   */\n      dup5\n        /* \"#utility.yul\":15444:15466   */\n      and\n        /* \"#utility.yul\":15494:15531   */\n      tag_352\n        /* \"#utility.yul\":15526:15530   */\n      dup7\n        /* \"#utility.yul\":15494:15531   */\n      tag_164\n      jump\t// in\n    tag_352:\n        /* \"#utility.yul\":15553:15554   */\n      0x00\n        /* \"#utility.yul\":15567:15775   */\n    tag_353:\n        /* \"#utility.yul\":15581:15588   */\n      dup3\n        /* \"#utility.yul\":15578:15579   */\n      dup2\n        /* \"#utility.yul\":15575:15589   */\n      lt\n        /* \"#utility.yul\":15567:15775   */\n      iszero\n      tag_355\n      jumpi\n        /* \"#utility.yul\":15660:15669   */\n      dup5\n        /* \"#utility.yul\":15655:15658   */\n      dup10\n        /* \"#utility.yul\":15651:15670   */\n      add\n        /* \"#utility.yul\":15645:15671   */\n      mload\n        /* \"#utility.yul\":15637:15643   */\n      dup3\n        /* \"#utility.yul\":15630:15672   */\n      sstore\n        /* \"#utility.yul\":15711:15712   */\n      0x01\n        /* \"#utility.yul\":15703:15709   */\n      dup3\n        /* \"#utility.yul\":15699:15713   */\n      add\n        /* \"#utility.yul\":15689:15713   */\n      swap2\n      pop\n        /* \"#utility.yul\":15758:15760   */\n      0x20\n        /* \"#utility.yul\":15747:15756   */\n      dup6\n        /* \"#utility.yul\":15743:15761   */\n      add\n        /* \"#utility.yul\":15730:15761   */\n      swap5\n      pop\n        /* \"#utility.yul\":15604:15608   */\n      0x20\n        /* \"#utility.yul\":15601:15602   */\n      dup2\n        /* \"#utility.yul\":15597:15609   */\n      add\n        /* \"#utility.yul\":15592:15609   */\n      swap1\n      pop\n        /* \"#utility.yul\":15567:15775   */\n      jump(tag_353)\n    tag_355:\n        /* \"#utility.yul\":15803:15809   */\n      dup7\n        /* \"#utility.yul\":15794:15801   */\n      dup4\n        /* \"#utility.yul\":15791:15810   */\n      lt\n        /* \"#utility.yul\":15788:15967   */\n      iszero\n      tag_356\n      jumpi\n        /* \"#utility.yul\":15861:15870   */\n      dup5\n        /* \"#utility.yul\":15856:15859   */\n      dup10\n        /* \"#utility.yul\":15852:15871   */\n      add\n        /* \"#utility.yul\":15846:15872   */\n      mload\n        /* \"#utility.yul\":15904:15952   */\n      tag_357\n        /* \"#utility.yul\":15946:15950   */\n      0x1f\n        /* \"#utility.yul\":15938:15944   */\n      dup10\n        /* \"#utility.yul\":15934:15951   */\n      and\n        /* \"#utility.yul\":15923:15932   */\n      dup3\n        /* \"#utility.yul\":15904:15952   */\n      tag_177\n      jump\t// in\n    tag_357:\n        /* \"#utility.yul\":15896:15902   */\n      dup4\n        /* \"#utility.yul\":15889:15953   */\n      sstore\n        /* \"#utility.yul\":15811:15967   */\n      pop\n        /* \"#utility.yul\":15788:15967   */\n    tag_356:\n        /* \"#utility.yul\":16013:16014   */\n      0x01\n        /* \"#utility.yul\":16009:16010   */\n      0x02\n        /* \"#utility.yul\":16001:16007   */\n      dup9\n        /* \"#utility.yul\":15997:16011   */\n      mul\n        /* \"#utility.yul\":15993:16015   */\n      add\n        /* \"#utility.yul\":15987:15991   */\n      dup9\n        /* \"#utility.yul\":15980:16016   */\n      sstore\n        /* \"#utility.yul\":15415:16026   */\n      pop\n      pop\n      pop\n        /* \"#utility.yul\":15378:16265   */\n    tag_348:\n      pop\n        /* \"#utility.yul\":14968:16271   */\n      pop\n      pop\n      pop\n        /* \"#utility.yul\":14876:16271   */\n      pop\n      pop\n      jump\t// out\n        /* \"#utility.yul\":16277:16453   */\n    tag_179:\n        /* \"#utility.yul\":16417:16445   */\n      0x5468652070726f706f73616c206973206e6f7420616374697665000000000000\n        /* \"#utility.yul\":16413:16414   */\n      0x00\n        /* \"#utility.yul\":16405:16411   */\n      dup3\n        /* \"#utility.yul\":16401:16415   */\n      add\n        /* \"#utility.yul\":16394:16446   */\n      mstore\n        /* \"#utility.yul\":16277:16453   */\n      pop\n      jump\t// out\n        /* \"#utility.yul\":16459:16825   */\n    tag_180:\n        /* \"#utility.yul\":16601:16604   */\n      0x00\n        /* \"#utility.yul\":16622:16689   */\n      tag_360\n        /* \"#utility.yul\":16686:16688   */\n      0x1a\n        /* \"#utility.yul\":16681:16684   */\n      dup4\n        /* \"#utility.yul\":16622:16689   */\n      tag_159\n      jump\t// in\n    tag_360:\n        /* \"#utility.yul\":16615:16689   */\n      swap2\n      pop\n        /* \"#utility.yul\":16698:16791   */\n      tag_361\n        /* \"#utility.yul\":16787:16790   */\n      dup3\n        /* \"#utility.yul\":16698:16791   */\n      tag_179\n      jump\t// in\n    tag_361:\n        /* \"#utility.yul\":16816:16818   */\n      0x20\n        /* \"#utility.yul\":16811:16814   */\n      dup3\n        /* \"#utility.yul\":16807:16819   */\n      add\n        /* \"#utility.yul\":16800:16819   */\n      swap1\n      pop\n        /* \"#utility.yul\":16459:16825   */\n      swap2\n      swap1\n      pop\n      jump\t// out\n        /* \"#utility.yul\":16831:17250   */\n    tag_63:\n        /* \"#utility.yul\":16997:17001   */\n      0x00\n        /* \"#utility.yul\":17035:17037   */\n      0x20\n        /* \"#utility.yul\":17024:17033   */\n      dup3\n        /* \"#utility.yul\":17020:17038   */\n      add\n        /* \"#utility.yul\":17012:17038   */\n      swap1\n      pop\n        /* \"#utility.yul\":17084:17093   */\n      dup2\n        /* \"#utility.yul\":17078:17082   */\n      dup2\n        /* \"#utility.yul\":17074:17094   */\n      sub\n        /* \"#utility.yul\":17070:17071   */\n      0x00\n        /* \"#utility.yul\":17059:17068   */\n      dup4\n        /* \"#utility.yul\":17055:17072   */\n      add\n        /* \"#utility.yul\":17048:17095   */\n      mstore\n        /* \"#utility.yul\":17112:17243   */\n      tag_363\n        /* \"#utility.yul\":17238:17242   */\n      dup2\n        /* \"#utility.yul\":17112:17243   */\n      tag_180\n      jump\t// in\n    tag_363:\n        /* \"#utility.yul\":17104:17243   */\n      swap1\n      pop\n        /* \"#utility.yul\":16831:17250   */\n      swap2\n      swap1\n      pop\n      jump\t// out\n        /* \"#utility.yul\":17256:17450   */\n    tag_82:\n        /* \"#utility.yul\":17296:17300   */\n      0x00\n        /* \"#utility.yul\":17316:17336   */\n      tag_365\n        /* \"#utility.yul\":17334:17335   */\n      dup3\n        /* \"#utility.yul\":17316:17336   */\n      tag_145\n      jump\t// in\n    tag_365:\n        /* \"#utility.yul\":17311:17336   */\n      swap2\n      pop\n        /* \"#utility.yul\":17350:17370   */\n      tag_366\n        /* \"#utility.yul\":17368:17369   */\n      dup4\n        /* \"#utility.yul\":17350:17370   */\n      tag_145\n      jump\t// in\n    tag_366:\n        /* \"#utility.yul\":17345:17370   */\n      swap3\n      pop\n        /* \"#utility.yul\":17394:17395   */\n      dup3\n        /* \"#utility.yul\":17391:17392   */\n      dup3\n        /* \"#utility.yul\":17387:17396   */\n      sub\n        /* \"#utility.yul\":17379:17396   */\n      swap1\n      pop\n        /* \"#utility.yul\":17418:17419   */\n      dup2\n        /* \"#utility.yul\":17412:17416   */\n      dup2\n        /* \"#utility.yul\":17409:17420   */\n      gt\n        /* \"#utility.yul\":17406:17443   */\n      iszero\n      tag_367\n      jumpi\n        /* \"#utility.yul\":17423:17441   */\n      tag_368\n      tag_162\n      jump\t// in\n    tag_368:\n        /* \"#utility.yul\":17406:17443   */\n    tag_367:\n        /* \"#utility.yul\":17256:17450   */\n      swap3\n      swap2\n      pop\n      pop\n      jump\t// out\n        /* \"#utility.yul\":17456:17636   */\n    tag_181:\n        /* \"#utility.yul\":17504:17581   */\n      0x4e487b7100000000000000000000000000000000000000000000000000000000\n        /* \"#utility.yul\":17501:17502   */\n      0x00\n        /* \"#utility.yul\":17494:17582   */\n      mstore\n        /* \"#utility.yul\":17601:17605   */\n      0x12\n        /* \"#utility.yul\":17598:17599   */\n      0x04\n        /* \"#utility.yul\":17591:17606   */\n      mstore\n        /* \"#utility.yul\":17625:17629   */\n      0x24\n        /* \"#utility.yul\":17622:17623   */\n      0x00\n        /* \"#utility.yul\":17615:17630   */\n      revert\n        /* \"#utility.yul\":17642:17818   */\n    tag_110:\n        /* \"#utility.yul\":17674:17675   */\n      0x00\n        /* \"#utility.yul\":17691:17711   */\n      tag_371\n        /* \"#utility.yul\":17709:17710   */\n      dup3\n        /* \"#utility.yul\":17691:17711   */\n      tag_145\n      jump\t// in\n    tag_371:\n        /* \"#utility.yul\":17686:17711   */\n      swap2\n      pop\n        /* \"#utility.yul\":17725:17745   */\n      tag_372\n        /* \"#utility.yul\":17743:17744   */\n      dup4\n        /* \"#utility.yul\":17725:17745   */\n      tag_145\n      jump\t// in\n    tag_372:\n        /* \"#utility.yul\":17720:17745   */\n      swap3\n      pop\n        /* \"#utility.yul\":17764:17765   */\n      dup3\n        /* \"#utility.yul\":17754:17789   */\n      tag_373\n      jumpi\n        /* \"#utility.yul\":17769:17787   */\n      tag_374\n      tag_181\n      jump\t// in\n    tag_374:\n        /* \"#utility.yul\":17754:17789   */\n    tag_373:\n        /* \"#utility.yul\":17810:17811   */\n      dup3\n        /* \"#utility.yul\":17807:17808   */\n      dup3\n        /* \"#utility.yul\":17803:17812   */\n      mod\n        /* \"#utility.yul\":17798:17812   */\n      swap1\n      pop\n        /* \"#utility.yul\":17642:17818   */\n      swap3\n      swap2\n      pop\n      pop\n      jump\t// out\n        /* \"#utility.yul\":17824:18009   */\n    tag_114:\n        /* \"#utility.yul\":17864:17865   */\n      0x00\n        /* \"#utility.yul\":17881:17901   */\n      tag_376\n        /* \"#utility.yul\":17899:17900   */\n      dup3\n        /* \"#utility.yul\":17881:17901   */\n      tag_145\n      jump\t// in\n    tag_376:\n        /* \"#utility.yul\":17876:17901   */\n      swap2\n      pop\n        /* \"#utility.yul\":17915:17935   */\n      tag_377\n        /* \"#utility.yul\":17933:17934   */\n      dup4\n        /* \"#utility.yul\":17915:17935   */\n      tag_145\n      jump\t// in\n    tag_377:\n        /* \"#utility.yul\":17910:17935   */\n      swap3\n      pop\n        /* \"#utility.yul\":17954:17955   */\n      dup3\n        /* \"#utility.yul\":17944:17979   */\n      tag_378\n      jumpi\n        /* \"#utility.yul\":17959:17977   */\n      tag_379\n      tag_181\n      jump\t// in\n    tag_379:\n        /* \"#utility.yul\":17944:17979   */\n    tag_378:\n        /* \"#utility.yul\":18001:18002   */\n      dup3\n        /* \"#utility.yul\":17998:17999   */\n      dup3\n        /* \"#utility.yul\":17994:18003   */\n      div\n        /* \"#utility.yul\":17989:18003   */\n      swap1\n      pop\n        /* \"#utility.yul\":17824:18009   */\n      swap3\n      swap2\n      pop\n      pop\n      jump\t// out\n\n    auxdata: 0xa2646970667358221220efa5c8cc7b71dcc66505229a5af8597242e79cb260950c9b853382223c57413b64736f6c634300081a0033\n}\n",
				"bytecode": {
					"linkReferences": {},
					"object": "6080604052348015600e575f80fd5b50335f806101000a81548173ffffffffffffffffffffffffffffffffffffffff021916908373ffffffffffffffffffffffffffffffffffffffff160217905550600233908060018154018082558091505060019003905f5260205f20015f9091909190916101000a81548173ffffffffffffffffffffffffffffffffffffffff021916908373ffffffffffffffffffffffffffffffffffffffff160217905550611607806100bb5f395ff3fe608060405234801561000f575f80fd5b5060043610610060575f3560e01c806313af4035146100645780633ca6d1001461008057806341ec68701461009c578063b3f98adc146100ba578063c7f758a8146100d6578063dbddc7aa14610106575b5f80fd5b61007e60048036038101906100799190610c9b565b610110565b005b61009a60048036038101906100959190610e92565b6101df565b005b6100a46103b3565b6040516100b1919061105c565b60405180910390f35b6100d460048036038101906100cf91906110b2565b61055b565b005b6100f060048036038101906100eb91906110dd565b6107f2565b6040516100fd919061105c565b60405180910390f35b61010e61099a565b005b5f8054906101000a900473ffffffffffffffffffffffffffffffffffffffff1673ffffffffffffffffffffffffffffffffffffffff163373ffffffffffffffffffffffffffffffffffffffff161461019d576040517f08c379a000000000000000000000000000000000000000000000000000000000815260040161019490611162565b60405180910390fd5b805f806101000a81548173ffffffffffffffffffffffffffffffffffffffff021916908373ffffffffffffffffffffffffffffffffffffffff16021790555050565b5f8054906101000a900473ffffffffffffffffffffffffffffffffffffffff1673ffffffffffffffffffffffffffffffffffffffff163373ffffffffffffffffffffffffffffffffffffffff161461026c576040517f08c379a000000000000000000000000000000000000000000000000000000000815260040161026390611162565b60405180910390fd5b6001805f82825461027d91906111ad565b9250508190555060405180610100016040528085815260200184848080601f0160208091040260200160405190810160405280939291908181526020018383808284375f81840152601f19601f8201169050808301925050505050505081526020015f81526020015f81526020015f81526020018281526020015f151581526020016001151581525060035f60015481526020019081526020015f205f820151815f01908161032c91906113da565b50602082015181600101908161034291906113da565b5060408201518160020155606082015181600301556080820151816004015560a0820151816005015560c0820151816006015f6101000a81548160ff02191690831515021790555060e08201518160060160016101000a81548160ff02191690831515021790555090505050505050565b6103bb610b4b565b60035f60015481526020019081526020015f20604051806101000160405290815f820180546103e99061120d565b80601f01602080910402602001604051908101604052809291908181526020018280546104159061120d565b80156104605780601f1061043757610100808354040283529160200191610460565b820191905f5260205f20905b81548152906001019060200180831161044357829003601f168201915b505050505081526020016001820180546104799061120d565b80601f01602080910402602001604051908101604052809291908181526020018280546104a59061120d565b80156104f05780601f106104c7576101008083540402835291602001916104f0565b820191905f5260205f20905b8154815290600101906020018083116104d357829003601f168201915b5050505050815260200160028201548152602001600382015481526020016004820154815260200160058201548152602001600682015f9054906101000a900460ff161515151581526020016006820160019054906101000a900460ff161515151581525050905090565b60035f60015481526020019081526020015f2060060160019054906101000a900460ff166105be576040517f08c379a00000000000000000000000000000000000000000000000000000000081526004016105b5906114f3565b60405180910390fd5b5f60035f60015481526020019081526020015f2090505f8160040154826002015483600301546105ee91906111ad565b6105f891906111ad565b905060018360ff1603610625576001826002015f82825461061991906111ad565b92505081905550610679565b60028360ff1603610650576001826003015f82825461064491906111ad565b92505081905550610678565b60028360ff1603610677576001826004015f82825461066f91906111ad565b925050819055505b5b5b5f8360ff16148061068d575060018360ff16145b8061069b575060028360ff16145b156107ed57600233908060018154018082558091505060019003905f5260205f20015f9091909190916101000a81548173ffffffffffffffffffffffffffffffffffffffff021916908373ffffffffffffffffffffffffffffffffffffffff160217905550610708610aba565b826006015f6101000a81548160ff02191690831515021790555060018183600501546107349190611511565b14801561075f575060018360ff161480610751575060028360ff16145b8061075e57505f8360ff16145b5b156107ec575f8260060160016101000a81548160ff02191690831515021790555060405180602001604052805f8054906101000a900473ffffffffffffffffffffffffffffffffffffffff1673ffffffffffffffffffffffffffffffffffffffff1673ffffffffffffffffffffffffffffffffffffffff1681525060029060016107ea929190610b8e565b505b5b505050565b6107fa610b4b565b60035f8381526020019081526020015f20604051806101000160405290815f820180546108269061120d565b80601f01602080910402602001604051908101604052809291908181526020018280546108529061120d565b801561089d5780601f106108745761010080835404028352916020019161089d565b820191905f5260205f20905b81548152906001019060200180831161088057829003601f168201915b505050505081526020016001820180546108b69061120d565b80601f01602080910402602001604051908101604052809291908181526020018280546108e29061120d565b801561092d5780601f106109045761010080835404028352916020019161092d565b820191905f5260205f20905b81548152906001019060200180831161091057829003601f168201915b5050505050815260200160028201548152602001600382015481526020016004820154815260200160058201548152602001600682015f9054906101000a900460ff161515151581526020016006820160019054906101000a900460ff1615151515815250509050919050565b5f8054906101000a900473ffffffffffffffffffffffffffffffffffffffff1673ffffffffffffffffffffffffffffffffffffffff163373ffffffffffffffffffffffffffffffffffffffff1614610a27576040517f08c379a0000000000000000000000000000000000000000000000000000000008152600401610a1e90611162565b60405180910390fd5b60035f60015481526020019081526020015f2060060160019054906101000a900460ff16610a8a576040517f08c379a0000000000000000000000000000000000000000000000000000000008152600401610a81906114f3565b60405180910390fd5b5f60035f60015481526020019081526020015f2060060160016101000a81548160ff021916908315150217905550565b5f8060035f60015481526020019081526020015f2090505f816002015490505f826003015490505f83600401549050600160028560040154610afc9190611571565b03610b1157600181610b0e91906111ad565b90505b600281610b1e91906115a1565b90508082610b2c91906111ad565b831115610b40576001945050505050610b48565b5f9450505050505b90565b60405180610100016040528060608152602001606081526020015f81526020015f81526020015f81526020015f81526020015f151581526020015f151581525090565b828054828255905f5260205f20908101928215610c04579160200282015b82811115610c03578251825f6101000a81548173ffffffffffffffffffffffffffffffffffffffff021916908373ffffffffffffffffffffffffffffffffffffffff16021790555091602001919060010190610bac565b5b509050610c119190610c15565b5090565b5b80821115610c2c575f815f905550600101610c16565b5090565b5f604051905090565b5f80fd5b5f80fd5b5f73ffffffffffffffffffffffffffffffffffffffff82169050919050565b5f610c6a82610c41565b9050919050565b610c7a81610c60565b8114610c84575f80fd5b50565b5f81359050610c9581610c71565b92915050565b5f60208284031215610cb057610caf610c39565b5b5f610cbd84828501610c87565b91505092915050565b5f80fd5b5f80fd5b5f601f19601f8301169050919050565b7f4e487b71000000000000000000000000000000000000000000000000000000005f52604160045260245ffd5b610d1482610cce565b810181811067ffffffffffffffff82111715610d3357610d32610cde565b5b80604052505050565b5f610d45610c30565b9050610d518282610d0b565b919050565b5f67ffffffffffffffff821115610d7057610d6f610cde565b5b610d7982610cce565b9050602081019050919050565b828183375f83830152505050565b5f610da6610da184610d56565b610d3c565b905082815260208101848484011115610dc257610dc1610cca565b5b610dcd848285610d86565b509392505050565b5f82601f830112610de957610de8610cc6565b5b8135610df9848260208601610d94565b91505092915050565b5f80fd5b5f80fd5b5f8083601f840112610e1f57610e1e610cc6565b5b8235905067ffffffffffffffff811115610e3c57610e3b610e02565b5b602083019150836001820283011115610e5857610e57610e06565b5b9250929050565b5f819050919050565b610e7181610e5f565b8114610e7b575f80fd5b50565b5f81359050610e8c81610e68565b92915050565b5f805f8060608587031215610eaa57610ea9610c39565b5b5f85013567ffffffffffffffff811115610ec757610ec6610c3d565b5b610ed387828801610dd5565b945050602085013567ffffffffffffffff811115610ef457610ef3610c3d565b5b610f0087828801610e0a565b93509350506040610f1387828801610e7e565b91505092959194509250565b5f81519050919050565b5f82825260208201905092915050565b8281835e5f83830152505050565b5f610f5182610f1f565b610f5b8185610f29565b9350610f6b818560208601610f39565b610f7481610cce565b840191505092915050565b610f8881610e5f565b82525050565b5f8115159050919050565b610fa281610f8e565b82525050565b5f61010083015f8301518482035f860152610fc38282610f47565b91505060208301518482036020860152610fdd8282610f47565b9150506040830151610ff26040860182610f7f565b5060608301516110056060860182610f7f565b5060808301516110186080860182610f7f565b5060a083015161102b60a0860182610f7f565b5060c083015161103e60c0860182610f99565b5060e083015161105160e0860182610f99565b508091505092915050565b5f6020820190508181035f8301526110748184610fa8565b905092915050565b5f60ff82169050919050565b6110918161107c565b811461109b575f80fd5b50565b5f813590506110ac81611088565b92915050565b5f602082840312156110c7576110c6610c39565b5b5f6110d48482850161109e565b91505092915050565b5f602082840312156110f2576110f1610c39565b5b5f6110ff84828501610e7e565b91505092915050565b5f82825260208201905092915050565b7f4f6e6c79204f776e65722063616e0000000000000000000000000000000000005f82015250565b5f61114c600e83611108565b915061115782611118565b602082019050919050565b5f6020820190508181035f83015261117981611140565b9050919050565b7f4e487b71000000000000000000000000000000000000000000000000000000005f52601160045260245ffd5b5f6111b782610e5f565b91506111c283610e5f565b92508282019050808211156111da576111d9611180565b5b92915050565b7f4e487b71000000000000000000000000000000000000000000000000000000005f52602260045260245ffd5b5f600282049050600182168061122457607f821691505b602082108103611237576112366111e0565b5b50919050565b5f819050815f5260205f209050919050565b5f6020601f8301049050919050565b5f82821b905092915050565b5f600883026112997fffffffffffffffffffffffffffffffffffffffffffffffffffffffffffffffff8261125e565b6112a3868361125e565b95508019841693508086168417925050509392505050565b5f819050919050565b5f6112de6112d96112d484610e5f565b6112bb565b610e5f565b9050919050565b5f819050919050565b6112f7836112c4565b61130b611303826112e5565b84845461126a565b825550505050565b5f90565b61131f611313565b61132a8184846112ee565b505050565b5b8181101561134d576113425f82611317565b600181019050611330565b5050565b601f821115611392576113638161123d565b61136c8461124f565b8101602085101561137b578190505b61138f6113878561124f565b83018261132f565b50505b505050565b5f82821c905092915050565b5f6113b25f1984600802611397565b1980831691505092915050565b5f6113ca83836113a3565b9150826002028217905092915050565b6113e382610f1f565b67ffffffffffffffff8111156113fc576113fb610cde565b5b611406825461120d565b611411828285611351565b5f60209050601f831160018114611442575f8415611430578287015190505b61143a85826113bf565b8655506114a1565b601f1984166114508661123d565b5f5b8281101561147757848901518255600182019150602085019450602081019050611452565b868310156114945784890151611490601f8916826113a3565b8355505b6001600288020188555050505b505050505050565b7f5468652070726f706f73616c206973206e6f74206163746976650000000000005f82015250565b5f6114dd601a83611108565b91506114e8826114a9565b602082019050919050565b5f6020820190508181035f83015261150a816114d1565b9050919050565b5f61151b82610e5f565b915061152683610e5f565b925082820390508181111561153e5761153d611180565b5b92915050565b7f4e487b71000000000000000000000000000000000000000000000000000000005f52601260045260245ffd5b5f61157b82610e5f565b915061158683610e5f565b92508261159657611595611544565b5b828206905092915050565b5f6115ab82610e5f565b91506115b683610e5f565b9250826115c6576115c5611544565b5b82820490509291505056fea2646970667358221220efa5c8cc7b71dcc66505229a5af8597242e79cb260950c9b853382223c57413b64736f6c634300081a0033",
					"opcodes": "PUSH1 0x80 PUSH1 0x40 MSTORE CALLVALUE DUP1 ISZERO PUSH1 0xE JUMPI PUSH0 DUP1 REVERT JUMPDEST POP CALLER PUSH0 DUP1 PUSH2 0x100 EXP DUP2 SLOAD DUP2 PUSH20 0xFFFFFFFFFFFFFFFFFFFFFFFFFFFFFFFFFFFFFFFF MUL NOT AND SWAP1 DUP4 PUSH20 0xFFFFFFFFFFFFFFFFFFFFFFFFFFFFFFFFFFFFFFFF AND MUL OR SWAP1 SSTORE POP PUSH1 0x2 CALLER SWAP1 DUP1 PUSH1 0x1 DUP2 SLOAD ADD DUP1 DUP3 SSTORE DUP1 SWAP2 POP POP PUSH1 0x1 SWAP1 SUB SWAP1 PUSH0 MSTORE PUSH1 0x20 PUSH0 KECCAK256 ADD PUSH0 SWAP1 SWAP2 SWAP1 SWAP2 SWAP1 SWAP2 PUSH2 0x100 EXP DUP2 SLOAD DUP2 PUSH20 0xFFFFFFFFFFFFFFFFFFFFFFFFFFFFFFFFFFFFFFFF MUL NOT AND SWAP1 DUP4 PUSH20 0xFFFFFFFFFFFFFFFFFFFFFFFFFFFFFFFFFFFFFFFF AND MUL OR SWAP1 SSTORE POP PUSH2 0x1607 DUP1 PUSH2 0xBB PUSH0 CODECOPY PUSH0 RETURN INVALID PUSH1 0x80 PUSH1 0x40 MSTORE CALLVALUE DUP1 ISZERO PUSH2 0xF JUMPI PUSH0 DUP1 REVERT JUMPDEST POP PUSH1 0x4 CALLDATASIZE LT PUSH2 0x60 JUMPI PUSH0 CALLDATALOAD PUSH1 0xE0 SHR DUP1 PUSH4 0x13AF4035 EQ PUSH2 0x64 JUMPI DUP1 PUSH4 0x3CA6D100 EQ PUSH2 0x80 JUMPI DUP1 PUSH4 0x41EC6870 EQ PUSH2 0x9C JUMPI DUP1 PUSH4 0xB3F98ADC EQ PUSH2 0xBA JUMPI DUP1 PUSH4 0xC7F758A8 EQ PUSH2 0xD6 JUMPI DUP1 PUSH4 0xDBDDC7AA EQ PUSH2 0x106 JUMPI JUMPDEST PUSH0 DUP1 REVERT JUMPDEST PUSH2 0x7E PUSH1 0x4 DUP1 CALLDATASIZE SUB DUP2 ADD SWAP1 PUSH2 0x79 SWAP2 SWAP1 PUSH2 0xC9B JUMP JUMPDEST PUSH2 0x110 JUMP JUMPDEST STOP JUMPDEST PUSH2 0x9A PUSH1 0x4 DUP1 CALLDATASIZE SUB DUP2 ADD SWAP1 PUSH2 0x95 SWAP2 SWAP1 PUSH2 0xE92 JUMP JUMPDEST PUSH2 0x1DF JUMP JUMPDEST STOP JUMPDEST PUSH2 0xA4 PUSH2 0x3B3 JUMP JUMPDEST PUSH1 0x40 MLOAD PUSH2 0xB1 SWAP2 SWAP1 PUSH2 0x105C JUMP JUMPDEST PUSH1 0x40 MLOAD DUP1 SWAP2 SUB SWAP1 RETURN JUMPDEST PUSH2 0xD4 PUSH1 0x4 DUP1 CALLDATASIZE SUB DUP2 ADD SWAP1 PUSH2 0xCF SWAP2 SWAP1 PUSH2 0x10B2 JUMP JUMPDEST PUSH2 0x55B JUMP JUMPDEST STOP JUMPDEST PUSH2 0xF0 PUSH1 0x4 DUP1 CALLDATASIZE SUB DUP2 ADD SWAP1 PUSH2 0xEB SWAP2 SWAP1 PUSH2 0x10DD JUMP JUMPDEST PUSH2 0x7F2 JUMP JUMPDEST PUSH1 0x40 MLOAD PUSH2 0xFD SWAP2 SWAP1 PUSH2 0x105C JUMP JUMPDEST PUSH1 0x40 MLOAD DUP1 SWAP2 SUB SWAP1 RETURN JUMPDEST PUSH2 0x10E PUSH2 0x99A JUMP JUMPDEST STOP JUMPDEST PUSH0 DUP1 SLOAD SWAP1 PUSH2 0x100 EXP SWAP1 DIV PUSH20 0xFFFFFFFFFFFFFFFFFFFFFFFFFFFFFFFFFFFFFFFF AND PUSH20 0xFFFFFFFFFFFFFFFFFFFFFFFFFFFFFFFFFFFFFFFF AND CALLER PUSH20 0xFFFFFFFFFFFFFFFFFFFFFFFFFFFFFFFFFFFFFFFF AND EQ PUSH2 0x19D JUMPI PUSH1 0x40 MLOAD PUSH32 0x8C379A000000000000000000000000000000000000000000000000000000000 DUP2 MSTORE PUSH1 0x4 ADD PUSH2 0x194 SWAP1 PUSH2 0x1162 JUMP JUMPDEST PUSH1 0x40 MLOAD DUP1 SWAP2 SUB SWAP1 REVERT JUMPDEST DUP1 PUSH0 DUP1 PUSH2 0x100 EXP DUP2 SLOAD DUP2 PUSH20 0xFFFFFFFFFFFFFFFFFFFFFFFFFFFFFFFFFFFFFFFF MUL NOT AND SWAP1 DUP4 PUSH20 0xFFFFFFFFFFFFFFFFFFFFFFFFFFFFFFFFFFFFFFFF AND MUL OR SWAP1 SSTORE POP POP JUMP JUMPDEST PUSH0 DUP1 SLOAD SWAP1 PUSH2 0x100 EXP SWAP1 DIV PUSH20 0xFFFFFFFFFFFFFFFFFFFFFFFFFFFFFFFFFFFFFFFF AND PUSH20 0xFFFFFFFFFFFFFFFFFFFFFFFFFFFFFFFFFFFFFFFF AND CALLER PUSH20 0xFFFFFFFFFFFFFFFFFFFFFFFFFFFFFFFFFFFFFFFF AND EQ PUSH2 0x26C JUMPI PUSH1 0x40 MLOAD PUSH32 0x8C379A000000000000000000000000000000000000000000000000000000000 DUP2 MSTORE PUSH1 0x4 ADD PUSH2 0x263 SWAP1 PUSH2 0x1162 JUMP JUMPDEST PUSH1 0x40 MLOAD DUP1 SWAP2 SUB SWAP1 REVERT JUMPDEST PUSH1 0x1 DUP1 PUSH0 DUP3 DUP3 SLOAD PUSH2 0x27D SWAP2 SWAP1 PUSH2 0x11AD JUMP JUMPDEST SWAP3 POP POP DUP2 SWAP1 SSTORE POP PUSH1 0x40 MLOAD DUP1 PUSH2 0x100 ADD PUSH1 0x40 MSTORE DUP1 DUP6 DUP2 MSTORE PUSH1 0x20 ADD DUP5 DUP5 DUP1 DUP1 PUSH1 0x1F ADD PUSH1 0x20 DUP1 SWAP2 DIV MUL PUSH1 0x20 ADD PUSH1 0x40 MLOAD SWAP1 DUP2 ADD PUSH1 0x40 MSTORE DUP1 SWAP4 SWAP3 SWAP2 SWAP1 DUP2 DUP2 MSTORE PUSH1 0x20 ADD DUP4 DUP4 DUP1 DUP3 DUP5 CALLDATACOPY PUSH0 DUP2 DUP5 ADD MSTORE PUSH1 0x1F NOT PUSH1 0x1F DUP3 ADD AND SWAP1 POP DUP1 DUP4 ADD SWAP3 POP POP POP POP POP POP POP DUP2 MSTORE PUSH1 0x20 ADD PUSH0 DUP2 MSTORE PUSH1 0x20 ADD PUSH0 DUP2 MSTORE PUSH1 0x20 ADD PUSH0 DUP2 MSTORE PUSH1 0x20 ADD DUP3 DUP2 MSTORE PUSH1 0x20 ADD PUSH0 ISZERO ISZERO DUP2 MSTORE PUSH1 0x20 ADD PUSH1 0x1 ISZERO ISZERO DUP2 MSTORE POP PUSH1 0x3 PUSH0 PUSH1 0x1 SLOAD DUP2 MSTORE PUSH1 0x20 ADD SWAP1 DUP2 MSTORE PUSH1 0x20 ADD PUSH0 KECCAK256 PUSH0 DUP3 ADD MLOAD DUP2 PUSH0 ADD SWAP1 DUP2 PUSH2 0x32C SWAP2 SWAP1 PUSH2 0x13DA JUMP JUMPDEST POP PUSH1 0x20 DUP3 ADD MLOAD DUP2 PUSH1 0x1 ADD SWAP1 DUP2 PUSH2 0x342 SWAP2 SWAP1 PUSH2 0x13DA JUMP JUMPDEST POP PUSH1 0x40 DUP3 ADD MLOAD DUP2 PUSH1 0x2 ADD SSTORE PUSH1 0x60 DUP3 ADD MLOAD DUP2 PUSH1 0x3 ADD SSTORE PUSH1 0x80 DUP3 ADD MLOAD DUP2 PUSH1 0x4 ADD SSTORE PUSH1 0xA0 DUP3 ADD MLOAD DUP2 PUSH1 0x5 ADD SSTORE PUSH1 0xC0 DUP3 ADD MLOAD DUP2 PUSH1 0x6 ADD PUSH0 PUSH2 0x100 EXP DUP2 SLOAD DUP2 PUSH1 0xFF MUL NOT AND SWAP1 DUP4 ISZERO ISZERO MUL OR SWAP1 SSTORE POP PUSH1 0xE0 DUP3 ADD MLOAD DUP2 PUSH1 0x6 ADD PUSH1 0x1 PUSH2 0x100 EXP DUP2 SLOAD DUP2 PUSH1 0xFF MUL NOT AND SWAP1 DUP4 ISZERO ISZERO MUL OR SWAP1 SSTORE POP SWAP1 POP POP POP POP POP POP JUMP JUMPDEST PUSH2 0x3BB PUSH2 0xB4B JUMP JUMPDEST PUSH1 0x3 PUSH0 PUSH1 0x1 SLOAD DUP2 MSTORE PUSH1 0x20 ADD SWAP1 DUP2 MSTORE PUSH1 0x20 ADD PUSH0 KECCAK256 PUSH1 0x40 MLOAD DUP1 PUSH2 0x100 ADD PUSH1 0x40 MSTORE SWAP1 DUP2 PUSH0 DUP3 ADD DUP1 SLOAD PUSH2 0x3E9 SWAP1 PUSH2 0x120D JUMP JUMPDEST DUP1 PUSH1 0x1F ADD PUSH1 0x20 DUP1 SWAP2 DIV MUL PUSH1 0x20 ADD PUSH1 0x40 MLOAD SWAP1 DUP2 ADD PUSH1 0x40 MSTORE DUP1 SWAP3 SWAP2 SWAP1 DUP2 DUP2 MSTORE PUSH1 0x20 ADD DUP3 DUP1 SLOAD PUSH2 0x415 SWAP1 PUSH2 0x120D JUMP JUMPDEST DUP1 ISZERO PUSH2 0x460 JUMPI DUP1 PUSH1 0x1F LT PUSH2 0x437 JUMPI PUSH2 0x100 DUP1 DUP4 SLOAD DIV MUL DUP4 MSTORE SWAP2 PUSH1 0x20 ADD SWAP2 PUSH2 0x460 JUMP JUMPDEST DUP3 ADD SWAP2 SWAP1 PUSH0 MSTORE PUSH1 0x20 PUSH0 KECCAK256 SWAP1 JUMPDEST DUP2 SLOAD DUP2 MSTORE SWAP1 PUSH1 0x1 ADD SWAP1 PUSH1 0x20 ADD DUP1 DUP4 GT PUSH2 0x443 JUMPI DUP3 SWAP1 SUB PUSH1 0x1F AND DUP3 ADD SWAP2 JUMPDEST POP POP POP POP POP DUP2 MSTORE PUSH1 0x20 ADD PUSH1 0x1 DUP3 ADD DUP1 SLOAD PUSH2 0x479 SWAP1 PUSH2 0x120D JUMP JUMPDEST DUP1 PUSH1 0x1F ADD PUSH1 0x20 DUP1 SWAP2 DIV MUL PUSH1 0x20 ADD PUSH1 0x40 MLOAD SWAP1 DUP2 ADD PUSH1 0x40 MSTORE DUP1 SWAP3 SWAP2 SWAP1 DUP2 DUP2 MSTORE PUSH1 0x20 ADD DUP3 DUP1 SLOAD PUSH2 0x4A5 SWAP1 PUSH2 0x120D JUMP JUMPDEST DUP1 ISZERO PUSH2 0x4F0 JUMPI DUP1 PUSH1 0x1F LT PUSH2 0x4C7 JUMPI PUSH2 0x100 DUP1 DUP4 SLOAD DIV MUL DUP4 MSTORE SWAP2 PUSH1 0x20 ADD SWAP2 PUSH2 0x4F0 JUMP JUMPDEST DUP3 ADD SWAP2 SWAP1 PUSH0 MSTORE PUSH1 0x20 PUSH0 KECCAK256 SWAP1 JUMPDEST DUP2 SLOAD DUP2 MSTORE SWAP1 PUSH1 0x1 ADD SWAP1 PUSH1 0x20 ADD DUP1 DUP4 GT PUSH2 0x4D3 JUMPI DUP3 SWAP1 SUB PUSH1 0x1F AND DUP3 ADD SWAP2 JUMPDEST POP POP POP POP POP DUP2 MSTORE PUSH1 0x20 ADD PUSH1 0x2 DUP3 ADD SLOAD DUP2 MSTORE PUSH1 0x20 ADD PUSH1 0x3 DUP3 ADD SLOAD DUP2 MSTORE PUSH1 0x20 ADD PUSH1 0x4 DUP3 ADD SLOAD DUP2 MSTORE PUSH1 0x20 ADD PUSH1 0x5 DUP3 ADD SLOAD DUP2 MSTORE PUSH1 0x20 ADD PUSH1 0x6 DUP3 ADD PUSH0 SWAP1 SLOAD SWAP1 PUSH2 0x100 EXP SWAP1 DIV PUSH1 0xFF AND ISZERO ISZERO ISZERO ISZERO DUP2 MSTORE PUSH1 0x20 ADD PUSH1 0x6 DUP3 ADD PUSH1 0x1 SWAP1 SLOAD SWAP1 PUSH2 0x100 EXP SWAP1 DIV PUSH1 0xFF AND ISZERO ISZERO ISZERO ISZERO DUP2 MSTORE POP POP SWAP1 POP SWAP1 JUMP JUMPDEST PUSH1 0x3 PUSH0 PUSH1 0x1 SLOAD DUP2 MSTORE PUSH1 0x20 ADD SWAP1 DUP2 MSTORE PUSH1 0x20 ADD PUSH0 KECCAK256 PUSH1 0x6 ADD PUSH1 0x1 SWAP1 SLOAD SWAP1 PUSH2 0x100 EXP SWAP1 DIV PUSH1 0xFF AND PUSH2 0x5BE JUMPI PUSH1 0x40 MLOAD PUSH32 0x8C379A000000000000000000000000000000000000000000000000000000000 DUP2 MSTORE PUSH1 0x4 ADD PUSH2 0x5B5 SWAP1 PUSH2 0x14F3 JUMP JUMPDEST PUSH1 0x40 MLOAD DUP1 SWAP2 SUB SWAP1 REVERT JUMPDEST PUSH0 PUSH1 0x3 PUSH0 PUSH1 0x1 SLOAD DUP2 MSTORE PUSH1 0x20 ADD SWAP1 DUP2 MSTORE PUSH1 0x20 ADD PUSH0 KECCAK256 SWAP1 POP PUSH0 DUP2 PUSH1 0x4 ADD SLOAD DUP3 PUSH1 0x2 ADD SLOAD DUP4 PUSH1 0x3 ADD SLOAD PUSH2 0x5EE SWAP2 SWAP1 PUSH2 0x11AD JUMP JUMPDEST PUSH2 0x5F8 SWAP2 SWAP1 PUSH2 0x11AD JUMP JUMPDEST SWAP1 POP PUSH1 0x1 DUP4 PUSH1 0xFF AND SUB PUSH2 0x625 JUMPI PUSH1 0x1 DUP3 PUSH1 0x2 ADD PUSH0 DUP3 DUP3 SLOAD PUSH2 0x619 SWAP2 SWAP1 PUSH2 0x11AD JUMP JUMPDEST SWAP3 POP POP DUP2 SWAP1 SSTORE POP PUSH2 0x679 JUMP JUMPDEST PUSH1 0x2 DUP4 PUSH1 0xFF AND SUB PUSH2 0x650 JUMPI PUSH1 0x1 DUP3 PUSH1 0x3 ADD PUSH0 DUP3 DUP3 SLOAD PUSH2 0x644 SWAP2 SWAP1 PUSH2 0x11AD JUMP JUMPDEST SWAP3 POP POP DUP2 SWAP1 SSTORE POP PUSH2 0x678 JUMP JUMPDEST PUSH1 0x2 DUP4 PUSH1 0xFF AND SUB PUSH2 0x677 JUMPI PUSH1 0x1 DUP3 PUSH1 0x4 ADD PUSH0 DUP3 DUP3 SLOAD PUSH2 0x66F SWAP2 SWAP1 PUSH2 0x11AD JUMP JUMPDEST SWAP3 POP POP DUP2 SWAP1 SSTORE POP JUMPDEST JUMPDEST JUMPDEST PUSH0 DUP4 PUSH1 0xFF AND EQ DUP1 PUSH2 0x68D JUMPI POP PUSH1 0x1 DUP4 PUSH1 0xFF AND EQ JUMPDEST DUP1 PUSH2 0x69B JUMPI POP PUSH1 0x2 DUP4 PUSH1 0xFF AND EQ JUMPDEST ISZERO PUSH2 0x7ED JUMPI PUSH1 0x2 CALLER SWAP1 DUP1 PUSH1 0x1 DUP2 SLOAD ADD DUP1 DUP3 SSTORE DUP1 SWAP2 POP POP PUSH1 0x1 SWAP1 SUB SWAP1 PUSH0 MSTORE PUSH1 0x20 PUSH0 KECCAK256 ADD PUSH0 SWAP1 SWAP2 SWAP1 SWAP2 SWAP1 SWAP2 PUSH2 0x100 EXP DUP2 SLOAD DUP2 PUSH20 0xFFFFFFFFFFFFFFFFFFFFFFFFFFFFFFFFFFFFFFFF MUL NOT AND SWAP1 DUP4 PUSH20 0xFFFFFFFFFFFFFFFFFFFFFFFFFFFFFFFFFFFFFFFF AND MUL OR SWAP1 SSTORE POP PUSH2 0x708 PUSH2 0xABA JUMP JUMPDEST DUP3 PUSH1 0x6 ADD PUSH0 PUSH2 0x100 EXP DUP2 SLOAD DUP2 PUSH1 0xFF MUL NOT AND SWAP1 DUP4 ISZERO ISZERO MUL OR SWAP1 SSTORE POP PUSH1 0x1 DUP2 DUP4 PUSH1 0x5 ADD SLOAD PUSH2 0x734 SWAP2 SWAP1 PUSH2 0x1511 JUMP JUMPDEST EQ DUP1 ISZERO PUSH2 0x75F JUMPI POP PUSH1 0x1 DUP4 PUSH1 0xFF AND EQ DUP1 PUSH2 0x751 JUMPI POP PUSH1 0x2 DUP4 PUSH1 0xFF AND EQ JUMPDEST DUP1 PUSH2 0x75E JUMPI POP PUSH0 DUP4 PUSH1 0xFF AND EQ JUMPDEST JUMPDEST ISZERO PUSH2 0x7EC JUMPI PUSH0 DUP3 PUSH1 0x6 ADD PUSH1 0x1 PUSH2 0x100 EXP DUP2 SLOAD DUP2 PUSH1 0xFF MUL NOT AND SWAP1 DUP4 ISZERO ISZERO MUL OR SWAP1 SSTORE POP PUSH1 0x40 MLOAD DUP1 PUSH1 0x20 ADD PUSH1 0x40 MSTORE DUP1 PUSH0 DUP1 SLOAD SWAP1 PUSH2 0x100 EXP SWAP1 DIV PUSH20 0xFFFFFFFFFFFFFFFFFFFFFFFFFFFFFFFFFFFFFFFF AND PUSH20 0xFFFFFFFFFFFFFFFFFFFFFFFFFFFFFFFFFFFFFFFF AND PUSH20 0xFFFFFFFFFFFFFFFFFFFFFFFFFFFFFFFFFFFFFFFF AND DUP2 MSTORE POP PUSH1 0x2 SWAP1 PUSH1 0x1 PUSH2 0x7EA SWAP3 SWAP2 SWAP1 PUSH2 0xB8E JUMP JUMPDEST POP JUMPDEST JUMPDEST POP POP POP JUMP JUMPDEST PUSH2 0x7FA PUSH2 0xB4B JUMP JUMPDEST PUSH1 0x3 PUSH0 DUP4 DUP2 MSTORE PUSH1 0x20 ADD SWAP1 DUP2 MSTORE PUSH1 0x20 ADD PUSH0 KECCAK256 PUSH1 0x40 MLOAD DUP1 PUSH2 0x100 ADD PUSH1 0x40 MSTORE SWAP1 DUP2 PUSH0 DUP3 ADD DUP1 SLOAD PUSH2 0x826 SWAP1 PUSH2 0x120D JUMP JUMPDEST DUP1 PUSH1 0x1F ADD PUSH1 0x20 DUP1 SWAP2 DIV MUL PUSH1 0x20 ADD PUSH1 0x40 MLOAD SWAP1 DUP2 ADD PUSH1 0x40 MSTORE DUP1 SWAP3 SWAP2 SWAP1 DUP2 DUP2 MSTORE PUSH1 0x20 ADD DUP3 DUP1 SLOAD PUSH2 0x852 SWAP1 PUSH2 0x120D JUMP JUMPDEST DUP1 ISZERO PUSH2 0x89D JUMPI DUP1 PUSH1 0x1F LT PUSH2 0x874 JUMPI PUSH2 0x100 DUP1 DUP4 SLOAD DIV MUL DUP4 MSTORE SWAP2 PUSH1 0x20 ADD SWAP2 PUSH2 0x89D JUMP JUMPDEST DUP3 ADD SWAP2 SWAP1 PUSH0 MSTORE PUSH1 0x20 PUSH0 KECCAK256 SWAP1 JUMPDEST DUP2 SLOAD DUP2 MSTORE SWAP1 PUSH1 0x1 ADD SWAP1 PUSH1 0x20 ADD DUP1 DUP4 GT PUSH2 0x880 JUMPI DUP3 SWAP1 SUB PUSH1 0x1F AND DUP3 ADD SWAP2 JUMPDEST POP POP POP POP POP DUP2 MSTORE PUSH1 0x20 ADD PUSH1 0x1 DUP3 ADD DUP1 SLOAD PUSH2 0x8B6 SWAP1 PUSH2 0x120D JUMP JUMPDEST DUP1 PUSH1 0x1F ADD PUSH1 0x20 DUP1 SWAP2 DIV MUL PUSH1 0x20 ADD PUSH1 0x40 MLOAD SWAP1 DUP2 ADD PUSH1 0x40 MSTORE DUP1 SWAP3 SWAP2 SWAP1 DUP2 DUP2 MSTORE PUSH1 0x20 ADD DUP3 DUP1 SLOAD PUSH2 0x8E2 SWAP1 PUSH2 0x120D JUMP JUMPDEST DUP1 ISZERO PUSH2 0x92D JUMPI DUP1 PUSH1 0x1F LT PUSH2 0x904 JUMPI PUSH2 0x100 DUP1 DUP4 SLOAD DIV MUL DUP4 MSTORE SWAP2 PUSH1 0x20 ADD SWAP2 PUSH2 0x92D JUMP JUMPDEST DUP3 ADD SWAP2 SWAP1 PUSH0 MSTORE PUSH1 0x20 PUSH0 KECCAK256 SWAP1 JUMPDEST DUP2 SLOAD DUP2 MSTORE SWAP1 PUSH1 0x1 ADD SWAP1 PUSH1 0x20 ADD DUP1 DUP4 GT PUSH2 0x910 JUMPI DUP3 SWAP1 SUB PUSH1 0x1F AND DUP3 ADD SWAP2 JUMPDEST POP POP POP POP POP DUP2 MSTORE PUSH1 0x20 ADD PUSH1 0x2 DUP3 ADD SLOAD DUP2 MSTORE PUSH1 0x20 ADD PUSH1 0x3 DUP3 ADD SLOAD DUP2 MSTORE PUSH1 0x20 ADD PUSH1 0x4 DUP3 ADD SLOAD DUP2 MSTORE PUSH1 0x20 ADD PUSH1 0x5 DUP3 ADD SLOAD DUP2 MSTORE PUSH1 0x20 ADD PUSH1 0x6 DUP3 ADD PUSH0 SWAP1 SLOAD SWAP1 PUSH2 0x100 EXP SWAP1 DIV PUSH1 0xFF AND ISZERO ISZERO ISZERO ISZERO DUP2 MSTORE PUSH1 0x20 ADD PUSH1 0x6 DUP3 ADD PUSH1 0x1 SWAP1 SLOAD SWAP1 PUSH2 0x100 EXP SWAP1 DIV PUSH1 0xFF AND ISZERO ISZERO ISZERO ISZERO DUP2 MSTORE POP POP SWAP1 POP SWAP2 SWAP1 POP JUMP JUMPDEST PUSH0 DUP1 SLOAD SWAP1 PUSH2 0x100 EXP SWAP1 DIV PUSH20 0xFFFFFFFFFFFFFFFFFFFFFFFFFFFFFFFFFFFFFFFF AND PUSH20 0xFFFFFFFFFFFFFFFFFFFFFFFFFFFFFFFFFFFFFFFF AND CALLER PUSH20 0xFFFFFFFFFFFFFFFFFFFFFFFFFFFFFFFFFFFFFFFF AND EQ PUSH2 0xA27 JUMPI PUSH1 0x40 MLOAD PUSH32 0x8C379A000000000000000000000000000000000000000000000000000000000 DUP2 MSTORE PUSH1 0x4 ADD PUSH2 0xA1E SWAP1 PUSH2 0x1162 JUMP JUMPDEST PUSH1 0x40 MLOAD DUP1 SWAP2 SUB SWAP1 REVERT JUMPDEST PUSH1 0x3 PUSH0 PUSH1 0x1 SLOAD DUP2 MSTORE PUSH1 0x20 ADD SWAP1 DUP2 MSTORE PUSH1 0x20 ADD PUSH0 KECCAK256 PUSH1 0x6 ADD PUSH1 0x1 SWAP1 SLOAD SWAP1 PUSH2 0x100 EXP SWAP1 DIV PUSH1 0xFF AND PUSH2 0xA8A JUMPI PUSH1 0x40 MLOAD PUSH32 0x8C379A000000000000000000000000000000000000000000000000000000000 DUP2 MSTORE PUSH1 0x4 ADD PUSH2 0xA81 SWAP1 PUSH2 0x14F3 JUMP JUMPDEST PUSH1 0x40 MLOAD DUP1 SWAP2 SUB SWAP1 REVERT JUMPDEST PUSH0 PUSH1 0x3 PUSH0 PUSH1 0x1 SLOAD DUP2 MSTORE PUSH1 0x20 ADD SWAP1 DUP2 MSTORE PUSH1 0x20 ADD PUSH0 KECCAK256 PUSH1 0x6 ADD PUSH1 0x1 PUSH2 0x100 EXP DUP2 SLOAD DUP2 PUSH1 0xFF MUL NOT AND SWAP1 DUP4 ISZERO ISZERO MUL OR SWAP1 SSTORE POP JUMP JUMPDEST PUSH0 DUP1 PUSH1 0x3 PUSH0 PUSH1 0x1 SLOAD DUP2 MSTORE PUSH1 0x20 ADD SWAP1 DUP2 MSTORE PUSH1 0x20 ADD PUSH0 KECCAK256 SWAP1 POP PUSH0 DUP2 PUSH1 0x2 ADD SLOAD SWAP1 POP PUSH0 DUP3 PUSH1 0x3 ADD SLOAD SWAP1 POP PUSH0 DUP4 PUSH1 0x4 ADD SLOAD SWAP1 POP PUSH1 0x1 PUSH1 0x2 DUP6 PUSH1 0x4 ADD SLOAD PUSH2 0xAFC SWAP2 SWAP1 PUSH2 0x1571 JUMP JUMPDEST SUB PUSH2 0xB11 JUMPI PUSH1 0x1 DUP2 PUSH2 0xB0E SWAP2 SWAP1 PUSH2 0x11AD JUMP JUMPDEST SWAP1 POP JUMPDEST PUSH1 0x2 DUP2 PUSH2 0xB1E SWAP2 SWAP1 PUSH2 0x15A1 JUMP JUMPDEST SWAP1 POP DUP1 DUP3 PUSH2 0xB2C SWAP2 SWAP1 PUSH2 0x11AD JUMP JUMPDEST DUP4 GT ISZERO PUSH2 0xB40 JUMPI PUSH1 0x1 SWAP5 POP POP POP POP POP PUSH2 0xB48 JUMP JUMPDEST PUSH0 SWAP5 POP POP POP POP POP JUMPDEST SWAP1 JUMP JUMPDEST PUSH1 0x40 MLOAD DUP1 PUSH2 0x100 ADD PUSH1 0x40 MSTORE DUP1 PUSH1 0x60 DUP2 MSTORE PUSH1 0x20 ADD PUSH1 0x60 DUP2 MSTORE PUSH1 0x20 ADD PUSH0 DUP2 MSTORE PUSH1 0x20 ADD PUSH0 DUP2 MSTORE PUSH1 0x20 ADD PUSH0 DUP2 MSTORE PUSH1 0x20 ADD PUSH0 DUP2 MSTORE PUSH1 0x20 ADD PUSH0 ISZERO ISZERO DUP2 MSTORE PUSH1 0x20 ADD PUSH0 ISZERO ISZERO DUP2 MSTORE POP SWAP1 JUMP JUMPDEST DUP3 DUP1 SLOAD DUP3 DUP3 SSTORE SWAP1 PUSH0 MSTORE PUSH1 0x20 PUSH0 KECCAK256 SWAP1 DUP2 ADD SWAP3 DUP3 ISZERO PUSH2 0xC04 JUMPI SWAP2 PUSH1 0x20 MUL DUP3 ADD JUMPDEST DUP3 DUP2 GT ISZERO PUSH2 0xC03 JUMPI DUP3 MLOAD DUP3 PUSH0 PUSH2 0x100 EXP DUP2 SLOAD DUP2 PUSH20 0xFFFFFFFFFFFFFFFFFFFFFFFFFFFFFFFFFFFFFFFF MUL NOT AND SWAP1 DUP4 PUSH20 0xFFFFFFFFFFFFFFFFFFFFFFFFFFFFFFFFFFFFFFFF AND MUL OR SWAP1 SSTORE POP SWAP2 PUSH1 0x20 ADD SWAP2 SWAP1 PUSH1 0x1 ADD SWAP1 PUSH2 0xBAC JUMP JUMPDEST JUMPDEST POP SWAP1 POP PUSH2 0xC11 SWAP2 SWAP1 PUSH2 0xC15 JUMP JUMPDEST POP SWAP1 JUMP JUMPDEST JUMPDEST DUP1 DUP3 GT ISZERO PUSH2 0xC2C JUMPI PUSH0 DUP2 PUSH0 SWAP1 SSTORE POP PUSH1 0x1 ADD PUSH2 0xC16 JUMP JUMPDEST POP SWAP1 JUMP JUMPDEST PUSH0 PUSH1 0x40 MLOAD SWAP1 POP SWAP1 JUMP JUMPDEST PUSH0 DUP1 REVERT JUMPDEST PUSH0 DUP1 REVERT JUMPDEST PUSH0 PUSH20 0xFFFFFFFFFFFFFFFFFFFFFFFFFFFFFFFFFFFFFFFF DUP3 AND SWAP1 POP SWAP2 SWAP1 POP JUMP JUMPDEST PUSH0 PUSH2 0xC6A DUP3 PUSH2 0xC41 JUMP JUMPDEST SWAP1 POP SWAP2 SWAP1 POP JUMP JUMPDEST PUSH2 0xC7A DUP2 PUSH2 0xC60 JUMP JUMPDEST DUP2 EQ PUSH2 0xC84 JUMPI PUSH0 DUP1 REVERT JUMPDEST POP JUMP JUMPDEST PUSH0 DUP2 CALLDATALOAD SWAP1 POP PUSH2 0xC95 DUP2 PUSH2 0xC71 JUMP JUMPDEST SWAP3 SWAP2 POP POP JUMP JUMPDEST PUSH0 PUSH1 0x20 DUP3 DUP5 SUB SLT ISZERO PUSH2 0xCB0 JUMPI PUSH2 0xCAF PUSH2 0xC39 JUMP JUMPDEST JUMPDEST PUSH0 PUSH2 0xCBD DUP5 DUP3 DUP6 ADD PUSH2 0xC87 JUMP JUMPDEST SWAP2 POP POP SWAP3 SWAP2 POP POP JUMP JUMPDEST PUSH0 DUP1 REVERT JUMPDEST PUSH0 DUP1 REVERT JUMPDEST PUSH0 PUSH1 0x1F NOT PUSH1 0x1F DUP4 ADD AND SWAP1 POP SWAP2 SWAP1 POP JUMP JUMPDEST PUSH32 0x4E487B7100000000000000000000000000000000000000000000000000000000 PUSH0 MSTORE PUSH1 0x41 PUSH1 0x4 MSTORE PUSH1 0x24 PUSH0 REVERT JUMPDEST PUSH2 0xD14 DUP3 PUSH2 0xCCE JUMP JUMPDEST DUP2 ADD DUP2 DUP2 LT PUSH8 0xFFFFFFFFFFFFFFFF DUP3 GT OR ISZERO PUSH2 0xD33 JUMPI PUSH2 0xD32 PUSH2 0xCDE JUMP JUMPDEST JUMPDEST DUP1 PUSH1 0x40 MSTORE POP POP POP JUMP JUMPDEST PUSH0 PUSH2 0xD45 PUSH2 0xC30 JUMP JUMPDEST SWAP1 POP PUSH2 0xD51 DUP3 DUP3 PUSH2 0xD0B JUMP JUMPDEST SWAP2 SWAP1 POP JUMP JUMPDEST PUSH0 PUSH8 0xFFFFFFFFFFFFFFFF DUP3 GT ISZERO PUSH2 0xD70 JUMPI PUSH2 0xD6F PUSH2 0xCDE JUMP JUMPDEST JUMPDEST PUSH2 0xD79 DUP3 PUSH2 0xCCE JUMP JUMPDEST SWAP1 POP PUSH1 0x20 DUP2 ADD SWAP1 POP SWAP2 SWAP1 POP JUMP JUMPDEST DUP3 DUP2 DUP4 CALLDATACOPY PUSH0 DUP4 DUP4 ADD MSTORE POP POP POP JUMP JUMPDEST PUSH0 PUSH2 0xDA6 PUSH2 0xDA1 DUP5 PUSH2 0xD56 JUMP JUMPDEST PUSH2 0xD3C JUMP JUMPDEST SWAP1 POP DUP3 DUP2 MSTORE PUSH1 0x20 DUP2 ADD DUP5 DUP5 DUP5 ADD GT ISZERO PUSH2 0xDC2 JUMPI PUSH2 0xDC1 PUSH2 0xCCA JUMP JUMPDEST JUMPDEST PUSH2 0xDCD DUP5 DUP3 DUP6 PUSH2 0xD86 JUMP JUMPDEST POP SWAP4 SWAP3 POP POP POP JUMP JUMPDEST PUSH0 DUP3 PUSH1 0x1F DUP4 ADD SLT PUSH2 0xDE9 JUMPI PUSH2 0xDE8 PUSH2 0xCC6 JUMP JUMPDEST JUMPDEST DUP2 CALLDATALOAD PUSH2 0xDF9 DUP5 DUP3 PUSH1 0x20 DUP7 ADD PUSH2 0xD94 JUMP JUMPDEST SWAP2 POP POP SWAP3 SWAP2 POP POP JUMP JUMPDEST PUSH0 DUP1 REVERT JUMPDEST PUSH0 DUP1 REVERT JUMPDEST PUSH0 DUP1 DUP4 PUSH1 0x1F DUP5 ADD SLT PUSH2 0xE1F JUMPI PUSH2 0xE1E PUSH2 0xCC6 JUMP JUMPDEST JUMPDEST DUP3 CALLDATALOAD SWAP1 POP PUSH8 0xFFFFFFFFFFFFFFFF DUP2 GT ISZERO PUSH2 0xE3C JUMPI PUSH2 0xE3B PUSH2 0xE02 JUMP JUMPDEST JUMPDEST PUSH1 0x20 DUP4 ADD SWAP2 POP DUP4 PUSH1 0x1 DUP3 MUL DUP4 ADD GT ISZERO PUSH2 0xE58 JUMPI PUSH2 0xE57 PUSH2 0xE06 JUMP JUMPDEST JUMPDEST SWAP3 POP SWAP3 SWAP1 POP JUMP JUMPDEST PUSH0 DUP2 SWAP1 POP SWAP2 SWAP1 POP JUMP JUMPDEST PUSH2 0xE71 DUP2 PUSH2 0xE5F JUMP JUMPDEST DUP2 EQ PUSH2 0xE7B JUMPI PUSH0 DUP1 REVERT JUMPDEST POP JUMP JUMPDEST PUSH0 DUP2 CALLDATALOAD SWAP1 POP PUSH2 0xE8C DUP2 PUSH2 0xE68 JUMP JUMPDEST SWAP3 SWAP2 POP POP JUMP JUMPDEST PUSH0 DUP1 PUSH0 DUP1 PUSH1 0x60 DUP6 DUP8 SUB SLT ISZERO PUSH2 0xEAA JUMPI PUSH2 0xEA9 PUSH2 0xC39 JUMP JUMPDEST JUMPDEST PUSH0 DUP6 ADD CALLDATALOAD PUSH8 0xFFFFFFFFFFFFFFFF DUP2 GT ISZERO PUSH2 0xEC7 JUMPI PUSH2 0xEC6 PUSH2 0xC3D JUMP JUMPDEST JUMPDEST PUSH2 0xED3 DUP8 DUP3 DUP9 ADD PUSH2 0xDD5 JUMP JUMPDEST SWAP5 POP POP PUSH1 0x20 DUP6 ADD CALLDATALOAD PUSH8 0xFFFFFFFFFFFFFFFF DUP2 GT ISZERO PUSH2 0xEF4 JUMPI PUSH2 0xEF3 PUSH2 0xC3D JUMP JUMPDEST JUMPDEST PUSH2 0xF00 DUP8 DUP3 DUP9 ADD PUSH2 0xE0A JUMP JUMPDEST SWAP4 POP SWAP4 POP POP PUSH1 0x40 PUSH2 0xF13 DUP8 DUP3 DUP9 ADD PUSH2 0xE7E JUMP JUMPDEST SWAP2 POP POP SWAP3 SWAP6 SWAP2 SWAP5 POP SWAP3 POP JUMP JUMPDEST PUSH0 DUP2 MLOAD SWAP1 POP SWAP2 SWAP1 POP JUMP JUMPDEST PUSH0 DUP3 DUP3 MSTORE PUSH1 0x20 DUP3 ADD SWAP1 POP SWAP3 SWAP2 POP POP JUMP JUMPDEST DUP3 DUP2 DUP4 MCOPY PUSH0 DUP4 DUP4 ADD MSTORE POP POP POP JUMP JUMPDEST PUSH0 PUSH2 0xF51 DUP3 PUSH2 0xF1F JUMP JUMPDEST PUSH2 0xF5B DUP2 DUP6 PUSH2 0xF29 JUMP JUMPDEST SWAP4 POP PUSH2 0xF6B DUP2 DUP6 PUSH1 0x20 DUP7 ADD PUSH2 0xF39 JUMP JUMPDEST PUSH2 0xF74 DUP2 PUSH2 0xCCE JUMP JUMPDEST DUP5 ADD SWAP2 POP POP SWAP3 SWAP2 POP POP JUMP JUMPDEST PUSH2 0xF88 DUP2 PUSH2 0xE5F JUMP JUMPDEST DUP3 MSTORE POP POP JUMP JUMPDEST PUSH0 DUP2 ISZERO ISZERO SWAP1 POP SWAP2 SWAP1 POP JUMP JUMPDEST PUSH2 0xFA2 DUP2 PUSH2 0xF8E JUMP JUMPDEST DUP3 MSTORE POP POP JUMP JUMPDEST PUSH0 PUSH2 0x100 DUP4 ADD PUSH0 DUP4 ADD MLOAD DUP5 DUP3 SUB PUSH0 DUP7 ADD MSTORE PUSH2 0xFC3 DUP3 DUP3 PUSH2 0xF47 JUMP JUMPDEST SWAP2 POP POP PUSH1 0x20 DUP4 ADD MLOAD DUP5 DUP3 SUB PUSH1 0x20 DUP7 ADD MSTORE PUSH2 0xFDD DUP3 DUP3 PUSH2 0xF47 JUMP JUMPDEST SWAP2 POP POP PUSH1 0x40 DUP4 ADD MLOAD PUSH2 0xFF2 PUSH1 0x40 DUP7 ADD DUP3 PUSH2 0xF7F JUMP JUMPDEST POP PUSH1 0x60 DUP4 ADD MLOAD PUSH2 0x1005 PUSH1 0x60 DUP7 ADD DUP3 PUSH2 0xF7F JUMP JUMPDEST POP PUSH1 0x80 DUP4 ADD MLOAD PUSH2 0x1018 PUSH1 0x80 DUP7 ADD DUP3 PUSH2 0xF7F JUMP JUMPDEST POP PUSH1 0xA0 DUP4 ADD MLOAD PUSH2 0x102B PUSH1 0xA0 DUP7 ADD DUP3 PUSH2 0xF7F JUMP JUMPDEST POP PUSH1 0xC0 DUP4 ADD MLOAD PUSH2 0x103E PUSH1 0xC0 DUP7 ADD DUP3 PUSH2 0xF99 JUMP JUMPDEST POP PUSH1 0xE0 DUP4 ADD MLOAD PUSH2 0x1051 PUSH1 0xE0 DUP7 ADD DUP3 PUSH2 0xF99 JUMP JUMPDEST POP DUP1 SWAP2 POP POP SWAP3 SWAP2 POP POP JUMP JUMPDEST PUSH0 PUSH1 0x20 DUP3 ADD SWAP1 POP DUP2 DUP2 SUB PUSH0 DUP4 ADD MSTORE PUSH2 0x1074 DUP2 DUP5 PUSH2 0xFA8 JUMP JUMPDEST SWAP1 POP SWAP3 SWAP2 POP POP JUMP JUMPDEST PUSH0 PUSH1 0xFF DUP3 AND SWAP1 POP SWAP2 SWAP1 POP JUMP JUMPDEST PUSH2 0x1091 DUP2 PUSH2 0x107C JUMP JUMPDEST DUP2 EQ PUSH2 0x109B JUMPI PUSH0 DUP1 REVERT JUMPDEST POP JUMP JUMPDEST PUSH0 DUP2 CALLDATALOAD SWAP1 POP PUSH2 0x10AC DUP2 PUSH2 0x1088 JUMP JUMPDEST SWAP3 SWAP2 POP POP JUMP JUMPDEST PUSH0 PUSH1 0x20 DUP3 DUP5 SUB SLT ISZERO PUSH2 0x10C7 JUMPI PUSH2 0x10C6 PUSH2 0xC39 JUMP JUMPDEST JUMPDEST PUSH0 PUSH2 0x10D4 DUP5 DUP3 DUP6 ADD PUSH2 0x109E JUMP JUMPDEST SWAP2 POP POP SWAP3 SWAP2 POP POP JUMP JUMPDEST PUSH0 PUSH1 0x20 DUP3 DUP5 SUB SLT ISZERO PUSH2 0x10F2 JUMPI PUSH2 0x10F1 PUSH2 0xC39 JUMP JUMPDEST JUMPDEST PUSH0 PUSH2 0x10FF DUP5 DUP3 DUP6 ADD PUSH2 0xE7E JUMP JUMPDEST SWAP2 POP POP SWAP3 SWAP2 POP POP JUMP JUMPDEST PUSH0 DUP3 DUP3 MSTORE PUSH1 0x20 DUP3 ADD SWAP1 POP SWAP3 SWAP2 POP POP JUMP JUMPDEST PUSH32 0x4F6E6C79204F776E65722063616E000000000000000000000000000000000000 PUSH0 DUP3 ADD MSTORE POP JUMP JUMPDEST PUSH0 PUSH2 0x114C PUSH1 0xE DUP4 PUSH2 0x1108 JUMP JUMPDEST SWAP2 POP PUSH2 0x1157 DUP3 PUSH2 0x1118 JUMP JUMPDEST PUSH1 0x20 DUP3 ADD SWAP1 POP SWAP2 SWAP1 POP JUMP JUMPDEST PUSH0 PUSH1 0x20 DUP3 ADD SWAP1 POP DUP2 DUP2 SUB PUSH0 DUP4 ADD MSTORE PUSH2 0x1179 DUP2 PUSH2 0x1140 JUMP JUMPDEST SWAP1 POP SWAP2 SWAP1 POP JUMP JUMPDEST PUSH32 0x4E487B7100000000000000000000000000000000000000000000000000000000 PUSH0 MSTORE PUSH1 0x11 PUSH1 0x4 MSTORE PUSH1 0x24 PUSH0 REVERT JUMPDEST PUSH0 PUSH2 0x11B7 DUP3 PUSH2 0xE5F JUMP JUMPDEST SWAP2 POP PUSH2 0x11C2 DUP4 PUSH2 0xE5F JUMP JUMPDEST SWAP3 POP DUP3 DUP3 ADD SWAP1 POP DUP1 DUP3 GT ISZERO PUSH2 0x11DA JUMPI PUSH2 0x11D9 PUSH2 0x1180 JUMP JUMPDEST JUMPDEST SWAP3 SWAP2 POP POP JUMP JUMPDEST PUSH32 0x4E487B7100000000000000000000000000000000000000000000000000000000 PUSH0 MSTORE PUSH1 0x22 PUSH1 0x4 MSTORE PUSH1 0x24 PUSH0 REVERT JUMPDEST PUSH0 PUSH1 0x2 DUP3 DIV SWAP1 POP PUSH1 0x1 DUP3 AND DUP1 PUSH2 0x1224 JUMPI PUSH1 0x7F DUP3 AND SWAP2 POP JUMPDEST PUSH1 0x20 DUP3 LT DUP2 SUB PUSH2 0x1237 JUMPI PUSH2 0x1236 PUSH2 0x11E0 JUMP JUMPDEST JUMPDEST POP SWAP2 SWAP1 POP JUMP JUMPDEST PUSH0 DUP2 SWAP1 POP DUP2 PUSH0 MSTORE PUSH1 0x20 PUSH0 KECCAK256 SWAP1 POP SWAP2 SWAP1 POP JUMP JUMPDEST PUSH0 PUSH1 0x20 PUSH1 0x1F DUP4 ADD DIV SWAP1 POP SWAP2 SWAP1 POP JUMP JUMPDEST PUSH0 DUP3 DUP3 SHL SWAP1 POP SWAP3 SWAP2 POP POP JUMP JUMPDEST PUSH0 PUSH1 0x8 DUP4 MUL PUSH2 0x1299 PUSH32 0xFFFFFFFFFFFFFFFFFFFFFFFFFFFFFFFFFFFFFFFFFFFFFFFFFFFFFFFFFFFFFFFF DUP3 PUSH2 0x125E JUMP JUMPDEST PUSH2 0x12A3 DUP7 DUP4 PUSH2 0x125E JUMP JUMPDEST SWAP6 POP DUP1 NOT DUP5 AND SWAP4 POP DUP1 DUP7 AND DUP5 OR SWAP3 POP POP POP SWAP4 SWAP3 POP POP POP JUMP JUMPDEST PUSH0 DUP2 SWAP1 POP SWAP2 SWAP1 POP JUMP JUMPDEST PUSH0 PUSH2 0x12DE PUSH2 0x12D9 PUSH2 0x12D4 DUP5 PUSH2 0xE5F JUMP JUMPDEST PUSH2 0x12BB JUMP JUMPDEST PUSH2 0xE5F JUMP JUMPDEST SWAP1 POP SWAP2 SWAP1 POP JUMP JUMPDEST PUSH0 DUP2 SWAP1 POP SWAP2 SWAP1 POP JUMP JUMPDEST PUSH2 0x12F7 DUP4 PUSH2 0x12C4 JUMP JUMPDEST PUSH2 0x130B PUSH2 0x1303 DUP3 PUSH2 0x12E5 JUMP JUMPDEST DUP5 DUP5 SLOAD PUSH2 0x126A JUMP JUMPDEST DUP3 SSTORE POP POP POP POP JUMP JUMPDEST PUSH0 SWAP1 JUMP JUMPDEST PUSH2 0x131F PUSH2 0x1313 JUMP JUMPDEST PUSH2 0x132A DUP2 DUP5 DUP5 PUSH2 0x12EE JUMP JUMPDEST POP POP POP JUMP JUMPDEST JUMPDEST DUP2 DUP2 LT ISZERO PUSH2 0x134D JUMPI PUSH2 0x1342 PUSH0 DUP3 PUSH2 0x1317 JUMP JUMPDEST PUSH1 0x1 DUP2 ADD SWAP1 POP PUSH2 0x1330 JUMP JUMPDEST POP POP JUMP JUMPDEST PUSH1 0x1F DUP3 GT ISZERO PUSH2 0x1392 JUMPI PUSH2 0x1363 DUP2 PUSH2 0x123D JUMP JUMPDEST PUSH2 0x136C DUP5 PUSH2 0x124F JUMP JUMPDEST DUP2 ADD PUSH1 0x20 DUP6 LT ISZERO PUSH2 0x137B JUMPI DUP2 SWAP1 POP JUMPDEST PUSH2 0x138F PUSH2 0x1387 DUP6 PUSH2 0x124F JUMP JUMPDEST DUP4 ADD DUP3 PUSH2 0x132F JUMP JUMPDEST POP POP JUMPDEST POP POP POP JUMP JUMPDEST PUSH0 DUP3 DUP3 SHR SWAP1 POP SWAP3 SWAP2 POP POP JUMP JUMPDEST PUSH0 PUSH2 0x13B2 PUSH0 NOT DUP5 PUSH1 0x8 MUL PUSH2 0x1397 JUMP JUMPDEST NOT DUP1 DUP4 AND SWAP2 POP POP SWAP3 SWAP2 POP POP JUMP JUMPDEST PUSH0 PUSH2 0x13CA DUP4 DUP4 PUSH2 0x13A3 JUMP JUMPDEST SWAP2 POP DUP3 PUSH1 0x2 MUL DUP3 OR SWAP1 POP SWAP3 SWAP2 POP POP JUMP JUMPDEST PUSH2 0x13E3 DUP3 PUSH2 0xF1F JUMP JUMPDEST PUSH8 0xFFFFFFFFFFFFFFFF DUP2 GT ISZERO PUSH2 0x13FC JUMPI PUSH2 0x13FB PUSH2 0xCDE JUMP JUMPDEST JUMPDEST PUSH2 0x1406 DUP3 SLOAD PUSH2 0x120D JUMP JUMPDEST PUSH2 0x1411 DUP3 DUP3 DUP6 PUSH2 0x1351 JUMP JUMPDEST PUSH0 PUSH1 0x20 SWAP1 POP PUSH1 0x1F DUP4 GT PUSH1 0x1 DUP2 EQ PUSH2 0x1442 JUMPI PUSH0 DUP5 ISZERO PUSH2 0x1430 JUMPI DUP3 DUP8 ADD MLOAD SWAP1 POP JUMPDEST PUSH2 0x143A DUP6 DUP3 PUSH2 0x13BF JUMP JUMPDEST DUP7 SSTORE POP PUSH2 0x14A1 JUMP JUMPDEST PUSH1 0x1F NOT DUP5 AND PUSH2 0x1450 DUP7 PUSH2 0x123D JUMP JUMPDEST PUSH0 JUMPDEST DUP3 DUP2 LT ISZERO PUSH2 0x1477 JUMPI DUP5 DUP10 ADD MLOAD DUP3 SSTORE PUSH1 0x1 DUP3 ADD SWAP2 POP PUSH1 0x20 DUP6 ADD SWAP5 POP PUSH1 0x20 DUP2 ADD SWAP1 POP PUSH2 0x1452 JUMP JUMPDEST DUP7 DUP4 LT ISZERO PUSH2 0x1494 JUMPI DUP5 DUP10 ADD MLOAD PUSH2 0x1490 PUSH1 0x1F DUP10 AND DUP3 PUSH2 0x13A3 JUMP JUMPDEST DUP4 SSTORE POP JUMPDEST PUSH1 0x1 PUSH1 0x2 DUP9 MUL ADD DUP9 SSTORE POP POP POP JUMPDEST POP POP POP POP POP POP JUMP JUMPDEST PUSH32 0x5468652070726F706F73616C206973206E6F7420616374697665000000000000 PUSH0 DUP3 ADD MSTORE POP JUMP JUMPDEST PUSH0 PUSH2 0x14DD PUSH1 0x1A DUP4 PUSH2 0x1108 JUMP JUMPDEST SWAP2 POP PUSH2 0x14E8 DUP3 PUSH2 0x14A9 JUMP JUMPDEST PUSH1 0x20 DUP3 ADD SWAP1 POP SWAP2 SWAP1 POP JUMP JUMPDEST PUSH0 PUSH1 0x20 DUP3 ADD SWAP1 POP DUP2 DUP2 SUB PUSH0 DUP4 ADD MSTORE PUSH2 0x150A DUP2 PUSH2 0x14D1 JUMP JUMPDEST SWAP1 POP SWAP2 SWAP1 POP JUMP JUMPDEST PUSH0 PUSH2 0x151B DUP3 PUSH2 0xE5F JUMP JUMPDEST SWAP2 POP PUSH2 0x1526 DUP4 PUSH2 0xE5F JUMP JUMPDEST SWAP3 POP DUP3 DUP3 SUB SWAP1 POP DUP2 DUP2 GT ISZERO PUSH2 0x153E JUMPI PUSH2 0x153D PUSH2 0x1180 JUMP JUMPDEST JUMPDEST SWAP3 SWAP2 POP POP JUMP JUMPDEST PUSH32 0x4E487B7100000000000000000000000000000000000000000000000000000000 PUSH0 MSTORE PUSH1 0x12 PUSH1 0x4 MSTORE PUSH1 0x24 PUSH0 REVERT JUMPDEST PUSH0 PUSH2 0x157B DUP3 PUSH2 0xE5F JUMP JUMPDEST SWAP2 POP PUSH2 0x1586 DUP4 PUSH2 0xE5F JUMP JUMPDEST SWAP3 POP DUP3 PUSH2 0x1596 JUMPI PUSH2 0x1595 PUSH2 0x1544 JUMP JUMPDEST JUMPDEST DUP3 DUP3 MOD SWAP1 POP SWAP3 SWAP2 POP POP JUMP JUMPDEST PUSH0 PUSH2 0x15AB DUP3 PUSH2 0xE5F JUMP JUMPDEST SWAP2 POP PUSH2 0x15B6 DUP4 PUSH2 0xE5F JUMP JUMPDEST SWAP3 POP DUP3 PUSH2 0x15C6 JUMPI PUSH2 0x15C5 PUSH2 0x1544 JUMP JUMPDEST JUMPDEST DUP3 DUP3 DIV SWAP1 POP SWAP3 SWAP2 POP POP JUMP INVALID LOG2 PUSH5 0x6970667358 0x22 SLT KECCAK256 0xEF 0xA5 0xC8 0xCC PUSH28 0x71DCC66505229A5AF8597242E79CB260950C9B853382223C57413B64 PUSH20 0x6F6C634300081A00330000000000000000000000 "
				},
				"gasEstimates": {
					"creation": {
						"codeDepositCost": "1127800",
						"executionCost": "74012",
						"totalCost": "1201812"
					},
					"external": {
						"create(string,string,uint256)": "infinite",
						"getCurrentProposal()": "infinite",
						"getProposal(uint256)": "infinite",
						"setOwner(address)": "26859",
						"terminateProposal()": "33280",
						"vote(uint8)": "infinite"
					},
					"internal": {
						"calculateCurrentState()": "infinite",
						"isVoted(address)": "infinite"
					}
				},
				"methodIdentifiers": {
					"create(string,string,uint256)": "3ca6d100",
					"getCurrentProposal()": "41ec6870",
					"getProposal(uint256)": "c7f758a8",
					"setOwner(address)": "13af4035",
					"terminateProposal()": "dbddc7aa",
					"vote(uint8)": "b3f98adc"
				}
			},
			"storageLayout": {
				"storage": [
					{
						"astId": 3,
						"contract": "proposal/ProposalContract.sol:ProposalContract",
						"label": "owner",
						"offset": 0,
						"slot": "0",
						"type": "t_address"
					},
					{
						"astId": 5,
						"contract": "proposal/ProposalContract.sol:ProposalContract",
						"label": "counter",
						"offset": 0,
						"slot": "1",
						"type": "t_uint256"
					},
					{
						"astId": 8,
						"contract": "proposal/ProposalContract.sol:ProposalContract",
						"label": "voted_addresses",
						"offset": 0,
						"slot": "2",
						"type": "t_array(t_address)dyn_storage"
					},
					{
						"astId": 30,
						"contract": "proposal/ProposalContract.sol:ProposalContract",
						"label": "proposal_history",
						"offset": 0,
						"slot": "3",
						"type": "t_mapping(t_uint256,t_struct(Proposal)25_storage)"
					}
				],
				"types": {
					"t_address": {
						"encoding": "inplace",
						"label": "address",
						"numberOfBytes": "20"
					},
					"t_array(t_address)dyn_storage": {
						"base": "t_address",
						"encoding": "dynamic_array",
						"label": "address[]",
						"numberOfBytes": "32"
					},
					"t_bool": {
						"encoding": "inplace",
						"label": "bool",
						"numberOfBytes": "1"
					},
					"t_mapping(t_uint256,t_struct(Proposal)25_storage)": {
						"encoding": "mapping",
						"key": "t_uint256",
						"label": "mapping(uint256 => struct ProposalContract.Proposal)",
						"numberOfBytes": "32",
						"value": "t_struct(Proposal)25_storage"
					},
					"t_string_storage": {
						"encoding": "bytes",
						"label": "string",
						"numberOfBytes": "32"
					},
					"t_struct(Proposal)25_storage": {
						"encoding": "inplace",
						"label": "struct ProposalContract.Proposal",
						"members": [
							{
								"astId": 10,
								"contract": "proposal/ProposalContract.sol:ProposalContract",
								"label": "title",
								"offset": 0,
								"slot": "0",
								"type": "t_string_storage"
							},
							{
								"astId": 12,
								"contract": "proposal/ProposalContract.sol:ProposalContract",
								"label": "description",
								"offset": 0,
								"slot": "1",
								"type": "t_string_storage"
							},
							{
								"astId": 14,
								"contract": "proposal/ProposalContract.sol:ProposalContract",
								"label": "approve",
								"offset": 0,
								"slot": "2",
								"type": "t_uint256"
							},
							{
								"astId": 16,
								"contract": "proposal/ProposalContract.sol:ProposalContract",
								"label": "reject",
								"offset": 0,
								"slot": "3",
								"type": "t_uint256"
							},
							{
								"astId": 18,
								"contract": "proposal/ProposalContract.sol:ProposalContract",
								"label": "pass",
								"offset": 0,
								"slot": "4",
								"type": "t_uint256"
							},
							{
								"astId": 20,
								"contract": "proposal/ProposalContract.sol:ProposalContract",
								"label": "total_vote_to_end",
								"offset": 0,
								"slot": "5",
								"type": "t_uint256"
							},
							{
								"astId": 22,
								"contract": "proposal/ProposalContract.sol:ProposalContract",
								"label": "current_state",
								"offset": 0,
								"slot": "6",
								"type": "t_bool"
							},
							{
								"astId": 24,
								"contract": "proposal/ProposalContract.sol:ProposalContract",
								"label": "is_active",
								"offset": 1,
								"slot": "6",
								"type": "t_bool"
							}
						],
						"numberOfBytes": "224"
					},
					"t_uint256": {
						"encoding": "inplace",
						"label": "uint256",
						"numberOfBytes": "32"
					}
				}
			},
			"userdoc": {
				"kind": "user",
				"methods": {},
				"version": 1
			}
		}
	}
}