{
	"proposal/ProposalContract.sol": {
		"ProposalContract": {
			"abi": [
				{
					"inputs": [
						{
							"internalType": "string",
							"name": "_title",
							"type": "string"
						},
						{
							"internalType": "string",
							"name": "_description",
							"type": "string"
						},
						{
							"internalType": "uint256",
							"name": "_total_vote_to_end",
							"type": "uint256"
						}
					],
					"name": "create",
					"outputs": [],
					"stateMutability": "nonpayable",
					"type": "function"
				}
			],
			"devdoc": {
				"kind": "dev",
				"methods": {},
				"version": 1
			},
			"evm": {
				"assembly": "    /* \"proposal/ProposalContract.sol\":57:808  contract ProposalContract {... */\n  mstore(0x40, 0x80)\n  callvalue\n  dup1\n  iszero\n  tag_1\n  jumpi\n  0x00\n  dup1\n  revert\ntag_1:\n  pop\n  dataSize(sub_0)\n  dup1\n  dataOffset(sub_0)\n  0x00\n  codecopy\n  0x00\n  return\nstop\n\nsub_0: assembly {\n        /* \"proposal/ProposalContract.sol\":57:808  contract ProposalContract {... */\n      mstore(0x40, 0x80)\n      callvalue\n      dup1\n      iszero\n      tag_1\n      jumpi\n      0x00\n      dup1\n      revert\n    tag_1:\n      pop\n      jumpi(tag_2, lt(calldatasize, 0x04))\n      shr(0xe0, calldataload(0x00))\n      dup1\n      0x3ca6d100\n      eq\n      tag_3\n      jumpi\n    tag_2:\n      0x00\n      dup1\n      revert\n        /* \"proposal/ProposalContract.sol\":426:806  function create(... */\n    tag_3:\n      tag_4\n      0x04\n      dup1\n      calldatasize\n      sub\n      dup2\n      add\n      swap1\n      tag_5\n      swap2\n      swap1\n      tag_6\n      jump\t// in\n    tag_5:\n      tag_7\n      jump\t// in\n    tag_4:\n      stop\n    tag_7:\n        /* \"proposal/ProposalContract.sol\":582:583  1 */\n      0x01\n        /* \"proposal/ProposalContract.sol\":571:578  counter */\n      dup1\n      0x00\n        /* \"proposal/ProposalContract.sol\":571:583  counter += 1 */\n      dup3\n      dup3\n      sload\n      tag_9\n      swap2\n      swap1\n      tag_10\n      jump\t// in\n    tag_9:\n      swap3\n      pop\n      pop\n      dup2\n      swap1\n      sstore\n      pop\n        /* \"proposal/ProposalContract.sol\":621:799  Proposal(... */\n      mload(0x40)\n      dup1\n      0x0100\n      add\n      0x40\n      mstore\n      dup1\n        /* \"proposal/ProposalContract.sol\":643:649  _title */\n      dup6\n        /* \"proposal/ProposalContract.sol\":621:799  Proposal(... */\n      dup2\n      mstore\n      0x20\n      add\n        /* \"proposal/ProposalContract.sol\":663:675  _description */\n      dup5\n      dup5\n        /* \"proposal/ProposalContract.sol\":621:799  Proposal(... */\n      dup1\n      dup1\n      0x1f\n      add\n      0x20\n      dup1\n      swap2\n      div\n      mul\n      0x20\n      add\n      mload(0x40)\n      swap1\n      dup2\n      add\n      0x40\n      mstore\n      dup1\n      swap4\n      swap3\n      swap2\n      swap1\n      dup2\n      dup2\n      mstore\n      0x20\n      add\n      dup4\n      dup4\n      dup1\n      dup3\n      dup5\n      calldatacopy\n      0x00\n      dup2\n      dup5\n      add\n      mstore\n      not(0x1f)\n      0x1f\n      dup3\n      add\n      and\n      swap1\n      pop\n      dup1\n      dup4\n      add\n      swap3\n      pop\n      pop\n      pop\n      pop\n      pop\n      pop\n      pop\n      dup2\n      mstore\n      0x20\n      add\n        /* \"proposal/ProposalContract.sol\":689:690  0 */\n      0x00\n        /* \"proposal/ProposalContract.sol\":621:799  Proposal(... */\n      dup2\n      mstore\n      0x20\n      add\n        /* \"proposal/ProposalContract.sol\":704:705  0 */\n      0x00\n        /* \"proposal/ProposalContract.sol\":621:799  Proposal(... */\n      dup2\n      mstore\n      0x20\n      add\n        /* \"proposal/ProposalContract.sol\":719:720  0 */\n      0x00\n        /* \"proposal/ProposalContract.sol\":621:799  Proposal(... */\n      dup2\n      mstore\n      0x20\n      add\n        /* \"proposal/ProposalContract.sol\":734:752  _total_vote_to_end */\n      dup3\n        /* \"proposal/ProposalContract.sol\":621:799  Proposal(... */\n      dup2\n      mstore\n      0x20\n      add\n        /* \"proposal/ProposalContract.sol\":766:771  false */\n      0x00\n        /* \"proposal/ProposalContract.sol\":621:799  Proposal(... */\n      iszero\n      iszero\n      dup2\n      mstore\n      0x20\n      add\n        /* \"proposal/ProposalContract.sol\":785:789  true */\n      0x01\n        /* \"proposal/ProposalContract.sol\":621:799  Proposal(... */\n      iszero\n      iszero\n      dup2\n      mstore\n      pop\n        /* \"proposal/ProposalContract.sol\":593:609  proposal_history */\n      0x02\n        /* \"proposal/ProposalContract.sol\":593:618  proposal_history[counter] */\n      0x00\n        /* \"proposal/ProposalContract.sol\":610:617  counter */\n      sload(0x01)\n        /* \"proposal/ProposalContract.sol\":593:618  proposal_history[counter] */\n      dup2\n      mstore\n      0x20\n      add\n      swap1\n      dup2\n      mstore\n      0x20\n      add\n      0x00\n      keccak256\n        /* \"proposal/ProposalContract.sol\":593:799  proposal_history[counter] = Proposal(... */\n      0x00\n      dup3\n      add\n      mload\n      dup2\n      0x00\n      add\n      swap1\n      dup2\n      tag_11\n      swap2\n      swap1\n      tag_12\n      jump\t// in\n    tag_11:\n      pop\n      0x20\n      dup3\n      add\n      mload\n      dup2\n      0x01\n      add\n      swap1\n      dup2\n      tag_13\n      swap2\n      swap1\n      tag_12\n      jump\t// in\n    tag_13:\n      pop\n      0x40\n      dup3\n      add\n      mload\n      dup2\n      0x02\n      add\n      sstore\n      0x60\n      dup3\n      add\n      mload\n      dup2\n      0x03\n      add\n      sstore\n      0x80\n      dup3\n      add\n      mload\n      dup2\n      0x04\n      add\n      sstore\n      0xa0\n      dup3\n      add\n      mload\n      dup2\n      0x05\n      add\n      sstore\n      0xc0\n      dup3\n      add\n      mload\n      dup2\n      0x06\n      add\n      exp(0x0100, 0x00)\n      dup2\n      sload\n      dup2\n      0xff\n      mul\n      not\n      and\n      swap1\n      dup4\n      iszero\n      iszero\n      mul\n      or\n      swap1\n      sstore\n      pop\n      0xe0\n      dup3\n      add\n      mload\n      dup2\n      0x06\n      add\n      exp(0x0100, 0x01)\n      dup2\n      sload\n      dup2\n      0xff\n      mul\n      not\n      and\n      swap1\n      dup4\n      iszero\n      iszero\n      mul\n      or\n      swap1\n      sstore\n      pop\n      swap1\n      pop\n      pop\n        /* \"proposal/ProposalContract.sol\":426:806  function create(... */\n      pop\n      pop\n      pop\n      pop\n      jump\t// out\n        /* \"#utility.yul\":7:82   */\n    tag_14:\n        /* \"#utility.yul\":40:46   */\n      0x00\n        /* \"#utility.yul\":73:75   */\n      0x40\n        /* \"#utility.yul\":67:76   */\n      mload\n        /* \"#utility.yul\":57:76   */\n      swap1\n      pop\n        /* \"#utility.yul\":7:82   */\n      swap1\n      jump\t// out\n        /* \"#utility.yul\":88:205   */\n    tag_15:\n        /* \"#utility.yul\":197:198   */\n      0x00\n        /* \"#utility.yul\":194:195   */\n      dup1\n        /* \"#utility.yul\":187:199   */\n      revert\n        /* \"#utility.yul\":211:328   */\n    tag_16:\n        /* \"#utility.yul\":320:321   */\n      0x00\n        /* \"#utility.yul\":317:318   */\n      dup1\n        /* \"#utility.yul\":310:322   */\n      revert\n        /* \"#utility.yul\":334:451   */\n    tag_17:\n        /* \"#utility.yul\":443:444   */\n      0x00\n        /* \"#utility.yul\":440:441   */\n      dup1\n        /* \"#utility.yul\":433:445   */\n      revert\n        /* \"#utility.yul\":457:574   */\n    tag_18:\n        /* \"#utility.yul\":566:567   */\n      0x00\n        /* \"#utility.yul\":563:564   */\n      dup1\n        /* \"#utility.yul\":556:568   */\n      revert\n        /* \"#utility.yul\":580:682   */\n    tag_19:\n        /* \"#utility.yul\":621:627   */\n      0x00\n        /* \"#utility.yul\":672:674   */\n      0x1f\n        /* \"#utility.yul\":668:675   */\n      not\n        /* \"#utility.yul\":663:665   */\n      0x1f\n        /* \"#utility.yul\":656:661   */\n      dup4\n        /* \"#utility.yul\":652:666   */\n      add\n        /* \"#utility.yul\":648:676   */\n      and\n        /* \"#utility.yul\":638:676   */\n      swap1\n      pop\n        /* \"#utility.yul\":580:682   */\n      swap2\n      swap1\n      pop\n      jump\t// out\n        /* \"#utility.yul\":688:868   */\n    tag_20:\n        /* \"#utility.yul\":736:813   */\n      0x4e487b7100000000000000000000000000000000000000000000000000000000\n        /* \"#utility.yul\":733:734   */\n      0x00\n        /* \"#utility.yul\":726:814   */\n      mstore\n        /* \"#utility.yul\":833:837   */\n      0x41\n        /* \"#utility.yul\":830:831   */\n      0x04\n        /* \"#utility.yul\":823:838   */\n      mstore\n        /* \"#utility.yul\":857:861   */\n      0x24\n        /* \"#utility.yul\":854:855   */\n      0x00\n        /* \"#utility.yul\":847:862   */\n      revert\n        /* \"#utility.yul\":874:1155   */\n    tag_21:\n        /* \"#utility.yul\":957:984   */\n      tag_61\n        /* \"#utility.yul\":979:983   */\n      dup3\n        /* \"#utility.yul\":957:984   */\n      tag_19\n      jump\t// in\n    tag_61:\n        /* \"#utility.yul\":949:955   */\n      dup2\n        /* \"#utility.yul\":945:985   */\n      add\n        /* \"#utility.yul\":1087:1093   */\n      dup2\n        /* \"#utility.yul\":1075:1085   */\n      dup2\n        /* \"#utility.yul\":1072:1094   */\n      lt\n        /* \"#utility.yul\":1051:1069   */\n      0xffffffffffffffff\n        /* \"#utility.yul\":1039:1049   */\n      dup3\n        /* \"#utility.yul\":1036:1070   */\n      gt\n        /* \"#utility.yul\":1033:1095   */\n      or\n        /* \"#utility.yul\":1030:1118   */\n      iszero\n      tag_62\n      jumpi\n        /* \"#utility.yul\":1098:1116   */\n      tag_63\n      tag_20\n      jump\t// in\n    tag_63:\n        /* \"#utility.yul\":1030:1118   */\n    tag_62:\n        /* \"#utility.yul\":1138:1148   */\n      dup1\n        /* \"#utility.yul\":1134:1136   */\n      0x40\n        /* \"#utility.yul\":1127:1149   */\n      mstore\n        /* \"#utility.yul\":917:1155   */\n      pop\n        /* \"#utility.yul\":874:1155   */\n      pop\n      pop\n      jump\t// out\n        /* \"#utility.yul\":1161:1290   */\n    tag_22:\n        /* \"#utility.yul\":1195:1201   */\n      0x00\n        /* \"#utility.yul\":1222:1242   */\n      tag_65\n      tag_14\n      jump\t// in\n    tag_65:\n        /* \"#utility.yul\":1212:1242   */\n      swap1\n      pop\n        /* \"#utility.yul\":1251:1284   */\n      tag_66\n        /* \"#utility.yul\":1279:1283   */\n      dup3\n        /* \"#utility.yul\":1271:1277   */\n      dup3\n        /* \"#utility.yul\":1251:1284   */\n      tag_21\n      jump\t// in\n    tag_66:\n        /* \"#utility.yul\":1161:1290   */\n      swap2\n      swap1\n      pop\n      jump\t// out\n        /* \"#utility.yul\":1296:1604   */\n    tag_23:\n        /* \"#utility.yul\":1358:1362   */\n      0x00\n        /* \"#utility.yul\":1448:1466   */\n      0xffffffffffffffff\n        /* \"#utility.yul\":1440:1446   */\n      dup3\n        /* \"#utility.yul\":1437:1467   */\n      gt\n        /* \"#utility.yul\":1434:1490   */\n      iszero\n      tag_68\n      jumpi\n        /* \"#utility.yul\":1470:1488   */\n      tag_69\n      tag_20\n      jump\t// in\n    tag_69:\n        /* \"#utility.yul\":1434:1490   */\n    tag_68:\n        /* \"#utility.yul\":1508:1537   */\n      tag_70\n        /* \"#utility.yul\":1530:1536   */\n      dup3\n        /* \"#utility.yul\":1508:1537   */\n      tag_19\n      jump\t// in\n    tag_70:\n        /* \"#utility.yul\":1500:1537   */\n      swap1\n      pop\n        /* \"#utility.yul\":1592:1596   */\n      0x20\n        /* \"#utility.yul\":1586:1590   */\n      dup2\n        /* \"#utility.yul\":1582:1597   */\n      add\n        /* \"#utility.yul\":1574:1597   */\n      swap1\n      pop\n        /* \"#utility.yul\":1296:1604   */\n      swap2\n      swap1\n      pop\n      jump\t// out\n        /* \"#utility.yul\":1610:1758   */\n    tag_24:\n        /* \"#utility.yul\":1708:1714   */\n      dup3\n        /* \"#utility.yul\":1703:1706   */\n      dup2\n        /* \"#utility.yul\":1698:1701   */\n      dup4\n        /* \"#utility.yul\":1685:1715   */\n      calldatacopy\n        /* \"#utility.yul\":1749:1750   */\n      0x00\n        /* \"#utility.yul\":1740:1746   */\n      dup4\n        /* \"#utility.yul\":1735:1738   */\n      dup4\n        /* \"#utility.yul\":1731:1747   */\n      add\n        /* \"#utility.yul\":1724:1751   */\n      mstore\n        /* \"#utility.yul\":1610:1758   */\n      pop\n      pop\n      pop\n      jump\t// out\n        /* \"#utility.yul\":1764:2189   */\n    tag_25:\n        /* \"#utility.yul\":1842:1847   */\n      0x00\n        /* \"#utility.yul\":1867:1933   */\n      tag_73\n        /* \"#utility.yul\":1883:1932   */\n      tag_74\n        /* \"#utility.yul\":1925:1931   */\n      dup5\n        /* \"#utility.yul\":1883:1932   */\n      tag_23\n      jump\t// in\n    tag_74:\n        /* \"#utility.yul\":1867:1933   */\n      tag_22\n      jump\t// in\n    tag_73:\n        /* \"#utility.yul\":1858:1933   */\n      swap1\n      pop\n        /* \"#utility.yul\":1956:1962   */\n      dup3\n        /* \"#utility.yul\":1949:1954   */\n      dup2\n        /* \"#utility.yul\":1942:1963   */\n      mstore\n        /* \"#utility.yul\":1994:1998   */\n      0x20\n        /* \"#utility.yul\":1987:1992   */\n      dup2\n        /* \"#utility.yul\":1983:1999   */\n      add\n        /* \"#utility.yul\":2032:2035   */\n      dup5\n        /* \"#utility.yul\":2023:2029   */\n      dup5\n        /* \"#utility.yul\":2018:2021   */\n      dup5\n        /* \"#utility.yul\":2014:2030   */\n      add\n        /* \"#utility.yul\":2011:2036   */\n      gt\n        /* \"#utility.yul\":2008:2120   */\n      iszero\n      tag_75\n      jumpi\n        /* \"#utility.yul\":2039:2118   */\n      tag_76\n      tag_18\n      jump\t// in\n    tag_76:\n        /* \"#utility.yul\":2008:2120   */\n    tag_75:\n        /* \"#utility.yul\":2129:2183   */\n      tag_77\n        /* \"#utility.yul\":2176:2182   */\n      dup5\n        /* \"#utility.yul\":2171:2174   */\n      dup3\n        /* \"#utility.yul\":2166:2169   */\n      dup6\n        /* \"#utility.yul\":2129:2183   */\n      tag_24\n      jump\t// in\n    tag_77:\n        /* \"#utility.yul\":1848:2189   */\n      pop\n        /* \"#utility.yul\":1764:2189   */\n      swap4\n      swap3\n      pop\n      pop\n      pop\n      jump\t// out\n        /* \"#utility.yul\":2209:2549   */\n    tag_26:\n        /* \"#utility.yul\":2265:2270   */\n      0x00\n        /* \"#utility.yul\":2314:2317   */\n      dup3\n        /* \"#utility.yul\":2307:2311   */\n      0x1f\n        /* \"#utility.yul\":2299:2305   */\n      dup4\n        /* \"#utility.yul\":2295:2312   */\n      add\n        /* \"#utility.yul\":2291:2318   */\n      slt\n        /* \"#utility.yul\":2281:2403   */\n      tag_79\n      jumpi\n        /* \"#utility.yul\":2322:2401   */\n      tag_80\n      tag_17\n      jump\t// in\n    tag_80:\n        /* \"#utility.yul\":2281:2403   */\n    tag_79:\n        /* \"#utility.yul\":2439:2445   */\n      dup2\n        /* \"#utility.yul\":2426:2446   */\n      calldataload\n        /* \"#utility.yul\":2464:2543   */\n      tag_81\n        /* \"#utility.yul\":2539:2542   */\n      dup5\n        /* \"#utility.yul\":2531:2537   */\n      dup3\n        /* \"#utility.yul\":2524:2528   */\n      0x20\n        /* \"#utility.yul\":2516:2522   */\n      dup7\n        /* \"#utility.yul\":2512:2529   */\n      add\n        /* \"#utility.yul\":2464:2543   */\n      tag_25\n      jump\t// in\n    tag_81:\n        /* \"#utility.yul\":2455:2543   */\n      swap2\n      pop\n        /* \"#utility.yul\":2271:2549   */\n      pop\n        /* \"#utility.yul\":2209:2549   */\n      swap3\n      swap2\n      pop\n      pop\n      jump\t// out\n        /* \"#utility.yul\":2555:2672   */\n    tag_27:\n        /* \"#utility.yul\":2664:2665   */\n      0x00\n        /* \"#utility.yul\":2661:2662   */\n      dup1\n        /* \"#utility.yul\":2654:2666   */\n      revert\n        /* \"#utility.yul\":2678:2795   */\n    tag_28:\n        /* \"#utility.yul\":2787:2788   */\n      0x00\n        /* \"#utility.yul\":2784:2785   */\n      dup1\n        /* \"#utility.yul\":2777:2789   */\n      revert\n        /* \"#utility.yul\":2815:3368   */\n    tag_29:\n        /* \"#utility.yul\":2873:2881   */\n      0x00\n        /* \"#utility.yul\":2883:2889   */\n      dup1\n        /* \"#utility.yul\":2933:2936   */\n      dup4\n        /* \"#utility.yul\":2926:2930   */\n      0x1f\n        /* \"#utility.yul\":2918:2924   */\n      dup5\n        /* \"#utility.yul\":2914:2931   */\n      add\n        /* \"#utility.yul\":2910:2937   */\n      slt\n        /* \"#utility.yul\":2900:3022   */\n      tag_85\n      jumpi\n        /* \"#utility.yul\":2941:3020   */\n      tag_86\n      tag_17\n      jump\t// in\n    tag_86:\n        /* \"#utility.yul\":2900:3022   */\n    tag_85:\n        /* \"#utility.yul\":3054:3060   */\n      dup3\n        /* \"#utility.yul\":3041:3061   */\n      calldataload\n        /* \"#utility.yul\":3031:3061   */\n      swap1\n      pop\n        /* \"#utility.yul\":3084:3102   */\n      0xffffffffffffffff\n        /* \"#utility.yul\":3076:3082   */\n      dup2\n        /* \"#utility.yul\":3073:3103   */\n      gt\n        /* \"#utility.yul\":3070:3187   */\n      iszero\n      tag_87\n      jumpi\n        /* \"#utility.yul\":3106:3185   */\n      tag_88\n      tag_27\n      jump\t// in\n    tag_88:\n        /* \"#utility.yul\":3070:3187   */\n    tag_87:\n        /* \"#utility.yul\":3220:3224   */\n      0x20\n        /* \"#utility.yul\":3212:3218   */\n      dup4\n        /* \"#utility.yul\":3208:3225   */\n      add\n        /* \"#utility.yul\":3196:3225   */\n      swap2\n      pop\n        /* \"#utility.yul\":3274:3277   */\n      dup4\n        /* \"#utility.yul\":3266:3270   */\n      0x01\n        /* \"#utility.yul\":3258:3264   */\n      dup3\n        /* \"#utility.yul\":3254:3271   */\n      mul\n        /* \"#utility.yul\":3244:3252   */\n      dup4\n        /* \"#utility.yul\":3240:3272   */\n      add\n        /* \"#utility.yul\":3237:3278   */\n      gt\n        /* \"#utility.yul\":3234:3362   */\n      iszero\n      tag_89\n      jumpi\n        /* \"#utility.yul\":3281:3360   */\n      tag_90\n      tag_28\n      jump\t// in\n    tag_90:\n        /* \"#utility.yul\":3234:3362   */\n    tag_89:\n        /* \"#utility.yul\":2815:3368   */\n      swap3\n      pop\n      swap3\n      swap1\n      pop\n      jump\t// out\n        /* \"#utility.yul\":3374:3451   */\n    tag_30:\n        /* \"#utility.yul\":3411:3418   */\n      0x00\n        /* \"#utility.yul\":3440:3445   */\n      dup2\n        /* \"#utility.yul\":3429:3445   */\n      swap1\n      pop\n        /* \"#utility.yul\":3374:3451   */\n      swap2\n      swap1\n      pop\n      jump\t// out\n        /* \"#utility.yul\":3457:3579   */\n    tag_31:\n        /* \"#utility.yul\":3530:3554   */\n      tag_93\n        /* \"#utility.yul\":3548:3553   */\n      dup2\n        /* \"#utility.yul\":3530:3554   */\n      tag_30\n      jump\t// in\n    tag_93:\n        /* \"#utility.yul\":3523:3528   */\n      dup2\n        /* \"#utility.yul\":3520:3555   */\n      eq\n        /* \"#utility.yul\":3510:3573   */\n      tag_94\n      jumpi\n        /* \"#utility.yul\":3569:3570   */\n      0x00\n        /* \"#utility.yul\":3566:3567   */\n      dup1\n        /* \"#utility.yul\":3559:3571   */\n      revert\n        /* \"#utility.yul\":3510:3573   */\n    tag_94:\n        /* \"#utility.yul\":3457:3579   */\n      pop\n      jump\t// out\n        /* \"#utility.yul\":3585:3724   */\n    tag_32:\n        /* \"#utility.yul\":3631:3636   */\n      0x00\n        /* \"#utility.yul\":3669:3675   */\n      dup2\n        /* \"#utility.yul\":3656:3676   */\n      calldataload\n        /* \"#utility.yul\":3647:3676   */\n      swap1\n      pop\n        /* \"#utility.yul\":3685:3718   */\n      tag_96\n        /* \"#utility.yul\":3712:3717   */\n      dup2\n        /* \"#utility.yul\":3685:3718   */\n      tag_31\n      jump\t// in\n    tag_96:\n        /* \"#utility.yul\":3585:3724   */\n      swap3\n      swap2\n      pop\n      pop\n      jump\t// out\n        /* \"#utility.yul\":3730:4729   */\n    tag_6:\n        /* \"#utility.yul\":3829:3835   */\n      0x00\n        /* \"#utility.yul\":3837:3843   */\n      dup1\n        /* \"#utility.yul\":3845:3851   */\n      0x00\n        /* \"#utility.yul\":3853:3859   */\n      dup1\n        /* \"#utility.yul\":3902:3904   */\n      0x60\n        /* \"#utility.yul\":3890:3899   */\n      dup6\n        /* \"#utility.yul\":3881:3888   */\n      dup8\n        /* \"#utility.yul\":3877:3900   */\n      sub\n        /* \"#utility.yul\":3873:3905   */\n      slt\n        /* \"#utility.yul\":3870:3989   */\n      iszero\n      tag_98\n      jumpi\n        /* \"#utility.yul\":3908:3987   */\n      tag_99\n      tag_15\n      jump\t// in\n    tag_99:\n        /* \"#utility.yul\":3870:3989   */\n    tag_98:\n        /* \"#utility.yul\":4056:4057   */\n      0x00\n        /* \"#utility.yul\":4045:4054   */\n      dup6\n        /* \"#utility.yul\":4041:4058   */\n      add\n        /* \"#utility.yul\":4028:4059   */\n      calldataload\n        /* \"#utility.yul\":4086:4104   */\n      0xffffffffffffffff\n        /* \"#utility.yul\":4078:4084   */\n      dup2\n        /* \"#utility.yul\":4075:4105   */\n      gt\n        /* \"#utility.yul\":4072:4189   */\n      iszero\n      tag_100\n      jumpi\n        /* \"#utility.yul\":4108:4187   */\n      tag_101\n      tag_16\n      jump\t// in\n    tag_101:\n        /* \"#utility.yul\":4072:4189   */\n    tag_100:\n        /* \"#utility.yul\":4213:4276   */\n      tag_102\n        /* \"#utility.yul\":4268:4275   */\n      dup8\n        /* \"#utility.yul\":4259:4265   */\n      dup3\n        /* \"#utility.yul\":4248:4257   */\n      dup9\n        /* \"#utility.yul\":4244:4266   */\n      add\n        /* \"#utility.yul\":4213:4276   */\n      tag_26\n      jump\t// in\n    tag_102:\n        /* \"#utility.yul\":4203:4276   */\n      swap5\n      pop\n        /* \"#utility.yul\":3999:4286   */\n      pop\n        /* \"#utility.yul\":4353:4355   */\n      0x20\n        /* \"#utility.yul\":4342:4351   */\n      dup6\n        /* \"#utility.yul\":4338:4356   */\n      add\n        /* \"#utility.yul\":4325:4357   */\n      calldataload\n        /* \"#utility.yul\":4384:4402   */\n      0xffffffffffffffff\n        /* \"#utility.yul\":4376:4382   */\n      dup2\n        /* \"#utility.yul\":4373:4403   */\n      gt\n        /* \"#utility.yul\":4370:4487   */\n      iszero\n      tag_103\n      jumpi\n        /* \"#utility.yul\":4406:4485   */\n      tag_104\n      tag_16\n      jump\t// in\n    tag_104:\n        /* \"#utility.yul\":4370:4487   */\n    tag_103:\n        /* \"#utility.yul\":4519:4584   */\n      tag_105\n        /* \"#utility.yul\":4576:4583   */\n      dup8\n        /* \"#utility.yul\":4567:4573   */\n      dup3\n        /* \"#utility.yul\":4556:4565   */\n      dup9\n        /* \"#utility.yul\":4552:4574   */\n      add\n        /* \"#utility.yul\":4519:4584   */\n      tag_29\n      jump\t// in\n    tag_105:\n        /* \"#utility.yul\":4501:4584   */\n      swap4\n      pop\n      swap4\n      pop\n        /* \"#utility.yul\":4296:4594   */\n      pop\n        /* \"#utility.yul\":4633:4635   */\n      0x40\n        /* \"#utility.yul\":4659:4712   */\n      tag_106\n        /* \"#utility.yul\":4704:4711   */\n      dup8\n        /* \"#utility.yul\":4695:4701   */\n      dup3\n        /* \"#utility.yul\":4684:4693   */\n      dup9\n        /* \"#utility.yul\":4680:4702   */\n      add\n        /* \"#utility.yul\":4659:4712   */\n      tag_32\n      jump\t// in\n    tag_106:\n        /* \"#utility.yul\":4649:4712   */\n      swap2\n      pop\n        /* \"#utility.yul\":4604:4722   */\n      pop\n        /* \"#utility.yul\":3730:4729   */\n      swap3\n      swap6\n      swap2\n      swap5\n      pop\n      swap3\n      pop\n      jump\t// out\n        /* \"#utility.yul\":4735:4915   */\n    tag_33:\n        /* \"#utility.yul\":4783:4860   */\n      0x4e487b7100000000000000000000000000000000000000000000000000000000\n        /* \"#utility.yul\":4780:4781   */\n      0x00\n        /* \"#utility.yul\":4773:4861   */\n      mstore\n        /* \"#utility.yul\":4880:4884   */\n      0x11\n        /* \"#utility.yul\":4877:4878   */\n      0x04\n        /* \"#utility.yul\":4870:4885   */\n      mstore\n        /* \"#utility.yul\":4904:4908   */\n      0x24\n        /* \"#utility.yul\":4901:4902   */\n      0x00\n        /* \"#utility.yul\":4894:4909   */\n      revert\n        /* \"#utility.yul\":4921:5112   */\n    tag_10:\n        /* \"#utility.yul\":4961:4964   */\n      0x00\n        /* \"#utility.yul\":4980:5000   */\n      tag_109\n        /* \"#utility.yul\":4998:4999   */\n      dup3\n        /* \"#utility.yul\":4980:5000   */\n      tag_30\n      jump\t// in\n    tag_109:\n        /* \"#utility.yul\":4975:5000   */\n      swap2\n      pop\n        /* \"#utility.yul\":5014:5034   */\n      tag_110\n        /* \"#utility.yul\":5032:5033   */\n      dup4\n        /* \"#utility.yul\":5014:5034   */\n      tag_30\n      jump\t// in\n    tag_110:\n        /* \"#utility.yul\":5009:5034   */\n      swap3\n      pop\n        /* \"#utility.yul\":5057:5058   */\n      dup3\n        /* \"#utility.yul\":5054:5055   */\n      dup3\n        /* \"#utility.yul\":5050:5059   */\n      add\n        /* \"#utility.yul\":5043:5059   */\n      swap1\n      pop\n        /* \"#utility.yul\":5078:5081   */\n      dup1\n        /* \"#utility.yul\":5075:5076   */\n      dup3\n        /* \"#utility.yul\":5072:5082   */\n      gt\n        /* \"#utility.yul\":5069:5105   */\n      iszero\n      tag_111\n      jumpi\n        /* \"#utility.yul\":5085:5103   */\n      tag_112\n      tag_33\n      jump\t// in\n    tag_112:\n        /* \"#utility.yul\":5069:5105   */\n    tag_111:\n        /* \"#utility.yul\":4921:5112   */\n      swap3\n      swap2\n      pop\n      pop\n      jump\t// out\n        /* \"#utility.yul\":5118:5217   */\n    tag_34:\n        /* \"#utility.yul\":5170:5176   */\n      0x00\n        /* \"#utility.yul\":5204:5209   */\n      dup2\n        /* \"#utility.yul\":5198:5210   */\n      mload\n        /* \"#utility.yul\":5188:5210   */\n      swap1\n      pop\n        /* \"#utility.yul\":5118:5217   */\n      swap2\n      swap1\n      pop\n      jump\t// out\n        /* \"#utility.yul\":5223:5403   */\n    tag_35:\n        /* \"#utility.yul\":5271:5348   */\n      0x4e487b7100000000000000000000000000000000000000000000000000000000\n        /* \"#utility.yul\":5268:5269   */\n      0x00\n        /* \"#utility.yul\":5261:5349   */\n      mstore\n        /* \"#utility.yul\":5368:5372   */\n      0x22\n        /* \"#utility.yul\":5365:5366   */\n      0x04\n        /* \"#utility.yul\":5358:5373   */\n      mstore\n        /* \"#utility.yul\":5392:5396   */\n      0x24\n        /* \"#utility.yul\":5389:5390   */\n      0x00\n        /* \"#utility.yul\":5382:5397   */\n      revert\n        /* \"#utility.yul\":5409:5729   */\n    tag_36:\n        /* \"#utility.yul\":5453:5459   */\n      0x00\n        /* \"#utility.yul\":5490:5491   */\n      0x02\n        /* \"#utility.yul\":5484:5488   */\n      dup3\n        /* \"#utility.yul\":5480:5492   */\n      div\n        /* \"#utility.yul\":5470:5492   */\n      swap1\n      pop\n        /* \"#utility.yul\":5537:5538   */\n      0x01\n        /* \"#utility.yul\":5531:5535   */\n      dup3\n        /* \"#utility.yul\":5527:5539   */\n      and\n        /* \"#utility.yul\":5558:5576   */\n      dup1\n        /* \"#utility.yul\":5548:5629   */\n      tag_116\n      jumpi\n        /* \"#utility.yul\":5614:5618   */\n      0x7f\n        /* \"#utility.yul\":5606:5612   */\n      dup3\n        /* \"#utility.yul\":5602:5619   */\n      and\n        /* \"#utility.yul\":5592:5619   */\n      swap2\n      pop\n        /* \"#utility.yul\":5548:5629   */\n    tag_116:\n        /* \"#utility.yul\":5676:5678   */\n      0x20\n        /* \"#utility.yul\":5668:5674   */\n      dup3\n        /* \"#utility.yul\":5665:5679   */\n      lt\n        /* \"#utility.yul\":5645:5663   */\n      dup2\n        /* \"#utility.yul\":5642:5680   */\n      sub\n        /* \"#utility.yul\":5639:5723   */\n      tag_117\n      jumpi\n        /* \"#utility.yul\":5695:5713   */\n      tag_118\n      tag_35\n      jump\t// in\n    tag_118:\n        /* \"#utility.yul\":5639:5723   */\n    tag_117:\n        /* \"#utility.yul\":5460:5729   */\n      pop\n        /* \"#utility.yul\":5409:5729   */\n      swap2\n      swap1\n      pop\n      jump\t// out\n        /* \"#utility.yul\":5735:5876   */\n    tag_37:\n        /* \"#utility.yul\":5784:5788   */\n      0x00\n        /* \"#utility.yul\":5807:5810   */\n      dup2\n        /* \"#utility.yul\":5799:5810   */\n      swap1\n      pop\n        /* \"#utility.yul\":5830:5833   */\n      dup2\n        /* \"#utility.yul\":5827:5828   */\n      0x00\n        /* \"#utility.yul\":5820:5834   */\n      mstore\n        /* \"#utility.yul\":5864:5868   */\n      0x20\n        /* \"#utility.yul\":5861:5862   */\n      0x00\n        /* \"#utility.yul\":5851:5869   */\n      keccak256\n        /* \"#utility.yul\":5843:5869   */\n      swap1\n      pop\n        /* \"#utility.yul\":5735:5876   */\n      swap2\n      swap1\n      pop\n      jump\t// out\n        /* \"#utility.yul\":5882:5975   */\n    tag_38:\n        /* \"#utility.yul\":5919:5925   */\n      0x00\n        /* \"#utility.yul\":5966:5968   */\n      0x20\n        /* \"#utility.yul\":5961:5963   */\n      0x1f\n        /* \"#utility.yul\":5954:5959   */\n      dup4\n        /* \"#utility.yul\":5950:5964   */\n      add\n        /* \"#utility.yul\":5946:5969   */\n      div\n        /* \"#utility.yul\":5936:5969   */\n      swap1\n      pop\n        /* \"#utility.yul\":5882:5975   */\n      swap2\n      swap1\n      pop\n      jump\t// out\n        /* \"#utility.yul\":5981:6088   */\n    tag_39:\n        /* \"#utility.yul\":6025:6033   */\n      0x00\n        /* \"#utility.yul\":6075:6080   */\n      dup3\n        /* \"#utility.yul\":6069:6073   */\n      dup3\n        /* \"#utility.yul\":6065:6081   */\n      shl\n        /* \"#utility.yul\":6044:6081   */\n      swap1\n      pop\n        /* \"#utility.yul\":5981:6088   */\n      swap3\n      swap2\n      pop\n      pop\n      jump\t// out\n        /* \"#utility.yul\":6094:6487   */\n    tag_40:\n        /* \"#utility.yul\":6163:6169   */\n      0x00\n        /* \"#utility.yul\":6213:6214   */\n      0x08\n        /* \"#utility.yul\":6201:6211   */\n      dup4\n        /* \"#utility.yul\":6197:6215   */\n      mul\n        /* \"#utility.yul\":6236:6333   */\n      tag_123\n        /* \"#utility.yul\":6266:6332   */\n      0xffffffffffffffffffffffffffffffffffffffffffffffffffffffffffffffff\n        /* \"#utility.yul\":6255:6264   */\n      dup3\n        /* \"#utility.yul\":6236:6333   */\n      tag_39\n      jump\t// in\n    tag_123:\n        /* \"#utility.yul\":6354:6393   */\n      tag_124\n        /* \"#utility.yul\":6384:6392   */\n      dup7\n        /* \"#utility.yul\":6373:6382   */\n      dup4\n        /* \"#utility.yul\":6354:6393   */\n      tag_39\n      jump\t// in\n    tag_124:\n        /* \"#utility.yul\":6342:6393   */\n      swap6\n      pop\n        /* \"#utility.yul\":6426:6430   */\n      dup1\n        /* \"#utility.yul\":6422:6431   */\n      not\n        /* \"#utility.yul\":6415:6420   */\n      dup5\n        /* \"#utility.yul\":6411:6432   */\n      and\n        /* \"#utility.yul\":6402:6432   */\n      swap4\n      pop\n        /* \"#utility.yul\":6475:6479   */\n      dup1\n        /* \"#utility.yul\":6465:6473   */\n      dup7\n        /* \"#utility.yul\":6461:6480   */\n      and\n        /* \"#utility.yul\":6454:6459   */\n      dup5\n        /* \"#utility.yul\":6451:6481   */\n      or\n        /* \"#utility.yul\":6441:6481   */\n      swap3\n      pop\n        /* \"#utility.yul\":6170:6487   */\n      pop\n      pop\n        /* \"#utility.yul\":6094:6487   */\n      swap4\n      swap3\n      pop\n      pop\n      pop\n      jump\t// out\n        /* \"#utility.yul\":6493:6553   */\n    tag_41:\n        /* \"#utility.yul\":6521:6524   */\n      0x00\n        /* \"#utility.yul\":6542:6547   */\n      dup2\n        /* \"#utility.yul\":6535:6547   */\n      swap1\n      pop\n        /* \"#utility.yul\":6493:6553   */\n      swap2\n      swap1\n      pop\n      jump\t// out\n        /* \"#utility.yul\":6559:6701   */\n    tag_42:\n        /* \"#utility.yul\":6609:6618   */\n      0x00\n        /* \"#utility.yul\":6642:6695   */\n      tag_127\n        /* \"#utility.yul\":6660:6694   */\n      tag_128\n        /* \"#utility.yul\":6669:6693   */\n      tag_129\n        /* \"#utility.yul\":6687:6692   */\n      dup5\n        /* \"#utility.yul\":6669:6693   */\n      tag_30\n      jump\t// in\n    tag_129:\n        /* \"#utility.yul\":6660:6694   */\n      tag_41\n      jump\t// in\n    tag_128:\n        /* \"#utility.yul\":6642:6695   */\n      tag_30\n      jump\t// in\n    tag_127:\n        /* \"#utility.yul\":6629:6695   */\n      swap1\n      pop\n        /* \"#utility.yul\":6559:6701   */\n      swap2\n      swap1\n      pop\n      jump\t// out\n        /* \"#utility.yul\":6707:6782   */\n    tag_43:\n        /* \"#utility.yul\":6750:6753   */\n      0x00\n        /* \"#utility.yul\":6771:6776   */\n      dup2\n        /* \"#utility.yul\":6764:6776   */\n      swap1\n      pop\n        /* \"#utility.yul\":6707:6782   */\n      swap2\n      swap1\n      pop\n      jump\t// out\n        /* \"#utility.yul\":6788:7057   */\n    tag_44:\n        /* \"#utility.yul\":6898:6937   */\n      tag_132\n        /* \"#utility.yul\":6929:6936   */\n      dup4\n        /* \"#utility.yul\":6898:6937   */\n      tag_42\n      jump\t// in\n    tag_132:\n        /* \"#utility.yul\":6959:7050   */\n      tag_133\n        /* \"#utility.yul\":7008:7049   */\n      tag_134\n        /* \"#utility.yul\":7032:7048   */\n      dup3\n        /* \"#utility.yul\":7008:7049   */\n      tag_43\n      jump\t// in\n    tag_134:\n        /* \"#utility.yul\":7000:7006   */\n      dup5\n        /* \"#utility.yul\":6993:6997   */\n      dup5\n        /* \"#utility.yul\":6987:6998   */\n      sload\n        /* \"#utility.yul\":6959:7050   */\n      tag_40\n      jump\t// in\n    tag_133:\n        /* \"#utility.yul\":6953:6957   */\n      dup3\n        /* \"#utility.yul\":6946:7051   */\n      sstore\n        /* \"#utility.yul\":6864:7057   */\n      pop\n        /* \"#utility.yul\":6788:7057   */\n      pop\n      pop\n      pop\n      jump\t// out\n        /* \"#utility.yul\":7063:7136   */\n    tag_45:\n        /* \"#utility.yul\":7108:7111   */\n      0x00\n        /* \"#utility.yul\":7063:7136   */\n      swap1\n      jump\t// out\n        /* \"#utility.yul\":7142:7331   */\n    tag_46:\n        /* \"#utility.yul\":7219:7251   */\n      tag_137\n      tag_45\n      jump\t// in\n    tag_137:\n        /* \"#utility.yul\":7260:7325   */\n      tag_138\n        /* \"#utility.yul\":7318:7324   */\n      dup2\n        /* \"#utility.yul\":7310:7316   */\n      dup5\n        /* \"#utility.yul\":7304:7308   */\n      dup5\n        /* \"#utility.yul\":7260:7325   */\n      tag_44\n      jump\t// in\n    tag_138:\n        /* \"#utility.yul\":7195:7331   */\n      pop\n        /* \"#utility.yul\":7142:7331   */\n      pop\n      pop\n      jump\t// out\n        /* \"#utility.yul\":7337:7523   */\n    tag_47:\n        /* \"#utility.yul\":7397:7517   */\n    tag_140:\n        /* \"#utility.yul\":7414:7417   */\n      dup2\n        /* \"#utility.yul\":7407:7412   */\n      dup2\n        /* \"#utility.yul\":7404:7418   */\n      lt\n        /* \"#utility.yul\":7397:7517   */\n      iszero\n      tag_142\n      jumpi\n        /* \"#utility.yul\":7468:7507   */\n      tag_143\n        /* \"#utility.yul\":7505:7506   */\n      0x00\n        /* \"#utility.yul\":7498:7503   */\n      dup3\n        /* \"#utility.yul\":7468:7507   */\n      tag_46\n      jump\t// in\n    tag_143:\n        /* \"#utility.yul\":7441:7442   */\n      0x01\n        /* \"#utility.yul\":7434:7439   */\n      dup2\n        /* \"#utility.yul\":7430:7443   */\n      add\n        /* \"#utility.yul\":7421:7443   */\n      swap1\n      pop\n        /* \"#utility.yul\":7397:7517   */\n      jump(tag_140)\n    tag_142:\n        /* \"#utility.yul\":7337:7523   */\n      pop\n      pop\n      jump\t// out\n        /* \"#utility.yul\":7529:8072   */\n    tag_48:\n        /* \"#utility.yul\":7630:7632   */\n      0x1f\n        /* \"#utility.yul\":7625:7628   */\n      dup3\n        /* \"#utility.yul\":7622:7633   */\n      gt\n        /* \"#utility.yul\":7619:8065   */\n      iszero\n      tag_145\n      jumpi\n        /* \"#utility.yul\":7664:7702   */\n      tag_146\n        /* \"#utility.yul\":7696:7701   */\n      dup2\n        /* \"#utility.yul\":7664:7702   */\n      tag_37\n      jump\t// in\n    tag_146:\n        /* \"#utility.yul\":7748:7777   */\n      tag_147\n        /* \"#utility.yul\":7766:7776   */\n      dup5\n        /* \"#utility.yul\":7748:7777   */\n      tag_38\n      jump\t// in\n    tag_147:\n        /* \"#utility.yul\":7738:7746   */\n      dup2\n        /* \"#utility.yul\":7734:7778   */\n      add\n        /* \"#utility.yul\":7931:7933   */\n      0x20\n        /* \"#utility.yul\":7919:7929   */\n      dup6\n        /* \"#utility.yul\":7916:7934   */\n      lt\n        /* \"#utility.yul\":7913:7962   */\n      iszero\n      tag_148\n      jumpi\n        /* \"#utility.yul\":7952:7960   */\n      dup2\n        /* \"#utility.yul\":7937:7960   */\n      swap1\n      pop\n        /* \"#utility.yul\":7913:7962   */\n    tag_148:\n        /* \"#utility.yul\":7975:8055   */\n      tag_149\n        /* \"#utility.yul\":8031:8053   */\n      tag_150\n        /* \"#utility.yul\":8049:8052   */\n      dup6\n        /* \"#utility.yul\":8031:8053   */\n      tag_38\n      jump\t// in\n    tag_150:\n        /* \"#utility.yul\":8021:8029   */\n      dup4\n        /* \"#utility.yul\":8017:8054   */\n      add\n        /* \"#utility.yul\":8004:8015   */\n      dup3\n        /* \"#utility.yul\":7975:8055   */\n      tag_47\n      jump\t// in\n    tag_149:\n        /* \"#utility.yul\":7634:8065   */\n      pop\n      pop\n        /* \"#utility.yul\":7619:8065   */\n    tag_145:\n        /* \"#utility.yul\":7529:8072   */\n      pop\n      pop\n      pop\n      jump\t// out\n        /* \"#utility.yul\":8078:8195   */\n    tag_49:\n        /* \"#utility.yul\":8132:8140   */\n      0x00\n        /* \"#utility.yul\":8182:8187   */\n      dup3\n        /* \"#utility.yul\":8176:8180   */\n      dup3\n        /* \"#utility.yul\":8172:8188   */\n      shr\n        /* \"#utility.yul\":8151:8188   */\n      swap1\n      pop\n        /* \"#utility.yul\":8078:8195   */\n      swap3\n      swap2\n      pop\n      pop\n      jump\t// out\n        /* \"#utility.yul\":8201:8370   */\n    tag_50:\n        /* \"#utility.yul\":8245:8251   */\n      0x00\n        /* \"#utility.yul\":8278:8329   */\n      tag_153\n        /* \"#utility.yul\":8326:8327   */\n      0x00\n        /* \"#utility.yul\":8322:8328   */\n      not\n        /* \"#utility.yul\":8314:8319   */\n      dup5\n        /* \"#utility.yul\":8311:8312   */\n      0x08\n        /* \"#utility.yul\":8307:8320   */\n      mul\n        /* \"#utility.yul\":8278:8329   */\n      tag_49\n      jump\t// in\n    tag_153:\n        /* \"#utility.yul\":8274:8330   */\n      not\n        /* \"#utility.yul\":8359:8363   */\n      dup1\n        /* \"#utility.yul\":8353:8357   */\n      dup4\n        /* \"#utility.yul\":8349:8364   */\n      and\n        /* \"#utility.yul\":8339:8364   */\n      swap2\n      pop\n        /* \"#utility.yul\":8252:8370   */\n      pop\n        /* \"#utility.yul\":8201:8370   */\n      swap3\n      swap2\n      pop\n      pop\n      jump\t// out\n        /* \"#utility.yul\":8375:8670   */\n    tag_51:\n        /* \"#utility.yul\":8451:8455   */\n      0x00\n        /* \"#utility.yul\":8597:8626   */\n      tag_155\n        /* \"#utility.yul\":8622:8625   */\n      dup4\n        /* \"#utility.yul\":8616:8620   */\n      dup4\n        /* \"#utility.yul\":8597:8626   */\n      tag_50\n      jump\t// in\n    tag_155:\n        /* \"#utility.yul\":8589:8626   */\n      swap2\n      pop\n        /* \"#utility.yul\":8659:8662   */\n      dup3\n        /* \"#utility.yul\":8656:8657   */\n      0x02\n        /* \"#utility.yul\":8652:8663   */\n      mul\n        /* \"#utility.yul\":8646:8650   */\n      dup3\n        /* \"#utility.yul\":8643:8664   */\n      or\n        /* \"#utility.yul\":8635:8664   */\n      swap1\n      pop\n        /* \"#utility.yul\":8375:8670   */\n      swap3\n      swap2\n      pop\n      pop\n      jump\t// out\n        /* \"#utility.yul\":8675:10070   */\n    tag_12:\n        /* \"#utility.yul\":8792:8829   */\n      tag_157\n        /* \"#utility.yul\":8825:8828   */\n      dup3\n        /* \"#utility.yul\":8792:8829   */\n      tag_34\n      jump\t// in\n    tag_157:\n        /* \"#utility.yul\":8894:8912   */\n      0xffffffffffffffff\n        /* \"#utility.yul\":8886:8892   */\n      dup2\n        /* \"#utility.yul\":8883:8913   */\n      gt\n        /* \"#utility.yul\":8880:8936   */\n      iszero\n      tag_158\n      jumpi\n        /* \"#utility.yul\":8916:8934   */\n      tag_159\n      tag_20\n      jump\t// in\n    tag_159:\n        /* \"#utility.yul\":8880:8936   */\n    tag_158:\n        /* \"#utility.yul\":8960:8998   */\n      tag_160\n        /* \"#utility.yul\":8992:8996   */\n      dup3\n        /* \"#utility.yul\":8986:8997   */\n      sload\n        /* \"#utility.yul\":8960:8998   */\n      tag_36\n      jump\t// in\n    tag_160:\n        /* \"#utility.yul\":9045:9112   */\n      tag_161\n        /* \"#utility.yul\":9105:9111   */\n      dup3\n        /* \"#utility.yul\":9097:9103   */\n      dup3\n        /* \"#utility.yul\":9091:9095   */\n      dup6\n        /* \"#utility.yul\":9045:9112   */\n      tag_48\n      jump\t// in\n    tag_161:\n        /* \"#utility.yul\":9139:9140   */\n      0x00\n        /* \"#utility.yul\":9163:9167   */\n      0x20\n        /* \"#utility.yul\":9150:9167   */\n      swap1\n      pop\n        /* \"#utility.yul\":9195:9197   */\n      0x1f\n        /* \"#utility.yul\":9187:9193   */\n      dup4\n        /* \"#utility.yul\":9184:9198   */\n      gt\n        /* \"#utility.yul\":9212:9213   */\n      0x01\n        /* \"#utility.yul\":9207:9825   */\n      dup2\n      eq\n      tag_163\n      jumpi\n        /* \"#utility.yul\":9869:9870   */\n      0x00\n        /* \"#utility.yul\":9886:9892   */\n      dup5\n        /* \"#utility.yul\":9883:9960   */\n      iszero\n      tag_164\n      jumpi\n        /* \"#utility.yul\":9935:9944   */\n      dup3\n        /* \"#utility.yul\":9930:9933   */\n      dup8\n        /* \"#utility.yul\":9926:9945   */\n      add\n        /* \"#utility.yul\":9920:9946   */\n      mload\n        /* \"#utility.yul\":9911:9946   */\n      swap1\n      pop\n        /* \"#utility.yul\":9883:9960   */\n    tag_164:\n        /* \"#utility.yul\":9986:10053   */\n      tag_165\n        /* \"#utility.yul\":10046:10052   */\n      dup6\n        /* \"#utility.yul\":10039:10044   */\n      dup3\n        /* \"#utility.yul\":9986:10053   */\n      tag_51\n      jump\t// in\n    tag_165:\n        /* \"#utility.yul\":9980:9984   */\n      dup7\n        /* \"#utility.yul\":9973:10054   */\n      sstore\n        /* \"#utility.yul\":9842:10064   */\n      pop\n        /* \"#utility.yul\":9177:10064   */\n      jump(tag_162)\n        /* \"#utility.yul\":9207:9825   */\n    tag_163:\n        /* \"#utility.yul\":9259:9263   */\n      0x1f\n        /* \"#utility.yul\":9255:9264   */\n      not\n        /* \"#utility.yul\":9247:9253   */\n      dup5\n        /* \"#utility.yul\":9243:9265   */\n      and\n        /* \"#utility.yul\":9293:9330   */\n      tag_166\n        /* \"#utility.yul\":9325:9329   */\n      dup7\n        /* \"#utility.yul\":9293:9330   */\n      tag_37\n      jump\t// in\n    tag_166:\n        /* \"#utility.yul\":9352:9353   */\n      0x00\n        /* \"#utility.yul\":9366:9574   */\n    tag_167:\n        /* \"#utility.yul\":9380:9387   */\n      dup3\n        /* \"#utility.yul\":9377:9378   */\n      dup2\n        /* \"#utility.yul\":9374:9388   */\n      lt\n        /* \"#utility.yul\":9366:9574   */\n      iszero\n      tag_169\n      jumpi\n        /* \"#utility.yul\":9459:9468   */\n      dup5\n        /* \"#utility.yul\":9454:9457   */\n      dup10\n        /* \"#utility.yul\":9450:9469   */\n      add\n        /* \"#utility.yul\":9444:9470   */\n      mload\n        /* \"#utility.yul\":9436:9442   */\n      dup3\n        /* \"#utility.yul\":9429:9471   */\n      sstore\n        /* \"#utility.yul\":9510:9511   */\n      0x01\n        /* \"#utility.yul\":9502:9508   */\n      dup3\n        /* \"#utility.yul\":9498:9512   */\n      add\n        /* \"#utility.yul\":9488:9512   */\n      swap2\n      pop\n        /* \"#utility.yul\":9557:9559   */\n      0x20\n        /* \"#utility.yul\":9546:9555   */\n      dup6\n        /* \"#utility.yul\":9542:9560   */\n      add\n        /* \"#utility.yul\":9529:9560   */\n      swap5\n      pop\n        /* \"#utility.yul\":9403:9407   */\n      0x20\n        /* \"#utility.yul\":9400:9401   */\n      dup2\n        /* \"#utility.yul\":9396:9408   */\n      add\n        /* \"#utility.yul\":9391:9408   */\n      swap1\n      pop\n        /* \"#utility.yul\":9366:9574   */\n      jump(tag_167)\n    tag_169:\n        /* \"#utility.yul\":9602:9608   */\n      dup7\n        /* \"#utility.yul\":9593:9600   */\n      dup4\n        /* \"#utility.yul\":9590:9609   */\n      lt\n        /* \"#utility.yul\":9587:9766   */\n      iszero\n      tag_170\n      jumpi\n        /* \"#utility.yul\":9660:9669   */\n      dup5\n        /* \"#utility.yul\":9655:9658   */\n      dup10\n        /* \"#utility.yul\":9651:9670   */\n      add\n        /* \"#utility.yul\":9645:9671   */\n      mload\n        /* \"#utility.yul\":9703:9751   */\n      tag_171\n        /* \"#utility.yul\":9745:9749   */\n      0x1f\n        /* \"#utility.yul\":9737:9743   */\n      dup10\n        /* \"#utility.yul\":9733:9750   */\n      and\n        /* \"#utility.yul\":9722:9731   */\n      dup3\n        /* \"#utility.yul\":9703:9751   */\n      tag_50\n      jump\t// in\n    tag_171:\n        /* \"#utility.yul\":9695:9701   */\n      dup4\n        /* \"#utility.yul\":9688:9752   */\n      sstore\n        /* \"#utility.yul\":9610:9766   */\n      pop\n        /* \"#utility.yul\":9587:9766   */\n    tag_170:\n        /* \"#utility.yul\":9812:9813   */\n      0x01\n        /* \"#utility.yul\":9808:9809   */\n      0x02\n        /* \"#utility.yul\":9800:9806   */\n      dup9\n        /* \"#utility.yul\":9796:9810   */\n      mul\n        /* \"#utility.yul\":9792:9814   */\n      add\n        /* \"#utility.yul\":9786:9790   */\n      dup9\n        /* \"#utility.yul\":9779:9815   */\n      sstore\n        /* \"#utility.yul\":9214:9825   */\n      pop\n      pop\n      pop\n        /* \"#utility.yul\":9177:10064   */\n    tag_162:\n      pop\n        /* \"#utility.yul\":8767:10070   */\n      pop\n      pop\n      pop\n        /* \"#utility.yul\":8675:10070   */\n      pop\n      pop\n      jump\t// out\n\n    auxdata: 0xa26469706673582212202d701702c36a1c8d2859b59612ad51b1ce99f365e22a4309ea1dddcd6d6ec19164736f6c634300081a0033\n}\n",
				"bytecode": {
					"linkReferences": {},
					"object": "6080604052348015600e575f80fd5b506107638061001c5f395ff3fe608060405234801561000f575f80fd5b5060043610610029575f3560e01c80633ca6d1001461002d575b5f80fd5b6100476004803603810190610042919061036d565b610049565b005b6001805f82825461005a9190610427565b9250508190555060405180610100016040528085815260200184848080601f0160208091040260200160405190810160405280939291908181526020018383808284375f81840152601f19601f8201169050808301925050505050505081526020015f81526020015f81526020015f81526020018281526020015f151581526020016001151581525060025f60015481526020019081526020015f205f820151815f019081610109919061065e565b50602082015181600101908161011f919061065e565b5060408201518160020155606082015181600301556080820151816004015560a0820151816005015560c0820151816006015f6101000a81548160ff02191690831515021790555060e08201518160060160016101000a81548160ff02191690831515021790555090505050505050565b5f604051905090565b5f80fd5b5f80fd5b5f80fd5b5f80fd5b5f601f19601f8301169050919050565b7f4e487b71000000000000000000000000000000000000000000000000000000005f52604160045260245ffd5b6101ef826101a9565b810181811067ffffffffffffffff8211171561020e5761020d6101b9565b5b80604052505050565b5f610220610190565b905061022c82826101e6565b919050565b5f67ffffffffffffffff82111561024b5761024a6101b9565b5b610254826101a9565b9050602081019050919050565b828183375f83830152505050565b5f61028161027c84610231565b610217565b90508281526020810184848401111561029d5761029c6101a5565b5b6102a8848285610261565b509392505050565b5f82601f8301126102c4576102c36101a1565b5b81356102d484826020860161026f565b91505092915050565b5f80fd5b5f80fd5b5f8083601f8401126102fa576102f96101a1565b5b8235905067ffffffffffffffff811115610317576103166102dd565b5b602083019150836001820283011115610333576103326102e1565b5b9250929050565b5f819050919050565b61034c8161033a565b8114610356575f80fd5b50565b5f8135905061036781610343565b92915050565b5f805f806060858703121561038557610384610199565b5b5f85013567ffffffffffffffff8111156103a2576103a161019d565b5b6103ae878288016102b0565b945050602085013567ffffffffffffffff8111156103cf576103ce61019d565b5b6103db878288016102e5565b935093505060406103ee87828801610359565b91505092959194509250565b7f4e487b71000000000000000000000000000000000000000000000000000000005f52601160045260245ffd5b5f6104318261033a565b915061043c8361033a565b9250828201905080821115610454576104536103fa565b5b92915050565b5f81519050919050565b7f4e487b71000000000000000000000000000000000000000000000000000000005f52602260045260245ffd5b5f60028204905060018216806104a857607f821691505b6020821081036104bb576104ba610464565b5b50919050565b5f819050815f5260205f209050919050565b5f6020601f8301049050919050565b5f82821b905092915050565b5f6008830261051d7fffffffffffffffffffffffffffffffffffffffffffffffffffffffffffffffff826104e2565b61052786836104e2565b95508019841693508086168417925050509392505050565b5f819050919050565b5f61056261055d6105588461033a565b61053f565b61033a565b9050919050565b5f819050919050565b61057b83610548565b61058f61058782610569565b8484546104ee565b825550505050565b5f90565b6105a3610597565b6105ae818484610572565b505050565b5b818110156105d1576105c65f8261059b565b6001810190506105b4565b5050565b601f821115610616576105e7816104c1565b6105f0846104d3565b810160208510156105ff578190505b61061361060b856104d3565b8301826105b3565b50505b505050565b5f82821c905092915050565b5f6106365f198460080261061b565b1980831691505092915050565b5f61064e8383610627565b9150826002028217905092915050565b6106678261045a565b67ffffffffffffffff8111156106805761067f6101b9565b5b61068a8254610491565b6106958282856105d5565b5f60209050601f8311600181146106c6575f84156106b4578287015190505b6106be8582610643565b865550610725565b601f1984166106d4866104c1565b5f5b828110156106fb578489015182556001820191506020850194506020810190506106d6565b868310156107185784890151610714601f891682610627565b8355505b6001600288020188555050505b50505050505056fea26469706673582212202d701702c36a1c8d2859b59612ad51b1ce99f365e22a4309ea1dddcd6d6ec19164736f6c634300081a0033",
					"opcodes": "PUSH1 0x80 PUSH1 0x40 MSTORE CALLVALUE DUP1 ISZERO PUSH1 0xE JUMPI PUSH0 DUP1 REVERT JUMPDEST POP PUSH2 0x763 DUP1 PUSH2 0x1C PUSH0 CODECOPY PUSH0 RETURN INVALID PUSH1 0x80 PUSH1 0x40 MSTORE CALLVALUE DUP1 ISZERO PUSH2 0xF JUMPI PUSH0 DUP1 REVERT JUMPDEST POP PUSH1 0x4 CALLDATASIZE LT PUSH2 0x29 JUMPI PUSH0 CALLDATALOAD PUSH1 0xE0 SHR DUP1 PUSH4 0x3CA6D100 EQ PUSH2 0x2D JUMPI JUMPDEST PUSH0 DUP1 REVERT JUMPDEST PUSH2 0x47 PUSH1 0x4 DUP1 CALLDATASIZE SUB DUP2 ADD SWAP1 PUSH2 0x42 SWAP2 SWAP1 PUSH2 0x36D JUMP JUMPDEST PUSH2 0x49 JUMP JUMPDEST STOP JUMPDEST PUSH1 0x1 DUP1 PUSH0 DUP3 DUP3 SLOAD PUSH2 0x5A SWAP2 SWAP1 PUSH2 0x427 JUMP JUMPDEST SWAP3 POP POP DUP2 SWAP1 SSTORE POP PUSH1 0x40 MLOAD DUP1 PUSH2 0x100 ADD PUSH1 0x40 MSTORE DUP1 DUP6 DUP2 MSTORE PUSH1 0x20 ADD DUP5 DUP5 DUP1 DUP1 PUSH1 0x1F ADD PUSH1 0x20 DUP1 SWAP2 DIV MUL PUSH1 0x20 ADD PUSH1 0x40 MLOAD SWAP1 DUP2 ADD PUSH1 0x40 MSTORE DUP1 SWAP4 SWAP3 SWAP2 SWAP1 DUP2 DUP2 MSTORE PUSH1 0x20 ADD DUP4 DUP4 DUP1 DUP3 DUP5 CALLDATACOPY PUSH0 DUP2 DUP5 ADD MSTORE PUSH1 0x1F NOT PUSH1 0x1F DUP3 ADD AND SWAP1 POP DUP1 DUP4 ADD SWAP3 POP POP POP POP POP POP POP DUP2 MSTORE PUSH1 0x20 ADD PUSH0 DUP2 MSTORE PUSH1 0x20 ADD PUSH0 DUP2 MSTORE PUSH1 0x20 ADD PUSH0 DUP2 MSTORE PUSH1 0x20 ADD DUP3 DUP2 MSTORE PUSH1 0x20 ADD PUSH0 ISZERO ISZERO DUP2 MSTORE PUSH1 0x20 ADD PUSH1 0x1 ISZERO ISZERO DUP2 MSTORE POP PUSH1 0x2 PUSH0 PUSH1 0x1 SLOAD DUP2 MSTORE PUSH1 0x20 ADD SWAP1 DUP2 MSTORE PUSH1 0x20 ADD PUSH0 KECCAK256 PUSH0 DUP3 ADD MLOAD DUP2 PUSH0 ADD SWAP1 DUP2 PUSH2 0x109 SWAP2 SWAP1 PUSH2 0x65E JUMP JUMPDEST POP PUSH1 0x20 DUP3 ADD MLOAD DUP2 PUSH1 0x1 ADD SWAP1 DUP2 PUSH2 0x11F SWAP2 SWAP1 PUSH2 0x65E JUMP JUMPDEST POP PUSH1 0x40 DUP3 ADD MLOAD DUP2 PUSH1 0x2 ADD SSTORE PUSH1 0x60 DUP3 ADD MLOAD DUP2 PUSH1 0x3 ADD SSTORE PUSH1 0x80 DUP3 ADD MLOAD DUP2 PUSH1 0x4 ADD SSTORE PUSH1 0xA0 DUP3 ADD MLOAD DUP2 PUSH1 0x5 ADD SSTORE PUSH1 0xC0 DUP3 ADD MLOAD DUP2 PUSH1 0x6 ADD PUSH0 PUSH2 0x100 EXP DUP2 SLOAD DUP2 PUSH1 0xFF MUL NOT AND SWAP1 DUP4 ISZERO ISZERO MUL OR SWAP1 SSTORE POP PUSH1 0xE0 DUP3 ADD MLOAD DUP2 PUSH1 0x6 ADD PUSH1 0x1 PUSH2 0x100 EXP DUP2 SLOAD DUP2 PUSH1 0xFF MUL NOT AND SWAP1 DUP4 ISZERO ISZERO MUL OR SWAP1 SSTORE POP SWAP1 POP POP POP POP POP POP JUMP JUMPDEST PUSH0 PUSH1 0x40 MLOAD SWAP1 POP SWAP1 JUMP JUMPDEST PUSH0 DUP1 REVERT JUMPDEST PUSH0 DUP1 REVERT JUMPDEST PUSH0 DUP1 REVERT JUMPDEST PUSH0 DUP1 REVERT JUMPDEST PUSH0 PUSH1 0x1F NOT PUSH1 0x1F DUP4 ADD AND SWAP1 POP SWAP2 SWAP1 POP JUMP JUMPDEST PUSH32 0x4E487B7100000000000000000000000000000000000000000000000000000000 PUSH0 MSTORE PUSH1 0x41 PUSH1 0x4 MSTORE PUSH1 0x24 PUSH0 REVERT JUMPDEST PUSH2 0x1EF DUP3 PUSH2 0x1A9 JUMP JUMPDEST DUP2 ADD DUP2 DUP2 LT PUSH8 0xFFFFFFFFFFFFFFFF DUP3 GT OR ISZERO PUSH2 0x20E JUMPI PUSH2 0x20D PUSH2 0x1B9 JUMP JUMPDEST JUMPDEST DUP1 PUSH1 0x40 MSTORE POP POP POP JUMP JUMPDEST PUSH0 PUSH2 0x220 PUSH2 0x190 JUMP JUMPDEST SWAP1 POP PUSH2 0x22C DUP3 DUP3 PUSH2 0x1E6 JUMP JUMPDEST SWAP2 SWAP1 POP JUMP JUMPDEST PUSH0 PUSH8 0xFFFFFFFFFFFFFFFF DUP3 GT ISZERO PUSH2 0x24B JUMPI PUSH2 0x24A PUSH2 0x1B9 JUMP JUMPDEST JUMPDEST PUSH2 0x254 DUP3 PUSH2 0x1A9 JUMP JUMPDEST SWAP1 POP PUSH1 0x20 DUP2 ADD SWAP1 POP SWAP2 SWAP1 POP JUMP JUMPDEST DUP3 DUP2 DUP4 CALLDATACOPY PUSH0 DUP4 DUP4 ADD MSTORE POP POP POP JUMP JUMPDEST PUSH0 PUSH2 0x281 PUSH2 0x27C DUP5 PUSH2 0x231 JUMP JUMPDEST PUSH2 0x217 JUMP JUMPDEST SWAP1 POP DUP3 DUP2 MSTORE PUSH1 0x20 DUP2 ADD DUP5 DUP5 DUP5 ADD GT ISZERO PUSH2 0x29D JUMPI PUSH2 0x29C PUSH2 0x1A5 JUMP JUMPDEST JUMPDEST PUSH2 0x2A8 DUP5 DUP3 DUP6 PUSH2 0x261 JUMP JUMPDEST POP SWAP4 SWAP3 POP POP POP JUMP JUMPDEST PUSH0 DUP3 PUSH1 0x1F DUP4 ADD SLT PUSH2 0x2C4 JUMPI PUSH2 0x2C3 PUSH2 0x1A1 JUMP JUMPDEST JUMPDEST DUP2 CALLDATALOAD PUSH2 0x2D4 DUP5 DUP3 PUSH1 0x20 DUP7 ADD PUSH2 0x26F JUMP JUMPDEST SWAP2 POP POP SWAP3 SWAP2 POP POP JUMP JUMPDEST PUSH0 DUP1 REVERT JUMPDEST PUSH0 DUP1 REVERT JUMPDEST PUSH0 DUP1 DUP4 PUSH1 0x1F DUP5 ADD SLT PUSH2 0x2FA JUMPI PUSH2 0x2F9 PUSH2 0x1A1 JUMP JUMPDEST JUMPDEST DUP3 CALLDATALOAD SWAP1 POP PUSH8 0xFFFFFFFFFFFFFFFF DUP2 GT ISZERO PUSH2 0x317 JUMPI PUSH2 0x316 PUSH2 0x2DD JUMP JUMPDEST JUMPDEST PUSH1 0x20 DUP4 ADD SWAP2 POP DUP4 PUSH1 0x1 DUP3 MUL DUP4 ADD GT ISZERO PUSH2 0x333 JUMPI PUSH2 0x332 PUSH2 0x2E1 JUMP JUMPDEST JUMPDEST SWAP3 POP SWAP3 SWAP1 POP JUMP JUMPDEST PUSH0 DUP2 SWAP1 POP SWAP2 SWAP1 POP JUMP JUMPDEST PUSH2 0x34C DUP2 PUSH2 0x33A JUMP JUMPDEST DUP2 EQ PUSH2 0x356 JUMPI PUSH0 DUP1 REVERT JUMPDEST POP JUMP JUMPDEST PUSH0 DUP2 CALLDATALOAD SWAP1 POP PUSH2 0x367 DUP2 PUSH2 0x343 JUMP JUMPDEST SWAP3 SWAP2 POP POP JUMP JUMPDEST PUSH0 DUP1 PUSH0 DUP1 PUSH1 0x60 DUP6 DUP8 SUB SLT ISZERO PUSH2 0x385 JUMPI PUSH2 0x384 PUSH2 0x199 JUMP JUMPDEST JUMPDEST PUSH0 DUP6 ADD CALLDATALOAD PUSH8 0xFFFFFFFFFFFFFFFF DUP2 GT ISZERO PUSH2 0x3A2 JUMPI PUSH2 0x3A1 PUSH2 0x19D JUMP JUMPDEST JUMPDEST PUSH2 0x3AE DUP8 DUP3 DUP9 ADD PUSH2 0x2B0 JUMP JUMPDEST SWAP5 POP POP PUSH1 0x20 DUP6 ADD CALLDATALOAD PUSH8 0xFFFFFFFFFFFFFFFF DUP2 GT ISZERO PUSH2 0x3CF JUMPI PUSH2 0x3CE PUSH2 0x19D JUMP JUMPDEST JUMPDEST PUSH2 0x3DB DUP8 DUP3 DUP9 ADD PUSH2 0x2E5 JUMP JUMPDEST SWAP4 POP SWAP4 POP POP PUSH1 0x40 PUSH2 0x3EE DUP8 DUP3 DUP9 ADD PUSH2 0x359 JUMP JUMPDEST SWAP2 POP POP SWAP3 SWAP6 SWAP2 SWAP5 POP SWAP3 POP JUMP JUMPDEST PUSH32 0x4E487B7100000000000000000000000000000000000000000000000000000000 PUSH0 MSTORE PUSH1 0x11 PUSH1 0x4 MSTORE PUSH1 0x24 PUSH0 REVERT JUMPDEST PUSH0 PUSH2 0x431 DUP3 PUSH2 0x33A JUMP JUMPDEST SWAP2 POP PUSH2 0x43C DUP4 PUSH2 0x33A JUMP JUMPDEST SWAP3 POP DUP3 DUP3 ADD SWAP1 POP DUP1 DUP3 GT ISZERO PUSH2 0x454 JUMPI PUSH2 0x453 PUSH2 0x3FA JUMP JUMPDEST JUMPDEST SWAP3 SWAP2 POP POP JUMP JUMPDEST PUSH0 DUP2 MLOAD SWAP1 POP SWAP2 SWAP1 POP JUMP JUMPDEST PUSH32 0x4E487B7100000000000000000000000000000000000000000000000000000000 PUSH0 MSTORE PUSH1 0x22 PUSH1 0x4 MSTORE PUSH1 0x24 PUSH0 REVERT JUMPDEST PUSH0 PUSH1 0x2 DUP3 DIV SWAP1 POP PUSH1 0x1 DUP3 AND DUP1 PUSH2 0x4A8 JUMPI PUSH1 0x7F DUP3 AND SWAP2 POP JUMPDEST PUSH1 0x20 DUP3 LT DUP2 SUB PUSH2 0x4BB JUMPI PUSH2 0x4BA PUSH2 0x464 JUMP JUMPDEST JUMPDEST POP SWAP2 SWAP1 POP JUMP JUMPDEST PUSH0 DUP2 SWAP1 POP DUP2 PUSH0 MSTORE PUSH1 0x20 PUSH0 KECCAK256 SWAP1 POP SWAP2 SWAP1 POP JUMP JUMPDEST PUSH0 PUSH1 0x20 PUSH1 0x1F DUP4 ADD DIV SWAP1 POP SWAP2 SWAP1 POP JUMP JUMPDEST PUSH0 DUP3 DUP3 SHL SWAP1 POP SWAP3 SWAP2 POP POP JUMP JUMPDEST PUSH0 PUSH1 0x8 DUP4 MUL PUSH2 0x51D PUSH32 0xFFFFFFFFFFFFFFFFFFFFFFFFFFFFFFFFFFFFFFFFFFFFFFFFFFFFFFFFFFFFFFFF DUP3 PUSH2 0x4E2 JUMP JUMPDEST PUSH2 0x527 DUP7 DUP4 PUSH2 0x4E2 JUMP JUMPDEST SWAP6 POP DUP1 NOT DUP5 AND SWAP4 POP DUP1 DUP7 AND DUP5 OR SWAP3 POP POP POP SWAP4 SWAP3 POP POP POP JUMP JUMPDEST PUSH0 DUP2 SWAP1 POP SWAP2 SWAP1 POP JUMP JUMPDEST PUSH0 PUSH2 0x562 PUSH2 0x55D PUSH2 0x558 DUP5 PUSH2 0x33A JUMP JUMPDEST PUSH2 0x53F JUMP JUMPDEST PUSH2 0x33A JUMP JUMPDEST SWAP1 POP SWAP2 SWAP1 POP JUMP JUMPDEST PUSH0 DUP2 SWAP1 POP SWAP2 SWAP1 POP JUMP JUMPDEST PUSH2 0x57B DUP4 PUSH2 0x548 JUMP JUMPDEST PUSH2 0x58F PUSH2 0x587 DUP3 PUSH2 0x569 JUMP JUMPDEST DUP5 DUP5 SLOAD PUSH2 0x4EE JUMP JUMPDEST DUP3 SSTORE POP POP POP POP JUMP JUMPDEST PUSH0 SWAP1 JUMP JUMPDEST PUSH2 0x5A3 PUSH2 0x597 JUMP JUMPDEST PUSH2 0x5AE DUP2 DUP5 DUP5 PUSH2 0x572 JUMP JUMPDEST POP POP POP JUMP JUMPDEST JUMPDEST DUP2 DUP2 LT ISZERO PUSH2 0x5D1 JUMPI PUSH2 0x5C6 PUSH0 DUP3 PUSH2 0x59B JUMP JUMPDEST PUSH1 0x1 DUP2 ADD SWAP1 POP PUSH2 0x5B4 JUMP JUMPDEST POP POP JUMP JUMPDEST PUSH1 0x1F DUP3 GT ISZERO PUSH2 0x616 JUMPI PUSH2 0x5E7 DUP2 PUSH2 0x4C1 JUMP JUMPDEST PUSH2 0x5F0 DUP5 PUSH2 0x4D3 JUMP JUMPDEST DUP2 ADD PUSH1 0x20 DUP6 LT ISZERO PUSH2 0x5FF JUMPI DUP2 SWAP1 POP JUMPDEST PUSH2 0x613 PUSH2 0x60B DUP6 PUSH2 0x4D3 JUMP JUMPDEST DUP4 ADD DUP3 PUSH2 0x5B3 JUMP JUMPDEST POP POP JUMPDEST POP POP POP JUMP JUMPDEST PUSH0 DUP3 DUP3 SHR SWAP1 POP SWAP3 SWAP2 POP POP JUMP JUMPDEST PUSH0 PUSH2 0x636 PUSH0 NOT DUP5 PUSH1 0x8 MUL PUSH2 0x61B JUMP JUMPDEST NOT DUP1 DUP4 AND SWAP2 POP POP SWAP3 SWAP2 POP POP JUMP JUMPDEST PUSH0 PUSH2 0x64E DUP4 DUP4 PUSH2 0x627 JUMP JUMPDEST SWAP2 POP DUP3 PUSH1 0x2 MUL DUP3 OR SWAP1 POP SWAP3 SWAP2 POP POP JUMP JUMPDEST PUSH2 0x667 DUP3 PUSH2 0x45A JUMP JUMPDEST PUSH8 0xFFFFFFFFFFFFFFFF DUP2 GT ISZERO PUSH2 0x680 JUMPI PUSH2 0x67F PUSH2 0x1B9 JUMP JUMPDEST JUMPDEST PUSH2 0x68A DUP3 SLOAD PUSH2 0x491 JUMP JUMPDEST PUSH2 0x695 DUP3 DUP3 DUP6 PUSH2 0x5D5 JUMP JUMPDEST PUSH0 PUSH1 0x20 SWAP1 POP PUSH1 0x1F DUP4 GT PUSH1 0x1 DUP2 EQ PUSH2 0x6C6 JUMPI PUSH0 DUP5 ISZERO PUSH2 0x6B4 JUMPI DUP3 DUP8 ADD MLOAD SWAP1 POP JUMPDEST PUSH2 0x6BE DUP6 DUP3 PUSH2 0x643 JUMP JUMPDEST DUP7 SSTORE POP PUSH2 0x725 JUMP JUMPDEST PUSH1 0x1F NOT DUP5 AND PUSH2 0x6D4 DUP7 PUSH2 0x4C1 JUMP JUMPDEST PUSH0 JUMPDEST DUP3 DUP2 LT ISZERO PUSH2 0x6FB JUMPI DUP5 DUP10 ADD MLOAD DUP3 SSTORE PUSH1 0x1 DUP3 ADD SWAP2 POP PUSH1 0x20 DUP6 ADD SWAP5 POP PUSH1 0x20 DUP2 ADD SWAP1 POP PUSH2 0x6D6 JUMP JUMPDEST DUP7 DUP4 LT ISZERO PUSH2 0x718 JUMPI DUP5 DUP10 ADD MLOAD PUSH2 0x714 PUSH1 0x1F DUP10 AND DUP3 PUSH2 0x627 JUMP JUMPDEST DUP4 SSTORE POP JUMPDEST PUSH1 0x1 PUSH1 0x2 DUP9 MUL ADD DUP9 SSTORE POP POP POP JUMPDEST POP POP POP POP POP POP JUMP INVALID LOG2 PUSH5 0x6970667358 0x22 SLT KECCAK256 0x2D PUSH17 0x1702C36A1C8D2859B59612AD51B1CE99F3 PUSH6 0xE22A4309EA1D 0xDD 0xCD PUSH14 0x6EC19164736F6C634300081A0033 "
				},
				"gasEstimates": {
					"creation": {
						"codeDepositCost": "378200",
						"executionCost": "416",
						"totalCost": "378616"
					},
					"external": {
						"create(string,string,uint256)": "infinite"
					}
				},
				"methodIdentifiers": {
					"create(string,string,uint256)": "3ca6d100"
				}
			},
			"storageLayout": {
				"storage": [
					{
						"astId": 3,
						"contract": "proposal/ProposalContract.sol:ProposalContract",
						"label": "owner",
						"offset": 0,
						"slot": "0",
						"type": "t_address"
					},
					{
						"astId": 5,
						"contract": "proposal/ProposalContract.sol:ProposalContract",
						"label": "counter",
						"offset": 0,
						"slot": "1",
						"type": "t_uint256"
					},
					{
						"astId": 27,
						"contract": "proposal/ProposalContract.sol:ProposalContract",
						"label": "proposal_history",
						"offset": 0,
						"slot": "2",
						"type": "t_mapping(t_uint256,t_struct(Proposal)22_storage)"
					}
				],
				"types": {
					"t_address": {
						"encoding": "inplace",
						"label": "address",
						"numberOfBytes": "20"
					},
					"t_bool": {
						"encoding": "inplace",
						"label": "bool",
						"numberOfBytes": "1"
					},
					"t_mapping(t_uint256,t_struct(Proposal)22_storage)": {
						"encoding": "mapping",
						"key": "t_uint256",
						"label": "mapping(uint256 => struct ProposalContract.Proposal)",
						"numberOfBytes": "32",
						"value": "t_struct(Proposal)22_storage"
					},
					"t_string_storage": {
						"encoding": "bytes",
						"label": "string",
						"numberOfBytes": "32"
					},
					"t_struct(Proposal)22_storage": {
						"encoding": "inplace",
						"label": "struct ProposalContract.Proposal",
						"members": [
							{
								"astId": 7,
								"contract": "proposal/ProposalContract.sol:ProposalContract",
								"label": "title",
								"offset": 0,
								"slot": "0",
								"type": "t_string_storage"
							},
							{
								"astId": 9,
								"contract": "proposal/ProposalContract.sol:ProposalContract",
								"label": "description",
								"offset": 0,
								"slot": "1",
								"type": "t_string_storage"
							},
							{
								"astId": 11,
								"contract": "proposal/ProposalContract.sol:ProposalContract",
								"label": "approve",
								"offset": 0,
								"slot": "2",
								"type": "t_uint256"
							},
							{
								"astId": 13,
								"contract": "proposal/ProposalContract.sol:ProposalContract",
								"label": "reject",
								"offset": 0,
								"slot": "3",
								"type": "t_uint256"
							},
							{
								"astId": 15,
								"contract": "proposal/ProposalContract.sol:ProposalContract",
								"label": "pass",
								"offset": 0,
								"slot": "4",
								"type": "t_uint256"
							},
							{
								"astId": 17,
								"contract": "proposal/ProposalContract.sol:ProposalContract",
								"label": "total_vote_to_end",
								"offset": 0,
								"slot": "5",
								"type": "t_uint256"
							},
							{
								"astId": 19,
								"contract": "proposal/ProposalContract.sol:ProposalContract",
								"label": "current_state",
								"offset": 0,
								"slot": "6",
								"type": "t_bool"
							},
							{
								"astId": 21,
								"contract": "proposal/ProposalContract.sol:ProposalContract",
								"label": "is_active",
								"offset": 1,
								"slot": "6",
								"type": "t_bool"
							}
						],
						"numberOfBytes": "224"
					},
					"t_uint256": {
						"encoding": "inplace",
						"label": "uint256",
						"numberOfBytes": "32"
					}
				}
			},
			"userdoc": {
				"kind": "user",
				"methods": {},
				"version": 1
			}
		}
	}
}