{
	"proposal/ProposalContract.sol": {
		"ProposalContract": {
			"abi": [
				{
					"inputs": [],
					"stateMutability": "nonpayable",
					"type": "constructor"
				},
				{
					"inputs": [
						{
							"internalType": "string",
							"name": "_title",
							"type": "string"
						},
						{
							"internalType": "string",
							"name": "_description",
							"type": "string"
						},
						{
							"internalType": "uint256",
							"name": "_total_vote_to_end",
							"type": "uint256"
						}
					],
					"name": "create",
					"outputs": [],
					"stateMutability": "nonpayable",
					"type": "function"
				},
				{
					"inputs": [
						{
							"internalType": "address",
							"name": "new_owner",
							"type": "address"
						}
					],
					"name": "setOwner",
					"outputs": [],
					"stateMutability": "nonpayable",
					"type": "function"
				},
				{
					"inputs": [
						{
							"internalType": "uint8",
							"name": "choice",
							"type": "uint8"
						}
					],
					"name": "vote",
					"outputs": [],
					"stateMutability": "nonpayable",
					"type": "function"
				}
			],
			"devdoc": {
				"kind": "dev",
				"methods": {},
				"version": 1
			},
			"evm": {
				"assembly": "    /* \"proposal/ProposalContract.sol\":57:3023  contract ProposalContract {... */\n  mstore(0x40, 0x80)\n    /* \"proposal/ProposalContract.sol\":852:943  constructor() {... */\n  callvalue\n  dup1\n  iszero\n  tag_1\n  jumpi\n  0x00\n  dup1\n  revert\ntag_1:\n  pop\n    /* \"proposal/ProposalContract.sol\":884:894  msg.sender */\n  caller\n    /* \"proposal/ProposalContract.sol\":876:881  owner */\n  0x00\n  dup1\n    /* \"proposal/ProposalContract.sol\":876:894  owner = msg.sender */\n  0x0100\n  exp\n  dup2\n  sload\n  dup2\n  0xffffffffffffffffffffffffffffffffffffffff\n  mul\n  not\n  and\n  swap1\n  dup4\n  0xffffffffffffffffffffffffffffffffffffffff\n  and\n  mul\n  or\n  swap1\n  sstore\n  pop\n    /* \"proposal/ProposalContract.sol\":904:919  voted_addresses */\n  0x02\n    /* \"proposal/ProposalContract.sol\":925:935  msg.sender */\n  caller\n    /* \"proposal/ProposalContract.sol\":904:936  voted_addresses.push(msg.sender) */\n  swap1\n  dup1\n  0x01\n  dup2\n  sload\n  add\n  dup1\n  dup3\n  sstore\n  dup1\n  swap2\n  pop\n  pop\n  0x01\n  swap1\n  sub\n  swap1\n  0x00\n  mstore\n  keccak256(0x00, 0x20)\n  add\n  0x00\n  swap1\n  swap2\n  swap1\n  swap2\n  swap1\n  swap2\n  0x0100\n  exp\n  dup2\n  sload\n  dup2\n  0xffffffffffffffffffffffffffffffffffffffff\n  mul\n  not\n  and\n  swap1\n  dup4\n  0xffffffffffffffffffffffffffffffffffffffff\n  and\n  mul\n  or\n  swap1\n  sstore\n  pop\n    /* \"proposal/ProposalContract.sol\":57:3023  contract ProposalContract {... */\n  dataSize(sub_0)\n  dup1\n  dataOffset(sub_0)\n  0x00\n  codecopy\n  0x00\n  return\nstop\n\nsub_0: assembly {\n        /* \"proposal/ProposalContract.sol\":57:3023  contract ProposalContract {... */\n      mstore(0x40, 0x80)\n      callvalue\n      dup1\n      iszero\n      tag_1\n      jumpi\n      0x00\n      dup1\n      revert\n    tag_1:\n      pop\n      jumpi(tag_2, lt(calldatasize, 0x04))\n      shr(0xe0, calldataload(0x00))\n      dup1\n      0x13af4035\n      eq\n      tag_3\n      jumpi\n      dup1\n      0x3ca6d100\n      eq\n      tag_4\n      jumpi\n      dup1\n      0xb3f98adc\n      eq\n      tag_5\n      jumpi\n    tag_2:\n      0x00\n      dup1\n      revert\n        /* \"proposal/ProposalContract.sol\":1345:1435  function setOwner(address new_owner) external onlyOwner {... */\n    tag_3:\n      tag_6\n      0x04\n      dup1\n      calldatasize\n      sub\n      dup2\n      add\n      swap1\n      tag_7\n      swap2\n      swap1\n      tag_8\n      jump\t// in\n    tag_7:\n      tag_9\n      jump\t// in\n    tag_6:\n      stop\n        /* \"proposal/ProposalContract.sol\":949:1339  function create(... */\n    tag_4:\n      tag_10\n      0x04\n      dup1\n      calldatasize\n      sub\n      dup2\n      add\n      swap1\n      tag_11\n      swap2\n      swap1\n      tag_12\n      jump\t// in\n    tag_11:\n      tag_13\n      jump\t// in\n    tag_10:\n      stop\n        /* \"proposal/ProposalContract.sol\":1441:2279  function vote(uint8 choice) external isActive {... */\n    tag_5:\n      tag_14\n      0x04\n      dup1\n      calldatasize\n      sub\n      dup2\n      add\n      swap1\n      tag_15\n      swap2\n      swap1\n      tag_16\n      jump\t// in\n    tag_15:\n      tag_17\n      jump\t// in\n    tag_14:\n      stop\n        /* \"proposal/ProposalContract.sol\":1345:1435  function setOwner(address new_owner) external onlyOwner {... */\n    tag_9:\n        /* \"proposal/ProposalContract.sol\":517:522  owner */\n      0x00\n      dup1\n      sload\n      swap1\n      0x0100\n      exp\n      swap1\n      div\n      0xffffffffffffffffffffffffffffffffffffffff\n      and\n        /* \"proposal/ProposalContract.sol\":503:522  msg.sender == owner */\n      0xffffffffffffffffffffffffffffffffffffffff\n      and\n        /* \"proposal/ProposalContract.sol\":503:513  msg.sender */\n      caller\n        /* \"proposal/ProposalContract.sol\":503:522  msg.sender == owner */\n      0xffffffffffffffffffffffffffffffffffffffff\n      and\n      eq\n        /* \"proposal/ProposalContract.sol\":495:541  require(msg.sender == owner, \"Only Owner can\") */\n      tag_19\n      jumpi\n      mload(0x40)\n      0x08c379a000000000000000000000000000000000000000000000000000000000\n      dup2\n      mstore\n      0x04\n      add\n      tag_20\n      swap1\n      tag_21\n      jump\t// in\n    tag_20:\n      mload(0x40)\n      dup1\n      swap2\n      sub\n      swap1\n      revert\n    tag_19:\n        /* \"proposal/ProposalContract.sol\":1419:1428  new_owner */\n      dup1\n        /* \"proposal/ProposalContract.sol\":1411:1416  owner */\n      0x00\n      dup1\n        /* \"proposal/ProposalContract.sol\":1411:1428  owner = new_owner */\n      0x0100\n      exp\n      dup2\n      sload\n      dup2\n      0xffffffffffffffffffffffffffffffffffffffff\n      mul\n      not\n      and\n      swap1\n      dup4\n      0xffffffffffffffffffffffffffffffffffffffff\n      and\n      mul\n      or\n      swap1\n      sstore\n      pop\n        /* \"proposal/ProposalContract.sol\":1345:1435  function setOwner(address new_owner) external onlyOwner {... */\n      pop\n      jump\t// out\n        /* \"proposal/ProposalContract.sol\":949:1339  function create(... */\n    tag_13:\n        /* \"proposal/ProposalContract.sol\":517:522  owner */\n      0x00\n      dup1\n      sload\n      swap1\n      0x0100\n      exp\n      swap1\n      div\n      0xffffffffffffffffffffffffffffffffffffffff\n      and\n        /* \"proposal/ProposalContract.sol\":503:522  msg.sender == owner */\n      0xffffffffffffffffffffffffffffffffffffffff\n      and\n        /* \"proposal/ProposalContract.sol\":503:513  msg.sender */\n      caller\n        /* \"proposal/ProposalContract.sol\":503:522  msg.sender == owner */\n      0xffffffffffffffffffffffffffffffffffffffff\n      and\n      eq\n        /* \"proposal/ProposalContract.sol\":495:541  require(msg.sender == owner, \"Only Owner can\") */\n      tag_24\n      jumpi\n      mload(0x40)\n      0x08c379a000000000000000000000000000000000000000000000000000000000\n      dup2\n      mstore\n      0x04\n      add\n      tag_25\n      swap1\n      tag_21\n      jump\t// in\n    tag_25:\n      mload(0x40)\n      dup1\n      swap2\n      sub\n      swap1\n      revert\n    tag_24:\n        /* \"proposal/ProposalContract.sol\":1115:1116  1 */\n      0x01\n        /* \"proposal/ProposalContract.sol\":1104:1111  counter */\n      dup1\n      0x00\n        /* \"proposal/ProposalContract.sol\":1104:1116  counter += 1 */\n      dup3\n      dup3\n      sload\n      tag_27\n      swap2\n      swap1\n      tag_28\n      jump\t// in\n    tag_27:\n      swap3\n      pop\n      pop\n      dup2\n      swap1\n      sstore\n      pop\n        /* \"proposal/ProposalContract.sol\":1154:1332  Proposal(... */\n      mload(0x40)\n      dup1\n      0x0100\n      add\n      0x40\n      mstore\n      dup1\n        /* \"proposal/ProposalContract.sol\":1176:1182  _title */\n      dup6\n        /* \"proposal/ProposalContract.sol\":1154:1332  Proposal(... */\n      dup2\n      mstore\n      0x20\n      add\n        /* \"proposal/ProposalContract.sol\":1196:1208  _description */\n      dup5\n      dup5\n        /* \"proposal/ProposalContract.sol\":1154:1332  Proposal(... */\n      dup1\n      dup1\n      0x1f\n      add\n      0x20\n      dup1\n      swap2\n      div\n      mul\n      0x20\n      add\n      mload(0x40)\n      swap1\n      dup2\n      add\n      0x40\n      mstore\n      dup1\n      swap4\n      swap3\n      swap2\n      swap1\n      dup2\n      dup2\n      mstore\n      0x20\n      add\n      dup4\n      dup4\n      dup1\n      dup3\n      dup5\n      calldatacopy\n      0x00\n      dup2\n      dup5\n      add\n      mstore\n      not(0x1f)\n      0x1f\n      dup3\n      add\n      and\n      swap1\n      pop\n      dup1\n      dup4\n      add\n      swap3\n      pop\n      pop\n      pop\n      pop\n      pop\n      pop\n      pop\n      dup2\n      mstore\n      0x20\n      add\n        /* \"proposal/ProposalContract.sol\":1222:1223  0 */\n      0x00\n        /* \"proposal/ProposalContract.sol\":1154:1332  Proposal(... */\n      dup2\n      mstore\n      0x20\n      add\n        /* \"proposal/ProposalContract.sol\":1237:1238  0 */\n      0x00\n        /* \"proposal/ProposalContract.sol\":1154:1332  Proposal(... */\n      dup2\n      mstore\n      0x20\n      add\n        /* \"proposal/ProposalContract.sol\":1252:1253  0 */\n      0x00\n        /* \"proposal/ProposalContract.sol\":1154:1332  Proposal(... */\n      dup2\n      mstore\n      0x20\n      add\n        /* \"proposal/ProposalContract.sol\":1267:1285  _total_vote_to_end */\n      dup3\n        /* \"proposal/ProposalContract.sol\":1154:1332  Proposal(... */\n      dup2\n      mstore\n      0x20\n      add\n        /* \"proposal/ProposalContract.sol\":1299:1304  false */\n      0x00\n        /* \"proposal/ProposalContract.sol\":1154:1332  Proposal(... */\n      iszero\n      iszero\n      dup2\n      mstore\n      0x20\n      add\n        /* \"proposal/ProposalContract.sol\":1318:1322  true */\n      0x01\n        /* \"proposal/ProposalContract.sol\":1154:1332  Proposal(... */\n      iszero\n      iszero\n      dup2\n      mstore\n      pop\n        /* \"proposal/ProposalContract.sol\":1126:1142  proposal_history */\n      0x03\n        /* \"proposal/ProposalContract.sol\":1126:1151  proposal_history[counter] */\n      0x00\n        /* \"proposal/ProposalContract.sol\":1143:1150  counter */\n      sload(0x01)\n        /* \"proposal/ProposalContract.sol\":1126:1151  proposal_history[counter] */\n      dup2\n      mstore\n      0x20\n      add\n      swap1\n      dup2\n      mstore\n      0x20\n      add\n      0x00\n      keccak256\n        /* \"proposal/ProposalContract.sol\":1126:1332  proposal_history[counter] = Proposal(... */\n      0x00\n      dup3\n      add\n      mload\n      dup2\n      0x00\n      add\n      swap1\n      dup2\n      tag_29\n      swap2\n      swap1\n      tag_30\n      jump\t// in\n    tag_29:\n      pop\n      0x20\n      dup3\n      add\n      mload\n      dup2\n      0x01\n      add\n      swap1\n      dup2\n      tag_31\n      swap2\n      swap1\n      tag_30\n      jump\t// in\n    tag_31:\n      pop\n      0x40\n      dup3\n      add\n      mload\n      dup2\n      0x02\n      add\n      sstore\n      0x60\n      dup3\n      add\n      mload\n      dup2\n      0x03\n      add\n      sstore\n      0x80\n      dup3\n      add\n      mload\n      dup2\n      0x04\n      add\n      sstore\n      0xa0\n      dup3\n      add\n      mload\n      dup2\n      0x05\n      add\n      sstore\n      0xc0\n      dup3\n      add\n      mload\n      dup2\n      0x06\n      add\n      exp(0x0100, 0x00)\n      dup2\n      sload\n      dup2\n      0xff\n      mul\n      not\n      and\n      swap1\n      dup4\n      iszero\n      iszero\n      mul\n      or\n      swap1\n      sstore\n      pop\n      0xe0\n      dup3\n      add\n      mload\n      dup2\n      0x06\n      add\n      exp(0x0100, 0x01)\n      dup2\n      sload\n      dup2\n      0xff\n      mul\n      not\n      and\n      swap1\n      dup4\n      iszero\n      iszero\n      mul\n      or\n      swap1\n      sstore\n      pop\n      swap1\n      pop\n      pop\n        /* \"proposal/ProposalContract.sol\":949:1339  function create(... */\n      pop\n      pop\n      pop\n      pop\n      jump\t// out\n        /* \"proposal/ProposalContract.sol\":1441:2279  function vote(uint8 choice) external isActive {... */\n    tag_17:\n        /* \"proposal/ProposalContract.sol\":616:632  proposal_history */\n      0x03\n        /* \"proposal/ProposalContract.sol\":616:641  proposal_history[counter] */\n      0x00\n        /* \"proposal/ProposalContract.sol\":633:640  counter */\n      sload(0x01)\n        /* \"proposal/ProposalContract.sol\":616:641  proposal_history[counter] */\n      dup2\n      mstore\n      0x20\n      add\n      swap1\n      dup2\n      mstore\n      0x20\n      add\n      0x00\n      keccak256\n        /* \"proposal/ProposalContract.sol\":616:651  proposal_history[counter].is_active */\n      0x06\n      add\n      0x01\n      swap1\n      sload\n      swap1\n      0x0100\n      exp\n      swap1\n      div\n      0xff\n      and\n        /* \"proposal/ProposalContract.sol\":595:703  require(... */\n      tag_33\n      jumpi\n      mload(0x40)\n      0x08c379a000000000000000000000000000000000000000000000000000000000\n      dup2\n      mstore\n      0x04\n      add\n      tag_34\n      swap1\n      tag_35\n      jump\t// in\n    tag_34:\n      mload(0x40)\n      dup1\n      swap2\n      sub\n      swap1\n      revert\n    tag_33:\n        /* \"proposal/ProposalContract.sol\":1497:1522  Proposal storage proposal */\n      0x00\n        /* \"proposal/ProposalContract.sol\":1525:1541  proposal_history */\n      0x03\n        /* \"proposal/ProposalContract.sol\":1525:1550  proposal_history[counter] */\n      0x00\n        /* \"proposal/ProposalContract.sol\":1542:1549  counter */\n      sload(0x01)\n        /* \"proposal/ProposalContract.sol\":1525:1550  proposal_history[counter] */\n      dup2\n      mstore\n      0x20\n      add\n      swap1\n      dup2\n      mstore\n      0x20\n      add\n      0x00\n      keccak256\n        /* \"proposal/ProposalContract.sol\":1497:1550  Proposal storage proposal = proposal_history[counter] */\n      swap1\n      pop\n        /* \"proposal/ProposalContract.sol\":1560:1578  uint256 total_vote */\n      0x00\n        /* \"proposal/ProposalContract.sol\":1618:1626  proposal */\n      dup2\n        /* \"proposal/ProposalContract.sol\":1618:1631  proposal.pass */\n      0x04\n      add\n      sload\n        /* \"proposal/ProposalContract.sol\":1599:1607  proposal */\n      dup3\n        /* \"proposal/ProposalContract.sol\":1599:1615  proposal.approve */\n      0x02\n      add\n      sload\n        /* \"proposal/ProposalContract.sol\":1581:1589  proposal */\n      dup4\n        /* \"proposal/ProposalContract.sol\":1581:1596  proposal.reject */\n      0x03\n      add\n      sload\n        /* \"proposal/ProposalContract.sol\":1581:1615  proposal.reject + proposal.approve */\n      tag_37\n      swap2\n      swap1\n      tag_28\n      jump\t// in\n    tag_37:\n        /* \"proposal/ProposalContract.sol\":1581:1631  proposal.reject + proposal.approve + proposal.pass */\n      tag_38\n      swap2\n      swap1\n      tag_28\n      jump\t// in\n    tag_38:\n        /* \"proposal/ProposalContract.sol\":1560:1631  uint256 total_vote = proposal.reject + proposal.approve + proposal.pass */\n      swap1\n      pop\n        /* \"proposal/ProposalContract.sol\":1655:1656  1 */\n      0x01\n        /* \"proposal/ProposalContract.sol\":1645:1651  choice */\n      dup4\n        /* \"proposal/ProposalContract.sol\":1645:1656  choice == 1 */\n      0xff\n      and\n      sub\n        /* \"proposal/ProposalContract.sol\":1641:1838  if (choice == 1) {... */\n      tag_39\n      jumpi\n        /* \"proposal/ProposalContract.sol\":1692:1693  1 */\n      0x01\n        /* \"proposal/ProposalContract.sol\":1672:1680  proposal */\n      dup3\n        /* \"proposal/ProposalContract.sol\":1672:1688  proposal.approve */\n      0x02\n      add\n      0x00\n        /* \"proposal/ProposalContract.sol\":1672:1693  proposal.approve += 1 */\n      dup3\n      dup3\n      sload\n      tag_40\n      swap2\n      swap1\n      tag_28\n      jump\t// in\n    tag_40:\n      swap3\n      pop\n      pop\n      dup2\n      swap1\n      sstore\n      pop\n        /* \"proposal/ProposalContract.sol\":1641:1838  if (choice == 1) {... */\n      jump(tag_41)\n    tag_39:\n        /* \"proposal/ProposalContract.sol\":1724:1725  2 */\n      0x02\n        /* \"proposal/ProposalContract.sol\":1714:1720  choice */\n      dup4\n        /* \"proposal/ProposalContract.sol\":1714:1725  choice == 2 */\n      0xff\n      and\n      sub\n        /* \"proposal/ProposalContract.sol\":1710:1838  if (choice == 2) {... */\n      tag_42\n      jumpi\n        /* \"proposal/ProposalContract.sol\":1760:1761  1 */\n      0x01\n        /* \"proposal/ProposalContract.sol\":1741:1749  proposal */\n      dup3\n        /* \"proposal/ProposalContract.sol\":1741:1756  proposal.reject */\n      0x03\n      add\n      0x00\n        /* \"proposal/ProposalContract.sol\":1741:1761  proposal.reject += 1 */\n      dup3\n      dup3\n      sload\n      tag_43\n      swap2\n      swap1\n      tag_28\n      jump\t// in\n    tag_43:\n      swap3\n      pop\n      pop\n      dup2\n      swap1\n      sstore\n      pop\n        /* \"proposal/ProposalContract.sol\":1710:1838  if (choice == 2) {... */\n      jump(tag_44)\n    tag_42:\n        /* \"proposal/ProposalContract.sol\":1792:1793  2 */\n      0x02\n        /* \"proposal/ProposalContract.sol\":1782:1788  choice */\n      dup4\n        /* \"proposal/ProposalContract.sol\":1782:1793  choice == 2 */\n      0xff\n      and\n      sub\n        /* \"proposal/ProposalContract.sol\":1778:1838  if (choice == 2) {... */\n      tag_45\n      jumpi\n        /* \"proposal/ProposalContract.sol\":1826:1827  1 */\n      0x01\n        /* \"proposal/ProposalContract.sol\":1809:1817  proposal */\n      dup3\n        /* \"proposal/ProposalContract.sol\":1809:1822  proposal.pass */\n      0x04\n      add\n      0x00\n        /* \"proposal/ProposalContract.sol\":1809:1827  proposal.pass += 1 */\n      dup3\n      dup3\n      sload\n      tag_46\n      swap2\n      swap1\n      tag_28\n      jump\t// in\n    tag_46:\n      swap3\n      pop\n      pop\n      dup2\n      swap1\n      sstore\n      pop\n        /* \"proposal/ProposalContract.sol\":1778:1838  if (choice == 2) {... */\n    tag_45:\n        /* \"proposal/ProposalContract.sol\":1710:1838  if (choice == 2) {... */\n    tag_44:\n        /* \"proposal/ProposalContract.sol\":1641:1838  if (choice == 1) {... */\n    tag_41:\n        /* \"proposal/ProposalContract.sol\":1861:1862  0 */\n      0x00\n        /* \"proposal/ProposalContract.sol\":1851:1857  choice */\n      dup4\n        /* \"proposal/ProposalContract.sol\":1851:1862  choice == 0 */\n      0xff\n      and\n      eq\n        /* \"proposal/ProposalContract.sol\":1851:1877  choice == 0 || choice == 1 */\n      dup1\n      tag_47\n      jumpi\n      pop\n        /* \"proposal/ProposalContract.sol\":1876:1877  1 */\n      0x01\n        /* \"proposal/ProposalContract.sol\":1866:1872  choice */\n      dup4\n        /* \"proposal/ProposalContract.sol\":1866:1877  choice == 1 */\n      0xff\n      and\n      eq\n        /* \"proposal/ProposalContract.sol\":1851:1877  choice == 0 || choice == 1 */\n    tag_47:\n        /* \"proposal/ProposalContract.sol\":1851:1892  choice == 0 || choice == 1 || choice == 2 */\n      dup1\n      tag_48\n      jumpi\n      pop\n        /* \"proposal/ProposalContract.sol\":1891:1892  2 */\n      0x02\n        /* \"proposal/ProposalContract.sol\":1881:1887  choice */\n      dup4\n        /* \"proposal/ProposalContract.sol\":1881:1892  choice == 2 */\n      0xff\n      and\n      eq\n        /* \"proposal/ProposalContract.sol\":1851:1892  choice == 0 || choice == 1 || choice == 2 */\n    tag_48:\n        /* \"proposal/ProposalContract.sol\":1847:2273  if (choice == 0 || choice == 1 || choice == 2) {... */\n      iszero\n      tag_49\n      jumpi\n        /* \"proposal/ProposalContract.sol\":1908:1923  voted_addresses */\n      0x02\n        /* \"proposal/ProposalContract.sol\":1929:1939  msg.sender */\n      caller\n        /* \"proposal/ProposalContract.sol\":1908:1940  voted_addresses.push(msg.sender) */\n      swap1\n      dup1\n      0x01\n      dup2\n      sload\n      add\n      dup1\n      dup3\n      sstore\n      dup1\n      swap2\n      pop\n      pop\n      0x01\n      swap1\n      sub\n      swap1\n      0x00\n      mstore\n      keccak256(0x00, 0x20)\n      add\n      0x00\n      swap1\n      swap2\n      swap1\n      swap2\n      swap1\n      swap2\n      0x0100\n      exp\n      dup2\n      sload\n      dup2\n      0xffffffffffffffffffffffffffffffffffffffff\n      mul\n      not\n      and\n      swap1\n      dup4\n      0xffffffffffffffffffffffffffffffffffffffff\n      and\n      mul\n      or\n      swap1\n      sstore\n      pop\n        /* \"proposal/ProposalContract.sol\":1979:2002  calculateCurrentState() */\n      tag_51\n        /* \"proposal/ProposalContract.sol\":1979:2000  calculateCurrentState */\n      tag_52\n        /* \"proposal/ProposalContract.sol\":1979:2002  calculateCurrentState() */\n      jump\t// in\n    tag_51:\n        /* \"proposal/ProposalContract.sol\":1954:1962  proposal */\n      dup3\n        /* \"proposal/ProposalContract.sol\":1954:1976  proposal.current_state */\n      0x06\n      add\n      0x00\n        /* \"proposal/ProposalContract.sol\":1954:2002  proposal.current_state = calculateCurrentState() */\n      0x0100\n      exp\n      dup2\n      sload\n      dup2\n      0xff\n      mul\n      not\n      and\n      swap1\n      dup4\n      iszero\n      iszero\n      mul\n      or\n      swap1\n      sstore\n      pop\n        /* \"proposal/ProposalContract.sol\":2081:2082  1 */\n      0x01\n        /* \"proposal/ProposalContract.sol\":2067:2077  total_vote */\n      dup2\n        /* \"proposal/ProposalContract.sol\":2038:2046  proposal */\n      dup4\n        /* \"proposal/ProposalContract.sol\":2038:2064  proposal.total_vote_to_end */\n      0x05\n      add\n      sload\n        /* \"proposal/ProposalContract.sol\":2038:2077  proposal.total_vote_to_end - total_vote */\n      tag_53\n      swap2\n      swap1\n      tag_54\n      jump\t// in\n    tag_53:\n        /* \"proposal/ProposalContract.sol\":2038:2082  proposal.total_vote_to_end - total_vote == 1 */\n      eq\n        /* \"proposal/ProposalContract.sol\":2037:2146  (proposal.total_vote_to_end - total_vote == 1) &&... */\n      dup1\n      iszero\n      tag_55\n      jumpi\n      pop\n        /* \"proposal/ProposalContract.sol\":2114:2115  1 */\n      0x01\n        /* \"proposal/ProposalContract.sol\":2104:2110  choice */\n      dup4\n        /* \"proposal/ProposalContract.sol\":2104:2115  choice == 1 */\n      0xff\n      and\n      eq\n        /* \"proposal/ProposalContract.sol\":2104:2130  choice == 1 || choice == 2 */\n      dup1\n      tag_56\n      jumpi\n      pop\n        /* \"proposal/ProposalContract.sol\":2129:2130  2 */\n      0x02\n        /* \"proposal/ProposalContract.sol\":2119:2125  choice */\n      dup4\n        /* \"proposal/ProposalContract.sol\":2119:2130  choice == 2 */\n      0xff\n      and\n      eq\n        /* \"proposal/ProposalContract.sol\":2104:2130  choice == 1 || choice == 2 */\n    tag_56:\n        /* \"proposal/ProposalContract.sol\":2104:2145  choice == 1 || choice == 2 || choice == 0 */\n      dup1\n      tag_57\n      jumpi\n      pop\n        /* \"proposal/ProposalContract.sol\":2144:2145  0 */\n      0x00\n        /* \"proposal/ProposalContract.sol\":2134:2140  choice */\n      dup4\n        /* \"proposal/ProposalContract.sol\":2134:2145  choice == 0 */\n      0xff\n      and\n      eq\n        /* \"proposal/ProposalContract.sol\":2104:2145  choice == 1 || choice == 2 || choice == 0 */\n    tag_57:\n        /* \"proposal/ProposalContract.sol\":2037:2146  (proposal.total_vote_to_end - total_vote == 1) &&... */\n    tag_55:\n        /* \"proposal/ProposalContract.sol\":2016:2263  if (... */\n      iszero\n      tag_58\n      jumpi\n        /* \"proposal/ProposalContract.sol\":2200:2205  false */\n      0x00\n        /* \"proposal/ProposalContract.sol\":2179:2187  proposal */\n      dup3\n        /* \"proposal/ProposalContract.sol\":2179:2197  proposal.is_active */\n      0x06\n      add\n      0x01\n        /* \"proposal/ProposalContract.sol\":2179:2205  proposal.is_active = false */\n      0x0100\n      exp\n      dup2\n      sload\n      dup2\n      0xff\n      mul\n      not\n      and\n      swap1\n      dup4\n      iszero\n      iszero\n      mul\n      or\n      swap1\n      sstore\n      pop\n        /* \"proposal/ProposalContract.sol\":2223:2248  voted_addresses = [owner] */\n      mload(0x40)\n      dup1\n      0x20\n      add\n      0x40\n      mstore\n      dup1\n        /* \"proposal/ProposalContract.sol\":2242:2247  owner */\n      0x00\n      dup1\n      sload\n      swap1\n      0x0100\n      exp\n      swap1\n      div\n      0xffffffffffffffffffffffffffffffffffffffff\n      and\n        /* \"proposal/ProposalContract.sol\":2223:2248  voted_addresses = [owner] */\n      0xffffffffffffffffffffffffffffffffffffffff\n      and\n      0xffffffffffffffffffffffffffffffffffffffff\n      and\n      dup2\n      mstore\n      pop\n        /* \"proposal/ProposalContract.sol\":2223:2238  voted_addresses */\n      0x02\n        /* \"proposal/ProposalContract.sol\":2223:2248  voted_addresses = [owner] */\n      swap1\n      0x01\n      tag_59\n      swap3\n      swap2\n      swap1\n      tag_60\n      jump\t// in\n    tag_59:\n      pop\n        /* \"proposal/ProposalContract.sol\":2016:2263  if (... */\n    tag_58:\n        /* \"proposal/ProposalContract.sol\":1847:2273  if (choice == 0 || choice == 1 || choice == 2) {... */\n    tag_49:\n        /* \"proposal/ProposalContract.sol\":1487:2279  {... */\n      pop\n      pop\n        /* \"proposal/ProposalContract.sol\":1441:2279  function vote(uint8 choice) external isActive {... */\n      pop\n      jump\t// out\n        /* \"proposal/ProposalContract.sol\":2549:3021  function calculateCurrentState() view private returns (bool) {... */\n    tag_52:\n        /* \"proposal/ProposalContract.sol\":2604:2608  bool */\n      0x00\n        /* \"proposal/ProposalContract.sol\":2620:2645  Proposal storage proposal */\n      dup1\n        /* \"proposal/ProposalContract.sol\":2648:2664  proposal_history */\n      0x03\n        /* \"proposal/ProposalContract.sol\":2648:2673  proposal_history[counter] */\n      0x00\n        /* \"proposal/ProposalContract.sol\":2665:2672  counter */\n      sload(0x01)\n        /* \"proposal/ProposalContract.sol\":2648:2673  proposal_history[counter] */\n      dup2\n      mstore\n      0x20\n      add\n      swap1\n      dup2\n      mstore\n      0x20\n      add\n      0x00\n      keccak256\n        /* \"proposal/ProposalContract.sol\":2620:2673  Proposal storage proposal = proposal_history[counter] */\n      swap1\n      pop\n        /* \"proposal/ProposalContract.sol\":2684:2699  uint256 approve */\n      0x00\n        /* \"proposal/ProposalContract.sol\":2702:2710  proposal */\n      dup2\n        /* \"proposal/ProposalContract.sol\":2702:2718  proposal.approve */\n      0x02\n      add\n      sload\n        /* \"proposal/ProposalContract.sol\":2684:2718  uint256 approve = proposal.approve */\n      swap1\n      pop\n        /* \"proposal/ProposalContract.sol\":2728:2742  uint256 reject */\n      0x00\n        /* \"proposal/ProposalContract.sol\":2745:2753  proposal */\n      dup3\n        /* \"proposal/ProposalContract.sol\":2745:2760  proposal.reject */\n      0x03\n      add\n      sload\n        /* \"proposal/ProposalContract.sol\":2728:2760  uint256 reject = proposal.reject */\n      swap1\n      pop\n        /* \"proposal/ProposalContract.sol\":2770:2782  uint256 pass */\n      0x00\n        /* \"proposal/ProposalContract.sol\":2785:2793  proposal */\n      dup4\n        /* \"proposal/ProposalContract.sol\":2785:2798  proposal.pass */\n      0x04\n      add\n      sload\n        /* \"proposal/ProposalContract.sol\":2770:2798  uint256 pass = proposal.pass */\n      swap1\n      pop\n        /* \"proposal/ProposalContract.sol\":2834:2835  1 */\n      0x01\n        /* \"proposal/ProposalContract.sol\":2829:2830  2 */\n      0x02\n        /* \"proposal/ProposalContract.sol\":2813:2821  proposal */\n      dup6\n        /* \"proposal/ProposalContract.sol\":2813:2826  proposal.pass */\n      0x04\n      add\n      sload\n        /* \"proposal/ProposalContract.sol\":2813:2830  proposal.pass % 2 */\n      tag_62\n      swap2\n      swap1\n      tag_63\n      jump\t// in\n    tag_62:\n        /* \"proposal/ProposalContract.sol\":2813:2835  proposal.pass % 2 == 1 */\n      sub\n        /* \"proposal/ProposalContract.sol\":2809:2871  if (proposal.pass % 2 == 1) {... */\n      tag_64\n      jumpi\n        /* \"proposal/ProposalContract.sol\":2859:2860  1 */\n      0x01\n        /* \"proposal/ProposalContract.sol\":2851:2860  pass += 1 */\n      dup2\n      tag_65\n      swap2\n      swap1\n      tag_28\n      jump\t// in\n    tag_65:\n      swap1\n      pop\n        /* \"proposal/ProposalContract.sol\":2809:2871  if (proposal.pass % 2 == 1) {... */\n    tag_64:\n        /* \"proposal/ProposalContract.sol\":2895:2896  2 */\n      0x02\n        /* \"proposal/ProposalContract.sol\":2888:2892  pass */\n      dup2\n        /* \"proposal/ProposalContract.sol\":2888:2896  pass / 2 */\n      tag_66\n      swap2\n      swap1\n      tag_67\n      jump\t// in\n    tag_66:\n        /* \"proposal/ProposalContract.sol\":2881:2896  pass = pass / 2 */\n      swap1\n      pop\n        /* \"proposal/ProposalContract.sol\":2930:2934  pass */\n      dup1\n        /* \"proposal/ProposalContract.sol\":2921:2927  reject */\n      dup3\n        /* \"proposal/ProposalContract.sol\":2921:2934  reject + pass */\n      tag_68\n      swap2\n      swap1\n      tag_28\n      jump\t// in\n    tag_68:\n        /* \"proposal/ProposalContract.sol\":2911:2918  approve */\n      dup4\n        /* \"proposal/ProposalContract.sol\":2911:2934  approve > reject + pass */\n      gt\n        /* \"proposal/ProposalContract.sol\":2907:3015  if (approve > reject + pass) {... */\n      iszero\n      tag_69\n      jumpi\n        /* \"proposal/ProposalContract.sol\":2957:2961  true */\n      0x01\n        /* \"proposal/ProposalContract.sol\":2950:2961  return true */\n      swap5\n      pop\n      pop\n      pop\n      pop\n      pop\n      jump(tag_61)\n        /* \"proposal/ProposalContract.sol\":2907:3015  if (approve > reject + pass) {... */\n    tag_69:\n        /* \"proposal/ProposalContract.sol\":2999:3004  false */\n      0x00\n        /* \"proposal/ProposalContract.sol\":2992:3004  return false */\n      swap5\n      pop\n      pop\n      pop\n      pop\n      pop\n        /* \"proposal/ProposalContract.sol\":2549:3021  function calculateCurrentState() view private returns (bool) {... */\n    tag_61:\n      swap1\n      jump\t// out\n    tag_60:\n      dup3\n      dup1\n      sload\n      dup3\n      dup3\n      sstore\n      swap1\n      0x00\n      mstore\n      keccak256(0x00, 0x20)\n      swap1\n      dup2\n      add\n      swap3\n      dup3\n      iszero\n      tag_71\n      jumpi\n      swap2\n      0x20\n      mul\n      dup3\n      add\n    tag_72:\n      dup3\n      dup2\n      gt\n      iszero\n      tag_73\n      jumpi\n      dup3\n      mload\n      dup3\n      exp(0x0100, 0x00)\n      dup2\n      sload\n      dup2\n      0xffffffffffffffffffffffffffffffffffffffff\n      mul\n      not\n      and\n      swap1\n      dup4\n      0xffffffffffffffffffffffffffffffffffffffff\n      and\n      mul\n      or\n      swap1\n      sstore\n      pop\n      swap2\n      0x20\n      add\n      swap2\n      swap1\n      0x01\n      add\n      swap1\n      jump(tag_72)\n    tag_73:\n    tag_71:\n      pop\n      swap1\n      pop\n      tag_74\n      swap2\n      swap1\n      tag_75\n      jump\t// in\n    tag_74:\n      pop\n      swap1\n      jump\t// out\n    tag_75:\n    tag_76:\n      dup1\n      dup3\n      gt\n      iszero\n      tag_77\n      jumpi\n      0x00\n      dup2\n      0x00\n      swap1\n      sstore\n      pop\n      0x01\n      add\n      jump(tag_76)\n    tag_77:\n      pop\n      swap1\n      jump\t// out\n        /* \"#utility.yul\":7:82   */\n    tag_78:\n        /* \"#utility.yul\":40:46   */\n      0x00\n        /* \"#utility.yul\":73:75   */\n      0x40\n        /* \"#utility.yul\":67:76   */\n      mload\n        /* \"#utility.yul\":57:76   */\n      swap1\n      pop\n        /* \"#utility.yul\":7:82   */\n      swap1\n      jump\t// out\n        /* \"#utility.yul\":88:205   */\n    tag_79:\n        /* \"#utility.yul\":197:198   */\n      0x00\n        /* \"#utility.yul\":194:195   */\n      dup1\n        /* \"#utility.yul\":187:199   */\n      revert\n        /* \"#utility.yul\":211:328   */\n    tag_80:\n        /* \"#utility.yul\":320:321   */\n      0x00\n        /* \"#utility.yul\":317:318   */\n      dup1\n        /* \"#utility.yul\":310:322   */\n      revert\n        /* \"#utility.yul\":334:460   */\n    tag_81:\n        /* \"#utility.yul\":371:378   */\n      0x00\n        /* \"#utility.yul\":411:453   */\n      0xffffffffffffffffffffffffffffffffffffffff\n        /* \"#utility.yul\":404:409   */\n      dup3\n        /* \"#utility.yul\":400:454   */\n      and\n        /* \"#utility.yul\":389:454   */\n      swap1\n      pop\n        /* \"#utility.yul\":334:460   */\n      swap2\n      swap1\n      pop\n      jump\t// out\n        /* \"#utility.yul\":466:562   */\n    tag_82:\n        /* \"#utility.yul\":503:510   */\n      0x00\n        /* \"#utility.yul\":532:556   */\n      tag_135\n        /* \"#utility.yul\":550:555   */\n      dup3\n        /* \"#utility.yul\":532:556   */\n      tag_81\n      jump\t// in\n    tag_135:\n        /* \"#utility.yul\":521:556   */\n      swap1\n      pop\n        /* \"#utility.yul\":466:562   */\n      swap2\n      swap1\n      pop\n      jump\t// out\n        /* \"#utility.yul\":568:690   */\n    tag_83:\n        /* \"#utility.yul\":641:665   */\n      tag_137\n        /* \"#utility.yul\":659:664   */\n      dup2\n        /* \"#utility.yul\":641:665   */\n      tag_82\n      jump\t// in\n    tag_137:\n        /* \"#utility.yul\":634:639   */\n      dup2\n        /* \"#utility.yul\":631:666   */\n      eq\n        /* \"#utility.yul\":621:684   */\n      tag_138\n      jumpi\n        /* \"#utility.yul\":680:681   */\n      0x00\n        /* \"#utility.yul\":677:678   */\n      dup1\n        /* \"#utility.yul\":670:682   */\n      revert\n        /* \"#utility.yul\":621:684   */\n    tag_138:\n        /* \"#utility.yul\":568:690   */\n      pop\n      jump\t// out\n        /* \"#utility.yul\":696:835   */\n    tag_84:\n        /* \"#utility.yul\":742:747   */\n      0x00\n        /* \"#utility.yul\":780:786   */\n      dup2\n        /* \"#utility.yul\":767:787   */\n      calldataload\n        /* \"#utility.yul\":758:787   */\n      swap1\n      pop\n        /* \"#utility.yul\":796:829   */\n      tag_140\n        /* \"#utility.yul\":823:828   */\n      dup2\n        /* \"#utility.yul\":796:829   */\n      tag_83\n      jump\t// in\n    tag_140:\n        /* \"#utility.yul\":696:835   */\n      swap3\n      swap2\n      pop\n      pop\n      jump\t// out\n        /* \"#utility.yul\":841:1170   */\n    tag_8:\n        /* \"#utility.yul\":900:906   */\n      0x00\n        /* \"#utility.yul\":949:951   */\n      0x20\n        /* \"#utility.yul\":937:946   */\n      dup3\n        /* \"#utility.yul\":928:935   */\n      dup5\n        /* \"#utility.yul\":924:947   */\n      sub\n        /* \"#utility.yul\":920:952   */\n      slt\n        /* \"#utility.yul\":917:1036   */\n      iszero\n      tag_142\n      jumpi\n        /* \"#utility.yul\":955:1034   */\n      tag_143\n      tag_79\n      jump\t// in\n    tag_143:\n        /* \"#utility.yul\":917:1036   */\n    tag_142:\n        /* \"#utility.yul\":1075:1076   */\n      0x00\n        /* \"#utility.yul\":1100:1153   */\n      tag_144\n        /* \"#utility.yul\":1145:1152   */\n      dup5\n        /* \"#utility.yul\":1136:1142   */\n      dup3\n        /* \"#utility.yul\":1125:1134   */\n      dup6\n        /* \"#utility.yul\":1121:1143   */\n      add\n        /* \"#utility.yul\":1100:1153   */\n      tag_84\n      jump\t// in\n    tag_144:\n        /* \"#utility.yul\":1090:1153   */\n      swap2\n      pop\n        /* \"#utility.yul\":1046:1163   */\n      pop\n        /* \"#utility.yul\":841:1170   */\n      swap3\n      swap2\n      pop\n      pop\n      jump\t// out\n        /* \"#utility.yul\":1176:1293   */\n    tag_85:\n        /* \"#utility.yul\":1285:1286   */\n      0x00\n        /* \"#utility.yul\":1282:1283   */\n      dup1\n        /* \"#utility.yul\":1275:1287   */\n      revert\n        /* \"#utility.yul\":1299:1416   */\n    tag_86:\n        /* \"#utility.yul\":1408:1409   */\n      0x00\n        /* \"#utility.yul\":1405:1406   */\n      dup1\n        /* \"#utility.yul\":1398:1410   */\n      revert\n        /* \"#utility.yul\":1422:1524   */\n    tag_87:\n        /* \"#utility.yul\":1463:1469   */\n      0x00\n        /* \"#utility.yul\":1514:1516   */\n      0x1f\n        /* \"#utility.yul\":1510:1517   */\n      not\n        /* \"#utility.yul\":1505:1507   */\n      0x1f\n        /* \"#utility.yul\":1498:1503   */\n      dup4\n        /* \"#utility.yul\":1494:1508   */\n      add\n        /* \"#utility.yul\":1490:1518   */\n      and\n        /* \"#utility.yul\":1480:1518   */\n      swap1\n      pop\n        /* \"#utility.yul\":1422:1524   */\n      swap2\n      swap1\n      pop\n      jump\t// out\n        /* \"#utility.yul\":1530:1710   */\n    tag_88:\n        /* \"#utility.yul\":1578:1655   */\n      0x4e487b7100000000000000000000000000000000000000000000000000000000\n        /* \"#utility.yul\":1575:1576   */\n      0x00\n        /* \"#utility.yul\":1568:1656   */\n      mstore\n        /* \"#utility.yul\":1675:1679   */\n      0x41\n        /* \"#utility.yul\":1672:1673   */\n      0x04\n        /* \"#utility.yul\":1665:1680   */\n      mstore\n        /* \"#utility.yul\":1699:1703   */\n      0x24\n        /* \"#utility.yul\":1696:1697   */\n      0x00\n        /* \"#utility.yul\":1689:1704   */\n      revert\n        /* \"#utility.yul\":1716:1997   */\n    tag_89:\n        /* \"#utility.yul\":1799:1826   */\n      tag_150\n        /* \"#utility.yul\":1821:1825   */\n      dup3\n        /* \"#utility.yul\":1799:1826   */\n      tag_87\n      jump\t// in\n    tag_150:\n        /* \"#utility.yul\":1791:1797   */\n      dup2\n        /* \"#utility.yul\":1787:1827   */\n      add\n        /* \"#utility.yul\":1929:1935   */\n      dup2\n        /* \"#utility.yul\":1917:1927   */\n      dup2\n        /* \"#utility.yul\":1914:1936   */\n      lt\n        /* \"#utility.yul\":1893:1911   */\n      0xffffffffffffffff\n        /* \"#utility.yul\":1881:1891   */\n      dup3\n        /* \"#utility.yul\":1878:1912   */\n      gt\n        /* \"#utility.yul\":1875:1937   */\n      or\n        /* \"#utility.yul\":1872:1960   */\n      iszero\n      tag_151\n      jumpi\n        /* \"#utility.yul\":1940:1958   */\n      tag_152\n      tag_88\n      jump\t// in\n    tag_152:\n        /* \"#utility.yul\":1872:1960   */\n    tag_151:\n        /* \"#utility.yul\":1980:1990   */\n      dup1\n        /* \"#utility.yul\":1976:1978   */\n      0x40\n        /* \"#utility.yul\":1969:1991   */\n      mstore\n        /* \"#utility.yul\":1759:1997   */\n      pop\n        /* \"#utility.yul\":1716:1997   */\n      pop\n      pop\n      jump\t// out\n        /* \"#utility.yul\":2003:2132   */\n    tag_90:\n        /* \"#utility.yul\":2037:2043   */\n      0x00\n        /* \"#utility.yul\":2064:2084   */\n      tag_154\n      tag_78\n      jump\t// in\n    tag_154:\n        /* \"#utility.yul\":2054:2084   */\n      swap1\n      pop\n        /* \"#utility.yul\":2093:2126   */\n      tag_155\n        /* \"#utility.yul\":2121:2125   */\n      dup3\n        /* \"#utility.yul\":2113:2119   */\n      dup3\n        /* \"#utility.yul\":2093:2126   */\n      tag_89\n      jump\t// in\n    tag_155:\n        /* \"#utility.yul\":2003:2132   */\n      swap2\n      swap1\n      pop\n      jump\t// out\n        /* \"#utility.yul\":2138:2446   */\n    tag_91:\n        /* \"#utility.yul\":2200:2204   */\n      0x00\n        /* \"#utility.yul\":2290:2308   */\n      0xffffffffffffffff\n        /* \"#utility.yul\":2282:2288   */\n      dup3\n        /* \"#utility.yul\":2279:2309   */\n      gt\n        /* \"#utility.yul\":2276:2332   */\n      iszero\n      tag_157\n      jumpi\n        /* \"#utility.yul\":2312:2330   */\n      tag_158\n      tag_88\n      jump\t// in\n    tag_158:\n        /* \"#utility.yul\":2276:2332   */\n    tag_157:\n        /* \"#utility.yul\":2350:2379   */\n      tag_159\n        /* \"#utility.yul\":2372:2378   */\n      dup3\n        /* \"#utility.yul\":2350:2379   */\n      tag_87\n      jump\t// in\n    tag_159:\n        /* \"#utility.yul\":2342:2379   */\n      swap1\n      pop\n        /* \"#utility.yul\":2434:2438   */\n      0x20\n        /* \"#utility.yul\":2428:2432   */\n      dup2\n        /* \"#utility.yul\":2424:2439   */\n      add\n        /* \"#utility.yul\":2416:2439   */\n      swap1\n      pop\n        /* \"#utility.yul\":2138:2446   */\n      swap2\n      swap1\n      pop\n      jump\t// out\n        /* \"#utility.yul\":2452:2600   */\n    tag_92:\n        /* \"#utility.yul\":2550:2556   */\n      dup3\n        /* \"#utility.yul\":2545:2548   */\n      dup2\n        /* \"#utility.yul\":2540:2543   */\n      dup4\n        /* \"#utility.yul\":2527:2557   */\n      calldatacopy\n        /* \"#utility.yul\":2591:2592   */\n      0x00\n        /* \"#utility.yul\":2582:2588   */\n      dup4\n        /* \"#utility.yul\":2577:2580   */\n      dup4\n        /* \"#utility.yul\":2573:2589   */\n      add\n        /* \"#utility.yul\":2566:2593   */\n      mstore\n        /* \"#utility.yul\":2452:2600   */\n      pop\n      pop\n      pop\n      jump\t// out\n        /* \"#utility.yul\":2606:3031   */\n    tag_93:\n        /* \"#utility.yul\":2684:2689   */\n      0x00\n        /* \"#utility.yul\":2709:2775   */\n      tag_162\n        /* \"#utility.yul\":2725:2774   */\n      tag_163\n        /* \"#utility.yul\":2767:2773   */\n      dup5\n        /* \"#utility.yul\":2725:2774   */\n      tag_91\n      jump\t// in\n    tag_163:\n        /* \"#utility.yul\":2709:2775   */\n      tag_90\n      jump\t// in\n    tag_162:\n        /* \"#utility.yul\":2700:2775   */\n      swap1\n      pop\n        /* \"#utility.yul\":2798:2804   */\n      dup3\n        /* \"#utility.yul\":2791:2796   */\n      dup2\n        /* \"#utility.yul\":2784:2805   */\n      mstore\n        /* \"#utility.yul\":2836:2840   */\n      0x20\n        /* \"#utility.yul\":2829:2834   */\n      dup2\n        /* \"#utility.yul\":2825:2841   */\n      add\n        /* \"#utility.yul\":2874:2877   */\n      dup5\n        /* \"#utility.yul\":2865:2871   */\n      dup5\n        /* \"#utility.yul\":2860:2863   */\n      dup5\n        /* \"#utility.yul\":2856:2872   */\n      add\n        /* \"#utility.yul\":2853:2878   */\n      gt\n        /* \"#utility.yul\":2850:2962   */\n      iszero\n      tag_164\n      jumpi\n        /* \"#utility.yul\":2881:2960   */\n      tag_165\n      tag_86\n      jump\t// in\n    tag_165:\n        /* \"#utility.yul\":2850:2962   */\n    tag_164:\n        /* \"#utility.yul\":2971:3025   */\n      tag_166\n        /* \"#utility.yul\":3018:3024   */\n      dup5\n        /* \"#utility.yul\":3013:3016   */\n      dup3\n        /* \"#utility.yul\":3008:3011   */\n      dup6\n        /* \"#utility.yul\":2971:3025   */\n      tag_92\n      jump\t// in\n    tag_166:\n        /* \"#utility.yul\":2690:3031   */\n      pop\n        /* \"#utility.yul\":2606:3031   */\n      swap4\n      swap3\n      pop\n      pop\n      pop\n      jump\t// out\n        /* \"#utility.yul\":3051:3391   */\n    tag_94:\n        /* \"#utility.yul\":3107:3112   */\n      0x00\n        /* \"#utility.yul\":3156:3159   */\n      dup3\n        /* \"#utility.yul\":3149:3153   */\n      0x1f\n        /* \"#utility.yul\":3141:3147   */\n      dup4\n        /* \"#utility.yul\":3137:3154   */\n      add\n        /* \"#utility.yul\":3133:3160   */\n      slt\n        /* \"#utility.yul\":3123:3245   */\n      tag_168\n      jumpi\n        /* \"#utility.yul\":3164:3243   */\n      tag_169\n      tag_85\n      jump\t// in\n    tag_169:\n        /* \"#utility.yul\":3123:3245   */\n    tag_168:\n        /* \"#utility.yul\":3281:3287   */\n      dup2\n        /* \"#utility.yul\":3268:3288   */\n      calldataload\n        /* \"#utility.yul\":3306:3385   */\n      tag_170\n        /* \"#utility.yul\":3381:3384   */\n      dup5\n        /* \"#utility.yul\":3373:3379   */\n      dup3\n        /* \"#utility.yul\":3366:3370   */\n      0x20\n        /* \"#utility.yul\":3358:3364   */\n      dup7\n        /* \"#utility.yul\":3354:3371   */\n      add\n        /* \"#utility.yul\":3306:3385   */\n      tag_93\n      jump\t// in\n    tag_170:\n        /* \"#utility.yul\":3297:3385   */\n      swap2\n      pop\n        /* \"#utility.yul\":3113:3391   */\n      pop\n        /* \"#utility.yul\":3051:3391   */\n      swap3\n      swap2\n      pop\n      pop\n      jump\t// out\n        /* \"#utility.yul\":3397:3514   */\n    tag_95:\n        /* \"#utility.yul\":3506:3507   */\n      0x00\n        /* \"#utility.yul\":3503:3504   */\n      dup1\n        /* \"#utility.yul\":3496:3508   */\n      revert\n        /* \"#utility.yul\":3520:3637   */\n    tag_96:\n        /* \"#utility.yul\":3629:3630   */\n      0x00\n        /* \"#utility.yul\":3626:3627   */\n      dup1\n        /* \"#utility.yul\":3619:3631   */\n      revert\n        /* \"#utility.yul\":3657:4210   */\n    tag_97:\n        /* \"#utility.yul\":3715:3723   */\n      0x00\n        /* \"#utility.yul\":3725:3731   */\n      dup1\n        /* \"#utility.yul\":3775:3778   */\n      dup4\n        /* \"#utility.yul\":3768:3772   */\n      0x1f\n        /* \"#utility.yul\":3760:3766   */\n      dup5\n        /* \"#utility.yul\":3756:3773   */\n      add\n        /* \"#utility.yul\":3752:3779   */\n      slt\n        /* \"#utility.yul\":3742:3864   */\n      tag_174\n      jumpi\n        /* \"#utility.yul\":3783:3862   */\n      tag_175\n      tag_85\n      jump\t// in\n    tag_175:\n        /* \"#utility.yul\":3742:3864   */\n    tag_174:\n        /* \"#utility.yul\":3896:3902   */\n      dup3\n        /* \"#utility.yul\":3883:3903   */\n      calldataload\n        /* \"#utility.yul\":3873:3903   */\n      swap1\n      pop\n        /* \"#utility.yul\":3926:3944   */\n      0xffffffffffffffff\n        /* \"#utility.yul\":3918:3924   */\n      dup2\n        /* \"#utility.yul\":3915:3945   */\n      gt\n        /* \"#utility.yul\":3912:4029   */\n      iszero\n      tag_176\n      jumpi\n        /* \"#utility.yul\":3948:4027   */\n      tag_177\n      tag_95\n      jump\t// in\n    tag_177:\n        /* \"#utility.yul\":3912:4029   */\n    tag_176:\n        /* \"#utility.yul\":4062:4066   */\n      0x20\n        /* \"#utility.yul\":4054:4060   */\n      dup4\n        /* \"#utility.yul\":4050:4067   */\n      add\n        /* \"#utility.yul\":4038:4067   */\n      swap2\n      pop\n        /* \"#utility.yul\":4116:4119   */\n      dup4\n        /* \"#utility.yul\":4108:4112   */\n      0x01\n        /* \"#utility.yul\":4100:4106   */\n      dup3\n        /* \"#utility.yul\":4096:4113   */\n      mul\n        /* \"#utility.yul\":4086:4094   */\n      dup4\n        /* \"#utility.yul\":4082:4114   */\n      add\n        /* \"#utility.yul\":4079:4120   */\n      gt\n        /* \"#utility.yul\":4076:4204   */\n      iszero\n      tag_178\n      jumpi\n        /* \"#utility.yul\":4123:4202   */\n      tag_179\n      tag_96\n      jump\t// in\n    tag_179:\n        /* \"#utility.yul\":4076:4204   */\n    tag_178:\n        /* \"#utility.yul\":3657:4210   */\n      swap3\n      pop\n      swap3\n      swap1\n      pop\n      jump\t// out\n        /* \"#utility.yul\":4216:4293   */\n    tag_98:\n        /* \"#utility.yul\":4253:4260   */\n      0x00\n        /* \"#utility.yul\":4282:4287   */\n      dup2\n        /* \"#utility.yul\":4271:4287   */\n      swap1\n      pop\n        /* \"#utility.yul\":4216:4293   */\n      swap2\n      swap1\n      pop\n      jump\t// out\n        /* \"#utility.yul\":4299:4421   */\n    tag_99:\n        /* \"#utility.yul\":4372:4396   */\n      tag_182\n        /* \"#utility.yul\":4390:4395   */\n      dup2\n        /* \"#utility.yul\":4372:4396   */\n      tag_98\n      jump\t// in\n    tag_182:\n        /* \"#utility.yul\":4365:4370   */\n      dup2\n        /* \"#utility.yul\":4362:4397   */\n      eq\n        /* \"#utility.yul\":4352:4415   */\n      tag_183\n      jumpi\n        /* \"#utility.yul\":4411:4412   */\n      0x00\n        /* \"#utility.yul\":4408:4409   */\n      dup1\n        /* \"#utility.yul\":4401:4413   */\n      revert\n        /* \"#utility.yul\":4352:4415   */\n    tag_183:\n        /* \"#utility.yul\":4299:4421   */\n      pop\n      jump\t// out\n        /* \"#utility.yul\":4427:4566   */\n    tag_100:\n        /* \"#utility.yul\":4473:4478   */\n      0x00\n        /* \"#utility.yul\":4511:4517   */\n      dup2\n        /* \"#utility.yul\":4498:4518   */\n      calldataload\n        /* \"#utility.yul\":4489:4518   */\n      swap1\n      pop\n        /* \"#utility.yul\":4527:4560   */\n      tag_185\n        /* \"#utility.yul\":4554:4559   */\n      dup2\n        /* \"#utility.yul\":4527:4560   */\n      tag_99\n      jump\t// in\n    tag_185:\n        /* \"#utility.yul\":4427:4566   */\n      swap3\n      swap2\n      pop\n      pop\n      jump\t// out\n        /* \"#utility.yul\":4572:5571   */\n    tag_12:\n        /* \"#utility.yul\":4671:4677   */\n      0x00\n        /* \"#utility.yul\":4679:4685   */\n      dup1\n        /* \"#utility.yul\":4687:4693   */\n      0x00\n        /* \"#utility.yul\":4695:4701   */\n      dup1\n        /* \"#utility.yul\":4744:4746   */\n      0x60\n        /* \"#utility.yul\":4732:4741   */\n      dup6\n        /* \"#utility.yul\":4723:4730   */\n      dup8\n        /* \"#utility.yul\":4719:4742   */\n      sub\n        /* \"#utility.yul\":4715:4747   */\n      slt\n        /* \"#utility.yul\":4712:4831   */\n      iszero\n      tag_187\n      jumpi\n        /* \"#utility.yul\":4750:4829   */\n      tag_188\n      tag_79\n      jump\t// in\n    tag_188:\n        /* \"#utility.yul\":4712:4831   */\n    tag_187:\n        /* \"#utility.yul\":4898:4899   */\n      0x00\n        /* \"#utility.yul\":4887:4896   */\n      dup6\n        /* \"#utility.yul\":4883:4900   */\n      add\n        /* \"#utility.yul\":4870:4901   */\n      calldataload\n        /* \"#utility.yul\":4928:4946   */\n      0xffffffffffffffff\n        /* \"#utility.yul\":4920:4926   */\n      dup2\n        /* \"#utility.yul\":4917:4947   */\n      gt\n        /* \"#utility.yul\":4914:5031   */\n      iszero\n      tag_189\n      jumpi\n        /* \"#utility.yul\":4950:5029   */\n      tag_190\n      tag_80\n      jump\t// in\n    tag_190:\n        /* \"#utility.yul\":4914:5031   */\n    tag_189:\n        /* \"#utility.yul\":5055:5118   */\n      tag_191\n        /* \"#utility.yul\":5110:5117   */\n      dup8\n        /* \"#utility.yul\":5101:5107   */\n      dup3\n        /* \"#utility.yul\":5090:5099   */\n      dup9\n        /* \"#utility.yul\":5086:5108   */\n      add\n        /* \"#utility.yul\":5055:5118   */\n      tag_94\n      jump\t// in\n    tag_191:\n        /* \"#utility.yul\":5045:5118   */\n      swap5\n      pop\n        /* \"#utility.yul\":4841:5128   */\n      pop\n        /* \"#utility.yul\":5195:5197   */\n      0x20\n        /* \"#utility.yul\":5184:5193   */\n      dup6\n        /* \"#utility.yul\":5180:5198   */\n      add\n        /* \"#utility.yul\":5167:5199   */\n      calldataload\n        /* \"#utility.yul\":5226:5244   */\n      0xffffffffffffffff\n        /* \"#utility.yul\":5218:5224   */\n      dup2\n        /* \"#utility.yul\":5215:5245   */\n      gt\n        /* \"#utility.yul\":5212:5329   */\n      iszero\n      tag_192\n      jumpi\n        /* \"#utility.yul\":5248:5327   */\n      tag_193\n      tag_80\n      jump\t// in\n    tag_193:\n        /* \"#utility.yul\":5212:5329   */\n    tag_192:\n        /* \"#utility.yul\":5361:5426   */\n      tag_194\n        /* \"#utility.yul\":5418:5425   */\n      dup8\n        /* \"#utility.yul\":5409:5415   */\n      dup3\n        /* \"#utility.yul\":5398:5407   */\n      dup9\n        /* \"#utility.yul\":5394:5416   */\n      add\n        /* \"#utility.yul\":5361:5426   */\n      tag_97\n      jump\t// in\n    tag_194:\n        /* \"#utility.yul\":5343:5426   */\n      swap4\n      pop\n      swap4\n      pop\n        /* \"#utility.yul\":5138:5436   */\n      pop\n        /* \"#utility.yul\":5475:5477   */\n      0x40\n        /* \"#utility.yul\":5501:5554   */\n      tag_195\n        /* \"#utility.yul\":5546:5553   */\n      dup8\n        /* \"#utility.yul\":5537:5543   */\n      dup3\n        /* \"#utility.yul\":5526:5535   */\n      dup9\n        /* \"#utility.yul\":5522:5544   */\n      add\n        /* \"#utility.yul\":5501:5554   */\n      tag_100\n      jump\t// in\n    tag_195:\n        /* \"#utility.yul\":5491:5554   */\n      swap2\n      pop\n        /* \"#utility.yul\":5446:5564   */\n      pop\n        /* \"#utility.yul\":4572:5571   */\n      swap3\n      swap6\n      swap2\n      swap5\n      pop\n      swap3\n      pop\n      jump\t// out\n        /* \"#utility.yul\":5577:5663   */\n    tag_101:\n        /* \"#utility.yul\":5612:5619   */\n      0x00\n        /* \"#utility.yul\":5652:5656   */\n      0xff\n        /* \"#utility.yul\":5645:5650   */\n      dup3\n        /* \"#utility.yul\":5641:5657   */\n      and\n        /* \"#utility.yul\":5630:5657   */\n      swap1\n      pop\n        /* \"#utility.yul\":5577:5663   */\n      swap2\n      swap1\n      pop\n      jump\t// out\n        /* \"#utility.yul\":5669:5787   */\n    tag_102:\n        /* \"#utility.yul\":5740:5762   */\n      tag_198\n        /* \"#utility.yul\":5756:5761   */\n      dup2\n        /* \"#utility.yul\":5740:5762   */\n      tag_101\n      jump\t// in\n    tag_198:\n        /* \"#utility.yul\":5733:5738   */\n      dup2\n        /* \"#utility.yul\":5730:5763   */\n      eq\n        /* \"#utility.yul\":5720:5781   */\n      tag_199\n      jumpi\n        /* \"#utility.yul\":5777:5778   */\n      0x00\n        /* \"#utility.yul\":5774:5775   */\n      dup1\n        /* \"#utility.yul\":5767:5779   */\n      revert\n        /* \"#utility.yul\":5720:5781   */\n    tag_199:\n        /* \"#utility.yul\":5669:5787   */\n      pop\n      jump\t// out\n        /* \"#utility.yul\":5793:5928   */\n    tag_103:\n        /* \"#utility.yul\":5837:5842   */\n      0x00\n        /* \"#utility.yul\":5875:5881   */\n      dup2\n        /* \"#utility.yul\":5862:5882   */\n      calldataload\n        /* \"#utility.yul\":5853:5882   */\n      swap1\n      pop\n        /* \"#utility.yul\":5891:5922   */\n      tag_201\n        /* \"#utility.yul\":5916:5921   */\n      dup2\n        /* \"#utility.yul\":5891:5922   */\n      tag_102\n      jump\t// in\n    tag_201:\n        /* \"#utility.yul\":5793:5928   */\n      swap3\n      swap2\n      pop\n      pop\n      jump\t// out\n        /* \"#utility.yul\":5934:6259   */\n    tag_16:\n        /* \"#utility.yul\":5991:5997   */\n      0x00\n        /* \"#utility.yul\":6040:6042   */\n      0x20\n        /* \"#utility.yul\":6028:6037   */\n      dup3\n        /* \"#utility.yul\":6019:6026   */\n      dup5\n        /* \"#utility.yul\":6015:6038   */\n      sub\n        /* \"#utility.yul\":6011:6043   */\n      slt\n        /* \"#utility.yul\":6008:6127   */\n      iszero\n      tag_203\n      jumpi\n        /* \"#utility.yul\":6046:6125   */\n      tag_204\n      tag_79\n      jump\t// in\n    tag_204:\n        /* \"#utility.yul\":6008:6127   */\n    tag_203:\n        /* \"#utility.yul\":6166:6167   */\n      0x00\n        /* \"#utility.yul\":6191:6242   */\n      tag_205\n        /* \"#utility.yul\":6234:6241   */\n      dup5\n        /* \"#utility.yul\":6225:6231   */\n      dup3\n        /* \"#utility.yul\":6214:6223   */\n      dup6\n        /* \"#utility.yul\":6210:6232   */\n      add\n        /* \"#utility.yul\":6191:6242   */\n      tag_103\n      jump\t// in\n    tag_205:\n        /* \"#utility.yul\":6181:6242   */\n      swap2\n      pop\n        /* \"#utility.yul\":6137:6252   */\n      pop\n        /* \"#utility.yul\":5934:6259   */\n      swap3\n      swap2\n      pop\n      pop\n      jump\t// out\n        /* \"#utility.yul\":6265:6434   */\n    tag_104:\n        /* \"#utility.yul\":6349:6360   */\n      0x00\n        /* \"#utility.yul\":6383:6389   */\n      dup3\n        /* \"#utility.yul\":6378:6381   */\n      dup3\n        /* \"#utility.yul\":6371:6390   */\n      mstore\n        /* \"#utility.yul\":6423:6427   */\n      0x20\n        /* \"#utility.yul\":6418:6421   */\n      dup3\n        /* \"#utility.yul\":6414:6428   */\n      add\n        /* \"#utility.yul\":6399:6428   */\n      swap1\n      pop\n        /* \"#utility.yul\":6265:6434   */\n      swap3\n      swap2\n      pop\n      pop\n      jump\t// out\n        /* \"#utility.yul\":6440:6604   */\n    tag_105:\n        /* \"#utility.yul\":6580:6596   */\n      0x4f6e6c79204f776e65722063616e000000000000000000000000000000000000\n        /* \"#utility.yul\":6576:6577   */\n      0x00\n        /* \"#utility.yul\":6568:6574   */\n      dup3\n        /* \"#utility.yul\":6564:6578   */\n      add\n        /* \"#utility.yul\":6557:6597   */\n      mstore\n        /* \"#utility.yul\":6440:6604   */\n      pop\n      jump\t// out\n        /* \"#utility.yul\":6610:6976   */\n    tag_106:\n        /* \"#utility.yul\":6752:6755   */\n      0x00\n        /* \"#utility.yul\":6773:6840   */\n      tag_209\n        /* \"#utility.yul\":6837:6839   */\n      0x0e\n        /* \"#utility.yul\":6832:6835   */\n      dup4\n        /* \"#utility.yul\":6773:6840   */\n      tag_104\n      jump\t// in\n    tag_209:\n        /* \"#utility.yul\":6766:6840   */\n      swap2\n      pop\n        /* \"#utility.yul\":6849:6942   */\n      tag_210\n        /* \"#utility.yul\":6938:6941   */\n      dup3\n        /* \"#utility.yul\":6849:6942   */\n      tag_105\n      jump\t// in\n    tag_210:\n        /* \"#utility.yul\":6967:6969   */\n      0x20\n        /* \"#utility.yul\":6962:6965   */\n      dup3\n        /* \"#utility.yul\":6958:6970   */\n      add\n        /* \"#utility.yul\":6951:6970   */\n      swap1\n      pop\n        /* \"#utility.yul\":6610:6976   */\n      swap2\n      swap1\n      pop\n      jump\t// out\n        /* \"#utility.yul\":6982:7401   */\n    tag_21:\n        /* \"#utility.yul\":7148:7152   */\n      0x00\n        /* \"#utility.yul\":7186:7188   */\n      0x20\n        /* \"#utility.yul\":7175:7184   */\n      dup3\n        /* \"#utility.yul\":7171:7189   */\n      add\n        /* \"#utility.yul\":7163:7189   */\n      swap1\n      pop\n        /* \"#utility.yul\":7235:7244   */\n      dup2\n        /* \"#utility.yul\":7229:7233   */\n      dup2\n        /* \"#utility.yul\":7225:7245   */\n      sub\n        /* \"#utility.yul\":7221:7222   */\n      0x00\n        /* \"#utility.yul\":7210:7219   */\n      dup4\n        /* \"#utility.yul\":7206:7223   */\n      add\n        /* \"#utility.yul\":7199:7246   */\n      mstore\n        /* \"#utility.yul\":7263:7394   */\n      tag_212\n        /* \"#utility.yul\":7389:7393   */\n      dup2\n        /* \"#utility.yul\":7263:7394   */\n      tag_106\n      jump\t// in\n    tag_212:\n        /* \"#utility.yul\":7255:7394   */\n      swap1\n      pop\n        /* \"#utility.yul\":6982:7401   */\n      swap2\n      swap1\n      pop\n      jump\t// out\n        /* \"#utility.yul\":7407:7587   */\n    tag_107:\n        /* \"#utility.yul\":7455:7532   */\n      0x4e487b7100000000000000000000000000000000000000000000000000000000\n        /* \"#utility.yul\":7452:7453   */\n      0x00\n        /* \"#utility.yul\":7445:7533   */\n      mstore\n        /* \"#utility.yul\":7552:7556   */\n      0x11\n        /* \"#utility.yul\":7549:7550   */\n      0x04\n        /* \"#utility.yul\":7542:7557   */\n      mstore\n        /* \"#utility.yul\":7576:7580   */\n      0x24\n        /* \"#utility.yul\":7573:7574   */\n      0x00\n        /* \"#utility.yul\":7566:7581   */\n      revert\n        /* \"#utility.yul\":7593:7784   */\n    tag_28:\n        /* \"#utility.yul\":7633:7636   */\n      0x00\n        /* \"#utility.yul\":7652:7672   */\n      tag_215\n        /* \"#utility.yul\":7670:7671   */\n      dup3\n        /* \"#utility.yul\":7652:7672   */\n      tag_98\n      jump\t// in\n    tag_215:\n        /* \"#utility.yul\":7647:7672   */\n      swap2\n      pop\n        /* \"#utility.yul\":7686:7706   */\n      tag_216\n        /* \"#utility.yul\":7704:7705   */\n      dup4\n        /* \"#utility.yul\":7686:7706   */\n      tag_98\n      jump\t// in\n    tag_216:\n        /* \"#utility.yul\":7681:7706   */\n      swap3\n      pop\n        /* \"#utility.yul\":7729:7730   */\n      dup3\n        /* \"#utility.yul\":7726:7727   */\n      dup3\n        /* \"#utility.yul\":7722:7731   */\n      add\n        /* \"#utility.yul\":7715:7731   */\n      swap1\n      pop\n        /* \"#utility.yul\":7750:7753   */\n      dup1\n        /* \"#utility.yul\":7747:7748   */\n      dup3\n        /* \"#utility.yul\":7744:7754   */\n      gt\n        /* \"#utility.yul\":7741:7777   */\n      iszero\n      tag_217\n      jumpi\n        /* \"#utility.yul\":7757:7775   */\n      tag_218\n      tag_107\n      jump\t// in\n    tag_218:\n        /* \"#utility.yul\":7741:7777   */\n    tag_217:\n        /* \"#utility.yul\":7593:7784   */\n      swap3\n      swap2\n      pop\n      pop\n      jump\t// out\n        /* \"#utility.yul\":7790:7889   */\n    tag_108:\n        /* \"#utility.yul\":7842:7848   */\n      0x00\n        /* \"#utility.yul\":7876:7881   */\n      dup2\n        /* \"#utility.yul\":7870:7882   */\n      mload\n        /* \"#utility.yul\":7860:7882   */\n      swap1\n      pop\n        /* \"#utility.yul\":7790:7889   */\n      swap2\n      swap1\n      pop\n      jump\t// out\n        /* \"#utility.yul\":7895:8075   */\n    tag_109:\n        /* \"#utility.yul\":7943:8020   */\n      0x4e487b7100000000000000000000000000000000000000000000000000000000\n        /* \"#utility.yul\":7940:7941   */\n      0x00\n        /* \"#utility.yul\":7933:8021   */\n      mstore\n        /* \"#utility.yul\":8040:8044   */\n      0x22\n        /* \"#utility.yul\":8037:8038   */\n      0x04\n        /* \"#utility.yul\":8030:8045   */\n      mstore\n        /* \"#utility.yul\":8064:8068   */\n      0x24\n        /* \"#utility.yul\":8061:8062   */\n      0x00\n        /* \"#utility.yul\":8054:8069   */\n      revert\n        /* \"#utility.yul\":8081:8401   */\n    tag_110:\n        /* \"#utility.yul\":8125:8131   */\n      0x00\n        /* \"#utility.yul\":8162:8163   */\n      0x02\n        /* \"#utility.yul\":8156:8160   */\n      dup3\n        /* \"#utility.yul\":8152:8164   */\n      div\n        /* \"#utility.yul\":8142:8164   */\n      swap1\n      pop\n        /* \"#utility.yul\":8209:8210   */\n      0x01\n        /* \"#utility.yul\":8203:8207   */\n      dup3\n        /* \"#utility.yul\":8199:8211   */\n      and\n        /* \"#utility.yul\":8230:8248   */\n      dup1\n        /* \"#utility.yul\":8220:8301   */\n      tag_222\n      jumpi\n        /* \"#utility.yul\":8286:8290   */\n      0x7f\n        /* \"#utility.yul\":8278:8284   */\n      dup3\n        /* \"#utility.yul\":8274:8291   */\n      and\n        /* \"#utility.yul\":8264:8291   */\n      swap2\n      pop\n        /* \"#utility.yul\":8220:8301   */\n    tag_222:\n        /* \"#utility.yul\":8348:8350   */\n      0x20\n        /* \"#utility.yul\":8340:8346   */\n      dup3\n        /* \"#utility.yul\":8337:8351   */\n      lt\n        /* \"#utility.yul\":8317:8335   */\n      dup2\n        /* \"#utility.yul\":8314:8352   */\n      sub\n        /* \"#utility.yul\":8311:8395   */\n      tag_223\n      jumpi\n        /* \"#utility.yul\":8367:8385   */\n      tag_224\n      tag_109\n      jump\t// in\n    tag_224:\n        /* \"#utility.yul\":8311:8395   */\n    tag_223:\n        /* \"#utility.yul\":8132:8401   */\n      pop\n        /* \"#utility.yul\":8081:8401   */\n      swap2\n      swap1\n      pop\n      jump\t// out\n        /* \"#utility.yul\":8407:8548   */\n    tag_111:\n        /* \"#utility.yul\":8456:8460   */\n      0x00\n        /* \"#utility.yul\":8479:8482   */\n      dup2\n        /* \"#utility.yul\":8471:8482   */\n      swap1\n      pop\n        /* \"#utility.yul\":8502:8505   */\n      dup2\n        /* \"#utility.yul\":8499:8500   */\n      0x00\n        /* \"#utility.yul\":8492:8506   */\n      mstore\n        /* \"#utility.yul\":8536:8540   */\n      0x20\n        /* \"#utility.yul\":8533:8534   */\n      0x00\n        /* \"#utility.yul\":8523:8541   */\n      keccak256\n        /* \"#utility.yul\":8515:8541   */\n      swap1\n      pop\n        /* \"#utility.yul\":8407:8548   */\n      swap2\n      swap1\n      pop\n      jump\t// out\n        /* \"#utility.yul\":8554:8647   */\n    tag_112:\n        /* \"#utility.yul\":8591:8597   */\n      0x00\n        /* \"#utility.yul\":8638:8640   */\n      0x20\n        /* \"#utility.yul\":8633:8635   */\n      0x1f\n        /* \"#utility.yul\":8626:8631   */\n      dup4\n        /* \"#utility.yul\":8622:8636   */\n      add\n        /* \"#utility.yul\":8618:8641   */\n      div\n        /* \"#utility.yul\":8608:8641   */\n      swap1\n      pop\n        /* \"#utility.yul\":8554:8647   */\n      swap2\n      swap1\n      pop\n      jump\t// out\n        /* \"#utility.yul\":8653:8760   */\n    tag_113:\n        /* \"#utility.yul\":8697:8705   */\n      0x00\n        /* \"#utility.yul\":8747:8752   */\n      dup3\n        /* \"#utility.yul\":8741:8745   */\n      dup3\n        /* \"#utility.yul\":8737:8753   */\n      shl\n        /* \"#utility.yul\":8716:8753   */\n      swap1\n      pop\n        /* \"#utility.yul\":8653:8760   */\n      swap3\n      swap2\n      pop\n      pop\n      jump\t// out\n        /* \"#utility.yul\":8766:9159   */\n    tag_114:\n        /* \"#utility.yul\":8835:8841   */\n      0x00\n        /* \"#utility.yul\":8885:8886   */\n      0x08\n        /* \"#utility.yul\":8873:8883   */\n      dup4\n        /* \"#utility.yul\":8869:8887   */\n      mul\n        /* \"#utility.yul\":8908:9005   */\n      tag_229\n        /* \"#utility.yul\":8938:9004   */\n      0xffffffffffffffffffffffffffffffffffffffffffffffffffffffffffffffff\n        /* \"#utility.yul\":8927:8936   */\n      dup3\n        /* \"#utility.yul\":8908:9005   */\n      tag_113\n      jump\t// in\n    tag_229:\n        /* \"#utility.yul\":9026:9065   */\n      tag_230\n        /* \"#utility.yul\":9056:9064   */\n      dup7\n        /* \"#utility.yul\":9045:9054   */\n      dup4\n        /* \"#utility.yul\":9026:9065   */\n      tag_113\n      jump\t// in\n    tag_230:\n        /* \"#utility.yul\":9014:9065   */\n      swap6\n      pop\n        /* \"#utility.yul\":9098:9102   */\n      dup1\n        /* \"#utility.yul\":9094:9103   */\n      not\n        /* \"#utility.yul\":9087:9092   */\n      dup5\n        /* \"#utility.yul\":9083:9104   */\n      and\n        /* \"#utility.yul\":9074:9104   */\n      swap4\n      pop\n        /* \"#utility.yul\":9147:9151   */\n      dup1\n        /* \"#utility.yul\":9137:9145   */\n      dup7\n        /* \"#utility.yul\":9133:9152   */\n      and\n        /* \"#utility.yul\":9126:9131   */\n      dup5\n        /* \"#utility.yul\":9123:9153   */\n      or\n        /* \"#utility.yul\":9113:9153   */\n      swap3\n      pop\n        /* \"#utility.yul\":8842:9159   */\n      pop\n      pop\n        /* \"#utility.yul\":8766:9159   */\n      swap4\n      swap3\n      pop\n      pop\n      pop\n      jump\t// out\n        /* \"#utility.yul\":9165:9225   */\n    tag_115:\n        /* \"#utility.yul\":9193:9196   */\n      0x00\n        /* \"#utility.yul\":9214:9219   */\n      dup2\n        /* \"#utility.yul\":9207:9219   */\n      swap1\n      pop\n        /* \"#utility.yul\":9165:9225   */\n      swap2\n      swap1\n      pop\n      jump\t// out\n        /* \"#utility.yul\":9231:9373   */\n    tag_116:\n        /* \"#utility.yul\":9281:9290   */\n      0x00\n        /* \"#utility.yul\":9314:9367   */\n      tag_233\n        /* \"#utility.yul\":9332:9366   */\n      tag_234\n        /* \"#utility.yul\":9341:9365   */\n      tag_235\n        /* \"#utility.yul\":9359:9364   */\n      dup5\n        /* \"#utility.yul\":9341:9365   */\n      tag_98\n      jump\t// in\n    tag_235:\n        /* \"#utility.yul\":9332:9366   */\n      tag_115\n      jump\t// in\n    tag_234:\n        /* \"#utility.yul\":9314:9367   */\n      tag_98\n      jump\t// in\n    tag_233:\n        /* \"#utility.yul\":9301:9367   */\n      swap1\n      pop\n        /* \"#utility.yul\":9231:9373   */\n      swap2\n      swap1\n      pop\n      jump\t// out\n        /* \"#utility.yul\":9379:9454   */\n    tag_117:\n        /* \"#utility.yul\":9422:9425   */\n      0x00\n        /* \"#utility.yul\":9443:9448   */\n      dup2\n        /* \"#utility.yul\":9436:9448   */\n      swap1\n      pop\n        /* \"#utility.yul\":9379:9454   */\n      swap2\n      swap1\n      pop\n      jump\t// out\n        /* \"#utility.yul\":9460:9729   */\n    tag_118:\n        /* \"#utility.yul\":9570:9609   */\n      tag_238\n        /* \"#utility.yul\":9601:9608   */\n      dup4\n        /* \"#utility.yul\":9570:9609   */\n      tag_116\n      jump\t// in\n    tag_238:\n        /* \"#utility.yul\":9631:9722   */\n      tag_239\n        /* \"#utility.yul\":9680:9721   */\n      tag_240\n        /* \"#utility.yul\":9704:9720   */\n      dup3\n        /* \"#utility.yul\":9680:9721   */\n      tag_117\n      jump\t// in\n    tag_240:\n        /* \"#utility.yul\":9672:9678   */\n      dup5\n        /* \"#utility.yul\":9665:9669   */\n      dup5\n        /* \"#utility.yul\":9659:9670   */\n      sload\n        /* \"#utility.yul\":9631:9722   */\n      tag_114\n      jump\t// in\n    tag_239:\n        /* \"#utility.yul\":9625:9629   */\n      dup3\n        /* \"#utility.yul\":9618:9723   */\n      sstore\n        /* \"#utility.yul\":9536:9729   */\n      pop\n        /* \"#utility.yul\":9460:9729   */\n      pop\n      pop\n      pop\n      jump\t// out\n        /* \"#utility.yul\":9735:9808   */\n    tag_119:\n        /* \"#utility.yul\":9780:9783   */\n      0x00\n        /* \"#utility.yul\":9735:9808   */\n      swap1\n      jump\t// out\n        /* \"#utility.yul\":9814:10003   */\n    tag_120:\n        /* \"#utility.yul\":9891:9923   */\n      tag_243\n      tag_119\n      jump\t// in\n    tag_243:\n        /* \"#utility.yul\":9932:9997   */\n      tag_244\n        /* \"#utility.yul\":9990:9996   */\n      dup2\n        /* \"#utility.yul\":9982:9988   */\n      dup5\n        /* \"#utility.yul\":9976:9980   */\n      dup5\n        /* \"#utility.yul\":9932:9997   */\n      tag_118\n      jump\t// in\n    tag_244:\n        /* \"#utility.yul\":9867:10003   */\n      pop\n        /* \"#utility.yul\":9814:10003   */\n      pop\n      pop\n      jump\t// out\n        /* \"#utility.yul\":10009:10195   */\n    tag_121:\n        /* \"#utility.yul\":10069:10189   */\n    tag_246:\n        /* \"#utility.yul\":10086:10089   */\n      dup2\n        /* \"#utility.yul\":10079:10084   */\n      dup2\n        /* \"#utility.yul\":10076:10090   */\n      lt\n        /* \"#utility.yul\":10069:10189   */\n      iszero\n      tag_248\n      jumpi\n        /* \"#utility.yul\":10140:10179   */\n      tag_249\n        /* \"#utility.yul\":10177:10178   */\n      0x00\n        /* \"#utility.yul\":10170:10175   */\n      dup3\n        /* \"#utility.yul\":10140:10179   */\n      tag_120\n      jump\t// in\n    tag_249:\n        /* \"#utility.yul\":10113:10114   */\n      0x01\n        /* \"#utility.yul\":10106:10111   */\n      dup2\n        /* \"#utility.yul\":10102:10115   */\n      add\n        /* \"#utility.yul\":10093:10115   */\n      swap1\n      pop\n        /* \"#utility.yul\":10069:10189   */\n      jump(tag_246)\n    tag_248:\n        /* \"#utility.yul\":10009:10195   */\n      pop\n      pop\n      jump\t// out\n        /* \"#utility.yul\":10201:10744   */\n    tag_122:\n        /* \"#utility.yul\":10302:10304   */\n      0x1f\n        /* \"#utility.yul\":10297:10300   */\n      dup3\n        /* \"#utility.yul\":10294:10305   */\n      gt\n        /* \"#utility.yul\":10291:10737   */\n      iszero\n      tag_251\n      jumpi\n        /* \"#utility.yul\":10336:10374   */\n      tag_252\n        /* \"#utility.yul\":10368:10373   */\n      dup2\n        /* \"#utility.yul\":10336:10374   */\n      tag_111\n      jump\t// in\n    tag_252:\n        /* \"#utility.yul\":10420:10449   */\n      tag_253\n        /* \"#utility.yul\":10438:10448   */\n      dup5\n        /* \"#utility.yul\":10420:10449   */\n      tag_112\n      jump\t// in\n    tag_253:\n        /* \"#utility.yul\":10410:10418   */\n      dup2\n        /* \"#utility.yul\":10406:10450   */\n      add\n        /* \"#utility.yul\":10603:10605   */\n      0x20\n        /* \"#utility.yul\":10591:10601   */\n      dup6\n        /* \"#utility.yul\":10588:10606   */\n      lt\n        /* \"#utility.yul\":10585:10634   */\n      iszero\n      tag_254\n      jumpi\n        /* \"#utility.yul\":10624:10632   */\n      dup2\n        /* \"#utility.yul\":10609:10632   */\n      swap1\n      pop\n        /* \"#utility.yul\":10585:10634   */\n    tag_254:\n        /* \"#utility.yul\":10647:10727   */\n      tag_255\n        /* \"#utility.yul\":10703:10725   */\n      tag_256\n        /* \"#utility.yul\":10721:10724   */\n      dup6\n        /* \"#utility.yul\":10703:10725   */\n      tag_112\n      jump\t// in\n    tag_256:\n        /* \"#utility.yul\":10693:10701   */\n      dup4\n        /* \"#utility.yul\":10689:10726   */\n      add\n        /* \"#utility.yul\":10676:10687   */\n      dup3\n        /* \"#utility.yul\":10647:10727   */\n      tag_121\n      jump\t// in\n    tag_255:\n        /* \"#utility.yul\":10306:10737   */\n      pop\n      pop\n        /* \"#utility.yul\":10291:10737   */\n    tag_251:\n        /* \"#utility.yul\":10201:10744   */\n      pop\n      pop\n      pop\n      jump\t// out\n        /* \"#utility.yul\":10750:10867   */\n    tag_123:\n        /* \"#utility.yul\":10804:10812   */\n      0x00\n        /* \"#utility.yul\":10854:10859   */\n      dup3\n        /* \"#utility.yul\":10848:10852   */\n      dup3\n        /* \"#utility.yul\":10844:10860   */\n      shr\n        /* \"#utility.yul\":10823:10860   */\n      swap1\n      pop\n        /* \"#utility.yul\":10750:10867   */\n      swap3\n      swap2\n      pop\n      pop\n      jump\t// out\n        /* \"#utility.yul\":10873:11042   */\n    tag_124:\n        /* \"#utility.yul\":10917:10923   */\n      0x00\n        /* \"#utility.yul\":10950:11001   */\n      tag_259\n        /* \"#utility.yul\":10998:10999   */\n      0x00\n        /* \"#utility.yul\":10994:11000   */\n      not\n        /* \"#utility.yul\":10986:10991   */\n      dup5\n        /* \"#utility.yul\":10983:10984   */\n      0x08\n        /* \"#utility.yul\":10979:10992   */\n      mul\n        /* \"#utility.yul\":10950:11001   */\n      tag_123\n      jump\t// in\n    tag_259:\n        /* \"#utility.yul\":10946:11002   */\n      not\n        /* \"#utility.yul\":11031:11035   */\n      dup1\n        /* \"#utility.yul\":11025:11029   */\n      dup4\n        /* \"#utility.yul\":11021:11036   */\n      and\n        /* \"#utility.yul\":11011:11036   */\n      swap2\n      pop\n        /* \"#utility.yul\":10924:11042   */\n      pop\n        /* \"#utility.yul\":10873:11042   */\n      swap3\n      swap2\n      pop\n      pop\n      jump\t// out\n        /* \"#utility.yul\":11047:11342   */\n    tag_125:\n        /* \"#utility.yul\":11123:11127   */\n      0x00\n        /* \"#utility.yul\":11269:11298   */\n      tag_261\n        /* \"#utility.yul\":11294:11297   */\n      dup4\n        /* \"#utility.yul\":11288:11292   */\n      dup4\n        /* \"#utility.yul\":11269:11298   */\n      tag_124\n      jump\t// in\n    tag_261:\n        /* \"#utility.yul\":11261:11298   */\n      swap2\n      pop\n        /* \"#utility.yul\":11331:11334   */\n      dup3\n        /* \"#utility.yul\":11328:11329   */\n      0x02\n        /* \"#utility.yul\":11324:11335   */\n      mul\n        /* \"#utility.yul\":11318:11322   */\n      dup3\n        /* \"#utility.yul\":11315:11336   */\n      or\n        /* \"#utility.yul\":11307:11336   */\n      swap1\n      pop\n        /* \"#utility.yul\":11047:11342   */\n      swap3\n      swap2\n      pop\n      pop\n      jump\t// out\n        /* \"#utility.yul\":11347:12742   */\n    tag_30:\n        /* \"#utility.yul\":11464:11501   */\n      tag_263\n        /* \"#utility.yul\":11497:11500   */\n      dup3\n        /* \"#utility.yul\":11464:11501   */\n      tag_108\n      jump\t// in\n    tag_263:\n        /* \"#utility.yul\":11566:11584   */\n      0xffffffffffffffff\n        /* \"#utility.yul\":11558:11564   */\n      dup2\n        /* \"#utility.yul\":11555:11585   */\n      gt\n        /* \"#utility.yul\":11552:11608   */\n      iszero\n      tag_264\n      jumpi\n        /* \"#utility.yul\":11588:11606   */\n      tag_265\n      tag_88\n      jump\t// in\n    tag_265:\n        /* \"#utility.yul\":11552:11608   */\n    tag_264:\n        /* \"#utility.yul\":11632:11670   */\n      tag_266\n        /* \"#utility.yul\":11664:11668   */\n      dup3\n        /* \"#utility.yul\":11658:11669   */\n      sload\n        /* \"#utility.yul\":11632:11670   */\n      tag_110\n      jump\t// in\n    tag_266:\n        /* \"#utility.yul\":11717:11784   */\n      tag_267\n        /* \"#utility.yul\":11777:11783   */\n      dup3\n        /* \"#utility.yul\":11769:11775   */\n      dup3\n        /* \"#utility.yul\":11763:11767   */\n      dup6\n        /* \"#utility.yul\":11717:11784   */\n      tag_122\n      jump\t// in\n    tag_267:\n        /* \"#utility.yul\":11811:11812   */\n      0x00\n        /* \"#utility.yul\":11835:11839   */\n      0x20\n        /* \"#utility.yul\":11822:11839   */\n      swap1\n      pop\n        /* \"#utility.yul\":11867:11869   */\n      0x1f\n        /* \"#utility.yul\":11859:11865   */\n      dup4\n        /* \"#utility.yul\":11856:11870   */\n      gt\n        /* \"#utility.yul\":11884:11885   */\n      0x01\n        /* \"#utility.yul\":11879:12497   */\n      dup2\n      eq\n      tag_269\n      jumpi\n        /* \"#utility.yul\":12541:12542   */\n      0x00\n        /* \"#utility.yul\":12558:12564   */\n      dup5\n        /* \"#utility.yul\":12555:12632   */\n      iszero\n      tag_270\n      jumpi\n        /* \"#utility.yul\":12607:12616   */\n      dup3\n        /* \"#utility.yul\":12602:12605   */\n      dup8\n        /* \"#utility.yul\":12598:12617   */\n      add\n        /* \"#utility.yul\":12592:12618   */\n      mload\n        /* \"#utility.yul\":12583:12618   */\n      swap1\n      pop\n        /* \"#utility.yul\":12555:12632   */\n    tag_270:\n        /* \"#utility.yul\":12658:12725   */\n      tag_271\n        /* \"#utility.yul\":12718:12724   */\n      dup6\n        /* \"#utility.yul\":12711:12716   */\n      dup3\n        /* \"#utility.yul\":12658:12725   */\n      tag_125\n      jump\t// in\n    tag_271:\n        /* \"#utility.yul\":12652:12656   */\n      dup7\n        /* \"#utility.yul\":12645:12726   */\n      sstore\n        /* \"#utility.yul\":12514:12736   */\n      pop\n        /* \"#utility.yul\":11849:12736   */\n      jump(tag_268)\n        /* \"#utility.yul\":11879:12497   */\n    tag_269:\n        /* \"#utility.yul\":11931:11935   */\n      0x1f\n        /* \"#utility.yul\":11927:11936   */\n      not\n        /* \"#utility.yul\":11919:11925   */\n      dup5\n        /* \"#utility.yul\":11915:11937   */\n      and\n        /* \"#utility.yul\":11965:12002   */\n      tag_272\n        /* \"#utility.yul\":11997:12001   */\n      dup7\n        /* \"#utility.yul\":11965:12002   */\n      tag_111\n      jump\t// in\n    tag_272:\n        /* \"#utility.yul\":12024:12025   */\n      0x00\n        /* \"#utility.yul\":12038:12246   */\n    tag_273:\n        /* \"#utility.yul\":12052:12059   */\n      dup3\n        /* \"#utility.yul\":12049:12050   */\n      dup2\n        /* \"#utility.yul\":12046:12060   */\n      lt\n        /* \"#utility.yul\":12038:12246   */\n      iszero\n      tag_275\n      jumpi\n        /* \"#utility.yul\":12131:12140   */\n      dup5\n        /* \"#utility.yul\":12126:12129   */\n      dup10\n        /* \"#utility.yul\":12122:12141   */\n      add\n        /* \"#utility.yul\":12116:12142   */\n      mload\n        /* \"#utility.yul\":12108:12114   */\n      dup3\n        /* \"#utility.yul\":12101:12143   */\n      sstore\n        /* \"#utility.yul\":12182:12183   */\n      0x01\n        /* \"#utility.yul\":12174:12180   */\n      dup3\n        /* \"#utility.yul\":12170:12184   */\n      add\n        /* \"#utility.yul\":12160:12184   */\n      swap2\n      pop\n        /* \"#utility.yul\":12229:12231   */\n      0x20\n        /* \"#utility.yul\":12218:12227   */\n      dup6\n        /* \"#utility.yul\":12214:12232   */\n      add\n        /* \"#utility.yul\":12201:12232   */\n      swap5\n      pop\n        /* \"#utility.yul\":12075:12079   */\n      0x20\n        /* \"#utility.yul\":12072:12073   */\n      dup2\n        /* \"#utility.yul\":12068:12080   */\n      add\n        /* \"#utility.yul\":12063:12080   */\n      swap1\n      pop\n        /* \"#utility.yul\":12038:12246   */\n      jump(tag_273)\n    tag_275:\n        /* \"#utility.yul\":12274:12280   */\n      dup7\n        /* \"#utility.yul\":12265:12272   */\n      dup4\n        /* \"#utility.yul\":12262:12281   */\n      lt\n        /* \"#utility.yul\":12259:12438   */\n      iszero\n      tag_276\n      jumpi\n        /* \"#utility.yul\":12332:12341   */\n      dup5\n        /* \"#utility.yul\":12327:12330   */\n      dup10\n        /* \"#utility.yul\":12323:12342   */\n      add\n        /* \"#utility.yul\":12317:12343   */\n      mload\n        /* \"#utility.yul\":12375:12423   */\n      tag_277\n        /* \"#utility.yul\":12417:12421   */\n      0x1f\n        /* \"#utility.yul\":12409:12415   */\n      dup10\n        /* \"#utility.yul\":12405:12422   */\n      and\n        /* \"#utility.yul\":12394:12403   */\n      dup3\n        /* \"#utility.yul\":12375:12423   */\n      tag_124\n      jump\t// in\n    tag_277:\n        /* \"#utility.yul\":12367:12373   */\n      dup4\n        /* \"#utility.yul\":12360:12424   */\n      sstore\n        /* \"#utility.yul\":12282:12438   */\n      pop\n        /* \"#utility.yul\":12259:12438   */\n    tag_276:\n        /* \"#utility.yul\":12484:12485   */\n      0x01\n        /* \"#utility.yul\":12480:12481   */\n      0x02\n        /* \"#utility.yul\":12472:12478   */\n      dup9\n        /* \"#utility.yul\":12468:12482   */\n      mul\n        /* \"#utility.yul\":12464:12486   */\n      add\n        /* \"#utility.yul\":12458:12462   */\n      dup9\n        /* \"#utility.yul\":12451:12487   */\n      sstore\n        /* \"#utility.yul\":11886:12497   */\n      pop\n      pop\n      pop\n        /* \"#utility.yul\":11849:12736   */\n    tag_268:\n      pop\n        /* \"#utility.yul\":11439:12742   */\n      pop\n      pop\n      pop\n        /* \"#utility.yul\":11347:12742   */\n      pop\n      pop\n      jump\t// out\n        /* \"#utility.yul\":12748:12924   */\n    tag_126:\n        /* \"#utility.yul\":12888:12916   */\n      0x5468652070726f706f73616c206973206e6f7420616374697665000000000000\n        /* \"#utility.yul\":12884:12885   */\n      0x00\n        /* \"#utility.yul\":12876:12882   */\n      dup3\n        /* \"#utility.yul\":12872:12886   */\n      add\n        /* \"#utility.yul\":12865:12917   */\n      mstore\n        /* \"#utility.yul\":12748:12924   */\n      pop\n      jump\t// out\n        /* \"#utility.yul\":12930:13296   */\n    tag_127:\n        /* \"#utility.yul\":13072:13075   */\n      0x00\n        /* \"#utility.yul\":13093:13160   */\n      tag_280\n        /* \"#utility.yul\":13157:13159   */\n      0x1a\n        /* \"#utility.yul\":13152:13155   */\n      dup4\n        /* \"#utility.yul\":13093:13160   */\n      tag_104\n      jump\t// in\n    tag_280:\n        /* \"#utility.yul\":13086:13160   */\n      swap2\n      pop\n        /* \"#utility.yul\":13169:13262   */\n      tag_281\n        /* \"#utility.yul\":13258:13261   */\n      dup3\n        /* \"#utility.yul\":13169:13262   */\n      tag_126\n      jump\t// in\n    tag_281:\n        /* \"#utility.yul\":13287:13289   */\n      0x20\n        /* \"#utility.yul\":13282:13285   */\n      dup3\n        /* \"#utility.yul\":13278:13290   */\n      add\n        /* \"#utility.yul\":13271:13290   */\n      swap1\n      pop\n        /* \"#utility.yul\":12930:13296   */\n      swap2\n      swap1\n      pop\n      jump\t// out\n        /* \"#utility.yul\":13302:13721   */\n    tag_35:\n        /* \"#utility.yul\":13468:13472   */\n      0x00\n        /* \"#utility.yul\":13506:13508   */\n      0x20\n        /* \"#utility.yul\":13495:13504   */\n      dup3\n        /* \"#utility.yul\":13491:13509   */\n      add\n        /* \"#utility.yul\":13483:13509   */\n      swap1\n      pop\n        /* \"#utility.yul\":13555:13564   */\n      dup2\n        /* \"#utility.yul\":13549:13553   */\n      dup2\n        /* \"#utility.yul\":13545:13565   */\n      sub\n        /* \"#utility.yul\":13541:13542   */\n      0x00\n        /* \"#utility.yul\":13530:13539   */\n      dup4\n        /* \"#utility.yul\":13526:13543   */\n      add\n        /* \"#utility.yul\":13519:13566   */\n      mstore\n        /* \"#utility.yul\":13583:13714   */\n      tag_283\n        /* \"#utility.yul\":13709:13713   */\n      dup2\n        /* \"#utility.yul\":13583:13714   */\n      tag_127\n      jump\t// in\n    tag_283:\n        /* \"#utility.yul\":13575:13714   */\n      swap1\n      pop\n        /* \"#utility.yul\":13302:13721   */\n      swap2\n      swap1\n      pop\n      jump\t// out\n        /* \"#utility.yul\":13727:13921   */\n    tag_54:\n        /* \"#utility.yul\":13767:13771   */\n      0x00\n        /* \"#utility.yul\":13787:13807   */\n      tag_285\n        /* \"#utility.yul\":13805:13806   */\n      dup3\n        /* \"#utility.yul\":13787:13807   */\n      tag_98\n      jump\t// in\n    tag_285:\n        /* \"#utility.yul\":13782:13807   */\n      swap2\n      pop\n        /* \"#utility.yul\":13821:13841   */\n      tag_286\n        /* \"#utility.yul\":13839:13840   */\n      dup4\n        /* \"#utility.yul\":13821:13841   */\n      tag_98\n      jump\t// in\n    tag_286:\n        /* \"#utility.yul\":13816:13841   */\n      swap3\n      pop\n        /* \"#utility.yul\":13865:13866   */\n      dup3\n        /* \"#utility.yul\":13862:13863   */\n      dup3\n        /* \"#utility.yul\":13858:13867   */\n      sub\n        /* \"#utility.yul\":13850:13867   */\n      swap1\n      pop\n        /* \"#utility.yul\":13889:13890   */\n      dup2\n        /* \"#utility.yul\":13883:13887   */\n      dup2\n        /* \"#utility.yul\":13880:13891   */\n      gt\n        /* \"#utility.yul\":13877:13914   */\n      iszero\n      tag_287\n      jumpi\n        /* \"#utility.yul\":13894:13912   */\n      tag_288\n      tag_107\n      jump\t// in\n    tag_288:\n        /* \"#utility.yul\":13877:13914   */\n    tag_287:\n        /* \"#utility.yul\":13727:13921   */\n      swap3\n      swap2\n      pop\n      pop\n      jump\t// out\n        /* \"#utility.yul\":13927:14107   */\n    tag_128:\n        /* \"#utility.yul\":13975:14052   */\n      0x4e487b7100000000000000000000000000000000000000000000000000000000\n        /* \"#utility.yul\":13972:13973   */\n      0x00\n        /* \"#utility.yul\":13965:14053   */\n      mstore\n        /* \"#utility.yul\":14072:14076   */\n      0x12\n        /* \"#utility.yul\":14069:14070   */\n      0x04\n        /* \"#utility.yul\":14062:14077   */\n      mstore\n        /* \"#utility.yul\":14096:14100   */\n      0x24\n        /* \"#utility.yul\":14093:14094   */\n      0x00\n        /* \"#utility.yul\":14086:14101   */\n      revert\n        /* \"#utility.yul\":14113:14289   */\n    tag_63:\n        /* \"#utility.yul\":14145:14146   */\n      0x00\n        /* \"#utility.yul\":14162:14182   */\n      tag_291\n        /* \"#utility.yul\":14180:14181   */\n      dup3\n        /* \"#utility.yul\":14162:14182   */\n      tag_98\n      jump\t// in\n    tag_291:\n        /* \"#utility.yul\":14157:14182   */\n      swap2\n      pop\n        /* \"#utility.yul\":14196:14216   */\n      tag_292\n        /* \"#utility.yul\":14214:14215   */\n      dup4\n        /* \"#utility.yul\":14196:14216   */\n      tag_98\n      jump\t// in\n    tag_292:\n        /* \"#utility.yul\":14191:14216   */\n      swap3\n      pop\n        /* \"#utility.yul\":14235:14236   */\n      dup3\n        /* \"#utility.yul\":14225:14260   */\n      tag_293\n      jumpi\n        /* \"#utility.yul\":14240:14258   */\n      tag_294\n      tag_128\n      jump\t// in\n    tag_294:\n        /* \"#utility.yul\":14225:14260   */\n    tag_293:\n        /* \"#utility.yul\":14281:14282   */\n      dup3\n        /* \"#utility.yul\":14278:14279   */\n      dup3\n        /* \"#utility.yul\":14274:14283   */\n      mod\n        /* \"#utility.yul\":14269:14283   */\n      swap1\n      pop\n        /* \"#utility.yul\":14113:14289   */\n      swap3\n      swap2\n      pop\n      pop\n      jump\t// out\n        /* \"#utility.yul\":14295:14480   */\n    tag_67:\n        /* \"#utility.yul\":14335:14336   */\n      0x00\n        /* \"#utility.yul\":14352:14372   */\n      tag_296\n        /* \"#utility.yul\":14370:14371   */\n      dup3\n        /* \"#utility.yul\":14352:14372   */\n      tag_98\n      jump\t// in\n    tag_296:\n        /* \"#utility.yul\":14347:14372   */\n      swap2\n      pop\n        /* \"#utility.yul\":14386:14406   */\n      tag_297\n        /* \"#utility.yul\":14404:14405   */\n      dup4\n        /* \"#utility.yul\":14386:14406   */\n      tag_98\n      jump\t// in\n    tag_297:\n        /* \"#utility.yul\":14381:14406   */\n      swap3\n      pop\n        /* \"#utility.yul\":14425:14426   */\n      dup3\n        /* \"#utility.yul\":14415:14450   */\n      tag_298\n      jumpi\n        /* \"#utility.yul\":14430:14448   */\n      tag_299\n      tag_128\n      jump\t// in\n    tag_299:\n        /* \"#utility.yul\":14415:14450   */\n    tag_298:\n        /* \"#utility.yul\":14472:14473   */\n      dup3\n        /* \"#utility.yul\":14469:14470   */\n      dup3\n        /* \"#utility.yul\":14465:14474   */\n      div\n        /* \"#utility.yul\":14460:14474   */\n      swap1\n      pop\n        /* \"#utility.yul\":14295:14480   */\n      swap3\n      swap2\n      pop\n      pop\n      jump\t// out\n\n    auxdata: 0xa26469706673582212201ed3342499b069b7136ed9a794de8665309e5253f74360f13fa966cb81f1529064736f6c634300081a0033\n}\n",
				"bytecode": {
					"linkReferences": {},
					"object": "6080604052348015600e575f80fd5b50335f806101000a81548173ffffffffffffffffffffffffffffffffffffffff021916908373ffffffffffffffffffffffffffffffffffffffff160217905550600233908060018154018082558091505060019003905f5260205f20015f9091909190916101000a81548173ffffffffffffffffffffffffffffffffffffffff021916908373ffffffffffffffffffffffffffffffffffffffff160217905550610f5d806100bb5f395ff3fe608060405234801561000f575f80fd5b506004361061003f575f3560e01c806313af4035146100435780633ca6d1001461005f578063b3f98adc1461007b575b5f80fd5b61005d6004803603810190610058919061076f565b610097565b005b61007960048036038101906100749190610966565b610166565b005b61009560048036038101906100909190610a29565b61033a565b005b5f8054906101000a900473ffffffffffffffffffffffffffffffffffffffff1673ffffffffffffffffffffffffffffffffffffffff163373ffffffffffffffffffffffffffffffffffffffff1614610124576040517f08c379a000000000000000000000000000000000000000000000000000000000815260040161011b90610aae565b60405180910390fd5b805f806101000a81548173ffffffffffffffffffffffffffffffffffffffff021916908373ffffffffffffffffffffffffffffffffffffffff16021790555050565b5f8054906101000a900473ffffffffffffffffffffffffffffffffffffffff1673ffffffffffffffffffffffffffffffffffffffff163373ffffffffffffffffffffffffffffffffffffffff16146101f3576040517f08c379a00000000000000000000000000000000000000000000000000000000081526004016101ea90610aae565b60405180910390fd5b6001805f8282546102049190610af9565b9250508190555060405180610100016040528085815260200184848080601f0160208091040260200160405190810160405280939291908181526020018383808284375f81840152601f19601f8201169050808301925050505050505081526020015f81526020015f81526020015f81526020018281526020015f151581526020016001151581525060035f60015481526020019081526020015f205f820151815f0190816102b39190610d30565b5060208201518160010190816102c99190610d30565b5060408201518160020155606082015181600301556080820151816004015560a0820151816005015560c0820151816006015f6101000a81548160ff02191690831515021790555060e08201518160060160016101000a81548160ff02191690831515021790555090505050505050565b60035f60015481526020019081526020015f2060060160019054906101000a900460ff1661039d576040517f08c379a000000000000000000000000000000000000000000000000000000000815260040161039490610e49565b60405180910390fd5b5f60035f60015481526020019081526020015f2090505f8160040154826002015483600301546103cd9190610af9565b6103d79190610af9565b905060018360ff1603610404576001826002015f8282546103f89190610af9565b92505081905550610458565b60028360ff160361042f576001826003015f8282546104239190610af9565b92505081905550610457565b60028360ff1603610456576001826004015f82825461044e9190610af9565b925050819055505b5b5b5f8360ff16148061046c575060018360ff16145b8061047a575060028360ff16145b156105cc57600233908060018154018082558091505060019003905f5260205f20015f9091909190916101000a81548173ffffffffffffffffffffffffffffffffffffffff021916908373ffffffffffffffffffffffffffffffffffffffff1602179055506104e76105d1565b826006015f6101000a81548160ff02191690831515021790555060018183600501546105139190610e67565b14801561053e575060018360ff161480610530575060028360ff16145b8061053d57505f8360ff16145b5b156105cb575f8260060160016101000a81548160ff02191690831515021790555060405180602001604052805f8054906101000a900473ffffffffffffffffffffffffffffffffffffffff1673ffffffffffffffffffffffffffffffffffffffff1673ffffffffffffffffffffffffffffffffffffffff1681525060029060016105c9929190610662565b505b5b505050565b5f8060035f60015481526020019081526020015f2090505f816002015490505f826003015490505f836004015490506001600285600401546106139190610ec7565b03610628576001816106259190610af9565b90505b6002816106359190610ef7565b905080826106439190610af9565b83111561065757600194505050505061065f565b5f9450505050505b90565b828054828255905f5260205f209081019282156106d8579160200282015b828111156106d7578251825f6101000a81548173ffffffffffffffffffffffffffffffffffffffff021916908373ffffffffffffffffffffffffffffffffffffffff16021790555091602001919060010190610680565b5b5090506106e591906106e9565b5090565b5b80821115610700575f815f9055506001016106ea565b5090565b5f604051905090565b5f80fd5b5f80fd5b5f73ffffffffffffffffffffffffffffffffffffffff82169050919050565b5f61073e82610715565b9050919050565b61074e81610734565b8114610758575f80fd5b50565b5f8135905061076981610745565b92915050565b5f602082840312156107845761078361070d565b5b5f6107918482850161075b565b91505092915050565b5f80fd5b5f80fd5b5f601f19601f8301169050919050565b7f4e487b71000000000000000000000000000000000000000000000000000000005f52604160045260245ffd5b6107e8826107a2565b810181811067ffffffffffffffff82111715610807576108066107b2565b5b80604052505050565b5f610819610704565b905061082582826107df565b919050565b5f67ffffffffffffffff821115610844576108436107b2565b5b61084d826107a2565b9050602081019050919050565b828183375f83830152505050565b5f61087a6108758461082a565b610810565b9050828152602081018484840111156108965761089561079e565b5b6108a184828561085a565b509392505050565b5f82601f8301126108bd576108bc61079a565b5b81356108cd848260208601610868565b91505092915050565b5f80fd5b5f80fd5b5f8083601f8401126108f3576108f261079a565b5b8235905067ffffffffffffffff8111156109105761090f6108d6565b5b60208301915083600182028301111561092c5761092b6108da565b5b9250929050565b5f819050919050565b61094581610933565b811461094f575f80fd5b50565b5f813590506109608161093c565b92915050565b5f805f806060858703121561097e5761097d61070d565b5b5f85013567ffffffffffffffff81111561099b5761099a610711565b5b6109a7878288016108a9565b945050602085013567ffffffffffffffff8111156109c8576109c7610711565b5b6109d4878288016108de565b935093505060406109e787828801610952565b91505092959194509250565b5f60ff82169050919050565b610a08816109f3565b8114610a12575f80fd5b50565b5f81359050610a23816109ff565b92915050565b5f60208284031215610a3e57610a3d61070d565b5b5f610a4b84828501610a15565b91505092915050565b5f82825260208201905092915050565b7f4f6e6c79204f776e65722063616e0000000000000000000000000000000000005f82015250565b5f610a98600e83610a54565b9150610aa382610a64565b602082019050919050565b5f6020820190508181035f830152610ac581610a8c565b9050919050565b7f4e487b71000000000000000000000000000000000000000000000000000000005f52601160045260245ffd5b5f610b0382610933565b9150610b0e83610933565b9250828201905080821115610b2657610b25610acc565b5b92915050565b5f81519050919050565b7f4e487b71000000000000000000000000000000000000000000000000000000005f52602260045260245ffd5b5f6002820490506001821680610b7a57607f821691505b602082108103610b8d57610b8c610b36565b5b50919050565b5f819050815f5260205f209050919050565b5f6020601f8301049050919050565b5f82821b905092915050565b5f60088302610bef7fffffffffffffffffffffffffffffffffffffffffffffffffffffffffffffffff82610bb4565b610bf98683610bb4565b95508019841693508086168417925050509392505050565b5f819050919050565b5f610c34610c2f610c2a84610933565b610c11565b610933565b9050919050565b5f819050919050565b610c4d83610c1a565b610c61610c5982610c3b565b848454610bc0565b825550505050565b5f90565b610c75610c69565b610c80818484610c44565b505050565b5b81811015610ca357610c985f82610c6d565b600181019050610c86565b5050565b601f821115610ce857610cb981610b93565b610cc284610ba5565b81016020851015610cd1578190505b610ce5610cdd85610ba5565b830182610c85565b50505b505050565b5f82821c905092915050565b5f610d085f1984600802610ced565b1980831691505092915050565b5f610d208383610cf9565b9150826002028217905092915050565b610d3982610b2c565b67ffffffffffffffff811115610d5257610d516107b2565b5b610d5c8254610b63565b610d67828285610ca7565b5f60209050601f831160018114610d98575f8415610d86578287015190505b610d908582610d15565b865550610df7565b601f198416610da686610b93565b5f5b82811015610dcd57848901518255600182019150602085019450602081019050610da8565b86831015610dea5784890151610de6601f891682610cf9565b8355505b6001600288020188555050505b505050505050565b7f5468652070726f706f73616c206973206e6f74206163746976650000000000005f82015250565b5f610e33601a83610a54565b9150610e3e82610dff565b602082019050919050565b5f6020820190508181035f830152610e6081610e27565b9050919050565b5f610e7182610933565b9150610e7c83610933565b9250828203905081811115610e9457610e93610acc565b5b92915050565b7f4e487b71000000000000000000000000000000000000000000000000000000005f52601260045260245ffd5b5f610ed182610933565b9150610edc83610933565b925082610eec57610eeb610e9a565b5b828206905092915050565b5f610f0182610933565b9150610f0c83610933565b925082610f1c57610f1b610e9a565b5b82820490509291505056fea26469706673582212201ed3342499b069b7136ed9a794de8665309e5253f74360f13fa966cb81f1529064736f6c634300081a0033",
					"opcodes": "PUSH1 0x80 PUSH1 0x40 MSTORE CALLVALUE DUP1 ISZERO PUSH1 0xE JUMPI PUSH0 DUP1 REVERT JUMPDEST POP CALLER PUSH0 DUP1 PUSH2 0x100 EXP DUP2 SLOAD DUP2 PUSH20 0xFFFFFFFFFFFFFFFFFFFFFFFFFFFFFFFFFFFFFFFF MUL NOT AND SWAP1 DUP4 PUSH20 0xFFFFFFFFFFFFFFFFFFFFFFFFFFFFFFFFFFFFFFFF AND MUL OR SWAP1 SSTORE POP PUSH1 0x2 CALLER SWAP1 DUP1 PUSH1 0x1 DUP2 SLOAD ADD DUP1 DUP3 SSTORE DUP1 SWAP2 POP POP PUSH1 0x1 SWAP1 SUB SWAP1 PUSH0 MSTORE PUSH1 0x20 PUSH0 KECCAK256 ADD PUSH0 SWAP1 SWAP2 SWAP1 SWAP2 SWAP1 SWAP2 PUSH2 0x100 EXP DUP2 SLOAD DUP2 PUSH20 0xFFFFFFFFFFFFFFFFFFFFFFFFFFFFFFFFFFFFFFFF MUL NOT AND SWAP1 DUP4 PUSH20 0xFFFFFFFFFFFFFFFFFFFFFFFFFFFFFFFFFFFFFFFF AND MUL OR SWAP1 SSTORE POP PUSH2 0xF5D DUP1 PUSH2 0xBB PUSH0 CODECOPY PUSH0 RETURN INVALID PUSH1 0x80 PUSH1 0x40 MSTORE CALLVALUE DUP1 ISZERO PUSH2 0xF JUMPI PUSH0 DUP1 REVERT JUMPDEST POP PUSH1 0x4 CALLDATASIZE LT PUSH2 0x3F JUMPI PUSH0 CALLDATALOAD PUSH1 0xE0 SHR DUP1 PUSH4 0x13AF4035 EQ PUSH2 0x43 JUMPI DUP1 PUSH4 0x3CA6D100 EQ PUSH2 0x5F JUMPI DUP1 PUSH4 0xB3F98ADC EQ PUSH2 0x7B JUMPI JUMPDEST PUSH0 DUP1 REVERT JUMPDEST PUSH2 0x5D PUSH1 0x4 DUP1 CALLDATASIZE SUB DUP2 ADD SWAP1 PUSH2 0x58 SWAP2 SWAP1 PUSH2 0x76F JUMP JUMPDEST PUSH2 0x97 JUMP JUMPDEST STOP JUMPDEST PUSH2 0x79 PUSH1 0x4 DUP1 CALLDATASIZE SUB DUP2 ADD SWAP1 PUSH2 0x74 SWAP2 SWAP1 PUSH2 0x966 JUMP JUMPDEST PUSH2 0x166 JUMP JUMPDEST STOP JUMPDEST PUSH2 0x95 PUSH1 0x4 DUP1 CALLDATASIZE SUB DUP2 ADD SWAP1 PUSH2 0x90 SWAP2 SWAP1 PUSH2 0xA29 JUMP JUMPDEST PUSH2 0x33A JUMP JUMPDEST STOP JUMPDEST PUSH0 DUP1 SLOAD SWAP1 PUSH2 0x100 EXP SWAP1 DIV PUSH20 0xFFFFFFFFFFFFFFFFFFFFFFFFFFFFFFFFFFFFFFFF AND PUSH20 0xFFFFFFFFFFFFFFFFFFFFFFFFFFFFFFFFFFFFFFFF AND CALLER PUSH20 0xFFFFFFFFFFFFFFFFFFFFFFFFFFFFFFFFFFFFFFFF AND EQ PUSH2 0x124 JUMPI PUSH1 0x40 MLOAD PUSH32 0x8C379A000000000000000000000000000000000000000000000000000000000 DUP2 MSTORE PUSH1 0x4 ADD PUSH2 0x11B SWAP1 PUSH2 0xAAE JUMP JUMPDEST PUSH1 0x40 MLOAD DUP1 SWAP2 SUB SWAP1 REVERT JUMPDEST DUP1 PUSH0 DUP1 PUSH2 0x100 EXP DUP2 SLOAD DUP2 PUSH20 0xFFFFFFFFFFFFFFFFFFFFFFFFFFFFFFFFFFFFFFFF MUL NOT AND SWAP1 DUP4 PUSH20 0xFFFFFFFFFFFFFFFFFFFFFFFFFFFFFFFFFFFFFFFF AND MUL OR SWAP1 SSTORE POP POP JUMP JUMPDEST PUSH0 DUP1 SLOAD SWAP1 PUSH2 0x100 EXP SWAP1 DIV PUSH20 0xFFFFFFFFFFFFFFFFFFFFFFFFFFFFFFFFFFFFFFFF AND PUSH20 0xFFFFFFFFFFFFFFFFFFFFFFFFFFFFFFFFFFFFFFFF AND CALLER PUSH20 0xFFFFFFFFFFFFFFFFFFFFFFFFFFFFFFFFFFFFFFFF AND EQ PUSH2 0x1F3 JUMPI PUSH1 0x40 MLOAD PUSH32 0x8C379A000000000000000000000000000000000000000000000000000000000 DUP2 MSTORE PUSH1 0x4 ADD PUSH2 0x1EA SWAP1 PUSH2 0xAAE JUMP JUMPDEST PUSH1 0x40 MLOAD DUP1 SWAP2 SUB SWAP1 REVERT JUMPDEST PUSH1 0x1 DUP1 PUSH0 DUP3 DUP3 SLOAD PUSH2 0x204 SWAP2 SWAP1 PUSH2 0xAF9 JUMP JUMPDEST SWAP3 POP POP DUP2 SWAP1 SSTORE POP PUSH1 0x40 MLOAD DUP1 PUSH2 0x100 ADD PUSH1 0x40 MSTORE DUP1 DUP6 DUP2 MSTORE PUSH1 0x20 ADD DUP5 DUP5 DUP1 DUP1 PUSH1 0x1F ADD PUSH1 0x20 DUP1 SWAP2 DIV MUL PUSH1 0x20 ADD PUSH1 0x40 MLOAD SWAP1 DUP2 ADD PUSH1 0x40 MSTORE DUP1 SWAP4 SWAP3 SWAP2 SWAP1 DUP2 DUP2 MSTORE PUSH1 0x20 ADD DUP4 DUP4 DUP1 DUP3 DUP5 CALLDATACOPY PUSH0 DUP2 DUP5 ADD MSTORE PUSH1 0x1F NOT PUSH1 0x1F DUP3 ADD AND SWAP1 POP DUP1 DUP4 ADD SWAP3 POP POP POP POP POP POP POP DUP2 MSTORE PUSH1 0x20 ADD PUSH0 DUP2 MSTORE PUSH1 0x20 ADD PUSH0 DUP2 MSTORE PUSH1 0x20 ADD PUSH0 DUP2 MSTORE PUSH1 0x20 ADD DUP3 DUP2 MSTORE PUSH1 0x20 ADD PUSH0 ISZERO ISZERO DUP2 MSTORE PUSH1 0x20 ADD PUSH1 0x1 ISZERO ISZERO DUP2 MSTORE POP PUSH1 0x3 PUSH0 PUSH1 0x1 SLOAD DUP2 MSTORE PUSH1 0x20 ADD SWAP1 DUP2 MSTORE PUSH1 0x20 ADD PUSH0 KECCAK256 PUSH0 DUP3 ADD MLOAD DUP2 PUSH0 ADD SWAP1 DUP2 PUSH2 0x2B3 SWAP2 SWAP1 PUSH2 0xD30 JUMP JUMPDEST POP PUSH1 0x20 DUP3 ADD MLOAD DUP2 PUSH1 0x1 ADD SWAP1 DUP2 PUSH2 0x2C9 SWAP2 SWAP1 PUSH2 0xD30 JUMP JUMPDEST POP PUSH1 0x40 DUP3 ADD MLOAD DUP2 PUSH1 0x2 ADD SSTORE PUSH1 0x60 DUP3 ADD MLOAD DUP2 PUSH1 0x3 ADD SSTORE PUSH1 0x80 DUP3 ADD MLOAD DUP2 PUSH1 0x4 ADD SSTORE PUSH1 0xA0 DUP3 ADD MLOAD DUP2 PUSH1 0x5 ADD SSTORE PUSH1 0xC0 DUP3 ADD MLOAD DUP2 PUSH1 0x6 ADD PUSH0 PUSH2 0x100 EXP DUP2 SLOAD DUP2 PUSH1 0xFF MUL NOT AND SWAP1 DUP4 ISZERO ISZERO MUL OR SWAP1 SSTORE POP PUSH1 0xE0 DUP3 ADD MLOAD DUP2 PUSH1 0x6 ADD PUSH1 0x1 PUSH2 0x100 EXP DUP2 SLOAD DUP2 PUSH1 0xFF MUL NOT AND SWAP1 DUP4 ISZERO ISZERO MUL OR SWAP1 SSTORE POP SWAP1 POP POP POP POP POP POP JUMP JUMPDEST PUSH1 0x3 PUSH0 PUSH1 0x1 SLOAD DUP2 MSTORE PUSH1 0x20 ADD SWAP1 DUP2 MSTORE PUSH1 0x20 ADD PUSH0 KECCAK256 PUSH1 0x6 ADD PUSH1 0x1 SWAP1 SLOAD SWAP1 PUSH2 0x100 EXP SWAP1 DIV PUSH1 0xFF AND PUSH2 0x39D JUMPI PUSH1 0x40 MLOAD PUSH32 0x8C379A000000000000000000000000000000000000000000000000000000000 DUP2 MSTORE PUSH1 0x4 ADD PUSH2 0x394 SWAP1 PUSH2 0xE49 JUMP JUMPDEST PUSH1 0x40 MLOAD DUP1 SWAP2 SUB SWAP1 REVERT JUMPDEST PUSH0 PUSH1 0x3 PUSH0 PUSH1 0x1 SLOAD DUP2 MSTORE PUSH1 0x20 ADD SWAP1 DUP2 MSTORE PUSH1 0x20 ADD PUSH0 KECCAK256 SWAP1 POP PUSH0 DUP2 PUSH1 0x4 ADD SLOAD DUP3 PUSH1 0x2 ADD SLOAD DUP4 PUSH1 0x3 ADD SLOAD PUSH2 0x3CD SWAP2 SWAP1 PUSH2 0xAF9 JUMP JUMPDEST PUSH2 0x3D7 SWAP2 SWAP1 PUSH2 0xAF9 JUMP JUMPDEST SWAP1 POP PUSH1 0x1 DUP4 PUSH1 0xFF AND SUB PUSH2 0x404 JUMPI PUSH1 0x1 DUP3 PUSH1 0x2 ADD PUSH0 DUP3 DUP3 SLOAD PUSH2 0x3F8 SWAP2 SWAP1 PUSH2 0xAF9 JUMP JUMPDEST SWAP3 POP POP DUP2 SWAP1 SSTORE POP PUSH2 0x458 JUMP JUMPDEST PUSH1 0x2 DUP4 PUSH1 0xFF AND SUB PUSH2 0x42F JUMPI PUSH1 0x1 DUP3 PUSH1 0x3 ADD PUSH0 DUP3 DUP3 SLOAD PUSH2 0x423 SWAP2 SWAP1 PUSH2 0xAF9 JUMP JUMPDEST SWAP3 POP POP DUP2 SWAP1 SSTORE POP PUSH2 0x457 JUMP JUMPDEST PUSH1 0x2 DUP4 PUSH1 0xFF AND SUB PUSH2 0x456 JUMPI PUSH1 0x1 DUP3 PUSH1 0x4 ADD PUSH0 DUP3 DUP3 SLOAD PUSH2 0x44E SWAP2 SWAP1 PUSH2 0xAF9 JUMP JUMPDEST SWAP3 POP POP DUP2 SWAP1 SSTORE POP JUMPDEST JUMPDEST JUMPDEST PUSH0 DUP4 PUSH1 0xFF AND EQ DUP1 PUSH2 0x46C JUMPI POP PUSH1 0x1 DUP4 PUSH1 0xFF AND EQ JUMPDEST DUP1 PUSH2 0x47A JUMPI POP PUSH1 0x2 DUP4 PUSH1 0xFF AND EQ JUMPDEST ISZERO PUSH2 0x5CC JUMPI PUSH1 0x2 CALLER SWAP1 DUP1 PUSH1 0x1 DUP2 SLOAD ADD DUP1 DUP3 SSTORE DUP1 SWAP2 POP POP PUSH1 0x1 SWAP1 SUB SWAP1 PUSH0 MSTORE PUSH1 0x20 PUSH0 KECCAK256 ADD PUSH0 SWAP1 SWAP2 SWAP1 SWAP2 SWAP1 SWAP2 PUSH2 0x100 EXP DUP2 SLOAD DUP2 PUSH20 0xFFFFFFFFFFFFFFFFFFFFFFFFFFFFFFFFFFFFFFFF MUL NOT AND SWAP1 DUP4 PUSH20 0xFFFFFFFFFFFFFFFFFFFFFFFFFFFFFFFFFFFFFFFF AND MUL OR SWAP1 SSTORE POP PUSH2 0x4E7 PUSH2 0x5D1 JUMP JUMPDEST DUP3 PUSH1 0x6 ADD PUSH0 PUSH2 0x100 EXP DUP2 SLOAD DUP2 PUSH1 0xFF MUL NOT AND SWAP1 DUP4 ISZERO ISZERO MUL OR SWAP1 SSTORE POP PUSH1 0x1 DUP2 DUP4 PUSH1 0x5 ADD SLOAD PUSH2 0x513 SWAP2 SWAP1 PUSH2 0xE67 JUMP JUMPDEST EQ DUP1 ISZERO PUSH2 0x53E JUMPI POP PUSH1 0x1 DUP4 PUSH1 0xFF AND EQ DUP1 PUSH2 0x530 JUMPI POP PUSH1 0x2 DUP4 PUSH1 0xFF AND EQ JUMPDEST DUP1 PUSH2 0x53D JUMPI POP PUSH0 DUP4 PUSH1 0xFF AND EQ JUMPDEST JUMPDEST ISZERO PUSH2 0x5CB JUMPI PUSH0 DUP3 PUSH1 0x6 ADD PUSH1 0x1 PUSH2 0x100 EXP DUP2 SLOAD DUP2 PUSH1 0xFF MUL NOT AND SWAP1 DUP4 ISZERO ISZERO MUL OR SWAP1 SSTORE POP PUSH1 0x40 MLOAD DUP1 PUSH1 0x20 ADD PUSH1 0x40 MSTORE DUP1 PUSH0 DUP1 SLOAD SWAP1 PUSH2 0x100 EXP SWAP1 DIV PUSH20 0xFFFFFFFFFFFFFFFFFFFFFFFFFFFFFFFFFFFFFFFF AND PUSH20 0xFFFFFFFFFFFFFFFFFFFFFFFFFFFFFFFFFFFFFFFF AND PUSH20 0xFFFFFFFFFFFFFFFFFFFFFFFFFFFFFFFFFFFFFFFF AND DUP2 MSTORE POP PUSH1 0x2 SWAP1 PUSH1 0x1 PUSH2 0x5C9 SWAP3 SWAP2 SWAP1 PUSH2 0x662 JUMP JUMPDEST POP JUMPDEST JUMPDEST POP POP POP JUMP JUMPDEST PUSH0 DUP1 PUSH1 0x3 PUSH0 PUSH1 0x1 SLOAD DUP2 MSTORE PUSH1 0x20 ADD SWAP1 DUP2 MSTORE PUSH1 0x20 ADD PUSH0 KECCAK256 SWAP1 POP PUSH0 DUP2 PUSH1 0x2 ADD SLOAD SWAP1 POP PUSH0 DUP3 PUSH1 0x3 ADD SLOAD SWAP1 POP PUSH0 DUP4 PUSH1 0x4 ADD SLOAD SWAP1 POP PUSH1 0x1 PUSH1 0x2 DUP6 PUSH1 0x4 ADD SLOAD PUSH2 0x613 SWAP2 SWAP1 PUSH2 0xEC7 JUMP JUMPDEST SUB PUSH2 0x628 JUMPI PUSH1 0x1 DUP2 PUSH2 0x625 SWAP2 SWAP1 PUSH2 0xAF9 JUMP JUMPDEST SWAP1 POP JUMPDEST PUSH1 0x2 DUP2 PUSH2 0x635 SWAP2 SWAP1 PUSH2 0xEF7 JUMP JUMPDEST SWAP1 POP DUP1 DUP3 PUSH2 0x643 SWAP2 SWAP1 PUSH2 0xAF9 JUMP JUMPDEST DUP4 GT ISZERO PUSH2 0x657 JUMPI PUSH1 0x1 SWAP5 POP POP POP POP POP PUSH2 0x65F JUMP JUMPDEST PUSH0 SWAP5 POP POP POP POP POP JUMPDEST SWAP1 JUMP JUMPDEST DUP3 DUP1 SLOAD DUP3 DUP3 SSTORE SWAP1 PUSH0 MSTORE PUSH1 0x20 PUSH0 KECCAK256 SWAP1 DUP2 ADD SWAP3 DUP3 ISZERO PUSH2 0x6D8 JUMPI SWAP2 PUSH1 0x20 MUL DUP3 ADD JUMPDEST DUP3 DUP2 GT ISZERO PUSH2 0x6D7 JUMPI DUP3 MLOAD DUP3 PUSH0 PUSH2 0x100 EXP DUP2 SLOAD DUP2 PUSH20 0xFFFFFFFFFFFFFFFFFFFFFFFFFFFFFFFFFFFFFFFF MUL NOT AND SWAP1 DUP4 PUSH20 0xFFFFFFFFFFFFFFFFFFFFFFFFFFFFFFFFFFFFFFFF AND MUL OR SWAP1 SSTORE POP SWAP2 PUSH1 0x20 ADD SWAP2 SWAP1 PUSH1 0x1 ADD SWAP1 PUSH2 0x680 JUMP JUMPDEST JUMPDEST POP SWAP1 POP PUSH2 0x6E5 SWAP2 SWAP1 PUSH2 0x6E9 JUMP JUMPDEST POP SWAP1 JUMP JUMPDEST JUMPDEST DUP1 DUP3 GT ISZERO PUSH2 0x700 JUMPI PUSH0 DUP2 PUSH0 SWAP1 SSTORE POP PUSH1 0x1 ADD PUSH2 0x6EA JUMP JUMPDEST POP SWAP1 JUMP JUMPDEST PUSH0 PUSH1 0x40 MLOAD SWAP1 POP SWAP1 JUMP JUMPDEST PUSH0 DUP1 REVERT JUMPDEST PUSH0 DUP1 REVERT JUMPDEST PUSH0 PUSH20 0xFFFFFFFFFFFFFFFFFFFFFFFFFFFFFFFFFFFFFFFF DUP3 AND SWAP1 POP SWAP2 SWAP1 POP JUMP JUMPDEST PUSH0 PUSH2 0x73E DUP3 PUSH2 0x715 JUMP JUMPDEST SWAP1 POP SWAP2 SWAP1 POP JUMP JUMPDEST PUSH2 0x74E DUP2 PUSH2 0x734 JUMP JUMPDEST DUP2 EQ PUSH2 0x758 JUMPI PUSH0 DUP1 REVERT JUMPDEST POP JUMP JUMPDEST PUSH0 DUP2 CALLDATALOAD SWAP1 POP PUSH2 0x769 DUP2 PUSH2 0x745 JUMP JUMPDEST SWAP3 SWAP2 POP POP JUMP JUMPDEST PUSH0 PUSH1 0x20 DUP3 DUP5 SUB SLT ISZERO PUSH2 0x784 JUMPI PUSH2 0x783 PUSH2 0x70D JUMP JUMPDEST JUMPDEST PUSH0 PUSH2 0x791 DUP5 DUP3 DUP6 ADD PUSH2 0x75B JUMP JUMPDEST SWAP2 POP POP SWAP3 SWAP2 POP POP JUMP JUMPDEST PUSH0 DUP1 REVERT JUMPDEST PUSH0 DUP1 REVERT JUMPDEST PUSH0 PUSH1 0x1F NOT PUSH1 0x1F DUP4 ADD AND SWAP1 POP SWAP2 SWAP1 POP JUMP JUMPDEST PUSH32 0x4E487B7100000000000000000000000000000000000000000000000000000000 PUSH0 MSTORE PUSH1 0x41 PUSH1 0x4 MSTORE PUSH1 0x24 PUSH0 REVERT JUMPDEST PUSH2 0x7E8 DUP3 PUSH2 0x7A2 JUMP JUMPDEST DUP2 ADD DUP2 DUP2 LT PUSH8 0xFFFFFFFFFFFFFFFF DUP3 GT OR ISZERO PUSH2 0x807 JUMPI PUSH2 0x806 PUSH2 0x7B2 JUMP JUMPDEST JUMPDEST DUP1 PUSH1 0x40 MSTORE POP POP POP JUMP JUMPDEST PUSH0 PUSH2 0x819 PUSH2 0x704 JUMP JUMPDEST SWAP1 POP PUSH2 0x825 DUP3 DUP3 PUSH2 0x7DF JUMP JUMPDEST SWAP2 SWAP1 POP JUMP JUMPDEST PUSH0 PUSH8 0xFFFFFFFFFFFFFFFF DUP3 GT ISZERO PUSH2 0x844 JUMPI PUSH2 0x843 PUSH2 0x7B2 JUMP JUMPDEST JUMPDEST PUSH2 0x84D DUP3 PUSH2 0x7A2 JUMP JUMPDEST SWAP1 POP PUSH1 0x20 DUP2 ADD SWAP1 POP SWAP2 SWAP1 POP JUMP JUMPDEST DUP3 DUP2 DUP4 CALLDATACOPY PUSH0 DUP4 DUP4 ADD MSTORE POP POP POP JUMP JUMPDEST PUSH0 PUSH2 0x87A PUSH2 0x875 DUP5 PUSH2 0x82A JUMP JUMPDEST PUSH2 0x810 JUMP JUMPDEST SWAP1 POP DUP3 DUP2 MSTORE PUSH1 0x20 DUP2 ADD DUP5 DUP5 DUP5 ADD GT ISZERO PUSH2 0x896 JUMPI PUSH2 0x895 PUSH2 0x79E JUMP JUMPDEST JUMPDEST PUSH2 0x8A1 DUP5 DUP3 DUP6 PUSH2 0x85A JUMP JUMPDEST POP SWAP4 SWAP3 POP POP POP JUMP JUMPDEST PUSH0 DUP3 PUSH1 0x1F DUP4 ADD SLT PUSH2 0x8BD JUMPI PUSH2 0x8BC PUSH2 0x79A JUMP JUMPDEST JUMPDEST DUP2 CALLDATALOAD PUSH2 0x8CD DUP5 DUP3 PUSH1 0x20 DUP7 ADD PUSH2 0x868 JUMP JUMPDEST SWAP2 POP POP SWAP3 SWAP2 POP POP JUMP JUMPDEST PUSH0 DUP1 REVERT JUMPDEST PUSH0 DUP1 REVERT JUMPDEST PUSH0 DUP1 DUP4 PUSH1 0x1F DUP5 ADD SLT PUSH2 0x8F3 JUMPI PUSH2 0x8F2 PUSH2 0x79A JUMP JUMPDEST JUMPDEST DUP3 CALLDATALOAD SWAP1 POP PUSH8 0xFFFFFFFFFFFFFFFF DUP2 GT ISZERO PUSH2 0x910 JUMPI PUSH2 0x90F PUSH2 0x8D6 JUMP JUMPDEST JUMPDEST PUSH1 0x20 DUP4 ADD SWAP2 POP DUP4 PUSH1 0x1 DUP3 MUL DUP4 ADD GT ISZERO PUSH2 0x92C JUMPI PUSH2 0x92B PUSH2 0x8DA JUMP JUMPDEST JUMPDEST SWAP3 POP SWAP3 SWAP1 POP JUMP JUMPDEST PUSH0 DUP2 SWAP1 POP SWAP2 SWAP1 POP JUMP JUMPDEST PUSH2 0x945 DUP2 PUSH2 0x933 JUMP JUMPDEST DUP2 EQ PUSH2 0x94F JUMPI PUSH0 DUP1 REVERT JUMPDEST POP JUMP JUMPDEST PUSH0 DUP2 CALLDATALOAD SWAP1 POP PUSH2 0x960 DUP2 PUSH2 0x93C JUMP JUMPDEST SWAP3 SWAP2 POP POP JUMP JUMPDEST PUSH0 DUP1 PUSH0 DUP1 PUSH1 0x60 DUP6 DUP8 SUB SLT ISZERO PUSH2 0x97E JUMPI PUSH2 0x97D PUSH2 0x70D JUMP JUMPDEST JUMPDEST PUSH0 DUP6 ADD CALLDATALOAD PUSH8 0xFFFFFFFFFFFFFFFF DUP2 GT ISZERO PUSH2 0x99B JUMPI PUSH2 0x99A PUSH2 0x711 JUMP JUMPDEST JUMPDEST PUSH2 0x9A7 DUP8 DUP3 DUP9 ADD PUSH2 0x8A9 JUMP JUMPDEST SWAP5 POP POP PUSH1 0x20 DUP6 ADD CALLDATALOAD PUSH8 0xFFFFFFFFFFFFFFFF DUP2 GT ISZERO PUSH2 0x9C8 JUMPI PUSH2 0x9C7 PUSH2 0x711 JUMP JUMPDEST JUMPDEST PUSH2 0x9D4 DUP8 DUP3 DUP9 ADD PUSH2 0x8DE JUMP JUMPDEST SWAP4 POP SWAP4 POP POP PUSH1 0x40 PUSH2 0x9E7 DUP8 DUP3 DUP9 ADD PUSH2 0x952 JUMP JUMPDEST SWAP2 POP POP SWAP3 SWAP6 SWAP2 SWAP5 POP SWAP3 POP JUMP JUMPDEST PUSH0 PUSH1 0xFF DUP3 AND SWAP1 POP SWAP2 SWAP1 POP JUMP JUMPDEST PUSH2 0xA08 DUP2 PUSH2 0x9F3 JUMP JUMPDEST DUP2 EQ PUSH2 0xA12 JUMPI PUSH0 DUP1 REVERT JUMPDEST POP JUMP JUMPDEST PUSH0 DUP2 CALLDATALOAD SWAP1 POP PUSH2 0xA23 DUP2 PUSH2 0x9FF JUMP JUMPDEST SWAP3 SWAP2 POP POP JUMP JUMPDEST PUSH0 PUSH1 0x20 DUP3 DUP5 SUB SLT ISZERO PUSH2 0xA3E JUMPI PUSH2 0xA3D PUSH2 0x70D JUMP JUMPDEST JUMPDEST PUSH0 PUSH2 0xA4B DUP5 DUP3 DUP6 ADD PUSH2 0xA15 JUMP JUMPDEST SWAP2 POP POP SWAP3 SWAP2 POP POP JUMP JUMPDEST PUSH0 DUP3 DUP3 MSTORE PUSH1 0x20 DUP3 ADD SWAP1 POP SWAP3 SWAP2 POP POP JUMP JUMPDEST PUSH32 0x4F6E6C79204F776E65722063616E000000000000000000000000000000000000 PUSH0 DUP3 ADD MSTORE POP JUMP JUMPDEST PUSH0 PUSH2 0xA98 PUSH1 0xE DUP4 PUSH2 0xA54 JUMP JUMPDEST SWAP2 POP PUSH2 0xAA3 DUP3 PUSH2 0xA64 JUMP JUMPDEST PUSH1 0x20 DUP3 ADD SWAP1 POP SWAP2 SWAP1 POP JUMP JUMPDEST PUSH0 PUSH1 0x20 DUP3 ADD SWAP1 POP DUP2 DUP2 SUB PUSH0 DUP4 ADD MSTORE PUSH2 0xAC5 DUP2 PUSH2 0xA8C JUMP JUMPDEST SWAP1 POP SWAP2 SWAP1 POP JUMP JUMPDEST PUSH32 0x4E487B7100000000000000000000000000000000000000000000000000000000 PUSH0 MSTORE PUSH1 0x11 PUSH1 0x4 MSTORE PUSH1 0x24 PUSH0 REVERT JUMPDEST PUSH0 PUSH2 0xB03 DUP3 PUSH2 0x933 JUMP JUMPDEST SWAP2 POP PUSH2 0xB0E DUP4 PUSH2 0x933 JUMP JUMPDEST SWAP3 POP DUP3 DUP3 ADD SWAP1 POP DUP1 DUP3 GT ISZERO PUSH2 0xB26 JUMPI PUSH2 0xB25 PUSH2 0xACC JUMP JUMPDEST JUMPDEST SWAP3 SWAP2 POP POP JUMP JUMPDEST PUSH0 DUP2 MLOAD SWAP1 POP SWAP2 SWAP1 POP JUMP JUMPDEST PUSH32 0x4E487B7100000000000000000000000000000000000000000000000000000000 PUSH0 MSTORE PUSH1 0x22 PUSH1 0x4 MSTORE PUSH1 0x24 PUSH0 REVERT JUMPDEST PUSH0 PUSH1 0x2 DUP3 DIV SWAP1 POP PUSH1 0x1 DUP3 AND DUP1 PUSH2 0xB7A JUMPI PUSH1 0x7F DUP3 AND SWAP2 POP JUMPDEST PUSH1 0x20 DUP3 LT DUP2 SUB PUSH2 0xB8D JUMPI PUSH2 0xB8C PUSH2 0xB36 JUMP JUMPDEST JUMPDEST POP SWAP2 SWAP1 POP JUMP JUMPDEST PUSH0 DUP2 SWAP1 POP DUP2 PUSH0 MSTORE PUSH1 0x20 PUSH0 KECCAK256 SWAP1 POP SWAP2 SWAP1 POP JUMP JUMPDEST PUSH0 PUSH1 0x20 PUSH1 0x1F DUP4 ADD DIV SWAP1 POP SWAP2 SWAP1 POP JUMP JUMPDEST PUSH0 DUP3 DUP3 SHL SWAP1 POP SWAP3 SWAP2 POP POP JUMP JUMPDEST PUSH0 PUSH1 0x8 DUP4 MUL PUSH2 0xBEF PUSH32 0xFFFFFFFFFFFFFFFFFFFFFFFFFFFFFFFFFFFFFFFFFFFFFFFFFFFFFFFFFFFFFFFF DUP3 PUSH2 0xBB4 JUMP JUMPDEST PUSH2 0xBF9 DUP7 DUP4 PUSH2 0xBB4 JUMP JUMPDEST SWAP6 POP DUP1 NOT DUP5 AND SWAP4 POP DUP1 DUP7 AND DUP5 OR SWAP3 POP POP POP SWAP4 SWAP3 POP POP POP JUMP JUMPDEST PUSH0 DUP2 SWAP1 POP SWAP2 SWAP1 POP JUMP JUMPDEST PUSH0 PUSH2 0xC34 PUSH2 0xC2F PUSH2 0xC2A DUP5 PUSH2 0x933 JUMP JUMPDEST PUSH2 0xC11 JUMP JUMPDEST PUSH2 0x933 JUMP JUMPDEST SWAP1 POP SWAP2 SWAP1 POP JUMP JUMPDEST PUSH0 DUP2 SWAP1 POP SWAP2 SWAP1 POP JUMP JUMPDEST PUSH2 0xC4D DUP4 PUSH2 0xC1A JUMP JUMPDEST PUSH2 0xC61 PUSH2 0xC59 DUP3 PUSH2 0xC3B JUMP JUMPDEST DUP5 DUP5 SLOAD PUSH2 0xBC0 JUMP JUMPDEST DUP3 SSTORE POP POP POP POP JUMP JUMPDEST PUSH0 SWAP1 JUMP JUMPDEST PUSH2 0xC75 PUSH2 0xC69 JUMP JUMPDEST PUSH2 0xC80 DUP2 DUP5 DUP5 PUSH2 0xC44 JUMP JUMPDEST POP POP POP JUMP JUMPDEST JUMPDEST DUP2 DUP2 LT ISZERO PUSH2 0xCA3 JUMPI PUSH2 0xC98 PUSH0 DUP3 PUSH2 0xC6D JUMP JUMPDEST PUSH1 0x1 DUP2 ADD SWAP1 POP PUSH2 0xC86 JUMP JUMPDEST POP POP JUMP JUMPDEST PUSH1 0x1F DUP3 GT ISZERO PUSH2 0xCE8 JUMPI PUSH2 0xCB9 DUP2 PUSH2 0xB93 JUMP JUMPDEST PUSH2 0xCC2 DUP5 PUSH2 0xBA5 JUMP JUMPDEST DUP2 ADD PUSH1 0x20 DUP6 LT ISZERO PUSH2 0xCD1 JUMPI DUP2 SWAP1 POP JUMPDEST PUSH2 0xCE5 PUSH2 0xCDD DUP6 PUSH2 0xBA5 JUMP JUMPDEST DUP4 ADD DUP3 PUSH2 0xC85 JUMP JUMPDEST POP POP JUMPDEST POP POP POP JUMP JUMPDEST PUSH0 DUP3 DUP3 SHR SWAP1 POP SWAP3 SWAP2 POP POP JUMP JUMPDEST PUSH0 PUSH2 0xD08 PUSH0 NOT DUP5 PUSH1 0x8 MUL PUSH2 0xCED JUMP JUMPDEST NOT DUP1 DUP4 AND SWAP2 POP POP SWAP3 SWAP2 POP POP JUMP JUMPDEST PUSH0 PUSH2 0xD20 DUP4 DUP4 PUSH2 0xCF9 JUMP JUMPDEST SWAP2 POP DUP3 PUSH1 0x2 MUL DUP3 OR SWAP1 POP SWAP3 SWAP2 POP POP JUMP JUMPDEST PUSH2 0xD39 DUP3 PUSH2 0xB2C JUMP JUMPDEST PUSH8 0xFFFFFFFFFFFFFFFF DUP2 GT ISZERO PUSH2 0xD52 JUMPI PUSH2 0xD51 PUSH2 0x7B2 JUMP JUMPDEST JUMPDEST PUSH2 0xD5C DUP3 SLOAD PUSH2 0xB63 JUMP JUMPDEST PUSH2 0xD67 DUP3 DUP3 DUP6 PUSH2 0xCA7 JUMP JUMPDEST PUSH0 PUSH1 0x20 SWAP1 POP PUSH1 0x1F DUP4 GT PUSH1 0x1 DUP2 EQ PUSH2 0xD98 JUMPI PUSH0 DUP5 ISZERO PUSH2 0xD86 JUMPI DUP3 DUP8 ADD MLOAD SWAP1 POP JUMPDEST PUSH2 0xD90 DUP6 DUP3 PUSH2 0xD15 JUMP JUMPDEST DUP7 SSTORE POP PUSH2 0xDF7 JUMP JUMPDEST PUSH1 0x1F NOT DUP5 AND PUSH2 0xDA6 DUP7 PUSH2 0xB93 JUMP JUMPDEST PUSH0 JUMPDEST DUP3 DUP2 LT ISZERO PUSH2 0xDCD JUMPI DUP5 DUP10 ADD MLOAD DUP3 SSTORE PUSH1 0x1 DUP3 ADD SWAP2 POP PUSH1 0x20 DUP6 ADD SWAP5 POP PUSH1 0x20 DUP2 ADD SWAP1 POP PUSH2 0xDA8 JUMP JUMPDEST DUP7 DUP4 LT ISZERO PUSH2 0xDEA JUMPI DUP5 DUP10 ADD MLOAD PUSH2 0xDE6 PUSH1 0x1F DUP10 AND DUP3 PUSH2 0xCF9 JUMP JUMPDEST DUP4 SSTORE POP JUMPDEST PUSH1 0x1 PUSH1 0x2 DUP9 MUL ADD DUP9 SSTORE POP POP POP JUMPDEST POP POP POP POP POP POP JUMP JUMPDEST PUSH32 0x5468652070726F706F73616C206973206E6F7420616374697665000000000000 PUSH0 DUP3 ADD MSTORE POP JUMP JUMPDEST PUSH0 PUSH2 0xE33 PUSH1 0x1A DUP4 PUSH2 0xA54 JUMP JUMPDEST SWAP2 POP PUSH2 0xE3E DUP3 PUSH2 0xDFF JUMP JUMPDEST PUSH1 0x20 DUP3 ADD SWAP1 POP SWAP2 SWAP1 POP JUMP JUMPDEST PUSH0 PUSH1 0x20 DUP3 ADD SWAP1 POP DUP2 DUP2 SUB PUSH0 DUP4 ADD MSTORE PUSH2 0xE60 DUP2 PUSH2 0xE27 JUMP JUMPDEST SWAP1 POP SWAP2 SWAP1 POP JUMP JUMPDEST PUSH0 PUSH2 0xE71 DUP3 PUSH2 0x933 JUMP JUMPDEST SWAP2 POP PUSH2 0xE7C DUP4 PUSH2 0x933 JUMP JUMPDEST SWAP3 POP DUP3 DUP3 SUB SWAP1 POP DUP2 DUP2 GT ISZERO PUSH2 0xE94 JUMPI PUSH2 0xE93 PUSH2 0xACC JUMP JUMPDEST JUMPDEST SWAP3 SWAP2 POP POP JUMP JUMPDEST PUSH32 0x4E487B7100000000000000000000000000000000000000000000000000000000 PUSH0 MSTORE PUSH1 0x12 PUSH1 0x4 MSTORE PUSH1 0x24 PUSH0 REVERT JUMPDEST PUSH0 PUSH2 0xED1 DUP3 PUSH2 0x933 JUMP JUMPDEST SWAP2 POP PUSH2 0xEDC DUP4 PUSH2 0x933 JUMP JUMPDEST SWAP3 POP DUP3 PUSH2 0xEEC JUMPI PUSH2 0xEEB PUSH2 0xE9A JUMP JUMPDEST JUMPDEST DUP3 DUP3 MOD SWAP1 POP SWAP3 SWAP2 POP POP JUMP JUMPDEST PUSH0 PUSH2 0xF01 DUP3 PUSH2 0x933 JUMP JUMPDEST SWAP2 POP PUSH2 0xF0C DUP4 PUSH2 0x933 JUMP JUMPDEST SWAP3 POP DUP3 PUSH2 0xF1C JUMPI PUSH2 0xF1B PUSH2 0xE9A JUMP JUMPDEST JUMPDEST DUP3 DUP3 DIV SWAP1 POP SWAP3 SWAP2 POP POP JUMP INVALID LOG2 PUSH5 0x6970667358 0x22 SLT KECCAK256 0x1E 0xD3 CALLVALUE 0x24 SWAP10 0xB0 PUSH10 0xB7136ED9A794DE866530 SWAP15 MSTORE MSTORE8 0xF7 NUMBER PUSH1 0xF1 EXTCODEHASH 0xA9 PUSH7 0xCB81F152906473 PUSH16 0x6C634300081A00330000000000000000 "
				},
				"gasEstimates": {
					"creation": {
						"codeDepositCost": "786600",
						"executionCost": "73656",
						"totalCost": "860256"
					},
					"external": {
						"create(string,string,uint256)": "infinite",
						"setOwner(address)": "26859",
						"vote(uint8)": "infinite"
					},
					"internal": {
						"calculateCurrentState()": "infinite",
						"isVoted(address)": "infinite"
					}
				},
				"methodIdentifiers": {
					"create(string,string,uint256)": "3ca6d100",
					"setOwner(address)": "13af4035",
					"vote(uint8)": "b3f98adc"
				}
			},
			"storageLayout": {
				"storage": [
					{
						"astId": 3,
						"contract": "proposal/ProposalContract.sol:ProposalContract",
						"label": "owner",
						"offset": 0,
						"slot": "0",
						"type": "t_address"
					},
					{
						"astId": 5,
						"contract": "proposal/ProposalContract.sol:ProposalContract",
						"label": "counter",
						"offset": 0,
						"slot": "1",
						"type": "t_uint256"
					},
					{
						"astId": 8,
						"contract": "proposal/ProposalContract.sol:ProposalContract",
						"label": "voted_addresses",
						"offset": 0,
						"slot": "2",
						"type": "t_array(t_address)dyn_storage"
					},
					{
						"astId": 30,
						"contract": "proposal/ProposalContract.sol:ProposalContract",
						"label": "proposal_history",
						"offset": 0,
						"slot": "3",
						"type": "t_mapping(t_uint256,t_struct(Proposal)25_storage)"
					}
				],
				"types": {
					"t_address": {
						"encoding": "inplace",
						"label": "address",
						"numberOfBytes": "20"
					},
					"t_array(t_address)dyn_storage": {
						"base": "t_address",
						"encoding": "dynamic_array",
						"label": "address[]",
						"numberOfBytes": "32"
					},
					"t_bool": {
						"encoding": "inplace",
						"label": "bool",
						"numberOfBytes": "1"
					},
					"t_mapping(t_uint256,t_struct(Proposal)25_storage)": {
						"encoding": "mapping",
						"key": "t_uint256",
						"label": "mapping(uint256 => struct ProposalContract.Proposal)",
						"numberOfBytes": "32",
						"value": "t_struct(Proposal)25_storage"
					},
					"t_string_storage": {
						"encoding": "bytes",
						"label": "string",
						"numberOfBytes": "32"
					},
					"t_struct(Proposal)25_storage": {
						"encoding": "inplace",
						"label": "struct ProposalContract.Proposal",
						"members": [
							{
								"astId": 10,
								"contract": "proposal/ProposalContract.sol:ProposalContract",
								"label": "title",
								"offset": 0,
								"slot": "0",
								"type": "t_string_storage"
							},
							{
								"astId": 12,
								"contract": "proposal/ProposalContract.sol:ProposalContract",
								"label": "description",
								"offset": 0,
								"slot": "1",
								"type": "t_string_storage"
							},
							{
								"astId": 14,
								"contract": "proposal/ProposalContract.sol:ProposalContract",
								"label": "approve",
								"offset": 0,
								"slot": "2",
								"type": "t_uint256"
							},
							{
								"astId": 16,
								"contract": "proposal/ProposalContract.sol:ProposalContract",
								"label": "reject",
								"offset": 0,
								"slot": "3",
								"type": "t_uint256"
							},
							{
								"astId": 18,
								"contract": "proposal/ProposalContract.sol:ProposalContract",
								"label": "pass",
								"offset": 0,
								"slot": "4",
								"type": "t_uint256"
							},
							{
								"astId": 20,
								"contract": "proposal/ProposalContract.sol:ProposalContract",
								"label": "total_vote_to_end",
								"offset": 0,
								"slot": "5",
								"type": "t_uint256"
							},
							{
								"astId": 22,
								"contract": "proposal/ProposalContract.sol:ProposalContract",
								"label": "current_state",
								"offset": 0,
								"slot": "6",
								"type": "t_bool"
							},
							{
								"astId": 24,
								"contract": "proposal/ProposalContract.sol:ProposalContract",
								"label": "is_active",
								"offset": 1,
								"slot": "6",
								"type": "t_bool"
							}
						],
						"numberOfBytes": "224"
					},
					"t_uint256": {
						"encoding": "inplace",
						"label": "uint256",
						"numberOfBytes": "32"
					}
				}
			},
			"userdoc": {
				"kind": "user",
				"methods": {},
				"version": 1
			}
		}
	}
}